:020000040800F2
:10000000903C0020CD9100088D9000088F90000852
:1000100091900008939000089590000815920008B0
:10002000000000000000000000000000157B000838
:100030009790000800000000D17A0008D948000815
:10004000199200081D9200082192000825920008CC
:10005000299200082D92000831920008359200087C
:10006000399200083D92000841920008459200082C
:10007000499200084D9200085192000855920008DC
:10008000599200085D92000861920008659200088C
:10009000699200086D92000871920008759200083C
:1000A000799200087D9200088192000885920008EC
:1000B00089920008999000088D920008919200089A
:1000C00095920008999200089D920008A19200085C
:1000D000A5920008A9920008AD9200089F90000820
:1000E000A1900008B1920008B5920008B9920008EA
:1000F000BD920008C1920008C5920008C99200088C
:10010000CD920008D1920008D5920008D99200083B
:10011000DD920008E1920008E5920008E9920008EB
:10012000ED920008F1920008F5920008F99200089B
:10013000FD9200080193000805930008A9900008AB
:10014000099300080D930008AF9000081193000870
:1001500015930008199300081D93000821930008C7
:1001600025930008299300082D9300083193000877
:1001700035930008000000003993000800000000DB
:100180003D930008419300084593000849930008F7
:100190004D930008519300085593000859930008A7
:1001A0005D93000861930008659300086993000857
:1001B0006D9300080000000071930008759300081B
:1001C00079930008000000007D93000881930008E7
:1001D00085930008899300088D9300089193000887
:1001E00095930008999300089D930008A193000837
:1001F000000000002DE9F14FB0B0924604910DF1DE
:1002000042013A9A2B9199464A7000200AE01AF866
:10021000011B0498309A90470028049000F06B86E8
:100220000D98401C0D909AF8000050B12528EED191
:10023000002100220791089209910A920B910C92D9
:1002400004E00D9800F059BE41F001011AF8010FC9
:100250002028F9D023280CD02B2804D02D2805D015
:10026000302809D00BE041F00201EFE741F0040132
:10027000ECE741F00801E9E741F01001E6E72A2840
:100280000FD1D9F8002052F8040BC9F8002000283B
:100290000F9003D540420F9041F004010AF1010A8A
:1002A00014E00F92DFF8583C0AE00F98984205DA04
:1002B00000EB800402EB4402303A0F920AF1010A8B
:1002C0009AF80020A2F130000A28EED39AF8000034
:1002D0002E2803D04FF0FF320E9229E01AF8010FBA
:1002E0002A2809D1D9F8000050F8042BC9F80000D9
:1002F0000E920AF1010A1BE02D280CBF0AF1010A37
:10030000002000220E92DFF8F84B0BE040B90E9A65
:10031000A24205DA02EB820503EB4503303B0E9364
:100320000AF1010A9AF80030A3F130020A2AEDD34B
:10033000ADF840100FF6CC309AF8001000F0F6FE41
:1003400008B11AF8010B8DF842009DF842006828A8
:1003500005D19AF8000068280CD1622106E06C28CB
:1003600004BF9AF800006C2804D171218DF8421066
:100370000AF1010A12A806901AF801BBBBF1250187
:100380002CD01C3900F0D781091F022940F2D381FB
:10039000133900F0E284093900F0CD81891E00F0A4
:1003A0007785491E00F02485491E022940F2C38149
:1003B000091F00F01D85491F00F03281491E00F021
:1003C000CC84491E00F0D880C91E0DD0891E00F0D3
:1003D000C484C91E00F0C18400F065BD25238DF8DA
:1003E0004830012100F06ABDD9F8000050F8044BF4
:1003F000C9F80000002C059440F0AB802B99487898
:10040000002800F0A1804FF0FF340FF6003000F01C
:1004100099FE201A40F06F8500F051BD01236A4615
:1004200002A9304600F042FE002840F064856D1EAF
:10043000F4D13096079D12AF75B1309E17F8012B9D
:1004400002A9304600F022FE002801D46D1EF5D12D
:100450000028309640F04F850A9D3020002D8DF801
:1004600000000CDD309E01236A4602A9304600F0F0
:100470001DFE002840F03F856D1EF4D13096059F8B
:10048000089D75B1309E17F8012B02A9304600F087
:10049000FDFD002801D46D1EF5D10028309640F0F6
:1004A0002A850B9D3020002D8DF800000CDD309E3C
:1004B00001236A4602A9304600F0F8FD002840F00A
:1004C0001A856D1EF4D1309605980899099D471834
:1004D00075B1309E17F8012B02A9304600F0D6FD09
:1004E000002801D46D1EF5D10028309640F0038518
:1004F0000C9D3020002D8DF800000CDD309E012376
:100500006A4602A9304600F0D1FD002840F0F3848D
:100510006D1EF4D130969DF8400041077FF583AE03
:100520002020002C8DF800007FF77DAE309D012348
:100530006A4602A9284600F0B9FD002840F0DB8495
:10054000641EF4D130956EE60FF6C030059000F0D1
:10055000B6BC0E9D002D04D5204600F013FE0446C7
:1005600007E02A46204600F029FE002814BF041B9D
:100570002C46089400F0A3BCD9F8001051F8040BE5
:10058000C9F8001020F00004002121F0FF3512AB63
:10059000CDE902450593DDE9022306993C2413B910
:1005A0000AB90E98A8B102F00F053035641EEEB2FC
:1005B0003A2E08DA120942EA03721B090D5508BFE8
:1005C000002A02D105E02735F4E705980D19A84265
:1005D000E9D308190590C4F13C020E9808928242B2
:1005E0000ADABDF84010821A4FF6EF7001400A9205
:1005F000ADF8401000F063BC002840F160849DF825
:10060000400000F01400102840F059840F9B079917
:100610000A985B1A1B1A9A1A002A40F350849AE32C
:100620002B99487820B14FF0FF340FF6B020EEE65A
:100630009DF84200622860D0682817D06A283FD011
:100640006C2806D0712847D074282CD07A281DD069
:1006500062E0D9F8001051F8040BC9F80010002826
:1006600066D14FF0FF340FF68C20D0E6D9F8001099
:1006700051F8040BC9F8001020B94FF0FF340FF601
:100680007420C4E60D99018000F019BCD9F800105F
:1006900051F8040BC9F80010002849D14FF0FF347D
:1006A0000FF65020B3E6D9F8001051F8040BC9F842
:1006B000001000283CD14FF0FF340FF63820A6E69A
:1006C000D9F8001051F8040BC9F8001080B94FF0A8
:1006D000FF340FF620209AE6D9F8001051F8040BE9
:1006E000C9F8001020B94FF0FF340FF608208EE64D
:1006F0000D9AD317C0E90023E1E3D9F8001051F8AF
:10070000040BC9F8001020B94FF0FF340FF6E410C5
:100710007DE60D990170D2E3D9F8001051F8040B71
:10072000C9F8001020B94FF0FF340FF6C8106EE67C
:100730000D990160C3E3D9F80020D21D22F0070211
:10074000C9F80020D2E900010832C9F80020CDE93B
:100750000201C80F02D007982D210AE0BDF8400021
:10076000810702D507982B2103E0C00705D507981C
:10077000202112AA1154401C079012A80799DDE904
:10078000024543184BF020006128059321AE0BD0A1
:100790000E98002802D506200E9005E001BF4BF010
:1007A0002000672801210E91DDE902014800401573
:1007B000401C0A460DD109030BD0ABF161070320A1
:1007C0001A2F089002D20FF648110DE00FF64411CF
:1007D0000AE070B912030CD1ABF1610703201A2FA4
:1007E00008901CD30FF634110322184600F012FDB6
:1007F00065E3DDE902016A4600F018FDCDE902017A
:100800004BF02000612811D1059830210170821C25
:10081000BBF1610F05920CBF7821582102E00FF661
:10082000F801E1E741700798801C0790DDE90201BB
:1008300020F0000231F0004308BF002A02D1002559
:10084000002445E14BF02008B8F1610F40F095809D
:100850000E98002847BF21210191401C0190019F63
:100860007F1C2046294600220023DDE9024500F0D6
:1008700015FD00998DF8842038BF85F00045091FCB
:10088000002F00910DF1850034DD064620462946F3
:100890000022002300F01CFD2BD21C2200F032FDB0
:1008A00004460D4600F0CCFDFF1F002F804609DDF9
:1008B00000F0E2FD02460B462046294600F0ACFE61
:1008C00004460D46F01D0721B8F1000F0CDD491E4E
:1008D0005EBF08F00F0200F8012D4FEA2818F3D58B
:1008E00002E0002200F8012D491EFAD5C61D002F96
:1008F000CCDC30460DF18501401A0199054688424D
:10090000C8BF0D46002D0DF185062FD4854206DAAD
:100910000DF18500415D0829A8BF0F2000DA0020F5
:10092000294621AA0A4400E06D1E12F80139491E29
:100930008342F9D00F2804D10DF18500425C521C8E
:100940004254002904D50098001D21AE6D1C009072
:10095000681E0BD431180A783032D3B23A2BA4BFB8
:100960005A443A3A401E01F80129F4D50E9800285D
:1009700040F1AD80691E0E91A9E00099DFF8FC26D8
:1009800047F29750414391FBF2F2009225F0004567
:10099000C2F10702002A04DD2046294600F04AFB86
:1009A0000BE052420020DFF8D81600F043FB02466D
:1009B0000B462046294600F0A1FE0446B8F1660F1A
:1009C0000E9806BF009F0A3706273F18142FC8BF8E
:1009D000142730208DF884000D460DF1850000E0CD
:1009E0003046002F35DD06462046294600F0AAFF96
:1009F00001460A4606F1080304200A26B2FBF6F671
:100A000006EB860EA2EB4E02303203F8012C0A22CE
:100A1000B6FBF2F202EB820EA6EB4E063036401E1B
:100A200003F8026DE9D1083F002F03F10806D7DD76
:100A3000084600F099FF02460B462046294600F082
:100A4000EBFD0022DFF83C3600F09CFF04460D462B
:100A5000CAE70DF18501401A0DF1850604E0009901
:100A6000491E401E0091761C31783029F7D0B8F12C
:100A7000660F02D10099491C04E0B8F1650F0CBF64
:100A8000012100210E9D4D19A842B8BF451E002D21
:100A90001DD4854204DA705D3428C8BF392000DCDB
:100AA00030202946721E531800E06D1E13F80149CC
:100AB000491E8442F9D0392802D1705C401C705420
:100AC000002904D50098401C16466D1C0090009C1F
:100AD00001F02EF8406A0778DDF8388028B2002847
:100AE00002DC01250FF238664BF02000662808BFB3
:100AF000641C16D0672846D120B210F1040F48DBE1
:100B0000404546DA9DF84000641C010703D428B232
:100B10004045D8BF804620B2B8EB000848BF4FF030
:100B200000080FFA84FBBBF1000F00F3B5800898B2
:100B3000411C0891302205990A54B8F1000F03DCDA
:100B40009DF84000010704D50898411C08910599BB
:100B50000F5418EB0B0FB8BFC8F1000424B2604269
:100B60000B90A0442AB29045B8BF4546059B089813
:100B70002DB209952A463146184400F04BFBA8EBEC
:100B800005000C90D2E0BBF1610F17D14FF0700B54
:100B900019E028B2404504DA9DF840100A0758BF12
:100BA0008046B8F1010848BF4FF00008BBF1670F5D
:100BB00014BF4FF0450B4FF0650B04E0BBF1410F44
:100BC00008BF4FF0500B0898411C0891B8F1000F76
:100BD000059916F8012B0A5403DC9DF84000010723
:100BE0001AD50898411C0891B8F1000F05990F54C7
:100BF00012DD6D1E28B280450598089BB8BF45469A
:100C00002AB23146184400F005FB08992DB2691844
:100C10000891A8EB05000B9005980899084421B2AB
:100C2000002980F800B003D42B224270821C04E01B
:100C30002D2242700C46821C644200212CAB2046BF
:100C40000AE004460A2094FBF0F000EB8005A4EBD8
:100C5000450403F8014B491C00B20028F1DC0129CE
:100C600006DC4BF02000652804BF302002F8010BA1
:100C700000292CAB08D1302002F8010B06E0491EF8
:100C8000585C303002F8010B0029F8DC059908980F
:100C90000844121A099249E028B221B288421CDAAB
:100CA0000598089B2AB23146184400F0B3FA089917
:100CB0002DB269180891ABEB0500B8F1000F0B904D
:100CC00003DC9DF84000020704D5059847540999B4
:100CD000491C0991CDF8308028E00598089B22B284
:100CE0003146184400F096FA08982D1B5844B8F184
:100CF000000F089003DC9DF840100A0703D5411C43
:100D0000089105990F5428B280450598089BB8BFF3
:100D100045462AB206EB0B01184400F07BFA08980E
:100D20002DB228180890A8EB05000B909DF8400004
:100D300000F01400102840F0C280079A08990B9820
:100D40008A18099982180C988A1882180F9882427A
:100D500080F2B580821A0A92B1E09DF842006228C2
:100D600008D068280ED06A2814D06C281FD07128AB
:100D700010D01CE0D9F8001051F8040BC9F800108D
:100D8000C0B21AE0D9F8001051F8040BC9F80010ED
:100D900080B212E0D9F80020D21D22F00702C9F873
:100DA0000020D2E900010832C9F8002006E0D9F895
:100DB000001051F8040BC9F800100021CDE9020120
:100DC0009DF8400001075AD5DDE90223002B08BF3A
:100DD000002A54D04BF02000782850D1079812A94F
:100DE00030220A54401C431C079301F800B046E02F
:100DF0009DF84200622808D068280ED06A2814D0D6
:100E00006C281FD0712810D01CE0D9F8001051F8C0
:100E1000040BC9F8001040B21AE0D9F8001051F8DC
:100E2000040BC9F8001000B212E0D9F80020D21D5E
:100E300022F00702C9F80020D2E900010832C9F8FF
:100E4000002006E0D9F8001051F8040BC9F8001092
:100E5000C117CDE90201002902D507982D210AE02A
:100E6000BDF84000810702D507982B2103E0C00799
:100E700005D50798202112AA1154401C079012A8EA
:100E800007990144059102A8594600F04DF816E073
:100E900001200790D9F8000050F8041BC9F80000A1
:100EA0008DF848100BE025210122BBF1000F8DF8D1
:100EB0004810079203D08DF849B0022107910F9A8C
:100EC00007980A990C9C121A0898521A0B99121A30
:100ED0000998521A121A9DF84000141B41073FF559
:100EE000A9AA2020002C8DF800007FF7A3AA309E2D
:100EF0002546FFF793BA4FF0FF3031B0BDE8F08FD1
:100F0000CBCCCC0C686A6C747A4C00007072696E41
:100F100074665F733A206261642025732061726792
:100F2000756D656E740000002DE9FC4304466F2961
:100F3000256908BF082605D041F02000782814BF95
:100F40000A2610263C27D4E90023642918BF692902
:100F50009046994605D1002B03D5D8F1000869EBDE
:100F60004909B9F1000F08BFB8F1000F0CD1206B8F
:100F700050B9082E3AD194F83800010736D5302000
:100F80003B2785F83B0031E08DF80010404649468C
:100F90003246F31700F0D0FD3032D0B27F1E3A282F
:100FA00001970EDAEA55404649463246F31700F0FB
:100FB000C3FD80465FEA010908BFB8F1000F05D103
:100FC00008E09DF800001218513AEBE7E068E919D3
:100FD0008842DBD3082E09D194F83800010705D5E3
:100FE000E85D302802D07F1E3020E855C7F13C0272
:100FF000A261E919E160206B824208DA821A22625A
:101000004FF6EF70218F01402187BDE8F383002860
:101010000ED594F8380000F01400102808D1636B46
:101020006169206A5B1A1B1A9A1A002AC8BF2262D9
:10103000BDE8F3832DE9D04306460F4614464FF032
:101040000008DFF8449012E0E00707D542464B461F
:101050003046394600F096FC06460F464046494663
:1010600042464B4600F08EFC641080468946002CB8
:10107000EAD130463946BDE8D0830000A0860100A1
:101080000000F03F84D797410000244010B503468C
:101090000C461146A0689847A06020B1E06A401C49
:1010A000E062002010BD4FF0FF3010BDF8B50546DE
:1010B0000E4617461C4600205CB117F8011BB068AD
:1010C000A847B06030B1F06A401CF0620020641E96
:1010D000F3D1F2BD4FF0FF30F2BD00007072696EC7
:1010E00074665F733A20256E20646973616C6C6F5F
:1010F000776564007072696E74663A20626164207C
:10110000256E20617267756D656E740000000000C9
:101110006E616E004E414E00696E6600494E46009B
:1011200030000268531C036011707047C9B2027826
:101130008A421AB11CBF10F8012FF9E718BF00202E
:1011400070472E0080B500B906A005490B681BB199
:1011500022220021984701E000F071FD222002BD0B
:1011600080380020636F6E73747261696E742068DA
:10117000616E646C65723A20626164206D657373A0
:101180006167650000F10103810704D010F8011BBD
:10119000820781B1FAD10268A2F10131914311F0C5
:1011A000803104BF50F8042FF6E709BAB1FA81F193
:1011B00000EBD100401CC01A70470000C9B2830781
:1011C00006D0521E22D310F8013B9942F7D11FE0FE
:1011D000083A13D302F1040241EA012141EA014134
:1011E00050F8043B121F21BF4B40A3F1013C2CEAF5
:1011F000030C1CF0803FF3D0C9B2001F083210F876
:10120000013B521E28BF91EA030FF8D818BF0120F6
:10121000401E70474AB1000011F8013B521E00F811
:10122000013B1CBF11F8013BF8E7704710B51446AD
:1012300000F002F8226010BDC1F30A5343B14A0026
:1012400012F5001F28D2A3F2FE32A1EB0251704723
:1012500050EA410C20D001F0004C31EA0C01B1FA07
:1012600081F204BFB0FA80F3D2180B3AB2F1200336
:101270002CBF00FA03F1914041EA0C013EBFC2F1DC
:10128000200C20FA0CF319439040524240F2FD33F7
:10129000D21A01EB035170470022704741EA030C58
:1012A00050EA4C0C52EA0C0C4FF4001C09D307D046
:1012B0001CEB410F9CBF1CEB430F8B4208BF8242CB
:1012C00070471CEB430FFBD8994208BF9042704710
:1012D00041EA030C50EA4C0C52EA0C0C4FF4001C8F
:1012E00009D307D01CEB410F9CBF1CEB430F994265
:1012F00008BF904270471CEB410FFBD88B4208BFE0
:1013000082427047124254D440F2FF7C1CEA1153CF
:101310000FD0634531D09B1863453CBF01EB0251B0
:10132000704701F0004141EA0C510020AFF300800A
:10133000704750EA410320D001F0004C91EA0C01C3
:101340001CD0B1FA81F30B3B9A420DD9D21A9940C5
:1013500051EA0C01C3F1200C20FA0CFC61449840C6
:10136000531C40F2FF7CD7E7914041EA0C01C2F1E7
:10137000200C20FA0CF3194390407047B0FA80F328
:101380001533202BE0D3202AEED3203A203B9A427B
:1013900009D9D21A00FA03F141EA0C010020531CCA
:1013A00040F2FF7CB8E700FA02F141EA0C010020AC
:1013B0007047524240F2FF7C1CEA11530DD0634546
:1013C000DBD0B2EB030C3CBFA1EB025170470CF138
:1013D000010221EA035141F4801150EA410CCCD0C2
:1013E00001F0004C352A27DC30B481EA0C01B2F15F
:1013F000200309DAC2F12003044601FA03F5D040C4
:101400002843D1409C400CE0C3F12002450020FA63
:1014100003F418BF44F0010421FA03F091400C4397
:10142000002174F1004550F1000051EB0C01244201
:1014300030BC7FF47BAF70476146002076E7000048
:10144000C1F30A5340F21E42D31A0CDDCA0283F3E1
:10145000070342EA505242F00042DA4002EBE172E6
:1014600082EAE17070476FEAE17203F2E13008B19D
:1014700082F000407047000010F0004160B148BFAA
:101480004042B0FA80F29040D21CC2F5846241EA38
:10149000025202EBD02140057047000070B491EA7F
:1014A000030F4FF0004540F1BF806B40841A71EB91
:1014B000030604D26E40001BB141121973414FF470
:1014C000001C1CEB410F34BF7CEB430683E00C0D8A
:1014D000A4EB1356362E00F37C80012E45EAC3237D
:1014E00041DC43EA525312BFD20292025B08240548
:1014F00045EAC12141EA5051D2EBC020994125D49F
:1015000007D1B0FA80F610FA06F162D0002020363A
:1015100008E0B1FA81F6B140C6F1200220FA02F2E9
:101520001143B0404FEAF474B4EB465434F0010672
:101530004FEA74040AD8D6F50016760D04F000447C
:10154000F04061FA06F25040F1404840C00A40EADB
:10155000415021F0004128BF5FEA500550F10000E2
:1015600044EBD12135E0DB0A45EAC121C90AB6F1D5
:1015700020050EDD42EA0242120CC5F1200603FAF4
:1015800006F6EB4042EA06056D42984161F1000122
:101590000DE062FA06F5F240554063FA06FC82EA75
:1015A0000C02F3405A406D42904161EB030111F48B
:1015B000801F05D1641E620502D06D004041494183
:1015C00021F48011430875F1004350F1000041EB14
:1015D000045170BC70471CEB410F15D223F000433F
:1015E00052EA43060BD04FEA4C0CBCEB410F04D837
:1015F0000C0D661E342EB7DDEBE7801A994150EAD8
:10160000410608BF0021E4E708BF1CEB430F28BFD9
:101610006FF00001DDE7000070B491EA030F4FF0B6
:1016200000457FF543AF6B40841A71EB030603D28C
:10163000001BB141121973414FF4001C1CEB410F08
:1016400034BF7CEB430442E00C0DA4EB1356352E63
:101650004FDC45EAC323DB0A45EAC121C912B6F1D2
:1016600020050DDD63FA05F6EB4086EA030512421C
:1016700018BF45F00105C01851F100010CD213E06C
:1016800062FA06F5F2405540F3415A40B340F34048
:101690005A408018594107D349085FEA30005FEA91
:1016A000350528BF45F0010501F58011420875F1A7
:1016B000004250F1000041EB04514E0016F5001FAE
:1016C00070BC38BF70470020090D090570471CEB3E
:1016D000410F10D252EA43060BD0BCEB410F05D8A4
:1016E0000C0DAB43661E342EB6DD02E0AB43801812
:1016F000594170BC704770BC70470000F0B540F2B3
:10170000FF7581EA030C0CF0004C15EA11541DBF63
:1017100015EA1357AC42AF42E5E0BC41C1F31301F7
:10172000C3F31303801A994143F4801304D2641E57
:101730000018494180185941C90241EA5051B1FB92
:10174000F3F603FB1611A2FB0675D7EBC020A941E7
:1017500002D2761E80185941C90241EA5051B1FBAC
:10176000F3FE03FB1E11A2FB0E75D7EBC020A941AF
:1017700003D2AEF1010E80185941890241EA90511D
:10178000760546EA8E2EB1FBF3F603FB1611A2FB9B
:101790000675D7EB8020A94102D2761E80185941E8
:1017A000C90241EA50514EEA060EB1FBF3F603FBC3
:1017B0001611A2FB0675D7EBC020A94102D2761EF6
:1017C00080185941C90241EA5051B1FBF3F703FBBC
:1017D0001711A2FB0735D3EBC020A94167F1000721
:1017E0000CBF004247F0010766F3D5274FEA1E31D0
:1017F000B80814F5806412DDBD0775F1004250EBA6
:101800000E5051EB045111F5801F5CBF41EA0C01F1
:10181000F0BD4CF07F6141F0E0410020F0BDBD071C
:101820006D0840EA0E5041F48011D4F10104B4F186
:1018300020060ADAC4F120060200E04001FA06F3AD
:10184000E1401843B24015430EE0342C13DCC6F1DE
:10185000200445EA40056D0820FA06F2154321FAF6
:1018600006F0A1400D43002175F1004250F1000047
:1018700051EB0C01F0BD00205FEA0C01F0BDCFB9C7
:1018800092185B41B3FA83F704BFB2FA82F6BF192C
:101890000B3FB7F120062FBF02FA06F3BB40C7F19A
:1018A000200622FA06F638BF3343BA401CB1E419C9
:1018B000641E33E77F4231F00041B1FA81F404BF86
:1018C000B0FA80F6A4190B3CB4F120062FBF00FA41
:1018D00006F1A140C4F1200620FA06F638BF3143D4
:1018E000A0403C1B1AE7AC421ABF05EA1357AF42AF
:1018F00012E050EA41061CBF52EA4306BFE750EA35
:101900004107304661461CBF41EA0551F0BD52EA2D
:10191000430C08BFC143F0BD00204FF4001616EB86
:10192000410F98BF16EB430F08BF16EB410F24BFC2
:10193000C14305E016EB430F0CBF61464CEA05516D
:10194000F0BD0000400D40F21E4C40EAC120BCEB4F
:10195000115C40F0004003D48CF30701C84070478D
:101960006FEAE1707047000050B1B0FA80F1884032
:10197000C91CC1F58461090501EBD0214005704700
:101980000146704730B540F2FF7C1CEA11541DBF80
:101990001CEA1355644565453FE0641981EA030C70
:1019A0006FF35F530CF0004C43F48013C90241F015
:1019B000004141EA505EC5021100A5FB0202002869
:1019C0004FF00000EEFB01204FF00001E3FB05218A
:1019D00018BF42F00102401800214941E3FB0E010B
:1019E000A4F580640D0302D292184041494154F19C
:1019F000010470DD450872F1004250F1000051EB26
:101A00000451A1F5801102D441EA0C0130BD40F22D
:101A1000FF7E4CEA0E51002030BD0CEA13556445A0
:101A200018BF654581EA030C0CF0004C41D050EA28
:101A3000410E1CBF52EA430E02E06146002030BD59
:101A400024422C441BD15FEA050EF6D0090302BFE5
:101A500001460020AEF1140EB1FA81F5AEEB05049B
:101A600001FA05FE0C35C5F1200100FA05F5C84064
:101A70004EEA000E6FF35F5343F480139CE733F09C
:101A80000043B3FA83F504BFB2FA82FE75440B3DFE
:101A9000641BB5F1200E2FBF02FA0EF3AB40C5F167
:101AA000200E22FA0EFE38BF43EA0E03AA40641C41
:101AB0007CE750EA410E14BF52EA430E6FF000017A
:101AC0004FF4001515EB430F8EBF194615EB410F70
:101AD0009DE7B4D830BDD4F10104B4F120050FDA8C
:101AE000C4F12005520828BF42F0010210FA05FE99
:101AF00001FA05F57244E2BFE0402843E1400FE0FF
:101B0000352C9ADCC5F1200452EA400220FA05F295
:101B100018BF42F0010231FA05F0A1400A4300214A
:101B200072F1004250F1000051EB0C0130BD000099
:101B30000048704738020020D3BBD9B1B2F5803FCE
:101B40005BD2022A1ED98C46B1FBF2F102FB11C313
:101B50001B0443EA1043B3FBF2FC02FB1C3380B2CC
:101B600040EA0343B3FBF2F002FB103240EA0C40C0
:101B700000237047022A05D98446B0FBF2F002FB2D
:101B800010C270474AB105D100F0010249085FEA6E
:101B90003000704700220023704700F053B80B005C
:101BA0000200002100207047F7D300220023704775
:101BB000904271EB030CF2D370B5B1FA81F4B3FA31
:101BC00083F52C1BA340C4F1200532FA05F63343FC
:101BD000A2405FF00046E64002E05B085FEA3202A6
:101BE000841A71EB030524BF204629467641F4D3BD
:101BF00002000B003000002170BD70B5B1FA81F415
:101C0000B2FA82F5C4F120046419B4F12006DAD3E3
:101C1000B2405FF00044F440002502E052085FEA61
:101C20003303C61A71EB020E24BF3046714664417D
:101C30006D41F3D302000B002000290070BD01208C
:101C400000F002B87047000080B5AFF30080024A90
:101C500011001820ABBEFBE72600020038B50400D7
:101C600009D004F18005696809B900F01EF800F098
:101C700021F8012801D1012032BDA06A08B100F08D
:101C80002AF800F00AF821F02A01FFE7816000F04D
:101C90001BF8BDE8324000F043BB2068416821F4E6
:101CA000904141602068816870470020287020467C
:101CB00000F08FBE2421696020680268520852003B
:101CC0000260204600F07AB92068016841F0010105
:101CD000016020467047204600F0BFBA38B500F1D9
:101CE00080039C68202C0DD109B1140001D1012082
:101CF00032BD1C78012C05D000F006F8BDE8384054
:101D000000F080BB022032BD01251D700023C36698
:101D10000368DFF83045A34207D05B681C0204D596
:101D200003681D6845F080651D607047816821F07B
:101D3000400181607047206881684A0670472DE93C
:101D4000F0410446236840F60F0204F15C05DE69A9
:101D5000D3F800C09F6832400CF0200006F020014C
:101D60000DD1002913D010B9F80040F188806969BD
:101D7000002900F020812046BDE8F0410847DFF847
:101D80008427174204BFDFF880E71CEA0E0F76D0E5
:101D90005FEAC67E48BF5FEACC5807D54FF0010E18
:101DA000C3F820E02B6B43F001032B63B3070AD584
:101DB000FB0708D5D4F800800223C8F820302B6B2D
:101DC00043F004032B6373070AD5FB0708D5D4F847
:101DD00000800423C8F820302B6B43F002032B63F0
:101DE00033070AD5002808BF174206D02368082207
:101DF0001A622A6B42F008022A63320548BF5FEA82
:101E00004C1307D526684FF4006232622A6B42F009
:101E100020022A632A6B002A30D031B108B9F800B9
:101E200003D5696909B120468847286B21688A680B
:101E3000510602D410F0280F1BD0204600F047FBBB
:101E4000FFF779FF10D5FFF771FF286A60B10FF235
:101E5000BD610164286A00F0BBFF00280ED0286A2B
:101E6000016CBDE8F04108472046BDE8F04101F0B3
:101E7000D3B8204601F0D0F8002028639BE0286901
:101E8000012859D1F00648BF5FEACC6154D5102033
:101E900018622168886841062AD5296A086840685E
:101EA00080B20028EAD02A889042E7DA6880086881
:101EB00001688A0618D42068016821F480710160E5
:101EC000206881684908490081602068FFF72EFF7B
:101ED0002020E862002129612068026822F01002B7
:101EE0000260286A00F041FF29886888091A1DE00D
:101EF0002A8869886888511A00281CBF88B200287F
:101F000059D02068026822F4907202602268DFF8DB
:101F100038039668064096602022EA620020286115
:101F200068612068036823F010030360204689B2CB
:101F3000BDE8F04101F071B8F00209D5790207D58A
:101F40004FF4801018622046BDE8F04101F066B8F9
:101F500030060AD55FEA0C6101D4380205D5A969BB
:101F600049B32046BDE8F0410847700648BF5FEA24
:101F70004C610CD51A68202022F040021A60A86239
:101F80000022AA612046BDE8F04101F0CBB8300242
:101F900048BF5FEA4C0104D52046BDE8F04101F09E
:101FA000C2B8F00148BFBCF1000F04D52046BDE81F
:101FB000F04101F0B9B8BDE8F0810000F8B5044681
:101FC0002268DFF8E80700251368A168DFF8E0E77A
:101FD000034020690B4361690343E0690B43DFF869
:101FE000D477034313605168E06821F44051014302
:101FF000516094498A42A3691CBF206A03439668D2
:10200000DFF8B407064033439360D36A606A0FF287
:10201000D0761B0940EA0313DFF8A0077245D362AC
:102020004FF400433BD13F6807F00307032F44D828
:10203000DFE807F00289789D4FF0010CE1694FF667
:10204000F077B1F5004F40F0C880BCF1000F0FD021
:10205000BCF1010F00F0B980BCF1020F0CD0BCF153
:10206000040F00F0B580BCF1080F00F0B480DDE093
:1020700001F036FC002811D000F0E8F84A0802EB25
:102080004002B2FBF1F080B2A0F11001B942EED2F1
:102090000740C0F3420007432068C760C7E0DFF88D
:1020A00020C762452FD13F6817F00C0771D0042F6D
:1020B00049D0082F36D00C2F59D04FF0100C8A423F
:1020C000BCD1BCF1000F0CD0BCF1010F63D0BCF14E
:1020D000020F0AD0BCF1040F60D0BCF1080F60D031
:1020E000A4E001F0FDFB0028D8D0616A36F8112089
:1020F000B0FBF2F6626802EB42018E4202D3130398
:10210000B34250D292E0DFF8BCC662450DD13F68C1
:1021100017F030073DD0102F15D0202F02D0302FD0
:1021200025D0CAE74FF0020CC9E7DFF89CC662452C
:102130000CD13F6817F0C0072BD0402F03D0802F61
:10214000F0D0C02FECE74FF0040CB8E7DFF87CC606
:1021500062450FD13F6817F440771AD0B7F5807FFA
:10216000F1D0B7F5007FDDD0B7F5407FA5D14FF0B6
:10217000080CA4E78A42A0D13F6817F4406708D052
:10218000B7F5806FDFD0B7F5006FCBD0B7F5406FF4
:10219000C6E7AC4693E701F0ADFBA4E701F04CFBCA
:1021A000A1E71846A1E75008002110EB0620DFF850
:1021B000207651EB16610023FFF7BEFCA0F54076B8
:1021C000BE4233D22168C86031E001F093FB51E791
:1021D00001F032FB4EE718464EE7BCF1000F0CD081
:1021E000BCF1010F1AD0BCF1020F09D0BCF1040FF1
:1021F00017D0BCF1080F17D018E001F071FBB0B197
:1022000000F024F800EB5100B0FBF1F080B2A0F137
:102210001001B9420AD22268D06008E001F06AFBDE
:10222000EDE701F009FBEAE71846E9E7012504F1CB
:10223000680001210023418001808360C36028463B
:10224000F2BD000000800040FEFFFFEF626A61689F
:1022500036F81230B0FBF3F0704790F82810CA0738
:1022600006D502685368C16A23F400330B435360F8
:1022700090F828108A0706D502685368016B23F48A
:1022800080330B43536090F828104A0706D5026844
:102290005368416B23F480230B43536090F828105C
:1022A0000A0706D502685368816B23F400430B4389
:1022B000536090F82810CA0606D502689368C16B6F
:1022C00023F480530B43936090F828108A0606D5B8
:1022D00002689368016C23F400530B43936090F8F9
:1022E00028104A0610D502685368416C23F4801305
:1022F0000B435360436CB3F5801F05D15368816C69
:1023000023F4C0030B43536090F828100A0606D547
:1023100001684A68C06C22F4002202434A60704798
:10232000F8B5044604F180050020E86001F04CFB9C
:10233000064620686FF07E4701680A0708D50097B7
:10234000334600224FF40011204600F017F860B920
:10235000206801684A070AD50097334600224FF4E7
:102360008001204600F00AF808B10320F2BD2020C9
:102370006860A8600020E0662870F2BD2DE9F04199
:1023800005460E4690461F46069C2868C1693140A6
:10239000B1420CBF01200020404522D114F1010FB1
:1023A000F3D001F011FBC01B844200D33CB9286874
:1023B00000F019F8002101700320BDE8F0812868C1
:1023C00001684A07E1D5C1690805DED52A684FF4DE
:1023D000006111622868002200F005F8C1600270F7
:1023E000EAE70020E9E7016821F4D071016028687C
:1023F000816849084900816005F180002021416021
:102400008160704730B5816500F15C031A805A80A5
:10241000002159618168FF24B1F5805F04D1016911
:1024200091B940F2FF140FE019B9016961B17F2140
:1024300007E0B1F1805F06D1016909B97F2403E0AB
:102440003F21998001E000249C8000F1800400215C
:10245000E1602225A56001688D6845F001058D6069
:102460009968B1F1005F1CD199898A4219D38268B9
:10247000B2F5805F04BF0169002907BF0FF2E512C2
:102480005A610FF2451159610022227001680B68F0
:1024900043F480730B600068816841F08051816073
:1024A00013E08168B1F5805F04BF0169002907BFAF
:1024B0000FF291025A610FF26501596100222270F8
:1024C0000068016841F490710160002030BD01682E
:1024D0000A6822F490720A600268DFF8F8129368C2
:1024E0000B409360C26E012A04D101680A6822F091
:1024F00010020A602021C0F888100022C26602671C
:10250000704700000100001020010004806A0022D2
:1025100000F156010A810A8000F07EBD10B500F07E
:1025200025F80AD14A6AA188836D0A401A70816D24
:102530004A1C00F021F821B924E0886940F0080025
:10254000886110BD10B500F011F80AD14A6AA1885F
:10255000836D0A401A80816D8A1C00F00DF821B944
:1025600010E0886940F00800886110BD00F15C044B
:102570000168E26A222A7047826561884A1E628089
:102580006188704701680A6822F490720A600168E5
:102590008A68520852008A602021E162002262614A
:1025A0002169012905D100F009F8218800F035FDE5
:1025B00001E000F092FD0020206110BD01680A6872
:1025C00022F010020A6070472DE9F84300F0CFF8BE
:1025D0003FD1A88980B9688800283CD0A989884261
:1025E00039DA00F0B5F87C4800F0ABF833E020466B
:1025F00000F073FD00202861B806ECD500F084F8E7
:102600000870A06D421C00F076F819D0F90748BF99
:102610005FEAC85201D500F07DF8B80703D5F1078D
:1026200001D500F086F8780703D5F10701D500F051
:1026300078F8286B20B1204600F0EEFC00202863DB
:1026400068880028D8D100F09FF8D0D100F086F833
:10265000D0E700F002F8BDE8F183816941F008019C
:10266000816170472DE9F84300F081F83FD1A889D6
:1026700080B9688800283CD0A989884239DA00F0FE
:1026800067F8564800F05DF833E0204600F025FD7D
:1026900000202861B806ECD500F036F80880A06D5F
:1026A000821C00F028F819D0F90748BF5FEAC85229
:1026B00001D500F02FF8B80703D5F10701D500F0D8
:1026C00038F8780703D5F10701D500F02AF8286B10
:1026D00020B1204600F0A0FC002028636888002874
:1026E000D8D100F051F8D0D100F038F8D0E7FFF79A
:1026F000B4FFBDE8F183A2656888411E6980206847
:10270000C76917F0070F70472168486AA16D09EA89
:102710000000704701210162286B40F0010028632E
:102720007047226804201062286B40F00200286382
:102730007047226802201062286B40F00400286372
:10274000704768612068016841F0200101607047AE
:102750002068816821F0805181607047206801689D
:1027600021F0100101602988204600F056BC044683
:10277000206804F15C05B5F80490C769D0F80080C2
:102780008668E96A222970472068124A016821F4A4
:102790008071016020688168114081602020E862BA
:1027A000002169612869012870470000F369FFCFA3
:1027B0000038014088100240FFF4FF110024F400AB
:1027C0000044004000480040004C004000500040E1
:1027D00000FD0F00FEFFFFEF1D2500084525000846
:1027E000010002000400060008000A000C001000AE
:1027F000200040008000000180B5DFF8DC03816824
:1028000041F001018160816801F0010100910099AE
:102810000268072142F0805202600068002200F046
:102820008050009000986FF0010001F0EDF8BDE8D5
:10283000014001F083B930B5ABB000F03DF900F0D4
:10284000C3F82068DFF8941388426DD14FF48042BA
:102850004FF040510692269100F0B3F808B101F014
:1028600071FCDFF87C030168DFF8785341F4005114
:102870000160026802F4005205920599026842F074
:1028800004020260036803F00403059305990268DB
:1028900042F001020260036803F001030593059909
:1028A00002680C2142F0020202600068032200F07C
:1028B000020005900598009100210291019269465D
:1028C000DFF8240301F040FC0C2000F02FF8DFF8C3
:1028D0001C0301F039FC012000F028F8DFF8100398
:1028E00001F032FCDFF80C032860052169604FF429
:1028F0000070802168612961202000224FF400616E
:10290000E861AA60EA60A9612A62284600F086F9B7
:1029100008B101F017FC1021284600F011FB08B1A6
:1029200001F010FC2565AC622BB030BD0321009096
:102930000191002202926946704718B5ABB000F0D1
:1029400017F900F041F82068DFF8AC12884236D160
:102950004FF000724FF080710692209100F031F834
:1029600008B101F0EFFB9E48016941F4007101617B
:10297000016901F40071009100990268032142F09D
:10298000080202600068022200F0080000F0E9F886
:1029900009210591029201A9984801F0D5FB002276
:1029A0000521272001F030F8272001F04BF8002204
:1029B0000521282001F028F8282001F043F82CB048
:1029C00010BD06A801F0ACBC9422002106A801F0BD
:1029D00079BF18B5ABB000F06FF8FFF7F5FF2068CE
:1029E00087497F4C884231D12022002106921891DC
:1029F000FFF7E7FF08B101F0A5FB206940F00100F7
:102A00002061206900F0010005900598216841F0DF
:102A100040012160226802F040020592059801F011
:102A200086F84FF4C07100910021029103910821B2
:102A30000222049101926946724801F085FB00224E
:102A40000521422000F0E0FF422031E06E4988423B
:102A500030D10422002106921591FFF7B2FF08B190
:102A600001F070FBE06840F48020E060E06800F472
:102A7000802005900598216841F0080121602268B6
:102A80004FF4407102F00802059205980091002170
:102A9000029103910721022204910192694657484D
:102AA00001F052FB002205213F2000F0ADFF3F2046
:102AB00000F0C8FF2CB010BD044614220021684667
:102AC00001F000BF18B5A5B0044694220021684665
:102AD00001F0F8FE21684D4A914219D14FF40033BC
:102AE0004FF4807100932491684601F019FC08B1FD
:102AF00001F028FB3848816B41F400418163026892
:102B000042F480620260006800F4806000900098E7
:102B100026B010BD10B586B000F02AF821683C48F8
:102B200081421CD12E48C16841F40041C160C16896
:102B300001F400410091009902684FF4A05142F065
:102B4000040202600068022200F0040000F009F8AC
:102B500006210591029201A9234801F0F5FA06B079
:102B600010BD0090009801910021039104917047DD
:102B700004461422002101A801F0A4BE81B000681F
:102B80002449884209D11448026842F002020260D6
:102B9000006800F002000090009801B0704710B586
:102BA00086B0FFF7E5FF21681A48814212D10C4830
:102BB0000168022241F0100101600068782100F0F4
:102BC0001000FFF7CEFF02210591029201A91248E1
:102BD00001F0BAFA06B010BD58100240008002425F
:102BE0004C100240C436002000080242000002429D
:102BF000000402420800024000A40040000C02420F
:102C000000800040001802420048004000280040B8
:102C1000003C0040000400400010024238B50400AF
:102C200001D1012032BD2168DFF8C42304F124055D
:102C300000F044F80221697020680268A068E16829
:102C40006FF31012024320690A4361690243A069CD
:102C50000A43E1690243206A23680A4302431A6077
:102C6000204600F099F9A068B0F5804F04BF00211C
:102C700061602079E96A00F014F838B1052805D2BE
:102C8000204600F0A6F900F012F803E00020A86347
:102C9000E8632864002129620120687029700020FF
:102CA00032BD0860686B296B486060687047A96B2B
:102CB00000200860286CE96B48607047914209D297
:102CC000DFF8300341181423B1FBF3F1DFF82823B8
:102CD0006A6208E0DFF8240341181422B1FBF2F124
:102CE000DFF81C0368628900A9627047F8B50446E2
:102CF00004F1240630780025012801D10220F2BD1C
:102D0000012030707778012F2BD10220707035624E
:102D1000206807687F087F000760204600F020F9E0
:102D2000F068216820B10A6842F00E020A6008E0EB
:102D3000086820F0040008602068016841F00A017A
:102D40000160F06A0168CA0301D500F077F8B06B42
:102D500008B100F073F82068016841F001010160DA
:102D600001E0357002252846F2BD00F124014A78C1
:102D7000022A05D00420086200220A700120704750
:102D80000268136823F00E031360CA6A136823F401
:102D9000807313600068026852085200026091F864
:102DA00028204B6A012002F01C0290405860486BBA
:102DB0000A6B5060886B30B1026822F48072026046
:102DC0000A6CC86B426001224A700020087070478C
:102DD00000F1240238B551780024022903D00420E0
:102DE0001062012428E001680B6823F00E030B60D9
:102DF00001680D686D086D000D60D16A0B6823F4E1
:102E000080730B6092F82830556A012103F01C038F
:102E100099406960516B136B5960916B31B10B68CC
:102E200023F480730B60136CD16B4B6001235370E0
:102E3000D169147001B18847204632BD016841F460
:102E4000807101607047F8B500F124014A6A0423DB
:102E500014680268156891F8286006F01C0603FAE9
:102E600006F73C4220D05FEA457C1DD51468250456
:102E70000BD54A6A576003681C68E2030ED549699E
:102E8000002953D0BDE8F44008471468A50603D4D0
:102E9000146824F00404146000F049F8C96800299B
:102EA00044D0BDE8F4400847022303FA06F73C4249
:102EB0001FD0AF071DD51468250408D51268D303A9
:102EC00012D40969002931D0BDE8F44008471468DC
:102ED000A50605D4146824F00A04146001224A707F
:102EE00000F025F800220A708968F9B1BDE8F440C5
:102EF0000847082303FA06F6344217D02B0715D5E6
:102F0000146824F00E04146091F828304C6A0122F1
:102F100003F01C039A40626001220A624A70002298
:102F20000A70896911B1BDE8F4400847F1BD91F814
:102F300028204C6A02F01C02934063607047000036
:102F400008B9012070470068CB06026805D5C902A0
:102F50004CBF42F4801222F48012026000207047BD
:102F600070B5846D456D6C60C46D14B1446E056EB2
:102F70006C6090F84C50866C012405F01C05AC4048
:102F80007460046863608068102802D1A260E16008
:102F900070BDA160E26070BD10B5C16C0268144BD9
:102FA00089089A4202F0FF0239BF164C04EB8101F6
:102FB000154B03EB81010165083A1421B2FBF1F1D5
:102FC0000123124A01F01F0103FA01F142658165F4
:102FD00010BD01790E4A0F4B02EB8102C265491EFA
:102FE000012201F003018A40036642667047000037
:102FF00008040240F8FFFDBF00000240F8FBFDBFDF
:1030000000040240000802402008024080080240FC
:10301000FC080240400902407047704770470000BA
:103020004FF0FF320021002001F0E8BC01460020F3
:10303000012901D136487047032908BF3548704738
:1030400030B585B0040021D0A17805291EDC208888
:10305000E0B10846FFF7EAFF6060B8B1A0782E4DF6
:10306000AD603030687105F1080221462B4801F04F
:103070006CFCAB6800286A4604D00021184601F0B9
:103080009DFD04E00021184601F098FD012005B0E7
:1030900030BD2DE9F84304460D4691460227002035
:1030A000DFF87C800C22424308EB0206316869B9E4
:1030B0003460B5804846FFF7B9FFB060002720B103
:1030C0002A4608F11801FEF709FE0320401CC0B291
:1030D0000228E7DB3846BDE8F283F8B50446002550
:1030E0000F4E0C2169437718386860B1BA68A24264
:1030F00009D106F1180101F070FDBA88B86806F12F
:103100001801FEF7EBFD6D1C012DEADDF1BD00009D
:10311000A83000209C310020E4010020213000086C
:103120006C37002070477047704700002DE9F84366
:10313000050075D0DFF8D467B468F068DFF8507820
:1031400004F00C0400F003082878C10649D524B126
:103150000C2C08BFB8F1010F29D13068810702D5C6
:10316000E86900285CD031680807686A4EBF31689A
:103170007968090901F0F001814206D200F0C8FB2C
:10318000002809D100F069FA08E000F066FA2CB9CD
:10319000686A00F0BDFB002840F0568200F097FB03
:1031A00000F045FB01F036FD01001AD04FE2E8695E
:1031B00000284FD0316841F00101316000F004FC7B
:1031C0008146306881070AD400F0FEFBA0EB0900BD
:1031D0000328F6D330688107F3D4032037E200F0E8
:1031E0003CFA2878C1070CD5082C04D00C2C08BF59
:1031F000B8F1030F42D13068810302D56868002816
:103200000ED02978880714D5042C04D00C2C08BFC4
:10321000B8F1020F6FD13068410503D5E868002886
:1032200000F012827068296920F0FE4040EA0160D7
:1032300070602878010740F1AE806869002800F0CE
:103240009780A869002878680CBF20F0100040F033
:10325000100079E0306840084000306000F0B4FBB6
:10326000814630688107BCD500F0AEFBA0EB0900B9
:103270000328F6D330688107F3D5AEE76868B0F568
:10328000803F04D1306840F48030306011E0B0F508
:10329000A02F306806D140F480203060316841F4BE
:1032A000803105E020F480303060316821F48021E5
:1032B0003160686878B100F087FB8146306881032F
:1032C0009FD400F081FBA0EB09006528F6D330689D
:1032D0008103F3D481E700F077FB814630688103F6
:1032E0008FD500F071FBA0EB09006528F6D330689C
:1032F0008103F3D571E7E86890B1316841F48071DA
:10330000316000F061FB0446306841058AD400F06A
:103310005BFB001B0328F7D330684105F4D45CE75E
:10332000306820F48070306000F04EFB0446306856
:1033300041057FF57EAF00F047FB001B0328F6D365
:1033400030684105F3D548E77860786840F00100BF
:10335000786000F039FB0446786881071BD400F0E0
:1033600033FB001B0828F7D378688107F4D434E7CF
:10337000786840084000786000F026FB04467868D2
:10338000810708D500F020FB001B0828F7D37868D8
:103390008107F4D521E72878410740F19380B06D8B
:1033A0000024C10009D4B06D012440F08050B06504
:1033B000B06D00F0805000900098DFF8D885D8F804
:1033C0000000C10517D4D8F8000040F48070C8F898
:1033D000000000F0F9FA8146D8F80000C1050AD4CF
:1033E00000F0F2FAA0EB09000328F5D3D8F80000AA
:1033F000C105F1D4F1E6A868C1070DD540073968C9
:1034000007D541F004013960386840F001003860A8
:103410000AE041F0010106E03868400840003860E9
:10342000396821F004013960A86841F2893880B315
:1034300000F0CAFA81463868810708D400F0C4FA5F
:1034400000F007F9F7D338688107F4D4C5E6287A85
:10345000010638680ED540F08000386039680805EC
:103460002BD400F0B1FA00F0F4F8F7D33868010576
:10347000F4D4B2E620F080003860396808051CD525
:1034800000F0A2FA00F0E5F8F7D338680105F4D5AA
:10349000A3E600F099FA81463868810708D500F064
:1034A00093FA00F0D6F8F7D338688107F4D594E69C
:1034B0003868010648BF3868DCD41CB1B06D20F014
:1034C0008050B0652878810627D5A86A0028B8689A
:1034D00011D040F00100B86000F076FA0446B868F8
:1034E00081071AD400F070FA001B0328F7D3B868DC
:1034F0008107F4D471E640084000B86000F064FA37
:103500000446B868810708D500F05EFA001B03285E
:10351000F7D3B8688107F4D55FE6E86A002800F0C1
:103520009580B16801F00C010C2962D00228306846
:1035300020F08070306040D100F046FA04463068D8
:10354000810108D500F040FA001B0328F7D330684A
:103550008101F4D541E6F0682A6BDFF83C1408409D
:10356000696B10432A6C491E40EA0110A96B52088E
:10357000521E40EA0120696C40EA42504908491E47
:1035800040EA4160E96B40EAC160F060306840F0B9
:1035900080703060F16841F08071F16000F014FAE1
:1035A00004463068810151D400F00EFA001B032854
:1035B000F7D330688101F4D40FE6316811F0205F51
:1035C00003D1F06880088000F060F168DFF8CC0378
:1035D0000140F16000F0F8F904463068810135D50A
:1035E00000F0F2F9001B0328F7D330688101F4D50D
:1035F000F3E5012828D0F0682A6B00F0030191421E
:1036000001BF00F0F0016A6B521EB1EB021F1BD12B
:10361000AA6B00F4FE41B1EB022F02BF00F078412B
:10362000EA6BB1EBC26F0FD12A6C00F4C0015208F3
:10363000521EB1EB425F07D1696C00F0C0604908CF
:10364000491EB0EB416F01D0012000E00020BDE831
:10365000F283A0EB090040457047306840F0080055
:1036600030603168686A21F0F001014331607168AF
:10367000286A21F47F4141EA0021716070472DE9F9
:10368000F84304460026002C62D0DFF81473386833
:10369000884600F00F00404502D200F0B7F857D13D
:1036A0002168DFF86852C80779D56068DFF8F492BE
:1036B000032843D1286882014AD5EA68002002F035
:1036C0000302012A0FD12868020705D4DFF8D802C7
:1036D0000268C2F3032002E02868C0F30310DFF899
:1036E000CC2252F82000EB68EA68C2F30312521CA5
:1036F00003F00303022B04D0032B07D1DFF8B00241
:1037000004E0DFF8B032B3FBF2F201E0B0FBF2F21A
:10371000E868C0F306204243E868C0F34160401CFB
:103720004000B2FBF0F0484520D3AA6812F0F00F39
:1037300015D089071AD5A068C0B910E0022802D1B7
:103740002868810303E00028286802D1810702D499
:103750003DE041053BD500F06FF8484506D3A86829
:10376000802620F0F00040F08000A860A968606822
:10377000890840EA8101A96000F026F9814600F03D
:103780004FF80CD000F020F9A0EB090041F289318C
:103790008842F4D300F044F8F1D0032034E02078DC
:1037A000810706D5AA68A06822F0F0020243AA6049
:1037B00005E0802E03D1A86820F0F000A8603868EA
:1037C00000F00F00804504D200F020F801D0012065
:1037D0001AE02078410705D5AA68E06822F4E06283
:1037E0000243AA602178080706D5A968206921F458
:1037F000605141EAC001A96000F069F800F017F8D3
:10380000BDE8F24301F006BABDE8F2833968090960
:1038100048EA01113960386800F00F0040457047F0
:10382000A868616800F00C00B0EB810F7047564942
:10383000086056480068704710B5344A9068D468EC
:103840000023002110F00C0004F0030403D00C2826
:1038500012D1012C1AD113681C0704D4524B1C68D6
:10386000C4F3032302E01368C3F303134F4C54F86B
:10387000233048B9194628E0042808BF4D4924D010
:10388000082822D14A4920E00C281ED1D168D068EE
:10389000C0F30310401C01F00301022902D00329E8
:1038A00002D005E0434900E04149B1FBF0F101E0FD
:1038B000B3FBF0F1D068C0F306204143D068C0F3F9
:1038C0004160401C4000B1FBF0F1084610BD80B5DE
:1038D000FFF7B2FF384A13683849C3F3031206E012
:1038E00080B5FFF7F4FF00F00DF8C3F30222895C06
:1038F000C84002BD80B5FFF7EAFF00F003F8C3F34C
:10390000C222F4E72C4A13682D4970470010024088
:103910007CB505462B4E30680024C10002D500F06E
:10392000CDF80EE0306840F080503060316801F032
:1039300080510091009800F0C1F8316821F0805169
:103940003160002818BFB0F5007F04D1802D0CD95C
:10395000A12D09D304E0802D88BF032405D801D10F
:10396000022402E0702D00D101240D4801680909EC
:1039700044EA01110160006800F00F00A04201D08C
:10398000012076BD002076BDE0010020500100201E
:1039900090100240007000400C809F01FFFFEEFE7F
:1039A0000020024001B4C404941002404C9000086E
:1039B00000127A000024F4000810024094760008F7
:1039C000FC9100085810024001484068704700BF51
:1039D000480100204901020002D431488154704757
:1039E000304B02F00F021A4402F8041C70472E4BB1
:1039F00019684FF6FF020002114000F4E06008432E
:103A00002A4908431860704770B5274B1C68C4F3F7
:103A100002230124C3F10705042D2EBF072504FA54
:103A200005F56D1EDE1C072E34BF00231B1F294029
:103A3000994004FA03F35B1E1A401143BDE870403D
:103A4000C8E70000010007D4012200F01F018A40EE
:103A5000174B400943F82020704701000BD4012286
:103A600000F01F018A40134B400943F82020BFF3A8
:103A70004F8FBFF36F8F7047401E10B5B0F1807F3E
:103A800001D3012010BD0C4C606007214FF0FF30C6
:103A9000FFF7A0FF0021A16007202060002010BDDB
:103AA00000E400E018ED00E00CED00E00000FA0595
:103AB00000E100E080E100E010E000E0DFF8A400B9
:103AC000006800F4C060704770B5DFF89840266861
:103AD000054600F039F806F4C066B0F5004F02D094
:103AE000E068010401D5012070BDAE421DD0206800
:103AF000DFF87410DFF8743020F4C06005432560EF
:103B00000A6832200A21B2FBF3F34343B3FBF1F01E
:103B1000401C00E0401E61694A0501D50028F9D12A
:103B20006069410501D5032070BD002070BDDFF83C
:103B30004000016841F40071016070470D48016860
:103B400041F48041016070470B480068C10402D510
:103B50004FF480507047000402D44FF40040704787
:103B60000020704700700040E0010020A0860100A6
:103B70000470004008700040107000402DE9F843C8
:103B80008EB001F069F800F050FA00F095FA00F0FC
:103B90008EFADFF860050168DFF85C45DFF85C55F8
:103BA00041F0100101600268DFF8546502F0100274
:103BB00005920599026842F004020260036803F06E
:103BC000040300F02EFA42F001020260036803F0E1
:103BD000010300F026FA42F002020260036803F0DB
:103BE000020300F01EFA42F008020260036803F0CC
:103BF000080300F016FA42F040020260006800F08C
:103C0000400005900598FFF792FF00228021204692
:103C100000F065FB00224FF40071284600F05FFBC6
:103C20000022A021304600F05AFB0022202000F0A4
:103C3000E4F9012200F0EBF94FF48040DFF8C414FE
:103C400000900191002202926946304600F07CFA11
:103C50008021009100210122029103910192694685
:103C6000204600F071FA01214FF400740191002206
:103C700000940292039200F0CBF900224FF400600E
:103C800000F0BBF90A2200F0C2F9A0210091012244
:103C900000210192029103916946304600F054FAE6
:103CA0000C22002106A800F00DFE182200F000FAF8
:103CB0004FF40021DFF85084DFF85004C8F80410F6
:103CC000C8F800000121C8F810100820C8F8140036
:103CD00006210120C8F81C10002288F8190008F1FC
:103CE000300601214FF48059C8F80820C8F80C208C
:103CF00088F8182088F82020C8F82820C8F82C2038
:103D00003170C6F804903272404600F0E0FF08B10E
:103D100000F018FA0020069006A9404601F0F2FBD8
:103D200008B100F00FFADFF8E813009106220192C3
:103D3000052102917F220392042104910022059221
:103D400000F06BF908B100F0FDF9DFF8C81300913D
:103D50000C2200F061F908B100F0F4F9DFF8B85373
:103D600000951221019100F058F908B100F0EAF92C
:103D7000DFF8A8130091182200F04EF908B100F006
:103D8000E1F9DFF89C1300914FF4807200F044F9E0
:103D900008B100F0D7F900954FF48371019100222A
:103DA000029200F03AF908B100F0CCF9182200F0C4
:103DB0007FF908F51475DB482860002169607F22CF
:103DC000AA60FF20E86029616961A9614FF0804025
:103DD000E8612962284601F0F7FB08B100F0B2F96A
:103DE000002100910391049105916946284601F054
:103DF00091FC08B100F0A6F908F59877CA48F86276
:103E00004FF482713963002078634FF44071B963D5
:103E1000F863002139647C640820B864F96439656A
:103E200079650720B865F9650820386608F5AE7031
:103E300001F08AFC08B100F085F900F03DF910228C
:103E400000210AA800F03EFD0C2200F031F91C22EE
:103E5000002103A800F036FDB448A8620021E96201
:103E60000020286342F6F8216963A863286408F5F6
:103E70001E74204601F0D8FC08B100F063F9CDF8BB
:103E800028900AA9204601F027FE08B100F05AF94F
:103E9000204601F0EBFC08B100F054F9002100913C
:103EA00002916946204602F05FF808B100F04AF935
:103EB0006021039141F27C5204920021059100227D
:103EC000079200F0A0F808B100F03CF9042200F0DD
:103ED0009AF808B100F036F9082200F094F808B119
:103EE00000F030F90C2200F08EF808B100F02AF949
:103EF0002046FEF754FE8E48B063002108F1780496
:103F0000F163316471642180022060603721A16017
:103F10002820E0600E212161052060611021A1614F
:103F20000B200022E0610421A27021626262A26281
:103F3000E26208F1680002F061F808B100F002F9ED
:103F400008F5E0767B4830604FF4E1350C20756071
:103F500000217061B160F1603161B161F161316284
:103F60007162B1623046FDF779FE08B100F0EAF8FF
:103F70000021304602F00CFB08B100F0E3F800210C
:103F8000304602F010FB08B100F0DCF8304602F0D9
:103F9000E1FA08B100F0D6F867486065A565002130
:103FA0000C20E16521666166A066E1666167A16734
:103FB000E16708F1CC0439602046FDF74FFE08B1F7
:103FC00000F0C0F80021204602F0E2FA08B100F04B
:103FD000B9F80021204602F0E6FA08B100F0B2F884
:103FE000204602F0B7FA08B100F0ACF800F081FC0E
:103FF00002F02CFB00F08EFCFEE7022102920392FD
:1040000000900191704703A9204601F0DEBC0492A4
:104010006946284600F098B801926946404600F08B
:104020009FBF059305990268704700B597B0482275
:10403000002105A800F046FC00F039F80020FFF749
:1040400043FD08B100F07EF802F034FB3B48016804
:104050004FF4807221F018010160812107910892CC
:104060004021022209911092119204223721062048
:104070001292139105900722022114921591169124
:1040800005A8FFF753F808B172B6FEE70F20032129
:104090000090019100220292039204920521684649
:1040A000FFF7EDFA08B172B6FEE717B000BD1422B3
:1040B0000021684600F006BC80B52148016841F047
:1040C00004010160026802F0040200920099026893
:1040D000052142F0010202600068002200F00100A8
:1040E000009000981D20FFF78FFC1D20BDE80240C6
:1040F000FFF7A8BC4C100240000802420000024238
:104100000004024200001110DC2F00200080024257
:10411000000180218000501D1000C0100080F03E82
:10412000000052C700280040003C0040000400404E
:1041300000A4004000480040008000409010024071
:104140004810024072B6FEE72DE9F04F4FF0000C28
:10415000694A6A4BDFF8A8814FF00F0906460F46FF
:1041600034E0684DAE4214BF0725062505FA0EF56A
:10417000254348F821501C68C14301EA040E7C68BD
:10418000E50348BF40EA0E0EC3F800E05C6801EAB0
:10419000040E7C68A50348BF40EA0E0EC3F804E095
:1041A000146801EA040E7C68E50248BF40EA0E0E7E
:1041B000C2F800E0546801EA040E79688C0248BF36
:1041C00040EA0E0EC2F804E00CF1010C396831FA35
:1041D0000CF000F08280012404FA0CF414EA0100CF
:1041E000F2D04FEA4C0103258D406FEA050E7D6841
:1041F000012D18BF022D03D0112D18BF122D13D180
:10420000B568D7F80CA00EEA05050AFA01FA4AEAE1
:104210000505B560756825EA04047D68C5F30015D9
:1042200005FA0CF52C437460F468BD680EEA0404CA
:104230008D402C43F4607C68022C18BF122C14D1E2
:104240004FEADC0406EB8404D4F820A04FEA8C0586
:1042500005F01C0509FA05FB2AEA0B0AD7F810B08D
:104260000BFA05F545EA0A05256234680EEA0405ED
:104270003C7904F0030404FA01F1294331607968C0
:10428000C900A1D54FEA9C0158F821504FEACC044F
:1042900004F0180E09FA0EF425EA04041A4DAE4291
:1042A00008BF002518D0194DAE4208BF012513D014
:1042B000174DAE4208BF02250ED0164DAE4208BFC4
:1042C000032509D0144DAE4208BF042504D0134D78
:1042D000AE427FF446AF052548E7BDE8F08F0AB14E
:1042E0008161704781627047426901EA020391432C
:1042F00041EA03418161704700F4024080F40240CA
:1043000060F402400018024200000242000402422F
:1043100000080242000C0242001002420014024255
:104320002DE9F84F054628680024A046DFF8E4632D
:10433000DFF8E47301051FD5E86E68B1202816D0B8
:10434000402804D0602818BF802808D012E03A68BE
:1043500042F480323A6003E000F0D7F9044654B9E1
:10436000F168E86E21F0E0010143F16004E000F043
:10437000C7F9F3E70124A0462868C10423D5286FB4
:10438000C0B1B0F5807F19D0B0F5007F06D0B0F590
:10439000407F18BFB0F5806F04D012E0396841F457
:1043A0008031396074B9F168286F21F4E06101430C
:1043B000F16008E000F0A9F90446F3E700F0A0F985
:1043C000FAE70124A0462868810331D5F86C4FF044
:1043D0000009C1000AD4F86C4FF0010940F0805088
:1043E000F864F86C00F0805000900098DFF82C031F
:1043F0000168DFF828A341F480710160FFF7E4FA57
:104400008346DAF80000C1057AD4FFF7DDFAA0EBA5
:104410000B000328F5D3DAF80000C10570D403249B
:10442000A046B9F1000F03D0F86C20F08050F8647A
:104430002878C10705D5FA6F686B920840EA8202B6
:10444000FA672978880705D5F96FA86B21F00C0168
:104450000143F9672978480705D5F96FE86B21F022
:1044600030010143F9672978080705D5F96F286CF1
:1044700021F0C0010143F9672978C80605D5F96F15
:10448000686C21F440710143F9672978880605D5E5
:10449000F96FA86C21F440610143F9672968880528
:1044A00005D5F96FE86D21F440210143F9672968CA
:1044B000480505D5F96F286E21F440110143F967CD
:1044C0002968480205D5F96F686E21F4400101435F
:1044D000F967296888014FD5A96E41B1B1F1807F94
:1044E00003D0B1F1007F41D044E000F004F9002C8A
:1044F00041D1F96FA86E21F040710143F9673BE0AB
:10450000002C8DD1306810F440701EBF05F184017D
:10451000CA6890420BD03068316841F48031316014
:10452000326820F4407022F4803232603060C0077C
:1045300013D5FFF749FA8246306881070DD4FFF79B
:1045400043FAA0EB0A0041F289318842F4D3306883
:10455000810758BF03247FF563AF316805F18402FA
:10456000D06821F44071014331605AE700F0CDF882
:104570000446BCE70124A0462978480605D5F96F12
:10458000E86C21F440510143F9672978080605D504
:10459000F96F286D21F440410143F9672968C80586
:1045A00005D5F96F686D21F440310143F967296839
:1045B000C80205D5F168A86D890840EA8101F1605B
:1045C0002968880415D5F96F686F21F040610143AF
:1045D000F967686FB0F1006F02D100F08CF808E065
:1045E000B0F1806F05D1012100F090F8010018BFF3
:1045F00080462868010329D5A86FB0F5804F03D104
:10460000F06840F4804007E0F96F21F04061084312
:10461000F867F06820F48040F060A86FB0F1806F18
:1046200006D1012100F072F801000FD080460DE0A4
:10463000B0F1006F03D1386840F4801005E0B0F5A8
:10464000804F03D1386840F48030386029684803CF
:1046500015D5F96FE86F21F040610143F967E86F04
:10466000B0F1006F02D100F046F808E0B0F1806FC1
:1046700005D1012100F04AF8010018BF80462868E2
:10468000410411D5FA6FD5F8800022F04052024360
:10469000FA67D5F88010B1F1805F05D1022100F0F2
:1046A00035F8010018BF80462868C10306D5F268B6
:1046B000D5F8840022F004020243F260286805F174
:1046C0008401820205D5F368486823F01803034388
:1046D000F3602A68D0010BD5F268886822F4401292
:1046E0000243F2608968B1F5001F01D100F003F8C0
:1046F0004046BDE8F28F386840F48010386070475B
:10470000002105F1200000F079B80021281D00F0FB
:1047100007B80000901002400C10024000700040EA
:104720002DE9F04100F0BEF804D030D303282AD0A0
:1047300025D32CE03168880729D5316821F08061C4
:104740003160FFF741F980463068010108D5FFF775
:104750003BF9A0EB08000328F6D33068010144D4EC
:104760007968BA683B68491E9CB93469DFF848012A
:10477000044044EA0222F86842EAC0621FE030685E
:104780004105DAD403E0306810F4C02FD5D10125FB
:1047900031E0012C346909D148480440386944EAC1
:1047A00002224008401E42EA405208E044480440C9
:1047B000786944EA02224008401E42EA406242EA26
:1047C000011119433161306840F080603060FFF7BB
:1047D000FBF804463068010109D4FFF7F5F8001B27
:1047E0000328F7D33068010101D4032503E03169C0
:1047F000B869014331612846BDE8F0812DE9F041F7
:1048000000F050F804D046D3032840D03BD342E018
:10481000316888073FD5316821F080513160FFF75A
:10482000D3F880463068810008D5FFF7CDF8A0EBBB
:1048300008000328F6D33068810022D47CB971695E
:10484000BA681D48014041EA0221F8687A6841EAE5
:10485000C0613868521E41EA02110143716131683A
:1048600041F080513160FFF7AFF8044630688100B5
:1048700013D4FFF7A9F8001B0328F7D33068810091
:104880000BD403250DE030684105C4D403E0306843
:1048900010F4C02FBFD1012503E0716938690143CD
:1048A0007161A8E70746386800250C46014E0128CB
:1048B00070470000001002400C80FF070C809FFF33
:1048C0000C80FFF910B5044610460A460146204602
:1048D00001F0F8FE204610BD80B5DFF8C001016888
:1048E00002F006FA012803D0BDE8014002F0FDBA4B
:1048F00001BDEFF3058010B16FF005007047DFF8E0
:10490000A011086810B901220A6070474FF0FF300B
:104910007047000080B5EFF3058000B10FE0DFF8CD
:1049200080010168012909D10022DFF878110A709D
:104930000223036001F0FFFF002002BD02E06FF0E0
:10494000050002BD4FF0FF3002BDF8B584B0002372
:104950000393EFF30583002B3DD103003BD080256B
:10496000182600245AB3136803B11C4693691BB17F
:104970001E0004D0392E02D21379DF0701D50020A2
:104980002AE0536903B19D089768D2F80CC087B13B
:10499000BCF15C0F1FD31269002A18BF002B1AD07C
:1049A00001920B46029700962A46214601F094FE9A
:1049B00010E0BCF1000F04BF1269002A0BD103AB59
:1049C00001930B460096AAB2214601F0ADFE0128E4
:1049D00001D000200390039805B0F0BD10B5EFF3AF
:1049E000058111B16FF0050406E000280EBF6FF0DD
:1049F0000304002401F07CFF204610BD2DE9F84F90
:104A000006460F46EFF3058018B16FF00500BDE8CC
:104A1000F28F002E48BF6FF00300F8D4B807144699
:104A2000A3464CBF4FF00009B14602F006F800253E
:104A300082466FF0020809E001F0FFFFA0EB0A00D8
:104A400083452CBFABEB000B4FF0000B5B466A4677
:104A50004946002002F096F9012810D1009835400F
:104A6000054305EA0600F90703D5B04203D12846FD
:104A7000CDE70028FBD1002CDED14546F7E7002C1E
:104A80000CBF45466FF001050028DFD1EFE74FF07E
:104A90008051DFF8200101607047000010E000E065
:104AA000783800201FED00E0F8B514460025EFF33C
:104AB00005823ABB002818BF002923D0E4B1A368BF
:104AC000E26893B1502A1DD32269DAB1666901FB0D
:104AD00000F7BE4216D3009502F0B8FA050011D0D7
:104AE000002C14BF216800210AE0002A04BF2269BB
:104AF000002A07D162692AB9002202F0CCFAEDE758
:104B000002F003FD2846F2BD7CB500F04CF87AB106
:104B1000002818BF00290FD074B900946A4602F02B
:104B20006AFB012815D10098A0B1FFF7B0FF11E092
:104B3000002818BF002902D16FF003050AE0002306
:104B4000224602F0D4FA012804D014B16FF0010516
:104B500000E03546284676BD7CB500F024F87AB1F1
:104B6000002818BF00290FD074B900936A4602F0DC
:104B700011FC012814D1009898B1FFF788FF10E0CC
:104B8000002818BF002902D16FF0030509E0224672
:104B900002F077FB012804D014B16FF0010500E0AA
:104BA0003546284676BD1C4600256FF00206EFF319
:104BB0000582704704ED00E002F0E6BC10B1052963
:104BC00000DA0AB90120704702F0F4BC20B1416854
:104BD00000680022FFF768BF7047002880B518BF43
:104BE000002901D1022002BD00230022FFF78CFF23
:104BF0000BE0002880B518BF002901D1012002BDBB
:104C00004FF0FF330022FFF7A7FF00B10120C0B231
:104C100002BD000070B504460D4E30780025A0B1ED
:104C20004FF47A71B1FBF0F10A4A1068B0FBF1F071
:104C3000FEF722FF48B9082C07D2002221464FF088
:104C4000FF30FEF7E1FEB46000E00125284670BDAC
:104C500048010020E0010020042010B5FEF7C7FE47
:104C600002F0C2FC07200024FFF7D4FF002814BF85
:104C70000124FDF7C1FD204610BD0000603000EBAF
:104C80008100006800F0F8407047603000EB810060
:104C9000016821F000410A4302607047C06800F4D7
:104CA0004060401E8041C00F7047CB0D143003F0B0
:104CB000040310B51818090D036801F01F0107243B
:104CC0008C40A34302FA01F11943016010BDF8B50D
:104CD0000025044600950CB90120F2BD04F15406EC
:104CE000706820B92046FDF7A6FDB56035702168D3
:104CF0008868800004D58A68DFF8400202408A6034
:104D000021688868C00017D48A68DFF8340202403E
:104D100042F080528A60DFF82C120868DFF82822FF
:104D2000B0FBF2F2521C5200009202E00098401ECA
:104D3000009000980028F9D120688168C90008D443
:104D40007268012542F010027260B16841F0010101
:104D5000B16081687268D3067DD449077BD47268DC
:104D600022F4807242F0020272608068C00710D4A0
:104D7000DFF8D8110868DFF8D82111680843C007A8
:104D800007D4DFF8D0110A68606822F47C1202436D
:104D90000A6004F13002607E5368E16894F8207084
:104DA00043EA4033A0680B43034343EA0743012F20
:104DB00003D1606A401E43EA4043A06A20B100F478
:104DC00070700343E06A03432168DFF88C01CF6809
:104DD00007403B43CB60236899689868490726D40D
:104DE000000724D4DF68D069DFF870110F40217EFE
:104DF0000743107847EA813747EA4007DF60107AB7
:104E000001280FD123681F69D16810696FF38A07E1
:104E10000F435169074390690F43074347F0010768
:104E20001F6104E0206801694908490001612069A7
:104E300001282068016B05D1E2690909521E42EA86
:104E4000011101E0090909010163706820F0020005
:104E500040F0010003E07068012540F01000706030
:104E60002846F2BD2DE9F0410E460546DFF8E40084
:104E700004682968904604F01F04886840075AD4E3
:104E800005F154073978012955D00120002C3870DC
:104E90001CBF052C092C4BD1284600F015FA010047
:104EA00043D17968DFF80005014041F480717960F1
:104EB0002968DFF8B003814200D11CB9786820F47A
:104EC0008010786078684346C1040FF2115146BFE4
:104ED000B86820F006000020B860286DC162286D17
:104EE0000FF265510163286D0FF26551C1632A68A5
:104EF0001C2100201160387028683246416841F05A
:104F0000100141602868C16841F00101C160286852
:104F100000F14001286DFDF7E9FE2A680849936811
:104F20000B4043F00403936006E00021397003E076
:104F300000223A7000E00220BDE8F081C0FFFF5F70
:104F4000C0FFFF7FE0010020400D03000880024207
:104F5000088102420883024207C0F0FFF9BFFFFF49
:104F6000F8B5064600240F46009406F1540529784A
:104F7000012901D10220F2BD01202870306881682A
:104F8000490700F163817A6830303968930903F08A
:104F90000C031818D0F800C002F01F021F23934022
:104FA000C1F384612CEA030301FA02F21A4302609E
:104FB000306882688168520731D409072FD4BA68F3
:104FC000B2F1004F08D139680022FFF76EFE306859
:104FD000416941F0004106E03968FFF766FE30683C
:104FE000416921F0004141613068C1683A69042A91
:104FF00016D060303B6800EB820CDCF8002098484B
:1050000003F0F843024013437A69C908480000F0EE
:1050100006008240134343F00043CCF8003076E0B2
:105020000021FFF72BFE40032146306804D1FFF733
:1050300025FEC0F3846003E0FFF720FE00F01FF9B7
:1050400039684A030EBFC1F3846191FAA1F1B1FA44
:1050500081F1884204D1306800220021FFF715FE5B
:1050600000F01AF9400304D100F016F9C0F384608F
:1050700003E000F011F900F002F939684A030EBFAD
:10508000C1F3846191FAA1F1B1FA81F1884204D1AE
:10509000306800220121FFF7F8FD00F0F9F8400325
:1050A00004D100F0F5F8C0F3846003E000F0F0F8FC
:1050B00000F0E5F839684A030EBFC1F3846191FA44
:1050C000A1F1B1FA81F1884204D1306800220221B5
:1050D000FFF7DBFD00F0D8F8400304D100F0D4F86E
:1050E000C0F3846003E000F0CFF800F0C8F839683E
:1050F0004A030EBFC1F3846191FAA1F1B1FA81F1C3
:10510000884204D1306800220321FFF7BEFD3168D8
:105110008868C00761D4FA683B68D1F8B0C0DFF88E
:105120008CE202F01802C3F312002EFA02F22CEA0B
:10513000000013400343C1F8B030F868DFF8701284
:10514000884230D1386841030EBFC0F3846290FAC0
:10515000A0F1B1FA81F2521C012102F01F020A2AC9
:105160000DD200F09DF8920603F01F03401C02F0E0
:10517000F842994000F01F0000F076F80FE000F0D0
:105180008FF8401C920603F01F0300F01F0002F08E
:10519000F84299400A3800F067F841F00071BA68A7
:1051A0003068FFF782FD3A68DFF80802024252D009
:1051B000DFF80432DFF80472DFF8E80101681B68E9
:1051C0003F6801F0E0713B43DB073FD4DFF8F0714B
:1051D000DFF8F031BA421CD10A023CD436689E4254
:1051E00039D100F047F841F400010160DFF8D8013F
:1051F0000168DFF8D8210C20B1FBF2F2521C4243C7
:105200000092009800281EBF0098401E0090F8D120
:1052100021E0DFF8BC71BA4209D1CA011BD436685B
:105220009E4218D100F026F841F080710CE0DFF8C2
:10523000A471BA420FD14A020DD436689E420AD1F7
:1052400000F018F841F48001016004E0686801246E
:1052500040F020006860002028702046F2BD000069
:1052600000F0FF0300810242114300EB400041EADD
:1052700000517047026822F0E0721143704790FAC3
:10528000A0F0B0FA80F0704730680321FFF7F6BC59
:1052900030680221FFF7F2BC30680121FFF7EEBC55
:1052A000420306D1C0F38462C0F38463C0F3846018
:1052B00007E090FAA0F0B0FA80F2B0FA80F3B0FA0A
:1052C00080F0521C5B1C704770B5044621688868EA
:1052D000C20723D488686FF39E10F0B988683E4DEA
:1052E000284040F001008860FEF76EFB064620680B
:1052F0000168CA0712D48068C00705D42068816895
:10530000294041F001018160FEF75EFB801B03280C
:10531000EDD320680168CA07E9D401E0002070BD20
:10532000A06D40F01000A06500F001F870BDE06DC8
:1053300040F00100E0650120704738B5044621685F
:1053400088688A68D2072BD5800729D48A6802F03A
:105350000D02012A1DD18A681F48024042F0020254
:105360008A60206803210160FEF72EFB0546216854
:105370008868C10714D5FEF727FB401B0328F6D326
:1053800020688168C807F2D5A16D41F01001A165C0
:1053900003E0A06D40F01000A065FFF7C8FF32BD2C
:1053A000002032BD08830242FEF1FFFFFFFF07002D
:1053B00000007F400000088008800242088102420D
:1053C000000052C700800242E0010020400D0300AF
:1053D000000084CB01000080C0FFFF7F10B5846A0D
:1053E000A16D11F0500F22D1A06D40F40070A065A6
:1053F000216808680207084606D5FFF74FFC88B108
:105400002068C168880401E0C16888070AD4A16DDA
:1054100021F48071A165A06DC10403D4A06D40F09A
:105420000100A0652046BDE8104002F03BB9A16D27
:10543000CA0604D52046BDE8104002F034B9216DFB
:10544000CA6BBDE810401047806A02F02DB9000019
:10545000806A816D41F040018165C16D41F00401B8
:10546000C16502F020B900007CB5044600200D465D
:10547000009004F154063178012901D1022076BD53
:105480000120307000F036F8010070682BD120F454
:10549000885040F0020070602268DFF8600005F07C
:1054A0008045936803401D4345F000459560DFF853
:1054B000502020688068C00F0FD00098401C0090DA
:1054C00000989042F5D3706820F0020040F0100080
:1054D000706000203070012076BD706820F00200FE
:1054E00040F0010001E040F01000706000203070DA
:1054F000084676BD2046FFF720BF0000C0FFFF3FF3
:1055000000CC0600F0B59AB000F1540423780022D4
:10551000012B08BF02204AD0012525701692179250
:105520000368244DAB4225D1244F3B68DFF888C087
:10553000DCF800506D0732D45B0730D40B68204D87
:10554000204EF3B1336890F8300023F4604E4B687E
:1055500043EA0E0343EA40303060DCF800003B6869
:105560001843C30720D43768086889683D4005435D
:105570000D4312E0606840F020006060227001205E
:1055800015E0306820F460403060DCF800003968D5
:105590000843C00708D431680D40356004E06068F6
:1055A000012240F0200060600020207010461AB0F8
:1055B000F0BD0000008002420880024208810242E1
:1055C000E0F0FFFF0883024270B504460120002C82
:1055D0003CD004F12405697821B9002028702046C8
:1055E000FDF770FA02216970DFF81C61CA20706152
:1055F00053217161204600F041F8010020D1B168CB
:10560000DFF808010140B160B268606821690243B7
:10561000A0690A430243B260E168A06841EA004120
:105620002046316000F04AF8010009D1B368226ACF
:10563000E16923F06043134362690B431343B36092
:10564000FF210200716104BF0121697070BD38B58E
:105650002F4C206820F020002060FEF7B5F90546A9
:105660002068810608D4FEF7AFF9401B40F2E9310B
:105670008842F5D3032032BD002032BDF8B505467F
:10568000234C20680026410616D4206840F0800094
:105690002060FEF799F9074609E0FEF795F9C01B6F
:1056A00040F2E931884224BF032685F8256021684D
:1056B000480601D4032EF0D13046F2BD70B5044641
:1056C000134D2868002620F080002860E9688806CD
:1056D00008D42046FFF7BBFFA0B1032084F82500C3
:1056E00003260FE0E86820F02000E8602046FFF77E
:1056F000AEFF18B1032084F825000326E86840F0C7
:105700002000E860304670BD10280040BFFF8FFBCE
:105710000C28004010B50A6848680A4B02431A601A
:105720008C68C868064A044354601368086949696C
:1057300023F0FF13034343EA01430020136010BD2D
:10574000203400401C28004038B5040001D101205D
:1057500032BD606A30B96068B0F5827F05D0002143
:10576000E16102E00020206160610020A06204F19C
:105770005C05687820B9002129702046FDF7CAF938
:105780000220687000F04AF8E168B1F5E06F04D9D2
:105790000020B1F5706F03D104E04FF4805001D0C8
:1057A0000021A1626168A268237C01F4827102F485
:1057B00004421143227D03F002031943A36902F05E
:1057C00001021143227F03F40073194394F820303F
:1057D00002F038021143A26A03F0800319432368E0
:1057E00002F4005211431960A16994F8242094F83E
:1057F0003430090C01F0040102F010021143E26898
:1058000003F00803194302F470621143084321684E
:105810004860002068600121697032BD206801681D
:1058200021F040010160704738B5040001D101202A
:1058300032BD00F0C6F818B900F0BFF8FDF79EF9C8
:10584000FFE7022068702068211D00F0A3F9012005
:105850002873A870E87028716871A871E8712872BF
:105860006872A872E8726870002032BD38B5040012
:1058700001D1012032BD00F0A4F818B900F09DF864
:1058800001F013FFDDE770B500F080F809B9027888
:105890000FE0042908BF42780BD0082908BF82789E
:1058A00007D00C2908BFC27803D010290CBF027999
:1058B0004279012A01D0012070BD11B90222027083
:1058C00014E0042902D1022242700FE0082902D11B
:1058D000022282700AE00C2902D10222C27005E085
:1058E000102907BF022202710223437100F04AF817
:1058F00000F036F818BF904208D088421FBFDFF88A
:10590000A450A842DFF8A060B04201D100F023F813
:105910002068984218BFB0F1804F0BD000F018F803
:105920001CBF174DA84205D000F00FF81CBF9042D5
:10593000884206D100F01AF818BFB1F5803F02D0B6
:10594000206800F035F8002070BD124B9842704777
:105950000A4B98427047456C45F4004545647047D2
:105960002068054B0C4A98420C49704781680C48E6
:105970000140062970470000002C0140000400404F
:10598000000800402068012200F0E0BA044604F15B
:105990003E007047000C00400034014000400140D0
:1059A000070001000044014000480140C160286830
:1059B000016841F001010160704700212970204613
:1059C000704704F13C056878704738B500F07EF800
:1059D00001D1022032BD012084F83C0052B1042ADA
:1059E00019D0082A29D00C2A38D0102A48D0142AD5
:1059F00057D067E0206800F023F92168886940F0FB
:105A000008008861886920F0040088618A69286933
:105A100002438A6156E0206800F054F920688169E9
:105A200041F400618161816921F480618161816952
:105A30002A6941EA0221816144E0206800F07CF992
:105A40002168C86940F00800C861C86920F00400F6
:105A5000C861CA6928690243CA6133E0206800F05E
:105A6000A3F92068C16941F40061C161C16921F4F1
:105A70008061C161C1692A6941EA0221C16121E0F5
:105A8000206800F0B8F92168486D40F008004865CA
:105A9000486D20F0040048654A6D286902434A6554
:105AA00010E0206800F0D1F92068416D41F40061F8
:105AB0004165416D21F480614165416D2A6941EA8A
:105AC00002214165002084F83C0032BD044694F870
:105AD0003C000D460128704738B500F04FF801D161
