:020000040800F2
:1000000060370020A57B0008D97B0008DB7B000857
:10001000DD7B0008DF7B0008E17B0008E57B000852
:100020000000000000000000000000008D450008F6
:10003000E37B00080000000049450008C56E000889
:10004000E97B0008ED7B0008F17B0008F57B0008E8
:10005000F97B0008FD7B0008017C0008057C000896
:10006000097C00080D7C0008117C0008157C000844
:10007000197C00081D7C0008217C0008257C0008F4
:10008000297C00082D7C0008317C0008357C0008A4
:10009000397C00083D7C0008417C0008457C000854
:1000A000497C00084D7C0008517C0008557C000804
:1000B000597C00085D7C0008617C0008657C0008B4
:1000C000697C00086D7C0008717C0008757C000864
:1000D000797C00087D7C0008817C0008857C000814
:1000E000897C00088D7C0008917C0008957C0008C4
:1000F000997C00089D7C0008A17C0008A57C000874
:10010000A97C0008AD7C0008B17C0008B57C000823
:10011000B97C0008BD7C0008C17C0008C57C0008D3
:10012000C97C0008CD7C0008D17C0008D57C000883
:10013000D97C0008DD7C0008E17C0008E57C000833
:10014000E97C0008ED7C0008F17C0008F57C0008E3
:10015000F97C0008FD7C0008017D0008057D000891
:10016000097D00080D7D0008117D0008157D00083F
:10017000197D0008000000001D7D0008000000003F
:10018000217D0008257D0008297D00082D7D0008BF
:10019000317D0008357D0008397D00083D7D00086F
:1001A000417D0008457D0008497D00084D7D00081F
:1001B000517D000800000000557D0008597D0008B1
:1001C0005D7D000800000000617D0008657D00087D
:1001D000697D00086D7D0008717D0008757D00084F
:1001E000797D00087D7D0008817D0008857D0008FF
:1001F0000000000000F5E0700268914203D28068C0
:100200000028F9D1704743681A449142F7D27047E9
:100210001749086880B94FF4805048604FF4803225
:100220004FF0FF30C86008610420124B8A604861BB
:10023000C3F8BC01104808600120704701F10803B1
:1002400013F0070F0EBF0023C3F1080303F00703E9
:100250001944D21A8161C26042F001034B60091D4A
:100260004FF0280C41F802C0014A1369C36170477E
:1002700038330020F42C00206859883C2DE9F84FD1
:1002800084B00646AFF30080F52E1E4D80F0138239
:100290000B2E31BF10260B36F608F6002868F4083E
:1002A000E04010F0030F4AD0C04300F001000419F1
:1002B00005F1280000EBC408E700D8F80860706872
:1002C000C008C000B84218BF01F01EFAD6F8089066
:1002D000464508BF01F018FA4E4508BF01F014FA70
:1002E0007068C008C000B84218BF01F00DFAC845D8
:1002F0000AD12868012101FA04F420EA04042C60E0
:1003000010E000BFF42C00202869814508D3D9F8FB
:100310000C10B14204D1C8F80890C9F80C8001E073
:1003200001F0F2F947F00300311D7060301DCA5929
:1003300042F00102C25106F1080800F024BFA9688A
:10034000B14280F0AA83002800F0A2804FF001089B
:1003500008FA04F1490000FA04F4484201430C4051
:1003600060420440641E200B00F01000C44061098C
:1003700001F00801CC40A20802F00402D440630856
:1003800003F002030818DC401018C4F340071818E3
:100390003818FC40241805F1280000EBC40AE700D7
:1003A000DAF80890D9F80400C008C000B84218BFB5
:1003B00001F0AAF9D9F808B0D14508BF01F0A4F9B5
:1003C000D94508BF01F0A0F9D9F80400C008C00061
:1003D000B84218BF01F098F9DA4506D1286808FA42
:1003E00004F420EA04042C600DE029698B4508D34D
:1003F000DBF80C00484504D1CAF808B0CBF80CA0D3
:1004000001E001F081F9BF1B46F0030009F104028D
:10041000C9F8040047F00101915109EB060201926D
:10042000D751AC684FEAD40ABAF11F0F88BF01F068
:100430006BF934B3CDF800A005F128006E6900EB2C
:10044000CA0AD346102C38BF01F05EF9296800981B
:1004500021FA00F2D30704D408FA00F00843286018
:1004600007E0DAF80800296988422CBF834601F0CA
:100470004BF9CAF80860CBF80C60C6F808B0C6F8AB
:100480000CA0AF6009F108080198686100F07BBE1C
:100490006868002800F0238341420840401E010B99
:1004A00001F01001C840420902F00802D040830860
:1004B00003F00403D840440804F002045118E0405B
:1004C0005918C0F34007611805F598787918F84075
:1004D000401858F820104868C008C0008A46A0EBB1
:1004E000060B08E001464868C008C000801B58455C
:1004F0003CBF83468A4608690028F3D14969002930
:10050000F1D128698245C0F0D380DAF80410C90817
:1005100006EB0B09C900494518BF01F0F5F80AEBD5
:1005200006008245019080F0C380DAF80C40DAF8CA
:10053000187054450DD0DAF808002969884223D391
:10054000C268524504BFA16851451DD1C460A06076
:100550001CE00AF114010C6834B90AF110010C68AE
:10056000A4B101E011460C6804F1140210680028DF
:1005700002BF04F1100210680028F3D128698142FB
:1005800002D300220A6001E001F0BEF8002F38D04B
:10059000DAF81C0008EB80010A6892450AD11CBBFE
:1005A0006A68012303FA00F022EA00006860002074
:1005B000086026E029698F4213D33869504514BF7B
:1005C0007C613C61ECB129698C4218D3A761DAF8EF
:1005D000100058B1884226BF2061846101F094F870
:1005E00004E001F091F8EDE70C60ECE7DAF81400B4
:1005F00038B12969884202D36061846101E001F069
:1006000083F8BBF1100F0ED249F003000AF1040188
:10061000CAF804000AF1040051F8092042F001026E
:1006200040F809203EE046F003010AF10402CAF84E
:1006300004104BF001009051019941F80BB0A868EB
:100640000090C4081F2C88BF01F05EF8009828B302
:1006500005F1280000996F6900EBC408C146102914
:1006600038BF01F051F8286820FA04F1CA0705D410
:10067000012101FA04F404432C6007E0D8F80800D3
:10068000296988422CBF814601F03EF8C8F80870FD
:10069000C9F80C70C7F80890C7F80C80C5F808B006
:1006A000019868611AF1080800F0F78100F06BBD4D
:1006B00001F02AF8F1E116F1400F28BF4FF0FF36A4
:1006C00080F0EB810B36F6086B68F600002B00F02B
:1006D000E4810027300AC6F1000908BF002423D0B6
:1006E000B0F5803F28BF1F241ED2A0F58071090CF1
:1006F00001F008018840A0F58052120C02F00402BB
:100700009040A0F58044240CC1F10E0104F00204D5
:10071000891A091BA04001EBD031C81D26FA00F44C
:1007200004F0010404EB410405F5987858F824001E
:1007300040B31F2C0FBFB4464FEA540CCCF1190C38
:1007400006FA0CFCBE46494601E04FEA4C0C4268F2
:10075000D208D200921B8A4207D3426910304FEA76
:10076000DC7950F829003AB103E011000746F4D1D2
:1007700005E0824218BF96460028E6D170468946B9
:10078000A8BBB7BB012101FA04F464006042044332
:10079000234000F08281584203405B1E180B00F09A
:1007A0001000C340590901F00801CB409A0802F03B
:1007B0000402D3405C0804F002040818E340101857
:1007C000C3F3400C2018604423FA0CF31B1858F8AC
:1007D00023000CE008464168C908C900891B494547
:1007E0003CBF8946074601690029F3D140690028CA
:1007F000F1D1002F00F05181A868801B814580F065
:100800004C8129698F42FFF453AF7868C008C0005B
:1008100006EB0901884218BF00F076FF07EB060BD4
:100820005F45BFF445AFFC68D7F818A0BC420CD0B8
:10083000B8682969884223D3C268BA4204BFA16854
:10084000B9421DD1C460A0601CE007F114010C681E
:1008500034B907F110010C68A4B101E011460C682D
:1008600004F114021068002802BF04F1100210689D
:100870000028F3D12869814202D300220A6001E0F6
:1008800000F042FFBAF1000F39D0F86908EB80019F
:100890000A6897420AD134BB6A68012303FA00F060
:1008A00022EA000068600020086028E029698A4583
:1008B00016D3DAF81000B84214BFCAF81440CAF8C8
:1008C0001040E4B129698C4217D3C4F818A03869E4
:1008D00058B1884226BF2061846100F015FF04E012
:1008E00000F012FFEDE70C60ECE7786938B1296998
:1008F000884202D36061846101E000F005FFB9F134
:10090000100F0CD2B14449F00300391D7860381D36
:1009100051F8092042F0010240F80920B9E046F000
:1009200003013A1D796049F0010090514FEAD90066
:100930004BF809901F2822D805F1280101EBC004CB
:10094000296821FA00F2D307A04605D4012202FA51
:1009500000F00843286006E0A068296988422CBF9F
:10096000804600F0D1FEC4F808B007F10800C8F8CE
:100970000CB040F8068007F10C018C5189E05FEA69
:10098000192008BF002123D0B0F5803F28BF1F21C8
:100990001ED2A0F58072120C02F008029040A0F561
:1009A0008051090C01F004018840A0F580431B0C24
:1009B000C2F10E0203F00203521AD21A984002EB5F
:1009C000D032D01D29FA00F101F0010101EB420102
:1009D00007F11403CBF81C1000229A5107F1100301
:1009E00008EB81009A516A6822FA01F3DC0711D4FE
:1009F000012303FA01F111436960C0F800B0CBF89C
:100A0000180007F1080107F10C0040F806B041F8A2
:100A100006B03EE002681F291DBF4908C1F1190157
:100A200009FA01F1494600E002465068C008C000DA
:100A3000484518D002F11003C80F03EB80034900AA
:100A400018680028F0D12869834220D3C3F800B089
:100A500007F10C01CBF8182041F806B007F10800A7
:100A600040F806B015E0296990688A4228BF88429C
:100A70000DD3C0F80CB007F10801C2F808B08851D6
:100A800007F10C0082510022CBF8182001E000F0A1
:100A90003BFE17F1080840F07683A868B0421ED3E9
:100AA000811B6A6910290AD3141DA96041F0010055
:100AB0009319A051595046F0030656600BE00021EF
:100AC000A96040F00304111D5460141D0E5846F037
:100AD0000106265000236B6102F1080853E3E86821
:100AE0008642C0F04083DFF8D89BD9F8000008B9EF
:100AF000FFF78EFBD9F8081088192F30491E20EA1D
:100B000001018E4280F03D8305F5D877B86838B191
:100B10003A6889188A4280F034838842C0F0318371
:100B200000F0F6FD00281CBFD0F8008010F1010F86
:100B300000F027833968AC6941443960D5F8B021A9
:100B4000D5F8B4118A4238BF0A467A6004BB2969D5
:100B500009B1884200D2286100213861C7F81480A9
:100B6000F9614FF0FF31D9F800206A62296205F17E
:100B7000280200219260D26002F1080353611361E0
:100B8000891C10321F29F5D9A8F1280201461DE061
:100B900005F5E0710A46814600E09268D2B110681E
:100BA000536803449945F8D1107B030712D41368A6
:100BB0009C420FD3D2F804C063449C420AD2C4447E
:100BC000C2F804C02146E86808EB00022846FFF797
:100BD00035FBC5E22869814538BFC5F8109009EB9F
:100BE000080000E08968002900F0C1810A6882429B
:100BF000F8D1087B020700F1BA810868C1F80090BB
:100C00004A6842444A6009F1080111F0070F08BF21
:100C1000CDF8049006D0C1F1080101F0070109EBFD
:100C20000102019200F1080111F0070F04D0C1F197
:100C3000080101F00701084480460198A8EB000173
:100C40008419A1EB060B274646F00306466047458C
:100C500028BF00F059FD98F80400C10758BF00F004
:100C600053FDBBF1100F38BF00F04EFDA869804561
:100C700008D1E9688B44C5F80CB0AF614BF00100B6
:100C8000786070E1686980450AD1A9686F618B441A
:100C9000C5F808B04BF00100786047F80BB062E18E
:100CA000D8F8040000F00301012940F0BC80C0081E
:100CB000C000C1081F29039040D8D8F8082000922E
:100CC000D8F80C600291B04508BF00F01DFD0098F7
:100CD000804508BF00F018FDD8F804000299C0084C
:100CE000C000B0EBC10F18BF00F00EFD0299009AD2
:100CF00005F1280000EBC100824208D011462A69A4
:100D00009142C0F08B80CA68424540F087800099CC
:100D10008E4206D102982A68012383409A432A60B2
:100D20007EE0864205D029698E4277D3B06840457F
:100D300074D10098C6600099B16071E0D8F81800CD
:100D40000090D8F80C6046450DD0D8F80800296905
:100D5000884223D3C268424504BFB16841451DD1D2
:100D6000C660B0601CE008F114010E6836B908F1E5
:100D700010010E68A6B101E011460E6806F11402DA
:100D80001068002802BF06F1100210680028F3D195
:100D90002869814202D300220A6001E000F0B4FC1D
:100DA000009800283CD0D8F81C0005F5987101EB9C
:100DB00080010A6890450AD12EBB6A68012303FAB4
:100DC00000F022EA000068600020086028E0009936
:100DD0002869814214D30869404514BF4E610E61F1
:100DE000F6B129698E4219D30098B061D8F8100085
:100DF00058B1884226BF3061866100F085FC04E06E
:100E000000F082FCECE70E60EBE7D8F8140038B194
:100E10002969884202D37061866101E000F074FCA8
:100E2000039988448B44D8F8041049084900C8F84D
:100E300004104BF0010078604FEADB0647F80BB076
:100E40001F2E22D805F1280000EBC604A146BBF1F5
:100E5000100F38BF00F058FC286820FA06F1CA07C6
:100E600005D4012101FA06F606432E6006E0A068CB
:100E7000296988422CBF814600F046FCA760C9F86A
:100E80000C70C7F80890FC606DE05FEA1B2008BF9B
:100E9000002123D0B0F5803F28BF1F211ED2A0F52E
:100EA0008072120C02F008029040A0F58051090CEB
:100EB00001F004018840A0F580431B0CC2F10E0232
:100EC00003F00203521AD21A984002EBD032D01D1E
:100ED0002BFA00F101F0010101EB4201F96100235D
:100EE00005F598727B6102EB81003B616A6822FA2A
:100EF00001F3DE0707D4012303FA01F1114369600E
:100F00000760B8611DE002681F291DBF4908C1F1D3
:100F100019010BFA01F1594600E002465068C00879
:100F2000C000584510D002F11003C80F03EB800336
:100F3000490018680028F0D12869834211D31F6046
:100F4000BA61FF60BC600EE0296990688A4228BFE0
:100F5000884206D3C7609760B860FA600020B86125
:100F600001E000F0D1FB019800F108080BE12146F7
:100F70002846FFF73FF90168406808440090A0F157
:100F8000270111F0070000980EBF0021C1F10801F0
:100F900001F007010844A0F12F0B04F110018B456B
:100FA00038BFA3460BF11802002102920191A8F16B
:100FB000280249462846FFF741F90BF1080010F0D6
:100FC000070F18BF00F0A0FB1B20CBF8040005F5AD
:100FD000E07292E809500BF1080181E80950002104
:100FE0000BF10800F961B861009A02980199C7F8FD
:100FF0001090C7F81480072300E0001D491C00F181
:10100000080797424360F8D30129D8BF00F07CFB62
:10101000A34500F0A580ABEB040B201D221D50F86A
:101020000B104908490042F80B104BF001006060BA
:101030004FEADB0944F80BB0B9F11F0F22D805F1D4
:10104000280000EBC907B846BBF1100F38BF00F00D
:101050005BFB286820FA09F1CA0705D4012101FACF
:1010600009F10843286006E0B868296988422CBF66
:10107000804600F049FBBC60C8F80C40C4F808800A
:10108000E7606DE05FEA1B2008BF002123D0B0F5C8
:10109000803F28BF1F211ED2A0F58072120C02F0E3
:1010A00008029040A0F58051090C01F0040188402D
:1010B000A0F580431B0CC2F10E0203F00203521A8A
:1010C000D21A984002EBD032D01D2BFA00F101F079
:1010D000010101EB420105F59872002302EB81004A
:1010E000E161636123616A6822FA01F3DF0707D4D3
:1010F000012303FA01F1114369600460A0611DE05E
:1011000002681F291DBF4908C1F119010BFA01F13D
:10111000594600E002465068C008C000584510D04B
:1011200002F11003C80F03EB800349001868002880
:10113000F0D12869834211D31C60A261E460A460ED
:101140000EE0296990688A4228BF884206D3C460AD
:101150009460A060E2600020A06101E000F0D4FA99
:10116000E86886420DD2801BA969E8608A19AA61E5
:1011700040F00100506046F003064E6001F108089F
:1011800001E04FF00008AFF30080404605B0BDE835
:10119000F08F002800D170472DE9F047A0F1080535
:1011A000AFF30080DFF85C6531698D42C0F0848266
:1011B000686800F00302012A00F07E82C2084FEA4C
:1011C000C209C20705EB090839D42C6810F0030FD7
:1011D00000F06E82604205448D42A144C0F06C82F2
:1011E0007069854200F0DE80E408202C72D2D5F8C8
:1011F0000CA0AF68554508BF00F086FABD4208BF95
:1012000000F082FA6868C008C000B0EBC40F18BFD5
:1012100000F07AFA06F1280000EBC400874205D0FE
:1012200031698F4253D3FA68AA4250D1BA4540D1AE
:101230003068012101FA04F420EA040434604545D1
:1012400080F03A82D8F80440E00740F13582A107E7
:1012500000F18381B069804540F0B780F168B561E5
:101260008944C6F80C9049F00100686071698D42AC
:1012700002D100207061B060F169494580F01882A8
:10128000DFF83C24106808B9FEF7C2FFB1690029F5
:1012900000F00E82F068292824BF3046FEF7AAFF2E
:1012A000F069F168884280F003824FF0FF30F0610E
:1012B000FEE1824506D03069824508D3DAF808108D
:1012C000A94204D1C7F80CA0CAF80870B7E700F02B
:1012D0001BFAB4E7EC68AF69AC420BD0A86888424F
:1012E00022D3C168A94204BFA268AA421CD1C4602B
:1012F000A0601BE005F11402146834B905F1100276
:1013000014689CB101E01A46146804F114031868CB
:10131000002802BF04F1100318680028F3D18A42A4
:1013200002D30021116001E000F0EEF9002F86D019
:10133000E86906F5987101EB80010A6895420AD1C7
:1013400024BB7268012303FA00F022EA00007060F7
:101350000020086073E731698F4214D33869A842CE
:1013600014BF7C613C61002C3FF469AF31698C4251
:10137000ADD3A761286958B1884226BF2061846136
:1013800000F0C2F904E000F0BFF9ECE70C60EDE713
:10139000686900283FF453AF3169884297D3606190
:1013A00084614CE798F8040000F0030003287FF400
:1013B00046AFC6F8089049F00101D8F8040040088B
:1013C0004000C8F8040069600AE0706980450AD1ED
:1013D000B16875618944C6F8089049F001006860F9
:1013E00045F8099064E1E408E400A144E408202CF5
:1013F0003AD2D8F80CA0D8F80870D04508BF00F051
:1014000083F9B84508BF00F07FF9D8F80400C00898
:10141000C000B0EBC40F18BF00F076F906F1280049
:1014200000EBC400874207D031698F42C0F088804A
:10143000FA68424540F08480BA4507D130680121FE
:1014400001FA04F420EA040434607BE0824506D00B
:101450003069824574D3DAF80810414570D1C7F875
:101460000CA0CAF808706DE0D8F80C40D8F81870D5
:1014700044450DD0D8F808003169884223D3C268AA
:10148000424504BFA16841451DD1C460A0601CE075
:1014900008F114010C6834B908F110010C68A4B10A
:1014A00001E011460C6804F114021068002802BF24
:1014B00004F1100210680028F3D13069814202D390
:1014C00000220A6001E000F01FF9002F3AD0D8F89E
:1014D0001C0006F5987101EB80010A6890450AD15D
:1014E0001CBB7268012303FA00F022EA000070605E
:1014F0000020086026E031698F4213D338694045E7
:1015000014BF7C613C61ECB131698C4218D3A76196
:10151000D8F8100058B1884226BF2061846100F0DD
:10152000F3F804E000F0F0F8EDE70C60ECE7D8F831
:10153000140038B13169884202D36061846101E0EE
:1015400000F0E2F849F00100686045F8099071691F
:101550008D420BD1C6F80890AAE064086400C8F870
:10156000044049F00100686045F809904FEAD90746
:10157000202F22D206F1280000EBC704A046B9F1C3
:10158000100F38BF00F0C0F8306820FA07F1CA0722
:1015900005D4012101FA07F70743376006E0A06888
:1015A000316988422CBF804600F0AEF8A560C8F8CB
:1015B0000C50C5F80880EC607AE05FEA192008BF9B
:1015C000002123D0B0F5803F28BF1F211ED2A0F5F7
:1015D0008072120C02F008029040A0F58051090CB4
:1015E00001F004018840A0F580431B0CC2F10E02FB
:1015F00003F00203521AD21A984002EBD032D01DE7
:1016000029FA00F101F0010101EB420106F598729F
:10161000002302EB8100E9616B612B61726822FAA1
:1016200001F3DC0707D4012303FA01F111437160D0
:101630000560A8611DE002681F291DBF4908C1F1AE
:10164000190109FA01F1494600E002465068C00854
:10165000C000484510D002F11003C80F03EB80030F
:10166000490018680028F0D13069834211D31D6009
:10167000AA61ED60AD600EE0316990688A4228BFD2
:10168000884206D3C5609560A860EA600020A86122
:1016900001E000F039F8306A401E08D13062D6F817
:1016A000C80100E080680028FCD14FF0FF303062B4
:1016B000AFF30080BDE8F08700F026F8F8E70000FF
:1016C0003833002038B5002558B141EA0002120C29
:1016D00001FB00F512041EBFB5FBF0F088424FF08D
:1016E000FF352846FEF7CAFD04001CBF14F8040CA1
:1016F00010F0030F03D02946204600F01FF82046C3
:1017000032BD0000F42C0020012000F01BB82E0098
:101710000749086808B1002070470648C008C000A3
:1017200008600549C908C900091A0160704700BF6F
:101730005C3300206737002060390020002200F071
:101740000BB8000080B500F011F8024A1100182013
:10175000ABBEFBE7260002004018491C1CBFB1F1DC
:10176000010100F8012DF9D17047000010B500F01B
:101770003BF8020000230024E4431068A04203D099
:1017800011000220ABBE13605068A04203D0111DAF
:101790000220ABBE536010BDF0B583B0040000F072
:1017A00023F8A10047183D680026F643B54216D13C
:1017B000AFF300803D68B5420FD100BF09A0009093
:1017C000002C01D1002000E00420019003200290B1
:1017D00069460120ABBE05003D60AFF300802800E4
:1017E00003B0F0BD3A74740000487047B4010020A3
:1017F0002DE9F14FB0B0924604910DF142013A9AB1
:101800002B9199464A7000200AE01AF8011B0498AF
:10181000309A90470028049000F06B860D98401C89
:101820000D909AF8000050B12528EED10021002239
:101830000791089209910A920B910C9204E00D987D
:1018400000F059BE41F001011AF8010F2028F9D02B
:1018500023280CD02B2804D02D2805D0302809D0DF
:101860000BE041F00201EFE741F00401ECE741F049
:101870000801E9E741F01001E6E72A280FD1D9F87D
:10188000002052F8040BC9F8002000280F9003D55F
:1018900040420F9041F004010AF1010A14E00F9256
:1018A000DFF8583C0AE00F98984205DA00EB800414
:1018B00002EB4402303A0F920AF1010A9AF8002032
:1018C000A2F130000A28EED39AF800002E2803D0A7
:1018D0004FF0FF320E9229E01AF8010F2A2809D1A1
:1018E000D9F8000050F8042BC9F800000E920AF154
:1018F000010A1BE02D280CBF0AF1010A002000227A
:101900000E92DFF8F84B0BE040B90E9AA24205DACE
:1019100002EB820503EB4503303B0E930AF1010A0B
:101920009AF80030A3F130020A2AEDD3ADF8401046
:101930000FF6CC309AF8001000F0F2FE08B11AF859
:10194000010B8DF842009DF84200682805D19AF8F5
:10195000000068280CD1622106E06C2804BF9AF8C8
:1019600000006C2804D171218DF842100AF1010A9F
:1019700012A806901AF801BBBBF125012CD01C3926
:1019800000F0D781091F022940F2D381133900F0FA
:10199000E284093900F0CD81891E00F07785491E67
:1019A00000F02485491E022940F2C381091F00F07E
:1019B0001D85491F00F03281491E00F0CC84491E6C
:1019C00000F0D880C91E0DD0891E00F0C484C91E45
:1019D00000F0C18400F065BD25238DF84830012159
:1019E00000F06ABDD9F8000050F8044BC9F80000B7
:1019F000002C059440F0AB802B994878002800F02B
:101A0000A1804FF0FF340FF6003000F095FE201A51
:101A100040F06F8500F051BD01236A4602A93046AF
:101A200000F042FE002840F064856D1EF4D130962F
:101A3000079D12AF75B1309E17F8012B02A93046F1
:101A400000F022FE002801D46D1EF5D1002830964A
:101A500040F04F850A9D3020002D8DF800000CDDF0
:101A6000309E01236A4602A9304600F01DFE002880
:101A700040F03F856D1EF4D13096059F089D75B1ED
:101A8000309E17F8012B02A9304600F0FDFD00281A
:101A900001D46D1EF5D10028309640F02A850B9DAB
:101AA0003020002D8DF800000CDD309E01236A46A9
:101AB00002A9304600F0F8FD002840F01A856D1E9E
:101AC000F4D1309605980899099D471875B1309E54
:101AD00017F8012B02A9304600F0D6FD002801D4EA
:101AE0006D1EF5D10028309640F003850C9D302006
:101AF000002D8DF800000CDD309E01236A4602A9FE
:101B0000304600F0D1FD002840F0F3846D1EF4D182
:101B100030969DF8400041077FF583AE2020002CD1
:101B20008DF800007FF77DAE309D01236A4602A943
:101B3000284600F0B9FD002840F0DB84641EF4D193
:101B400030956EE60FF6C030059000F0B6BC0E9DE5
:101B5000002D04D5204600F00FFE044607E02A467B
:101B6000204600F025FE002814BF041B2C460894D4
:101B700000F0A3BCD9F8001051F8040BC9F800100C
:101B800020F00004002121F0FF3512ABCDE9024521
:101B90000593DDE9022306993C2413B90AB90E988E
:101BA000A8B102F00F053035641EEEB23A2E08DA05
:101BB000120942EA03721B090D5508BF002A02D11F
:101BC00005E02735F4E705980D19A842E9D308196F
:101BD0000590C4F13C020E98089282420ADABDF8E0
:101BE0004010821A4FF6EF7001400A92ADF8401093
:101BF00000F063BC002840F160849DF8400000F0D4
:101C00001400102840F059840F9B07990A985B1A1A
:101C10001B1A9A1A002A40F350849AE32B994878A9
:101C200020B14FF0FF340FF6B020EEE69DF84200F1
:101C3000622860D0682817D06A283FD06C2806D068
:101C4000712847D074282CD07A281DD062E0D9F8AA
:101C5000001051F8040BC9F80010002866D14FF0AD
:101C6000FF340FF68C20D0E6D9F8001051F8040BA1
:101C7000C9F8001020B94FF0FF340FF67420C4E605
:101C80000D99018000F019BCD9F8001051F8040B2F
:101C9000C9F80010002849D14FF0FF340FF650204A
:101CA000B3E6D9F8001051F8040BC9F80010002869
:101CB0003CD14FF0FF340FF63820A6E6D9F80010DB
:101CC00051F8040BC9F8001080B94FF0FF340FF63B
:101CD00020209AE6D9F8001051F8040BC9F800103A
:101CE00020B94FF0FF340FF608208EE60D9AD31777
:101CF000C0E90023E1E3D9F8001051F8040BC9F85A
:101D0000001020B94FF0FF340FF6E4107DE60D9976
:101D10000170D2E3D9F8001051F8040BC9F8001093
:101D200020B94FF0FF340FF6C8106EE60D99016030
:101D3000C3E3D9F80020D21D22F00702C9F8002021
:101D4000D2E900010832C9F80020CDE90201C80F2C
:101D500002D007982D210AE0BDF84000810702D586
:101D600007982B2103E0C00705D50798202112AA68
:101D70001154401C079012A80799DDE90245431849
:101D80004BF020006128059321AE0BD00E9800285F
:101D900002D506200E9005E001BF4BF02000672819
:101DA00001210E91DDE9020148004015401C0A4660
:101DB0000DD109030BD0ABF1610703201A2F089056
:101DC00002D20FF648110DE00FF644110AE070B987
:101DD00012030CD1ABF1610703201A2F08901CD31A
:101DE0000FF634110322184600F00EFD65E3DDE91D
:101DF00002016A4600F014FDCDE902014BF020001B
:101E0000612811D1059830210170821CBBF1610F4E
:101E100005920CBF7821582102E00FF6F801E1E7A6
:101E200041700798801C0790DDE9020120F0000254
:101E300031F0004308BF002A02D10025002445E10B
:101E40004BF02008B8F1610F40F095800E98002803
:101E500047BF21210191401C0190019F7F1C20461A
:101E6000294600220023DDE9024500F011FD00991A
:101E70008DF8842038BF85F00045091F002F0091A0
:101E80000DF1850034DD0646204629460022002358
:101E900000F018FD2BD21C2200F02EFD04460D464A
:101EA00000F0C8FDFF1F002F804609DD00F0DEFDB9
:101EB00002460B462046294600F0A0FE04460D4689
:101EC000F01D0721B8F1000F0CDD491E5EBF08F0C0
:101ED0000F0200F8012D4FEA2818F3D502E0002286
:101EE00000F8012D491EFAD5C61D002FCCDC304666
:101EF0000DF18501401A019905468842C8BF0D467B
:101F0000002D0DF185062FD4854206DA0DF18500EE
:101F1000415D0829A8BF0F2000DA0020294621AA28
:101F20000A4400E06D1E12F80139491E8342F9D0BF
:101F30000F2804D10DF18500425C521C4254002947
:101F400004D50098001D21AE6D1C0090681E0BD4B6
:101F500031180A783032D3B23A2BA4BF5A443A3AF5
:101F6000401E01F80129F4D50E98002840F1AD80FB
:101F7000691E0E91A9E00099DFF8FC2647F2975000
:101F8000414391FBF2F2009225F00045C2F10702B5
:101F9000002A04DD2046294600F04AFB0BE05242AD
:101FA0000020DFF8D81600F043FB02460B4620461F
:101FB000294600F095FE0446B8F1660F0E9806BF5C
:101FC000009F0A3706273F18142FC8BF1427302058
:101FD0008DF884000D460DF1850000E03046002F9D
:101FE00035DD06462046294600F09EFF01460A469A
:101FF00006F1080304200A26B2FBF6F606EB860E6D
:10200000A2EB4E02303203F8012C0A22B6FBF2F2A8
:1020100002EB820EA6EB4E063036401E03F8026D30
:10202000E9D1083F002F03F10806D7DD084600F08C
:102030008DFF02460B462046294600F0DFFD0022B8
:10204000DFF83C3600F090FF04460D46CAE70DF17C
:102050008501401A0DF1850604E00099491E401ED5
:102060000091761C31783029F7D0B8F1660F02D193
:102070000099491C04E0B8F1650F0CBF0121002153
:102080000E9D4D19A842B8BF451E002D1DD4854296
:1020900004DA705D3428C8BF392000DC30202946BE
:1020A000721E531800E06D1E13F80149491E844248
:1020B000F9D0392802D1705C401C7054002904D535
:1020C0000098401C16466D1C0090009C01F022F800
:1020D000406A0778DDF8388028B2002802DC012544
:1020E0000FF238664BF02000662808BF641C16D03B
:1020F000672846D120B210F1040F48DB404546DA8C
:102100009DF84000641C010703D428B24045D8BFA5
:10211000804620B2B8EB000848BF4FF000080FFA25
:1021200084FBBBF1000F00F3B5800898411C0891B7
:10213000302205990A54B8F1000F03DC9DF84000E5
:10214000010704D50898411C089105990F5418EB14
:102150000B0FB8BFC8F1000424B260420B90A0443A
:102160002AB29045B8BF4546059B08982DB20995FF
:102170002A463146184400F047FBA8EB05000C90B6
:10218000D2E0BBF1610F17D14FF0700B19E028B20C
:10219000404504DA9DF840100A0758BF8046B8F160
:1021A000010848BF4FF00008BBF1670F14BF4FF0A4
:1021B000450B4FF0650B04E0BBF1410F08BF4FF03A
:1021C000500B0898411C0891B8F1000F059916F8BA
:1021D000012B0A5403DC9DF8400001071AD508982A
:1021E000411C0891B8F1000F05990F5412DD6D1EC6
:1021F00028B280450598089BB8BF45462AB23146AB
:10220000184400F001FB08992DB269180891A8EB59
:1022100005000B9005980899084421B2002980F820
:1022200000B003D42B224270821C04E02D224270A5
:102230000C46821C644200212CAB20460AE0044676
:102240000A2094FBF0F000EB8005A4EB450403F8B2
:10225000014B491C00B20028F1DC012906DC4BF0DF
:102260002000652804BF302002F8010B00292CABA8
:1022700008D1302002F8010B06E0491E585C3030CE
:1022800002F8010B0029F8DC059908980844121A95
:10229000099249E028B221B288421CDA0598089BCD
:1022A0002AB23146184400F0AFFA08992DB26918E5
:1022B0000891ABEB0500B8F1000F0B9003DC9DF823
:1022C0004000020704D5059847540999491C099113
:1022D000CDF8308028E00598089B22B2314618449A
:1022E00000F092FA08982D1B5844B8F1000F08909E
:1022F00003DC9DF840100A0703D5411C089105999D
:102300000F5428B280450598089BB8BF45462AB2AD
:1023100006EB0B01184400F077FA08982DB2281844
:102320000890A8EB05000B909DF8400000F0140009
:10233000102840F0C280079A08990B988A180999CA
:1023400082180C988A1882180F98824280F2B58001
:10235000821A0A92B1E09DF84200622808D06828EB
:102360000ED06A2814D06C281FD0712810D01CE021
:10237000D9F8001051F8040BC9F80010C0B21AE0E7
:10238000D9F8001051F8040BC9F8001080B212E01F
:10239000D9F80020D21D22F00702C9F80020D2E9A6
:1023A00000010832C9F8002006E0D9F8001051F801
:1023B000040BC9F800100021CDE902019DF840008E
:1023C00001075AD5DDE90223002B08BF002A54D0AB
:1023D0004BF02000782850D1079812A930220A54D7
:1023E000401C431C079301F800B046E09DF84200F2
:1023F000622808D068280ED06A2814D06C281FD014
:10240000712810D01CE0D9F8001051F8040BC9F85D
:10241000001040B21AE0D9F8001051F8040BC9F8C6
:10242000001000B212E0D9F80020D21D22F00702FD
:10243000C9F80020D2E900010832C9F8002006E0FE
:10244000D9F8001051F8040BC9F80010C117CDE9F4
:102450000201002902D507982D210AE0BDF84000AD
:10246000810702D507982B2103E0C00705D50798FF
:10247000202112AA1154401C079012A80799014468
:10248000059102A8594600F04DF816E0012007908A
:10249000D9F8000050F8041BC9F800008DF8481066
:1024A0000BE025210122BBF1000F8DF848100792A7
:1024B00003D08DF849B0022107910F9A07980A9925
:1024C0000C9C121A0898521A0B99121A0998521A4F
:1024D000121A9DF84000141B41073FF5A9AA2020BD
:1024E000002C8DF800007FF7A3AA309E2546FFF749
:1024F00093BA4FF0FF3031B0BDE8F08FCBCCCC0CAD
:10250000686A6C747A4C00007072696E74665F73EE
:102510003A2062616420257320617267756D656E73
:10252000740000002DE9FC4304466F29256908BFAB
:10253000082605D041F02000782814BF0A2610266E
:102540003C27D4E90023642918BF6929904699469D
:1025500005D1002B03D5D8F1000869EB4909B9F181
:10256000000F08BFB8F1000F0CD1206B50B9082E36
:102570003AD194F83800010736D530203B2785F84A
:102580003B0031E08DF80010404649463246F317D3
:1025900000F0C4FD3032D0B27F1E3A2801970EDA27
:1025A000EA55404649463246F31700F0B7FD8046EB
:1025B0005FEA010908BFB8F1000F05D108E09DF8F6
:1025C00000001218513AEBE7E068E9198842DBD3C2
:1025D000082E09D194F83800010705D5E85D3028A8
:1025E00002D07F1E3020E855C7F13C02A261E919F4
:1025F000E160206B824208DA821A22624FF6EF70A5
:10260000218F01402187BDE8F38300280ED594F87F
:10261000380000F01400102808D1636B6169206A4B
:102620005B1A1B1A9A1A002AC8BF2262BDE8F383FC
:102630002DE9D04306460F4614464FF00008DFF858
:10264000449012E0E00707D542464B4630463946F3
:1026500000F08AFC06460F464046494642464B4635
:1026600000F082FC641080468946002CEAD1304696
:102670003946BDE8D0830000A08601000000F03F8D
:1026800084D797410000244010B503460C461146FC
:10269000A0689847A06020B1E06A401CE06200207A
:1026A00010BD4FF0FF3010BDF8B505460E46174679
:1026B0001C4600205CB117F8011BB068A847B06049
:1026C00030B1F06A401CF0620020641EF3D1F2BD0C
:1026D0004FF0FF30F2BD00007072696E74665F7378
:1026E0003A20256E20646973616C6C6F77656400B5
:1026F0007072696E74663A2062616420256E206192
:102700007267756D656E7400000000006E616E008A
:102710004E414E00696E6600494E46003000000092
:10272000C9B202788A421AB11CBF10F8012FF9E72A
:1027300018BF00207047000080B500B906A0054909
:102740000B681BB122220021984701E0FEF7DCFF55
:10275000222002BD58330020636F6E73747261696A
:102760006E742068616E646C65723A2062616420E8
:102770006D6573736167650000F10103810704D023
:1027800010F8011B820781B1FAD10268A2F1013170
:10279000914311F0803104BF50F8042FF6E709BAD5
:1027A000B1FA81F100EBD100401CC01A7047000063
:1027B000C9B2830706D0521E22D310F8013B9942BA
:1027C000F7D11FE0083A13D302F1040241EA0121D4
:1027D00041EA014150F8043B121F21BF4B40A3F1D5
:1027E000013C2CEA030C1CF0803FF3D0C9B2001F5F
:1027F000083210F8013B521E28BF91EA030FF8D8A7
:1028000018BF0120401E70474AB1000011F8013B7B
:10281000521E00F8013B1CBF11F8013BF8E770475E
:1028200010B5144600F002F8226010BDC1F30A533F
:1028300043B14A0012F5001F28D2A3F2FE32A1EBE9
:102840000251704750EA410C20D001F0004C31EAAF
:102850000C01B1FA81F204BFB0FA80F3D2180B3A3E
:10286000B2F120032CBF00FA03F1914041EA0C01C0
:102870003EBFC2F1200C20FA0CF3194390405242A3
:1028800040F2FD33D21A01EB03517047002270472A
:1028900041EA030C50EA4C0C52EA0C0C4FF4001CB9
:1028A00009D307D01CEB410F9CBF1CEB430F8B429D
:1028B00008BF824270471CEB430FFBD8994208BF08
:1028C0009042704741EA030C50EA4C0C52EA0C0C5F
:1028D0004FF4001C09D307D01CEB410F9CBF1CEB2D
:1028E000430F994208BF904270471CEB410FFBD841
:1028F0008B4208BF82427047124254D440F2FF7CA0
:102900001CEA11530FD0634531D09B1863453CBF7F
:1029100001EB0251704701F0004141EA0C510020E7
:10292000AFF30080704750EA410320D001F0004C23
:1029300091EA0C011CD0B1FA81F30B3B9A420DD9FC
:10294000D21A994051EA0C01C3F1200C20FA0CFC78
:1029500061449840531C40F2FF7CD7E7914041EA24
:102960000C01C2F1200C20FA0CF31943904070477F
:10297000B0FA80F31533202BE0D3202AEED3203A8F
:10298000203B9A4209D9D21A00FA03F141EA0C011C
:102990000020531C40F2FF7CB8E700FA02F141EA44
:1029A0000C0100207047524240F2FF7C1CEA115398
:1029B0000DD06345DBD0B2EB030C3CBFA1EB025161
:1029C00070470CF1010221EA035141F4801150EAF1
:1029D000410CCCD001F0004C352A27DC30B481EA20
:1029E0000C01B2F1200309DAC2F12003044601FA16
:1029F00003F5D0402843D1409C400CE0C3F12002B5
:102A0000450020FA03F418BF44F0010421FA03F052
:102A100091400C43002174F1004550F1000051EB4E
:102A20000C01244230BC7FF47BAF7047614600202C
:102A300076E70000C1F30A5340F21E42D31A0CDDC0
:102A4000CA0283F3070342EA505242F00042DA40DE
:102A500002EBE17282EAE17070476FEAE17203F221
:102A6000E13008B182F000407047000010F00041F2
:102A700060B148BF4042B0FA80F29040D21CC2F52B
:102A8000846241EA025202EBD02140057047000007
:102A9000841A71EB030604D26E40001BB141121977
:102AA00073414FF4001C1CEB410F34BF7CEB430619
:102AB00083E00C0DA4EB1356362E00F37C80012E20
:102AC00045EAC32341DC43EA525312BFD2029202C9
:102AD0005B08240545EAC12141EA5051D2EBC020F0
:102AE000994125D407D1B0FA80F610FA06F162D0E8
:102AF0000020203608E0B1FA81F6B140C6F120028C
:102B000020FA02F21143B0404FEAF474B4EB465499
:102B100034F001064FEA74040AD8D6F50016760D93
:102B200004F00044F04061FA06F25040F1404840A1
:102B3000C00A40EA415021F0004128BF5FEA500539
:102B400050F1000044EBD12135E0DB0A45EAC12118
:102B5000C90AB6F120050EDD42EA0242120CC5F1A7
:102B6000200603FA06F6EB4042EA06056D4298415C
:102B700061F100010DE062FA06F5F240554063FA9A
:102B800006FC82EA0C02F3405A406D42904161EB30
:102B9000030111F4801F05D1641E620502D06D008F
:102BA0004041494121F48011430875F1004350F13F
:102BB000000041EB045170BC70471CEB410F15D273
:102BC00023F0004352EA43060BD04FEA4C0CBCEB17
:102BD000410F04D80C0D661E342EB7DDEBE7801ACA
:102BE000994150EA410608BF0021E4E708BF1CEB09
:102BF000430F28BF6FF00001DDE7000070B491EAD9
:102C0000030F4FF000457FF543AF6B40841A71EB23
:102C1000030603D2001BB141121973414FF4001C8B
:102C20001CEB410F34BF7CEB430442E00C0DA4EBE2
:102C30001356352E4FDC45EAC323DB0A45EAC12192
:102C4000C912B6F120050DDD63FA05F6EB4086EA00
:102C50000305124218BF45F00105C01851F10001EB
:102C60000CD213E062FA06F5F2405540F3415A40A7
:102C7000B340F3405A408018594107D349085FEAEE
:102C800030005FEA350528BF45F0010501F58011E8
:102C9000420875F1004250F1000041EB04514E0032
:102CA00016F5001F70BC38BF70470020090D0905DC
:102CB00070471CEB410F10D252EA43060BD0BCEB1D
:102CC000410F05D80C0DAB43661E342EB6DD02E075
:102CD000AB438018594170BC704770BC704700000E
:102CE000F0B540F2FF7581EA030C0CF0004C15EAD8
:102CF00011541DBF15EA1357AC42AF42E5E0BC4189
:102D0000C1F31301C3F31303801A994143F48013F1
:102D100004D2641E0018494180185941C90241EA91
:102D20005051B1FBF3F603FB1611A2FB0675D7EB6E
:102D3000C020A94102D2761E80185941C90241EA39
:102D40005051B1FBF3FE03FB1E11A2FB0E75D7EB36
:102D5000C020A94103D2AEF1010E80185941890269
:102D600041EA9051760546EA8E2EB1FBF3F603FB5D
:102D70001611A2FB0675D7EB8020A94102D2761E60
:102D800080185941C90241EA50514EEA060EB1FB82
:102D9000F3F603FB1611A2FB0675D7EBC020A94181
:102DA00002D2761E80185941C90241EA5051B1FB46
:102DB000F3F703FB1711A2FB0735D3EBC020A941A2
:102DC00067F100070CBF004247F0010766F3D52703
:102DD0004FEA1E31B80814F5806412DDBD0775F1A5
:102DE000004250EB0E5051EB045111F5801F5CBFB7
:102DF00041EA0C01F0BD4CF07F6141F0E041002060
:102E0000F0BDBD076D0840EA0E5041F48011D4F1C9
:102E10000104B4F120060ADAC4F120060200E04001
:102E200001FA06F3E1401843B24015430EE0342C9A
:102E300013DCC6F1200445EA40056D0820FA06F2CD
:102E4000154321FA06F0A1400D43002175F100421F
:102E500050F1000051EB0C01F0BD00205FEA0C01C5
:102E6000F0BDCFB992185B41B3FA83F704BFB2FA51
:102E700082F6BF190B3FB7F120062FBF02FA06F307
:102E8000BB40C7F1200622FA06F638BF3343BA40EA
:102E90001CB1E419641E33E77F4231F00041B1FAFE
:102EA00081F404BFB0FA80F6A4190B3CB4F12006FB
:102EB0002FBF00FA06F1A140C4F1200620FA06F661
:102EC00038BF3143A0403C1B1AE7AC421ABF05EAA9
:102ED0001357AF4212E050EA41061CBF52EA4306C4
:102EE000BFE750EA4107304661461CBF41EA055141
:102EF000F0BD52EA430C08BFC143F0BD00204FF4BF
:102F0000001616EB410F98BF16EB430F08BF16EBE8
:102F1000410F24BFC14305E016EB430F0CBF6146D0
:102F20004CEA0551F0BD0000400D40F21E4C40EA55
:102F3000C120BCEB115C40F0004003D48CF30701CE
:102F4000C84070476FEAE1707047000050B1B0FAB6
:102F500080F18840C91CC1F58461090501EBD021CD
:102F6000400570470146704730B540F2FF7C1CEACF
:102F700011541DBF1CEA1355644565453FE06419B3
:102F800081EA030C6FF35F530CF0004C43F48013A1
:102F9000C90241F0004141EA505EC5021100A5FBA3
:102FA000020200284FF00000EEFB01204FF000016C
:102FB000E3FB052118BF42F00102401800214941FE
:102FC000E3FB0E01A4F580640D0302D29218404188
:102FD000494154F1010470DD450872F1004250F19D
:102FE000000051EB0451A1F5801102D441EA0C011B
:102FF00030BD40F2FF7E4CEA0E51002030BD0CEA9D
:103000001355644518BF654581EA030C0CF0004C6C
:1030100041D050EA410E1CBF52EA430E02E0614625
:10302000002030BD24422C441BD15FEA050EF6D0AF
:10303000090302BF01460020AEF1140EB1FA81F57A
:10304000AEEB050401FA05FE0C35C5F1200100FACE
:1030500005F5C8404EEA000E6FF35F5343F480134A
:103060009CE733F00043B3FA83F504BFB2FA82FE63
:1030700075440B3D641BB5F1200E2FBF02FA0EF311
:10308000AB40C5F1200E22FA0EFE38BF43EA0E0314
:10309000AA40641C7CE750EA410E14BF52EA430E7A
:1030A0006FF000014FF4001515EB430F8EBF19466A
:1030B00015EB410F9DE7B4D830BDD4F10104B4F154
:1030C00020050FDAC4F12005520828BF42F00102A2
:1030D00010FA05FE01FA05F57244E2BFE04028430C
:1030E000E1400FE0352C9ADCC5F1200452EA4002A1
:1030F00020FA05F218BF42F0010231FA05F0A140B2
:103100000A43002172F1004250F1000051EB0C0122
:1031100030BD00000048704784000020BBBBE1B117
:10312000B2F5803F80F07E80022A1ED98C46B1FB2A
:10313000F2F102FB11C31B0443EA1043B3FBF2FCA0
:1031400002FB1C3380B240EA0343B3FBF2F002FB04
:10315000103240EA0C4000237047022A05D9844609
:10316000B0FBF2F002FB10C270474AB105D100F08B
:10317000010249085FEA30007047002200237047CF
:1031800000F0E4B80B0002000021002070479042DC
:1031900071EB030CF6D3B3F5803F2FD2F0B5B3FA41
:1031A00083F7B1FA81F4A7F10F0E3D1B5340CEF126
:1031B000200602FA0EF2F3415340B5F10F0746D84C
:1031C0000F3C2C444140C4F12006A040F141414055
:1031D000B1FBF3F603FB1611A2FB0645001BA94148
:1031E00002D2761E8018594180EA010221FA0EF3BC
:1031F00062FA0EF200215A403046F0BD30B4B1FB05
:10320000F3FC03FB1C11A2FB0C45001BA94103D2DC
:10321000ACF1010C8018594130BC02460B466046A7
:1032200000217047B2F1807F65D3F0B5B2FA82F722
:10323000B1FA81F4C7F10F063D1B22FA06F307F13C
:10324000110EF24120355A40B5F10F07B8D941406F
:10325000C4F12006A040F1414140B1FBF3FC03FB67
:103260001C11A2FB0C45001BA94103D2BCF1010CAF
:10327000801859410F2F12D30F3FC90341EA504123
:10328000B1FBF3F603FB1611A2FB0645D4EBC030ED
:10329000A94102D2761E8018594146EACC3C07B3B8
:1032A0004140C7F12006B840F1414140B1FBF3F67F
:1032B00003FB1611A2FB0645001BA94102D2761E94
:1032C0008018594180EA010221FA0EF3C7F1200467
:1032D00062FA0EF20CFA07F05A402CFA04F130436D
:1032E000F0BD80EA010221FA0EF3002162FA0EF22B
:1032F00060465A40F0BD8C46B1FBF2F102FB11C3AF
:103300001B0243EA1063B3FBF2FC02FB1C331B02FB
:103310004CEA002043EA1063B3FBF2FC02FB1C33CF
:103320001B024CEA002043EA1063B3FBF2FC02FBF1
:103330001C331B024CEA002043EA1063B3FBF2FC8F
:1033400002FB1C324CEA002000237047704700004B
:103350002DE9F843050075D0DFF8B067B468F06870
:10336000DFF82C7804F00C0400F003082878C1067C
:1033700049D524B10C2C08BFB8F1010F29D1306810
:10338000810702D5E86900285CD031680807686ABF
:103390004EBF31687968090901F0F001814206D217
:1033A00000F0B6FB002809D100F069FA08E000F04F
:1033B00066FA2CB9686A00F0ABFB002840F0568230
:1033C00000F097FB00F045FB00F0FCFB01001AD079
:1033D0004FE2E86900284FD0316841F001013160C7
:1033E00000F012FC8146306881070AD400F00CFC22
:1033F000A0EB09000328F6D330688107F3D403203B
:1034000037E200F03CFA2878C1070CD5082C04D02C
:103410000C2C08BFB8F1030F42D13068810302D5EC
:10342000686800280ED02978880714D5042C04D0A9
:103430000C2C08BFB8F1020F6FD13068410503D5DD
:10344000E868002800F012827068296920F0FE40C8
:1034500040EA016070602878010740F1AE80686939
:10346000002800F09780A869002878680CBF20F039
:10347000100040F0100079E03068400840003060F3
:1034800000F0C2FB814630688107BCD500F0BCFB70
:10349000A0EB09000328F6D330688107F3D5AEE727
:1034A0006868B0F5803F04D1306840F48030306007
:1034B00011E0B0F5A02F306806D140F480203060D4
:1034C000316841F4803105E020F4803030603168AB
:1034D00021F480213160686878B100F095FB814665
:1034E000306881039FD400F08FFBA0EB09006528B2
:1034F000F6D330688103F3D481E700F085FB814681
:10350000306881038FD500F07FFBA0EB09006528B0
:10351000F6D330688103F3D571E7E86890B131687C
:1035200041F48071316000F06FFB04463068410562
:103530008AD400F069FB001B0328F7D330684105EB
:10354000F4D45CE7306820F48070306000F05CFBFD
:103550000446306841057FF57EAF00F055FB001B47
:103560000328F6D330684105F3D548E778607868DA
:1035700040F00100786000F047FB0446786881075E
:103580001BD400F041FB001B0828F7D378688107A3
:10359000F4D434E7786840084000786000F034FBE9
:1035A00004467868810708D500F02EFB001B082828
:1035B000F7D378688107F4D521E72878410740F1EF
:1035C0009380B06D0024C10009D4B06D012440F097
:1035D0008050B065B06D00F0805000900098DFF82A
:1035E000B485D8F80000C10517D4D8F8000040F41D
:1035F0008070C8F8000000F007FB8146D8F8000092
:10360000C1050AD400F000FBA0EB09000328F5D3A4
:10361000D8F80000C105F1D4F1E6A868C1070DD5BE
:103620004007396807D541F004013960386840F037
:10363000010038600AE041F0010106E03868400806
:1036400040003860396821F004013960A86841F20F
:10365000893880B300F0D8FA81463868810708D4E9
:1036600000F0D2FA00F007F9F7D338688107F4D4F4
:10367000C5E6287A010638680ED540F0800038602B
:10368000396808052BD400F0BFFA00F0F4F8F7D33E
:1036900038680105F4D4B2E620F08000386039685B
:1036A00008051CD500F0B0FA00F0E5F8F7D338684B
:1036B0000105F4D5A3E600F0A7FA81463868810732
:1036C00008D500F0A1FA00F0D6F8F7D338688107E2
:1036D000F4D594E63868010648BF3868DCD41CB1DC
:1036E000B06D20F08050B0652878810627D5A86A93
:1036F0000028B86811D040F00100B86000F084FAEA
:103700000446B86881071AD400F07EFA001B03282B
:10371000F7D3B8688107F4D471E640084000B86078
:1037200000F072FA0446B868810708D500F06CFA18
:10373000001B0328F7D3B8688107F4D55FE6E86A71
:10374000002800F09580B16801F00C010C2962D0CE
:103750000228306820F08070306040D100F054FAC8
:1037600004463068810108D500F04EFA001B03289A
:10377000F7D330688101F4D541E6F0682A6BDFF8B1
:1037800018140840696B10432A6C491E40EA011066
:10379000A96B5208521E40EA0120696C40EA42506F
:1037A0004908491E40EA4160E96B40EAC160F060A7
:1037B000306840F080703060F16841F08071F160F5
:1037C00000F022FA04463068810151D400F01CFA5E
:1037D000001B0328F7D330688101F4D40FE6316869
:1037E00011F0205F03D1F06880088000F060F1687C
:1037F000DFF8A8030140F16000F006FA04463068E3
:10380000810135D500F000FA001B0328F7D330689A
:103810008101F4D5F3E5012828D0F0682A6B00F087
:103820000301914201BF00F0F0016A6B521EB1EB3F
:10383000021F1BD1AA6B00F4FE41B1EB022F02BFA5
:1038400000F07841EA6BB1EBC26F0FD12A6C00F443
:10385000C0015208521EB1EB425F07D1696C00F003
:10386000C0604908491EB0EB416F01D0012000E063
:103870000020BDE8F283A0EB0900404570473068A6
:1038800040F0080030603168686A21F0F0010143BF
:1038900031607168286A21F47F4141EA002171603A
:1038A00070472DE9F84304460026002C62D0DFF86B
:1038B000F0723868884600F00F00404502D200F0F0
:1038C000B7F857D12168DFF84452C80779D5606846
:1038D000DFF8D092032843D1286882014AD5EA68EC
:1038E000002002F00302012A0FD12868020705D444
:1038F000DFF8B4020268C2F3032002E02868C0F3D4
:103900000310DFF8A82252F82000EB68EA68C2F33F
:103910000312521C03F00303022B04D0032B07D124
:10392000DFF88C0204E0DFF88C32B3FBF2F201E046
:10393000B0FBF2F2E868C0F306204243E868C0F347
:103940004160401C4000B2FBF0F0484520D3AA681B
:1039500012F0F00F15D089071AD5A068C0B910E091
:10396000022802D12868810303E00028286802D1D8
:10397000810702D43DE041053BD500F06FF8484592
:1039800006D3A868802620F0F00040F08000A860F0
:10399000A9686068890840EA8101A96000F034F9EB
:1039A000814600F04FF80CD000F02EF9A0EB090092
:1039B00041F289318842F4D300F044F8F1D0032079
:1039C00034E02078810706D5AA68A06822F0F002CA
:1039D0000243AA6005E0802E03D1A86820F0F00021
:1039E000A860386800F00F00804504D200F020F88D
:1039F00001D001201AE02078410705D5AA68E068C7
:103A000022F4E0620243AA602178080706D5A9687B
:103A1000206921F4605141EAC001A96000F069F811
:103A200000F017F8BDE8F24300F0CCB8BDE8F2832F
:103A30003968090948EA01113960386800F00F0057
:103A400040457047A868616800F00C00B0EB810F3A
:103A500070474D4908604D480068704710B52B4AC3
:103A60009068D4680023002110F00C0004F00304D7
:103A700003D00C2812D1012C1AD113681C0704D4CE
:103A8000494B1C68C4F3032302E01368C3F3031318
:103A9000464C54F8233048B9194628E0042808BF9A
:103AA000444924D0082822D1414920E00C281ED1C5
:103AB000D168D068C0F30310401C01F00301022953
:103AC00002D0032902D005E03A4900E03849B1FBB1
:103AD000F0F101E0B3FBF0F1D068C0F30620414300
:103AE000D068C0F34160401C4000B1FBF0F10846D3
:103AF00010BD80B5FFF7B2FF2F4A13682F49C3F3FB
:103B00000312FFE7895CC84002BD000000100240BC
:103B10007CB505462A4E30680024C10002D500F06D
:103B200079F80EE0306840F080503060316801F084
:103B300080510091009800F06DF8316821F08051BB
:103B40003160002818BFB0F5007F04D1802D0CD95A
:103B5000A12D09D304E0802D88BF032405D801D10D
:103B6000022402E0702D00D101240D4801680909EA
:103B700044EA01110160006800F00F00A04201D08A
:103B8000012076BD002076BD800000206C00002062
:103B900090100240007000400C809F01FFFFEEFE7D
:103BA0000020024001B4C40494100240E4790008EB
:103BB00000127A000024F40008100240747100081A
:103BC0005810024070B504460D4E30780025A0B163
:103BD0004FF47A71B1FBF0F10A4A1068B0FBF1F0D2
:103BE00000F0B0F848B9082C07D2002221464FF067
:103BF000FF3000F089F8B46000E00125284670BD70
:103C0000640000208000002001484068704700BF29
:103C100064000020DFF8A400006800F4C060704772
:103C200070B5DFF898402668054600F039F806F4CC
:103C3000C066B0F5004F02D0E068010401D5012054
:103C400070BDAE421DD02068DFF87410DFF874300C
:103C500020F4C060054325600A6832200A21B2FBC7
:103C6000F3F34343B3FBF1F0401C00E0401E6169F5
:103C70004A0501D50028F9D16069410501D5032025
:103C800070BD002070BDDFF84000016841F4007194
:103C9000016070470D48016841F480410160704740
:103CA0000B480068C10402D54FF4805070470004EF
:103CB00002D44FF40040704700207047007000406D
:103CC00080000020A08601000470004008700040C1
:103CD000107000404901020002D42448815470470A
:103CE000234B02F00F021A4402F8041C7047214BC8
:103CF00019684FF6FF020002114000F4E06008432B
:103D00001D4908431860704770B51A4B1C68C4F30E
:103D100002230124C3F10705042D2EBF072504FA51
:103D200005F56D1EDE1C072E34BF00231B1F294026
:103D3000994004FA03F35B1E1A401143BDE870403A
:103D4000C8E70000401E10B5B0F1807F01D301200C
:103D500010BD0A4C606007214FF0FF30FFF7BAFF3B
:103D60000021A16007202060002010BD00E400E0D9
:103D700018ED00E00CED00E00000FA0510E000E0B6
:103D8000F0B585B00B9D15B900F0CCFBFEE70C9C9F
:103D900014B900F0C7FBFEE75C260096009F5C2F7D
:103DA00002D000F0BFFBFEE7009E2563022584F8E9
:103DB00059500A9D002604AF03960294019700957E
:103DC00000F034F8204600F078F8049805B0F0BD13
:103DD0002DE9F8430646174684B088469946B80050
:103DE00000F0E2FB05001CD05C2000F0DDFB0400CD
:103DF00014D00020256384F8590003900D980C9985
:103E00000190029400914B463A464146304600F0FC
:103E10000DF8204600F051F8012004E0284600F09B
:103E200042FC4FF0FF3005B0BDE8F0832DE9F047CC
:103E30000A9F81460C46386B15469A46A522A90072
:103E400000F07CFC396B01EB8502101FC0084FEAC3
:103E5000C00808F0070007F1340554B10021625C86
:103E60006A54605C10B1491C1029F8D30020E87333
:103E700000E02870089E099C372E88BF3726FE6216
:103E8000AE61E861381D00F083FC07F1180000F016
:103E90007FFC3F61C6F13806BE617F620020286268
:103EA00087F85800396B53464A46404600F002FDF9
:103EB000386004B12760BDE8F0872DE9F04100F0DB
:103EC0006CF8DFF81855E86C1426DFF81485401CF0
:103ED000E864A86A28BBAC62E86C012829D10027F5
:103EE00006FB07F07F1C404400F045FC382FF7D359
:103EF00005F1740000F03FFC05F18807384600F03A
:103F00003AFC284600F037FC05F1140000F033FCC1
:103F100005F1380000F02FFC05F17400E8622F6312
:103F200007E0A86D28B9E06AA96ACA6A904228BF6A
:103F3000AC62A86EE26A401C6064696D914238BF51
:103F40006A655643A866211D08EB060000F023FCB5
:103F500000F082FCA86D30B100F07DF903D2BDE81D
:103F6000F04100F063BCBDE8F08110B504000FD053
:103F7000DFF86814086F10B100F0D4FAFEE700F023
:103F800041F80021204600F076FA00F041F818B917
:103F9000BDE8104000F04ABC10BD044600F050BC23
:103FA00080B586B000210591049103AA04A905A853
:103FB00000F0E0FC0598049900220092039A029018
:103FC000019100230FF210510FF20930FFF7D8FED4
:103FD00080B100F0D9FC01280ED100F0A3FADFF87F
:103FE000E8044FF0FF31C1660122826500210165BE
:103FF00000F094FC07B000BD10F1010FFAD100F001
:1040000091FAFEE7DFF8C004016F491C01677047B1
:1040100070B5DFF8C863306F0024002510B900F0D8
:1040200081FAFEE700F00CFC306F401E3067306F05
:10403000002831D1F06CD0B92EE0F068C46800F0EF
:104040002CF800F095F9E06A716DDFF88024814268
:1040500038BF706514235843211D104400F09BFBAA
:10406000E06AB16ACA6A904224BF012131663068B1
:104070000028E2D10CB100F062F9F46D3CB100F01F
:1040800015F808B101203066641EF8D1F565306E70
:1040900010B1012500F0CAFBA4E104F1180000F002
:1040A000A0BBFFE7DFF82004006D70472DE9F8435F
:1040B000DFF82873386F0026002850D13C6D641C4F
:1040C0003C650ED1F86A006810B100F02BFAFEE7EB
:1040D000F86A396BF9623863786E401C786600F0D4
:1040E0002EF9F86E4FF01408DFF8E093844227D3DE
:1040F0001FE0F96AC868C568686884422DD3281D26
:1041000000F06FFBA86A18B105F1180000F069FB18
:10411000E86A796D814238BF786508FB00F0291D97
:10412000484400F038FBE86AB96ACA6A904228BF7E
:104130000126F86A00680028DBD14FF0FF31F966EC
:10414000B86AC06A08FB00F059F80010386E0229FE
:1041500028BF012630B1012604E0F866F0E7F86DCB
:10416000401CF8657FE110B5DFF87022106F10B1C8
:104170000121116610BD1066516DDFF8503300E06B
:10418000491E14244C43185920B90029F8D100F0D5
:10419000C9F9FEE71819436800F108045B68A342F7
:1041A000436004BF5B6843604068C36893625165C5
:1041B00010BD10B50C4610B900F0B4F9FEE700F0E0
:1041C0001BF800F0F5FAFFE720460121BDE810409A
:1041D00051E138B50D46144610B900F0A3F9FEE7D9
:1041E00000F00AF800F0D7FA0CB14FF0FF35214685
:1041F0002846BDE834403EE1DFF8CC128A6A02F17D
:104200001801704738B5C068C46814B900F08AF95D
:10421000FEE7FFF742FFDFF8B052286F40B900F029
:10422000A7F800F012F838BF6A6500F01FF902E045
:1042300004F11801284600F0AEFA00F00CF802D2A2
:104240000120286632BD002032BDE26A686DDFF8C9
:104250007C3290427047A86AC16AE06A8142704726
:10426000DFF864124A6E0260096D41607047F8B56C
:1042700004000D4602D100F055F9FEE715B900F033
:1042800051F9FEE700F0DCFADFF83C02016D6268EC
:104290002E688B1A16F1010F0ED0476ED4F800C0AD
:1042A000674501D091420BD2B34207D2F31A2B607B
:1042B000416E2160006D6060002402E000202860F3
:1042C000012400F0C9FA2046F2BD0120DFF8F81100
:1042D0000866704770B5424CDFF8EC5111E000F011
:1042E000AFFA286AC668301D00F07BFAE86C401E01
:1042F000E864686B401E686300F0AEFA304600F078
:1043000009F8686B0028EAD121680229F9D300F086
:104310008DFAF6E710B5044694F8590040B9206BC1
:1043200000F0C1F92046BDE8104000F0BCB910BD56
:104330000128F7D00228FAD000F0F4F8FEE7274968
:10434000C86A006810B94FF0FF3203E0C86AC2685B
:10435000D0684268CA667047DFF86C11886D08B98A
:1043600001207047086F08B902207047002070478D
:10437000201D00F036BA38B5044600210CB300F019
:1043800028F802D000F0CEF8FEE7206D10B900F05A
:10439000C9F8FEE7E26AE36C401E20659A4210D03D
:1043A00078B9FFF7E5FFE26CDFF82031C2F13800A1
:1043B000E262A061696D914238BF6A6500F003F85E
:1043C0000121084632BD14204243211D981800F0F7
:1043D000E2B9DFF8F450A86A844270473C3100200B
:1043E000DC21002000F038FA284670BD2DE9F041AC
:1043F00080460F4614461D4600F022FA324EB06A3F
:1044000090F8580002280FD0B06A416D21EA0801E7
:104410004165B16A012081F858002DB1012128467B
:1044200000F029F800F002FA00F016FA00F008FA9D
:1044300014B1B06A406D2060B06A90F8580002284C
:1044400018BF002405D1B06A0124416D21EA070795
:104450004765B16A002081F8580000F0FDF9204658
:10446000BDE8F08100003046BDE8F28314204243ED
:10447000211D98187047F8B5134D0C462F6DA96A89
:104480000646081D00F0ADF916F1010F05D124B163
:10449000A86A011D05F138001AE0A86AF619BE42A3
:1044A0004660A86A05D2011D286BBDE8F44000F003
:1044B0007FB9011DE86A00F07BF9E86E864238BFDB
:1044C000EE66F1BD000000003C310020DC21002040
:1044D000BDE8F44000F05FB949444C4500000000DD
:1044E0002F4A1168086806C881F30B88022181F3FE
:1044F0001488203080F30988BFF36F8F1047EFF3E3
:10450000148020F0010080F314887047254800686B
:10451000006880F3088862B661B6BFF34F8FBFF3BF
:104520006F8F02DFEFF311804FF0A00181F311884C
:10453000BFF34F8FBFF36F8F704780F31188BFF3C6
:104540004F8FBFF36F8F7047EFF30980EFF30B824C
:10455000734620E9FC0F124A116808604FF0A00072
:1045600080F31188BFF34F8FBFF36F8FFFF7FBFD11
:104570004FF0000080F31188094A11680868B0E81C
:10458000FC0F82F30B8880F3098818471EF0040F94
:104590000CBFEFF30880EFF3098000F07EB9000054
:1045A0006431002008ED00E02DE9F0410446FFF7FA
:1045B00029FD614FB8684FF00008002508BB07F1DE
:1045C000200107F120034FF400500A4613F0070FB3
:1045D00005D0CA1DD208D200C2F5005008188018B4
:1045E0000838C008C0003A607D60B860456005606A
:1045F000831A5360106050683861F8604FF00040D3
:10460000F861F869044245D1002C43D0083414F015
:10461000070F04D004F1080004F00704041BCCB316
:10462000F868A04236D339463E6801E03146064676
:104630007068A04202D230680028F7D1B86886427C
:1046400028D00A68306802F1080808607268121BF6
:10465000112A0CD3311911F0070002D0FFF762FFC5
:10466000FEE7301D02517460084600F041F87168A1
:10467000F8683C69401AF860FA68F869A24288BF95
:1046800022463A61014371603560786908F0070598
:10469000401C7861FFF7BCFC15B1FFF743FFFEE754
:1046A0004046BDE8F081002800D1704738B5A0F140
:1046B0000804214D6168EA69114202D1FFF732FF17
:1046C000FEE7206810B1FFF72DFFFEE79143616020
:1046D000FFF798FCE96860684118E960204600F03F
:1046E00007F8A869401CA861BDE83140FFF790BCFD
:1046F000114930B50A4600E01A4613688342FBD3DD
:104700005368D418844203D14068C31853601046DC
:1047100043681468C518A54208D189688C4204D042
:104720006168CB184360246800E00C468242046054
:1047300018BF106030BD0000BC01002062F30F22E2
:1047400062F31F4200B500BF13009646944610392D
:1047500028BFA0E80C50FAD85FEA417C28BF0CC003
:1047600048BF40F8042BC90728BF20F8022B48BFD8
:1047700000F8012B00BD4FF0FF3200F1080182600C
:104780004160C16000F108020261002101607047D0
:1047900000210161704710B542684A6093688B60E0
:1047A00094686160916008610168491C016010BDF6
:1047B00030B50A6812F1010F08BF036907D000F194
:1047C000080300E023465C682568AA42FAD25A68CA
:1047D0004A6091608B60596008610168491C016002
:1047E00030BD8268436801699A60426883685A6094
:1047F0004A68824204BF83684B60002202610868F5
:10480000401E08600868704780B500200090554938
:104810000A6812F1010F02D0FFF784FEFEE7FFF7EE
:1048200081FE00980028FCD001BD00004FF08050B0
:104830004D490860BFF34F8FBFF36F8F7047000083
:1048400080B5FFF76FFE47480168491C0160BFF360
:104850004F8FBFF36F8F01BD80B54249086810B913
:10486000FFF760FEFEE70A68521E0A60086818B982
:10487000BDE80240FFF761BE01BD10B5FFF752FE73
:104880000446FFF713FC18B14FF08050364908601A
:104890002046BDE81040FFF750BE80B5806910F893
:1048A000021C022903D1BDE80140FFF719BEFFF742
:1048B00039FEFEE730B5A0F14404E2632B4AA2635F
:1048C0004FF00332226363624FF001324FF0113335
:1048D000A26223624FF010324FF00933E261A3610C
:1048E0004FF080754FF008324FF007332564626156
:1048F00023614FF012354FF006324FF005336563F8
:10490000E260A3604FF002354FF004326FF04303D2
:10491000E5626260236040F8481D30BD1CB5144854
:104920000168104C41F47F010160026842F07F424F
:10493000026000F0C3F900202060FFF7E7FDFFF7F9
:1049400012FC00200090216811F1010F02D0FFF746
:10495000E9FDFEE7FFF7E6FD00980028FCD0002007
:1049600016BD00006000002004ED00E009480008CA
:1049700020ED00E0034B036003F15C000860802140
:1049800011607047982A002010B586B000F064F9D5
:10499000DFF81443A068C0B100210591049103AA77
:1049A00004A905A800F09EF9059804990222009236
:1049B000039A0290019100230FF2F0210FF265009B
:1049C000FFF7DEF90028E06002D1FFF7ABFDFEE75C
:1049D000012006B010BDF8B5044684B01E46002084
:1049E00014B9FFF79FFDFEE7DFF8BC72BD68BDB1EB
:1049F00000910192029406290CDAFFF7ADFC02281F
:104A0000B868694607BF0A9A00230023002200F015
:104A1000DEF905E0002332466946284600F05BFADD
:104A200005B0F0BDF8B586B0DFF87C52296808689B
:104A300010B90124002602E0C86800240668FFF7C8
:104A4000E1FA01A800F0B0F80746019800283BD130
:104A500054BBB7422DD3FFF7DBFA2868C168CC6896
:104A6000201DFFF7BEFE94F82800410717D5A16965
:104A700033463A468919204600F0D3F840B1002069
:104A800000900023324600212046FFF7A4FF18B112
:104A9000216A2046884721E0FFF744FDFEE700F049
:104AA000FE0084F82800F3E7686801684C1EA44102
:104AB000E40FA8682246F11B00F076FBFFF7A8FA86
:104AC00060B9FFF7B3FE09E0FFF7A2FA06E094F839
:104AD000280081073BD42046FFF7E5FDA8680022A7
:104AE00002A900F03EFA0028A0D00298002803D5C1
:104AF00005990498039A904702980028EED4049CE4
:104B0000606910B1201DFFF76CFE01A800F04CF8A1
:104B100002990929E2D8DFE801F02121211A0706CC
:104B200021211A07DAE7D2E794F8282042F001029F
:104B300084F828200399A16131B10346024609187F
:104B4000204600F06EF8C9E7FFF7ECFCFEE794F8AA
:104B5000280000F0FE0084F82800BFE794F8281031
:104B60000246A06941F0010184F8281003990B4620
:104B70004118204600F055F80028AFD0216A2046A1
:104B8000884794F828004107A8D500200090039A90
:104B9000A0690023002182182046FFF71CFF00288F
:104BA0009CD1FFF7BFFCFEE72DE9FC410446FFF76F
:104BB00078FA05463C4E306985420BD300203561BA
:104BC00020602846BDE8F68178603F613068391D75
:104BD000FFF7EEFD31680868F0B1C868C768D0F823
:104BE0000080381DFFF7FDFD396A3846884797F881
:104BF00028004107EED5B86940448045E4D3002041
:104C000000900023424600213846FFF7E4FE0028CA
:104C1000E0D1FFF787FCFEE770687160306001202B
:104C2000CDE738B50024416000611F4D8A4206D3AC
:104C30008169D21A8A4206D2011D686807E09A4249
:104C400003D2994201D3012403E0011D2868FFF734
:104C5000AFFD204632BD00001CB5FFF7F1FD124C40
:104C6000A068E0B904F11400FFF785FD04F1280005
:104C7000FFF781FD04F1140004F1280100222060F7
:104C80006160009204F13C0304F18C0210210A20BF
:104C900000F068F8A06010B106A100F072FABDE85B
:104CA0001340FFF7D9BD000010300020546D722072
:104CB00053766300546D72510000000007480021D4
:104CC00001608160064B19684FF47A72B1FBF2F211
:104CD0000721521E42600160704700BF10E000E0F3
:104CE00080000020044B036003F15C0008604FF477
:104CF00080711160704700BF3C26002070B5040031
:104D00000D4602D1FFF70EFCFEE7FFF799FD206C80
:104D1000E16B2268002600FB01F3491E484313445F
:104D2000A3601044A663E060626004F144004FF0A9
:104D3000FF31017041704DB9206978B104F1100064
:104D4000FFF760FA50B1FFF771FD07E004F11000C2
:104D5000FFF711FD04F12400FFF70DFDFFF77CFDC7
:104D6000012070BD7CB51C4610B9FFF7DBFBFEE7E8
:104D700014B9FFF7D7FBFEE71AB119B9FFF7D2FB59
:104D8000FEE771B950230093009D502D0CD1069B76
:104D9000009D012684F84660009400F008F8204643
:104DA00076BDFFF7BFFBFEE7FFF7BCFBFEE7002980
:104DB00038B5049D1C460CBF2D602A60E863296449
:104DC00001212846FFF79AFF85F84C4031BD2DE9B7
:104DD000F64182B0064688461F46002416B9FFF702
:104DE000A1FBFEE7B8F1000F01D1306C70B9022FC2
:104DF00002D1F06B01280CD1FFF7AEFA002837D1B1
:104E00000398002834D0FFF78DFBFEE7FFF78AFBFD
:104E1000FEE7FFF787FBFEE70398002844D014B9AC
:104E200000F015F90124FFF717FDFFF7EBF8FFF786
:104E300007FD00F00FF904BF0022027000F015F921
:104E400004BF00224270FFF707FD00F00AF90028B6
:104E50003CD1FFF7F5FCB06BF16B884214BF002525
:104E60000125FFF7F9FC1DBB00F0EFF8FFF7D0F8C4
:104E7000FFF7E6FCB06BF16B884201D3022FCBD178
:104E80003A464146304600F0F5F8716A19B106F12C
:104E90002400FFF7B7F908B1FFF7C8FCFFF7DCFC07
:104EA000012004B0BDE8F081FFF7D6FC0020F8E750
:104EB000039906F11000FFF77CF900F0C6F8FFF740
:104EC000A7F80028D4D1FFF7B1FCD1E700F0BDF876
:104ED000FFF79EF8EAE72DE9F84304000E46154671
:104EE0001F4602D1FFF71EFBFEE70EB9206C28BB60
:104EF000022F02D1E06B012823D1FFF713FB80467C
:104F0000A06BE16B884201D3022F23D194F9459025
:104F1000A06B3A463146204600F0ACF819F1010F7B
:104F200012D1606AA0B104F12400FFF76BF90028E8
:104F300018BF002D0CD00120286009E0FFF7F2FA1D
:104F4000FEE7FFF7EFFAFEE709F1010084F84500FC
:104F5000012400E000244046FFF7EFFA2046BDE8B8
:104F6000F283F7B506460F46002416B9FFF7DAFAC2
:104F7000FEE70FB9306C38B9FFF7EEF958B902986F
:104F800048B1FFF7CFFAFEE7FFF7CCFAFEE700F0F3
:104F90005CF8FFF73DF8FFF753FCB56BA5BB029833
:104FA000002844D014B900F052F80124FFF754FC53
:104FB000FFF728F8FFF744FC06F14400415711F1D0
:104FC000010F04BF0022027000F04FF804BF00225E
:104FD0004270FFF741FC02A96846FFF748F9002834
:104FE000304628D100F0C2F80028D0D0029906F14E
:104FF0002400FFF7DEF800F028F8FFF709F8002892
:10500000C9D1FFF713FCC6E73946304600F066F811
:105010006D1EB563306930B106F11000FFF7F2F88C
:1050200008B1FFF703FCFFF717FC0120FEBDFFF7F7
:1050300013FC0020FEBD00F065F8FEF7E9FF3046E6
:1050400000F094F80028A6D0F3E730465AE068460E
:10505000FFF706B906F1440090F9001011F1010FB5
:10506000704703A96846FFF702B990F9011011F1E2
:10507000010F7047F8B506461546B46B326C002731
:1050800042B9306830BBB068FFF775F900210746B8
:10509000B1601FE065B97068FDF7B6FB7068316CF0
:1050A000B26808447060904214D33068706011E0B8
:1050B000F068FDF7A9FB306CF16840420144F160F3
:1050C0003268914202D2B1680844F060022D01D1E9
:1050D00004B1641E641CB4633846F2BD026C0B4616
:1050E000002A00D1704710B58468C1681144A142FC
:1050F000C16024BF0168C160C1681846BDE81040A6
:10510000FDF782BBF8B50546FFF79AFB05F14404AD
:1051100094F9016007E005F12400FFF773F808B186
:10512000FFF7D3F8761E70B2012802DB686A002808
:10513000F1D14FF0FF366670FFF78EFBFFF780FB73
:1051400094F9007007E005F11000FFF75BF808B173
:10515000FFF7BBF87F1E78B2012802DB2869002820
:10516000F1D12670BDE8F140FFF776BB10B50446DB
:10517000FFF766FBA06B441EA441FFF76DFBE00F39
:1051800010BD10B50023074C54F833201AB15B1C36
:10519000082BF9D310BD44F8331004EBC301486069
:1051A00010BD0000F8320020F8B504460D46164642
:1051B000FFF746FB04F1380797F90C0010F1010FD7
:1051C00004BF0021397397F90D0010F1010F04BFDE
:1051D00000217973FFF740FB386828B93246294629
:1051E00004F12400FEF7F5FF2046BDE8F24089E710
:1051F00038B5040001D1012032BD00F02CF818B9F7
:1052000000F025F800F098FBFFE7022068702068A6
:10521000211D00F009F901202873A870E870287199
:105220006871A871E87128726872A872E872687073
:10523000002032BD38B5040001D1012032BD00F09C
:105240000AF818B900F003F800F0B8FBDDE7002118
:1052500029702046704704F13C056878704738B5DE
:1052600000F07EF801D1022032BD012084F83C001C
:1052700052B1042A19D0082A29D00C2A38D0102A71
:1052800048D0142A57D067E0206800F023F921683D
:10529000886940F008008861886920F0040088610E
:1052A0008A69286902438A6156E0206800F054F94F
:1052B0002068816941F400618161816921F4806124
:1052C000816181692A6941EA0221816144E02068A3
:1052D00000F07CF92168C86940F00800C861C8691D
:1052E00020F00400C861CA6928690243CA6133E03A
:1052F000206800F0A3F92068C16941F40061C16130
:10530000C16921F48061C161C1692A6941EA022150
:10531000C16121E0206800F0B8F92168486D40F0D3
:1053200008004865486D20F0040048654A6D28690A
:1053300002434A6510E0206800F0D1F92068416D11
:1053400041F400614165416D21F480614165416D29
:105350002A6941EA02214165002084F83C0032BDFF
:10536000044694F83C000D460128704738B500F01B
:105370004FF801D1022032BD01202070022262705C
:105380002A68DFF8100493680340936008680200FD
:1053900018BF10282DD0202818BF302829D0402829
:1053A00023D0502816D0602818D0702803D0B0F52C
:1053B000005F07D021E000F026F82868816841F0FE
:1053C000770105E000F01FF82868816841F480410A
:1053D000816012E000F013F850210BE0CA684968C0
:1053E000286800F0BBF9602104E000F008F84021D3
:1053F00000E00146286800F0C3F90FE00000CA6829
:105400004968286899E1CB684A6889682868DDE1BD
:10541000054605F13C0420780128704701206070A2
:1054200000212170002032BD2DE9F043DFF86873C0
:10543000B842D0F800C0DFF86433DFF86443DFF827
:105440006453DFF86463DFF864E3DFF86483DFF854
:10545000649318BFB0F1804F07D0484518BF40454E
:1054600003D0704518BFB0420ED14A68B8422CF044
:10547000700C42EA0C0C18BFB0F1804F0CD04845BC
:105480001CBF4045704507D0B04218BFA84203D0AA
:10549000A04218BF984204D1CA682CF4407C42EA6A
:1054A0000C0C4A692CF0800CB84242EA0C020260F3
:1054B0008A6818BFB042C2620A68826204D0A842F9
:1054C0001CBFA042984201D10969016301224261D7
:1054D000BDE8F0832DE9F041026ADFF8BC82DFF815
:1054E000C8E2520852000262066A4468856926F0E2
:1054F00002060B68DFF8C02215408A681D43DFF8FA
:105500009C3216434045DFF89872DFF898C218BF06
:10551000704504D060451CBFB84298420DD1CA689E
:1055200026F008061643404526F0040618BF7045CD
:1055300005D0604518BFB84201D0984205D14B69EB
:105540008A6924F440741C431443446085614968AB
:1055500041630662BDE8F081F0B5026A22F01002F4
:105560000262056A436884690E68DFF850221440BD
:105570008A6844EA062425F0200545EA0215864E8D
:10558000894AB04218BF904208D1CF6825F0800503
:10559000B04245EA071525F040050AD090421CBFED
:1055A000804A904205D07E4EB0421CBF7B4A90425A
:1055B00006D14E698A6923F44063164343EA8603A1
:1055C00043608461496881630562F0BDF0B5026A99
:1055D000794B22F480720262066A4468C5690A68DF
:1055E00026F400761D408B6815436F4A46EA032671
:1055F000694B984218BF904208D1CF6826F40066E4
:10560000984246EA072626F480660AD090421CBFDC
:10561000644A904205D0624B98421CBF5F4A904258
:1056200006D14B698A6924F44054134344EA0314B5
:105630004460C5614968C1630662F0BD70B5026A25
:1056400022F480520262036A4468C5690E685B4AAC
:1056500000F06CF823F4005343EA02331CBF524AB3
:10566000904207D04F4EB0421FBF4D4A90424B4E22
:10567000B04204D14A6924F4804444EA821444606C
:10568000C56149680164036270BD70B5026A4C4B24
:1056900022F480320262046A4568466D0A6824F486
:1056A00000341E4016438B683B4A904244EA034450
:1056B0001CBF3D4B984207D03A4A90421FBF384B1F
:1056C0009842364A904204D14A6925F4803545EA29
:1056D00002254560466549688165046270BD70B504
:1056E000026A22F480120262036A4468456D0E6801
:1056F000344A00F01BF823F4001343EA02531CBFA2
:10570000294A904207D0274EB0421FBF244A9042F8
:10571000224EB04204D14A6924F4802444EA82240F
:10572000446045654968C165036270BD154045EA3E
:1057300006258A68184EB042704710B5036A046A9D
:10574000640864000462846923F00A03194324F0A6
:10575000F00444EA02148461016210BD10B5036ACA
:1057600023F0100303628369046A23F4704343EA5D
:10577000023324F0A00444EA01148361046210BDE2
:105780008368114A1340194341F007018160704753
:10579000000000008800CEFF002C014000480140BE
:1057A000004401400040014000340140000C004032
:1057B00000080040000400408CFFFEFFFF8CFFFE4D
:1057C0008FFFFEFFFF8FFFFE8FFFCFFF10B58468B6
:1057D00024F47F442143114341EA0321816010BD39
:1057E00080B56E48816841F001018160816801F0F7
:1057F0000101009100990268072142F08052026085
:105800000068002200F08050009000986FF00100C6
:10581000FEF77AFABDE80140FEF73CBA18B5ABB026
:1058200000F084F89422002106A800F0C8F820684F
:105830005B49884220D14FF480424FF0405106929C
:10584000269106A800F0C6F808B100F094FD55486E
:10585000016841F400510160026802F400520092B4
:1058600000990268042142F00402026000680322E9
:1058700000F054F800F04DF82CB010BD18B5A5B0EC
:10588000044694220021684600F099F82168464AAF
:10589000914219D14FF400334FF480710093249159
:1058A000684600F097F808B100F065FD3B48816B51
:1058B00041F400418163026842F480620260006842
:1058C00000F480600090009826B010BD10B586B03E
:1058D00000F02CF821683548814218D13148C16860
:1058E00041F40041C160C16801F400410091009998
:1058F00002684FF4A05142F00402026000680222E4
:1059000000F00CF804910621059100F002F806B0B1
:1059100010BD029201A9264800F030BD00F004003D
:1059200000900098019100210391704704461422D1
:10593000002101A800F043B881B000681D498842E9
:1059400009D11648026842F002020260006800F0C5
:1059500002000090009801B0704710B586B0FFF7C4
:10596000E5FF21681348814216D10E4801680222E2
:1059700041F0100101600068782100F010000090F3
:105980000098019100210391049102210591029256
:1059900001A9094800F0F2FC06B010BD5810024001
:1059A000008002424C10024000280040003C0040B1
:1059B000000802420004004000100242704710B587
:1059C000044610460A4601462046FBF7C5FE20461F
:1059D00010BD00002DE9F84F054628680024A046B8
:1059E000DFF8E463DFF8E47301051FD5E86E68B102
:1059F000202816D0402804D0602818BF802808D05E
:105A000012E03A6842F480323A6003E000F0D7F9DD
:105A1000044654B9F168E86E21F0E0010143F160F9
:105A200004E000F0C7F9F3E70124A0462868C104A8
:105A300023D5286FC0B1B0F5807F19D0B0F5007FB5
:105A400006D0B0F5407F18BFB0F5806F04D012E0EB
:105A5000396841F48031396074B9F168286F21F4F4
:105A6000E0610143F16008E000F0A9F90446F3E7C2
:105A700000F0A0F9FAE70124A0462868810331D597
:105A8000F86C4FF00009C1000AD4F86C4FF001091E
:105A900040F08050F864F86C00F08050009000985E
:105AA000DFF82C030168DFF828A341F4807101605E
:105AB000FEF7AAF88346DAF80000C1057AD4FEF7AB
:105AC000A3F8A0EB0B000328F5D3DAF80000C1051A
:105AD00070D40324A046B9F1000F03D0F86C20F075
