:020000040800F2
:100000001036002099450008C1450008C345000886
:10001000C5450008C7450008C9450008D545000882
:10002000000000000000000000000000CD130008E8
:10003000CB45000800000000891300087D3F000840
:10004000D9450008DD450008E1450008E545000800
:10005000E9450008ED450008F1450008F5450008B0
:10006000F9450008FD45000801460008054600085E
:10007000094600080D46000811460008154600080C
:10008000194600081D4600082146000825460008BC
:10009000294600082D46000831460008354600086C
:1000A000394600083D46000841460008454600081C
:1000B000494600084D4600085146000855460008CC
:1000C000594600085D46000861460008654600087C
:1000D000694600086D46000871460008754600082C
:1000E000794600087D4600088146000885460008DC
:1000F000894600088D46000891460008954600088C
:10010000994600089D460008A1460008A54600083B
:10011000A9460008AD460008B1460008B5460008EB
:10012000B9460008BD460008C1460008C54600089B
:10013000C9460008CD460008D1460008D54600084B
:10014000D9460008DD460008E1460008E5460008FB
:10015000E9460008ED460008F1460008F5460008AB
:10016000F9460008FD460008014700080547000859
:1001700009470008000000000D47000800000000CB
:100180001147000815470008194700081D470008D7
:100190002147000825470008294700082D47000887
:1001A0003147000835470008394700083D47000837
:1001B0004147000800000000454700084947000883
:1001C0004D4700080000000051470008554700084F
:1001D000594700085D470008614700086547000867
:1001E000694700086D470008714700087547000817
:1001F000000000002DE9F843050075D0DFF8D46752
:10020000B468F068DFF8507804F00C0400F00308DC
:100210002878C10649D524B10C2C08BFB8F1010FCC
:1002200029D13068810702D5E86900285CD031689F
:100230000807686A4EBF31687968090901F0F00162
:10024000814206D200F0C8FB002809D100F069FA0B
:1002500008E000F066FA2CB9686A00F0BDFB0028DF
:1002600040F0568200F097FB00F045FB00F010FCD8
:1002700001001AD04FE2E86900284FD0316841F000
:100280000101316000F026FC8146306881070AD404
:1002900000F020FCA0EB09000328F6D330688107AA
:1002A000F3D4032037E200F03CFA2878C1070CD5DC
:1002B000082C04D00C2C08BFB8F1030F42D13068D1
:1002C000810302D5686800280ED02978880714D5E4
:1002D000042C04D00C2C08BFB8F1020F6FD1306889
:1002E000410503D5E868002800F01282706829698A
:1002F00020F0FE4040EA016070602878010740F17C
:10030000AE806869002800F09780A86900287868A6
:100310000CBF20F0100040F0100079E03068400879
:100320004000306000F0D6FB814630688107BCD5C4
:1003300000F0D0FBA0EB09000328F6D3306881075A
:10034000F3D5AEE76868B0F5803F04D1306840F47B
:100350008030306011E0B0F5A02F306806D140F455
:1003600080203060316841F4803105E020F4803035
:100370003060316821F480213160686878B100F024
:10038000A9FB8146306881039FD400F0A3FBA0EB5A
:1003900009006528F6D330688103F3D481E700F0C3
:1003A00099FB8146306881038FD500F093FBA0EB69
:1003B00009006528F6D330688103F3D571E7E86852
:1003C00090B1316841F48071316000F083FB0446E4
:1003D000306841058AD400F07DFB001B0328F7D369
:1003E00030684105F4D45CE7306820F480703060F8
:1003F00000F070FB0446306841057FF57EAF00F0E9
:1004000069FB001B0328F6D330684105F3D548E7A4
:100410007860786840F00100786000F05BFB04468B
:10042000786881071BD400F055FB001B0828F7D320
:1004300078688107F4D434E7786840084000786031
:1004400000F048FB04467868810708D500F042FBBD
:10045000001B0828F7D378688107F4D521E72878AE
:10046000410740F19380B06D0024C10009D4B06D04
:10047000012440F08050B065B06D00F080500090D5
:100480000098DFF8D885D8F80000C10517D4D8F84F
:10049000000040F48070C8F8000000F01BFB8146AB
:1004A000D8F80000C1050AD400F014FBA0EB090045
:1004B0000328F5D3D8F80000C105F1D4F1E6A86807
:1004C000C1070DD54007396807D541F004013960EF
:1004D000386840F0010038600AE041F0010106E0B0
:1004E0003868400840003860396821F004013960FC
:1004F000A86841F2893880B300F0ECFA8146386888
:10050000810708D400F0E6FA00F007F9F7D338685D
:100510008107F4D4C5E6287A010638680ED540F084
:1005200080003860396808052BD400F0D3FA00F059
:10053000F4F8F7D338680105F4D4B2E620F080006F
:100540003860396808051CD500F0C4FA00F0E5F8F9
:10055000F7D338680105F4D5A3E600F0BBFA81466D
:100560003868810708D500F0B5FA00F0D6F8F7D35F
:1005700038688107F4D594E63868010648BF3868C2
:10058000DCD41CB1B06D20F08050B06528788106B5
:1005900027D5A86A0028B86811D040F00100B860DB
:1005A00000F098FA0446B86881071AD400F092FA6D
:1005B000001B0328F7D3B8688107F4D471E640081C
:1005C0004000B86000F086FA0446B868810708D594
:1005D00000F080FA001B0328F7D3B8688107F4D530
:1005E0005FE6E86A002800F09580B16801F00C0130
:1005F0000C2962D00228306820F08070306040D131
:1006000000F068FA04463068810108D500F062FA0B
:10061000001B0328F7D330688101F4D541E6F06868
:100620002A6BDFF83C140840696B10432A6C491EA2
:1006300040EA0110A96B5208521E40EA0120696C81
:1006400040EA42504908491E40EA4160E96B40EAED
:10065000C160F060306840F080703060F16841F057
:100660008071F16000F036FA04463068810151D49F
:1006700000F030FA001B0328F7D330688101F4D46E
:100680000FE6316811F0205F03D1F0688008800028
:10069000F060F168DFF8CC030140F16000F01AFA75
:1006A00004463068810135D500F014FA001B032898
:1006B000F7D330688101F4D5F3E5012828D0F0683C
:1006C0002A6B00F00301914201BF00F0F0016A6B58
:1006D000521EB1EB021F1BD1AA6B00F4FE41B1EB1D
:1006E000022F02BF00F07841EA6BB1EBC26F0FD16D
:1006F0002A6C00F4C0015208521EB1EB425F07D1D0
:10070000696C00F0C0604908491EB0EB416F01D030
:10071000012000E00020BDE8F283A0EB0900404585
:100720007047306840F0080030603168686A21F036
:10073000F001014331607168286A21F47F4141EA88
:100740000021716070472DE9F84304460026002C13
:1007500062D0DFF814733868884600F00F00404517
:1007600002D200F0B7F857D12168DFF86852C80705
:1007700079D56068DFF8F492032843D128688201B4
:100780004AD5EA68002002F00302012A0FD1286846
:10079000020705D4DFF8D8020268C2F3032002E0A2
:1007A0002868C0F30310DFF8CC2252F82000EB6871
:1007B000EA68C2F30312521C03F00303022B04D0B5
:1007C000032B07D1DFF8B00204E0DFF8B032B3FB4F
:1007D000F2F201E0B0FBF2F2E868C0F30620424317
:1007E000E868C0F34160401C4000B2FBF0F04845AF
:1007F00020D3AA6812F0F00F15D089071AD5A06887
:10080000C0B910E0022802D12868810303E0002863
:10081000286802D1810702D43DE041053BD500F0B4
:100820006FF8484506D3A868802620F0F00040F015
:100830008000A860A9686068890840EA8101A96011
:1008400000F048F9814600F04FF80CD000F042F972
:10085000A0EB090041F289318842F4D300F044F85A
:10086000F1D0032034E02078810706D5AA68A0687B
:1008700022F0F0020243AA6005E0802E03D1A868AE
:1008800020F0F000A860386800F00F00804504D226
:1008900000F020F801D001201AE02078410705D5AA
:1008A000AA68E06822F4E0620243AA60217808079F
:1008B00006D5A968206921F4605141EAC001A96008
:1008C00000F069F800F017F8BDE8F24300F0E0B876
:1008D000BDE8F2833968090948EA011139603868CE
:1008E00000F00F0040457047A868616800F00C00F8
:1008F000B0EB810F70475649086056480068704752
:1009000010B5344A9068D4680023002110F00C0020
:1009100004F0030403D00C2812D1012C1AD113685F
:100920001C0704D4524B1C68C4F3032302E0136871
:10093000C3F303134F4C54F8233048B9194628E049
:10094000042808BF4D4924D0082822D14A4920E074
:100950000C281ED1D168D068C0F30310401C01F0F0
:100960000301022902D0032902D005E0434900E037
:100970004149B1FBF0F101E0B3FBF0F1D068C0F305
:1009800006204143D068C0F34160401C4000B1FBE9
:10099000F0F1084610BD80B5FFF7B2FF384A136882
:1009A0003849C3F3031206E080B5FFF7F4FF00F007
:1009B0000DF8C3F30222895CC84002BD80B5FFF781
:1009C000EAFF00F003F8C3F3C222F4E72C4A1368ED
:1009D0002D497047001002407CB505462B4E30680B
:1009E0000024C10002D500F07BF80EE0306840F032
:1009F00080503060316801F080510091009800F023
:100A00006FF8316821F080513160002818BFB0F5CF
:100A1000007F04D1802D0CD9A12D09D304E0802DB5
:100A200088BF032405D801D1022402E0702D00D133
:100A300001240D480168090944EA011101600068B8
:100A400000F00F00A04201D0012076BD002076BD4D
:100A5000C0040020BC040020901002400070004040
:100A60000C809F01FFFFEEFE0020024001B4C40491
:100A7000941002402C44000800127A000024F40074
:100A800008100240E4410008CC450008581002401C
:100A900070B504460D4E30780025A0B14FF47A7140
:100AA000B1FBF0F10A4A1068B0FBF1F000F0A8F8D1
:100AB00048B9082C07D2002221464FF0FF3000F041
:100AC00081F8B46000E00125284670BDB404002020
:100AD000C004002001484068704700BFB4040020F3
:100AE000DFF89800006800F4C060704770B5DFF868
:100AF0008C402668054600F033F806F4C066B0F571
:100B0000004F02D0E068010401D5012070BDAE4263
:100B10001DD02068DFF86810DFF8683020F4C0606E
:100B2000054325600A6832200A21B2FBF3F34343F0
:100B3000B3FBF1F0401C00E0401E61694A0501D59D
:100B40000028F9D16069410501D5032070BD00205E
:100B500070BDDFF83400016841F400710160704736
:100B60000A480068C10402D54FF480507047000461
:100B700002D44FF4004070470020704700700040DE
:100B8000C0040020A08601000470004010700040E6
:100B90004901020002D4244881547047234B02F0DB
:100BA0000F021A4402F8041C7047214B19684FF6D3
:100BB000FF020002114000F4E06008431D490843B1
:100BC0001860704770B51A4B1C68C4F302230124E7
:100BD000C3F10705042D2EBF072504FA05F56D1E88
:100BE000DE1C072E34BF00231B1F2940994004FA46
:100BF00003F35B1E1A401143BDE87040C8E70000D4
:100C0000401E10B5B0F1807F01D3012010BD0A4C09
:100C1000606007214FF0FF30FFF7BAFF0021A160AD
:100C200007202060002010BD00E400E018ED00E087
:100C30000CED00E00000FA0510E000E0F0B585B032
:100C40000B9D15B900F08EFBFEE70C9C14B900F06B
:100C500089FBFEE75C260096009F5C2F02D000F027
:100C600081FBFEE7009E2563022584F859500A9D0A
:100C7000002604AF039602940197009500F034F823
:100C8000204600F078F8049805B0F0BD2DE9F8434F
:100C90000646174684B088469946B80000F0A4FB83
:100CA00005001CD05C2000F09FFB040014D0002045
:100CB000256384F8590003900D980C9901900294D3
:100CC00000914B463A464146304600F00DF820462A
:100CD00000F051F8012004E0284600F004FC4FF039
:100CE000FF3005B0BDE8F0832DE9F0470A9F81464B
:100CF0000C46386B15469A46A522A90000F03EFC2A
:100D0000396B01EB8502101FC0084FEAC00808F0DC
:100D1000070007F1340554B10021625C6A54605C3D
:100D200010B1491C1029F8D30020E87300E02870A6
:100D3000089E099C372E88BF3726FE62AE61E861A7
:100D4000381D00F045FC07F1180000F041FC3F6140
:100D5000C6F13806BE617F620020286287F858001D
:100D6000396B53464A46404600F0C4FC386004B133
:100D70002760BDE8F0872DE9F04100F06CF8DFF85E
:100D80001855E86C1426DFF81485401CE864A86A3E
:100D900028BBAC62E86C012829D1002706FB07F0CC
:100DA0007F1C404400F007FC382FF7D305F1740096
:100DB00000F001FC05F18807384600F0FCFB2846EE
:100DC00000F0F9FB05F1140000F0F5FB05F1380027
:100DD00000F0F1FB05F17400E8622F6307E0A86DF5
:100DE00028B9E06AA96ACA6A904228BFAC62A86EB4
:100DF000E26A401C6064696D914238BF6A6556437F
:100E0000A866211D08EB060000F0E5FB00F044FC9D
:100E1000A86D30B100F07DF903D2BDE8F04100F0DB
:100E200025BCBDE8F08110B504000FD0DFF86814D0
:100E3000086F10B100F096FAFEE700F041F80021CB
:100E4000204600F039FA00F041F818B9BDE810402A
:100E500000F00CBC10BD044600F012BC80B586B09A
:100E600000210591049103AA04A905A800F0A2FCA1
:100E70000598049900220092039A029001910023A0
:100E80000FF294410FF20930FFF7D8FE80B100F065
:100E90009BFC01280ED100F065FADFF86C044FF0DE
:100EA000FF31C166012282650021016500F056FC18
:100EB00007B000BD10F1010FFAD100F053FAFEE7C0
:100EC000DFF84404016F491C0167704770B5DFF813
:100ED000C863306F0024002510B900F043FAFEE724
:100EE00000F0CEFB306F401E3067306F002831D1EC
:100EF000F06CD0B92EE0F068C46800F02CF800F077
:100F000095F9E06A716DDFF80424814238BF70659D
:100F100014235843211D104400F05DFBE06AB16AC0
:100F2000CA6A904224BF0121316630680028E2D1AC
:100F30000CB100F062F9F46D3CB100F015F808B1A5
:100F400001203066641EF8D1F565306E10B10125C0
:100F500000F08CFBA4E104F1180000F062BBFFE795
:100F6000DFF8A403006D70472DE9F843DFF828731C
:100F7000386F0026002850D13C6D641C3C650ED1B2
:100F8000F86A006810B100F0EDF9FEE7F86A396B15
:100F9000F9623863786E401C786600F02EF9F86EBE
:100FA0004FF01408DFF86493844227D31FE0F96AF6
:100FB000C868C568686884422DD3281D00F031FBDD
:100FC000A86A18B105F1180000F02BFBE86A796DEA
:100FD000814238BF786508FB00F0291D484400F0C5
:100FE000FAFAE86AB96ACA6A904228BF0126F86A22
:100FF00000680028DBD14FF0FF31F966B86AC06A9B
:1010000008FB00F059F80010386E022928BF0126AD
:1010100030B1012604E0F866F0E7F86D401CF86591
:1010200042E110B5DFF87022106F10B10121116696
:1010300010BD1066516DDFF8D43200E0491E142453
:101040004C43185920B90029F8D100F08BF9FEE77C
:101050001819436800F108045B68A342436004BFA9
:101060005B6843604068C3689362516510BD10B50A
:101070000C4610B900F076F9FEE700F01BF800F01E
:10108000B7FAFFE720460121BDE8104014E138B56A
:101090000D46144610B900F065F9FEE700F00AF8B5
:1010A00000F099FA0CB14FF0FF3521462846BDE813
:1010B000344001E1DFF850128A6A02F118017047EA
:1010C00038B5C068C46814B900F04CF9FEE7FFF702
:1010D00042FFDFF83452286F40B900F0A7F800F063
:1010E00012F838BF6A6500F0E2F802E004F1180176
:1010F000284600F070FA00F00CF802D201202866B1
:1011000032BD002032BDE26A686DDFF800329042E5
:101110007047A86AC16AE06A81427047DFF8E81147
:101120004A6E0260096D41607047F8B504000D46D3
:1011300002D100F017F9FEE715B900F013F9FEE748
:1011400000F09EFADFF8C001016D62682E688B1A0C
:1011500016F1010F0ED0476ED4F800C0674501D0DC
:1011600091420BD2B34207D2F31A2B60416E216039
:10117000006D6060002402E000202860012400F07F
:101180008BFA2046F2BD0120DFF87C11086670471B
:1011900070B5424CDFF8705111E000F071FA286A26
:1011A000C668301D00F03DFAE86C401EE864686BCC
:1011B000401E686300F070FA304600F009F8686B72
:1011C0000028EAD121680229F9D300F04FFAF6E7A6
:1011D00010B5044694F8590040B9206B00F083F92B
:1011E0002046BDE8104000F07EB910BD0128F7D0C0
:1011F0000228FAD000F0B6F8FEE72749C86A00686E
:1012000010B94FF0FF3203E0C86AC268D068426884
:10121000CA667047DFF8F010886D08B90120704782
:10122000086F08B90220704700207047201D00F0A9
:10123000F8B938B5044600210CB300F028F802D004
:1012400000F090F8FEE7206D10B900F08BF8FEE793
:10125000E26AE36C401E20659A4210D078B9FFF72D
:10126000E5FFE26CDFF8A430C2F13800E262A06171
:10127000696D914238BF6A6500F003F801210846A4
:1012800032BD14204243211D981800F0A4B9DFF8A4
:101290007850A86A8442704728310020E424002056
:1012A00000F0FAF9284670BD3046BDE8F2831420FC
:1012B0004243211D98187047F8B5134D0C462F6D09
:1012C000A96A0646081D00F0ACF916F1010F05D118
:1012D00024B1A86A011D05F1380019E0A86AF619C1
:1012E000BE424660A86A05D2011D286BBDE8F440E5
:1012F00000F07EB9011DE86A00F07AF9E86E8642D6
:1013000038BFEE66F1BD000028310020E424002043
:10131000BDE8F44000F05FB949444C4500000000CE
:101320002F4A1168086806C881F30B88022181F3EF
:101330001488203080F30988BFF36F8F1047EFF3D4
:10134000148020F0010080F314887047254800685D
:10135000006880F3088862B661B6BFF34F8FBFF3B1
:101360006F8F02DFEFF311804FF0A00181F311883E
:10137000BFF34F8FBFF36F8F704780F31188BFF3B8
:101380004F8FBFF36F8F7047EFF30980EFF30B823E
:10139000734620E9FC0F124A116808604FF0A00064
:1013A00080F31188BFF34F8FBFF36F8FFFF739FEC4
:1013B0004FF0000080F31188094A11680868B0E80E
:1013C000FC0F82F30B8880F3098818471EF0040F86
:1013D0000CBFEFF30880EFF3098000F07EB9000046
:1013E0005031002008ED00E02DE9F0410446FFF700
:1013F00067FD614FB8684FF00008002508BB07F192
:10140000200107F120034FF400500A4613F0070FA4
:1014100005D0CA1DD208D200C2F5005008188018A5
:101420000838C008C0003A607D60B860456005605B
:10143000831A5360106050683861F8604FF00040C4
:10144000F861F869044245D1002C43D0083414F007
:10145000070F04D004F1080004F00704041BCCB308
:10146000F868A04236D339463E6801E03146064668
:101470007068A04202D230680028F7D1B86886426E
:1014800028D00A68306802F1080808607268121BE8
:10149000112A0CD3311911F0070002D0FFF762FFB7
:1014A000FEE7301D02517460084600F041F8716893
:1014B000F8683C69401AF860FA68F869A24288BF87
:1014C00022463A61014371603560786908F007058A
:1014D000401C7861FFF7FAFC15B1FFF743FFFEE708
:1014E0004046BDE8F081002800D1704738B5A0F132
:1014F0000804214D6168EA69114202D1FFF732FF09
:10150000FEE7206810B1FFF72DFFFEE79143616011
:10151000FFF7D6FCE96860684118E960204600F0F2
:1015200007F8A869401CA861BDE83140FFF7CEBCB0
:10153000114930B50A4600E01A4613688342FBD3CE
:101540005368D418844203D14068C31853601046CE
:1015500043681468C518A54208D189688C4204D034
:101560006168CB184360246800E00C468242046046
:1015700018BF106030BD0000C404002062F30F22C9
:1015800062F31F4200B500BF13009646944610391F
:1015900028BFA0E80C50FAD85FEA417C28BF0CC0F5
:1015A00048BF40F8042BC90728BF20F8022B48BFCA
:1015B00000F8012B00BD4FF0FF3200F108018260FE
:1015C0004160C16000F108020261002101607047C2
:1015D00000210161704710B542684A6093688B60D2
:1015E00094686160916008610168491C016010BDE8
:1015F00030B50A6812F1010F08BF036907D000F186
:10160000080300E023465C682568AA42FAD25A68BB
:101610004A6091608B60596008610168491C0160F3
:1016200030BD8268436801699A60426883685A6085
:101630004A68824204BF83684B60002202610868E6
:10164000401E08600868704780B50020009055492A
:101650000A6812F1010F02D0FFF784FEFEE7FFF7E0
:1016600081FE00980028FCD001BD00004FF08050A2
:101670004D490860BFF34F8FBFF36F8F7047000075
:1016800080B5FFF76FFE47480168491C0160BFF352
:101690004F8FBFF36F8F01BD80B54249086810B905
:1016A000FFF760FEFEE70A68521E0A60086818B974
:1016B000BDE80240FFF761BE01BD10B5FFF752FE65
:1016C0000446FFF751FC18B14FF0805036490860CE
:1016D0002046BDE81040FFF750BE80B5806910F885
:1016E000021C022903D1BDE80140FFF719BEFFF734
:1016F00039FEFEE730B5A0F14404E2632B4AA26351
:101700004FF00332226363624FF001324FF0113326
:10171000A26223624FF010324FF00933E261A361FD
:101720004FF080754FF008324FF007332564626147
:1017300023614FF012354FF006324FF005336563E9
:10174000E260A3604FF002354FF004326FF04303C4
:10175000E5626260236040F8481D30BD1CB5144846
:101760000168104C41F47F010160026842F07F4241
:10177000026000F0C3F900202060FFF7E7FDFFF7EB
:1017800050FC00200090216811F1010F02D0FFF7FA
:10179000E9FDFEE7FFF7E6FD00980028FCD00020F9
:1017A00016BD0000B004002004ED00E0491600085A
:1017B00020ED00E0034B036003F15C000860802132
:1017C00011607047A02D002010B586B000F064F9BC
:1017D000DFF81443A068C0B100210591049103AA69
:1017E00004A905A800F09EF9059804990222009228
:1017F000039A0290019100230FF2F0210FF265008D
:10180000FFF71CFA0028E06002D1FFF7ABFDFEE70E
:10181000012006B010BDF8B5044684B01E46002075
:1018200014B9FFF79FFDFEE7DFF8BC72BD68BDB1DC
:1018300000910192029406290CDAFFF7EBFC0228D2
:10184000B868694607BF0A9A00230023002200F007
:10185000DEF905E0002332466946284600F05BFACF
:1018600005B0F0BDF8B586B0DFF87C52296808688D
:1018700010B90124002602E0C86800240668FFF7BA
:101880001FFB01A800F0B0F80746019800283BD1E3
:1018900054BBB7422DD3FFF719FB2868C168CC6849
:1018A000201DFFF7BEFE94F82800410717D5A16957
:1018B00033463A468919204600F0D3F840B100205B
:1018C00000900023324600212046FFF7A4FF18B104
:1018D000216A2046884721E0FFF744FDFEE700F03B
:1018E000FE0084F82800F3E7686801684C1EA441F4
:1018F000E40FA8682246F11B00F076FBFFF7E6FA3A
:1019000060B9FFF7B3FE09E0FFF7E0FA06E094F8EC
:10191000280081073BD42046FFF7E5FDA868002298
:1019200002A900F03EFA0028A0D00298002803D5B2
:1019300005990498039A904702980028EED4049CD5
:10194000606910B1201DFFF76CFE01A800F04CF893
:1019500002990929E2D8DFE801F02121211A0706BE
:1019600021211A07DAE7D2E794F8282042F0010291
:1019700084F828200399A16131B103460246091871
:10198000204600F06EF8C9E7FFF7ECFCFEE794F89C
:10199000280000F0FE0084F82800BFE794F8281023
:1019A0000246A06941F0010184F8281003990B4612
:1019B0004118204600F055F80028AFD0216A204693
:1019C000884794F828004107A8D500200090039A82
:1019D000A0690023002182182046FFF71CFF002881
:1019E0009CD1FFF7BFFCFEE72DE9FC410446FFF761
:1019F000B6FA05463C4E306985420BD3002035616E
:101A000020602846BDE8F68178603F613068391D66
:101A1000FFF7EEFD31680868F0B1C868C768D0F814
:101A20000080381DFFF7FDFD396A3846884797F872
:101A300028004107EED5B86940448045E4D3002032
:101A400000900023424600213846FFF7E4FE0028BC
:101A5000E0D1FFF787FCFEE770687160306001201D
:101A6000CDE738B50024416000611F4D8A4206D39E
:101A70008169D21A8A4206D2011D686807E09A423B
:101A800003D2994201D3012403E0011D2868FFF726
:101A9000AFFD204632BD00001CB5FFF7F1FD124C32
:101AA000A068E0B904F11400FFF785FD04F12800F7
:101AB000FFF781FD04F1140004F1280100222060E9
:101AC0006160009204F13C0304F18C0210210A20B1
:101AD00000F068F8A06010B106A100F072FABDE84D
:101AE0001340FFF7D9BD0000FC2F0020546D722079
:101AF00053766300546D72510000000007480021C6
:101B000001608160064B19684FF47A72B1FBF2F202
:101B10000721521E42600160704700BF10E000E0E4
:101B2000C0040020044B036003F15C0008604FF424
:101B300080711160704700BF4429002070B5040017
:101B40000D4602D1FFF70EFCFEE7FFF799FD206C72
:101B5000E16B2268002600FB01F3491E4843134451
:101B6000A3601044A663E060626004F144004FF09B
:101B7000FF31017041704DB9206978B104F1100056
:101B8000FFF79EFA50B1FFF771FD07E004F1100076
:101B9000FFF711FD04F12400FFF70DFDFFF77CFDB9
:101BA000012070BD7CB51C4610B9FFF7DBFBFEE7DA
:101BB00014B9FFF7D7FBFEE71AB119B9FFF7D2FB4B
:101BC000FEE771B950230093009D502D0CD1069B68
:101BD000009D012684F84660009400F008F8204635
:101BE00076BDFFF7BFFBFEE7FFF7BCFBFEE7002972
:101BF00038B5049D1C460CBF2D602A60E86329643B
:101C000001212846FFF79AFF85F84C4031BD2DE9A8
:101C1000F64182B0064688461F46002416B9FFF7F3
:101C2000A1FBFEE7B8F1000F01D1306C70B9022FB3
:101C300002D1F06B01280CD1FFF7ECFA002837D164
:101C40000398002834D0FFF78DFBFEE7FFF78AFBEF
:101C5000FEE7FFF787FBFEE70398002844D014B99E
:101C600000F015F90124FFF717FDFFF729F9FFF739
:101C700007FD00F00FF904BF0022027000F015F913
:101C800004BF00224270FFF707FD00F00AF90028A8
:101C90003CD1FFF7F5FCB06BF16B884214BF002517
:101CA0000125FFF7F9FC1DBB00F0EFF8FFF70EF977
:101CB000FFF7E6FCB06BF16B884201D3022FCBD16A
:101CC0003A464146304600F0F5F8716A19B106F11E
:101CD0002400FFF7F5F908B1FFF7C8FCFFF7DCFCBB
:101CE000012004B0BDE8F081FFF7D6FC0020F8E742
:101CF000039906F11000FFF7BAF900F0C6F8FFF7F4
:101D0000E5F80028D4D1FFF7B1FCD1E700F0BDF829
:101D1000FFF7DCF8EAE72DE9F84304000E46154624
:101D20001F4602D1FFF71EFBFEE70EB9206C28BB51
:101D3000022F02D1E06B012823D1FFF713FB80466D
:101D4000A06BE16B884201D3022F23D194F9459017
:101D5000A06B3A463146204600F0ACF819F1010F6D
:101D600012D1606AA0B104F12400FFF7A9F900289C
:101D700018BF002D0CD00120286009E0FFF7F2FA0F
:101D8000FEE7FFF7EFFAFEE709F1010084F84500EE
:101D9000012400E000244046FFF7EFFA2046BDE8AA
:101DA000F283F7B506460F46002416B9FFF7DAFAB4
:101DB000FEE70FB9306C38B9FFF72CFA58B9029822
:101DC00048B1FFF7CFFAFEE7FFF7CCFAFEE700F0E5
:101DD0005CF8FFF77BF8FFF753FCB56BA5BB0298E7
:101DE000002844D014B900F052F80124FFF754FC45
:101DF000FFF766F8FFF744FC06F14400415711F184
:101E0000010F04BF0022027000F04FF804BF00224F
:101E10004270FFF741FC02A96846FFF786F90028E7
:101E2000304628D100F0C2F80028D0D0029906F13F
:101E30002400FFF71CF900F028F8FFF747F8002806
:101E4000C9D1FFF713FCC6E73946304600F066F803
:101E50006D1EB563306930B106F11000FFF730F93F
:101E600008B1FFF703FCFFF717FC0120FEBDFFF7E9
:101E700013FC0020FEBD00F065F8FFF727F83046A0
:101E800000F094F80028A6D0F3E730465AE0684600
:101E9000FFF744B906F1440090F9001011F1010F69
:101EA000704703A96846FFF740B990F9011011F196
:101EB000010F7047F8B506461546B46B326C002723
:101EC00042B9306830BBB068FFF7B3F9002107466C
:101ED000B1601FE065B9706800F0AAF87068316CF5
:101EE000B26808447060904214D33068706011E0AA
:101EF000F06800F09DF8306CF16840420144F160F8
:101F00003268914202D2B1680844F060022D01D1DA
:101F100004B1641E641CB4633846F2BD026C0B4607
:101F2000002A00D1704710B58468C1681144A142ED
:101F3000C16024BF0168C160C1681846BDE8104097
:101F400000F076B8F8B50546FFF79AFB05F14404B2
:101F500094F9016007E005F12400FFF7B1F808B13A
:101F6000FFF711F9761E70B2012802DB686A0028BB
:101F7000F1D14FF0FF366670FFF78EFBFFF780FB65
:101F800094F9007007E005F11000FFF799F808B127
:101F9000FFF7F9F87F1E78B2012802DB28690028D4
:101FA000F1D12670BDE8F140FFF776BB10B50446CD
:101FB000FFF766FBA06B441EA441FFF76DFBE00F2B
:101FC00010BD10B50023074C54F833201AB15B1C28
:101FD000082BF9D310BD44F8331004EBC30148605B
:101FE00010BD0000C4310020F8B504460D46164669
:101FF000FFF746FB04F1380797F90C0010F1010FC9
:1020000004BF0021397397F90D0010F1010F04BFCF
:1020100000217973FFF740FB386828B9324629461A
:1020200004F12400FFF733F82046BDE8F24089E7C9
:102030004AB1000011F8013B521E00F8013B1CBFE1
:1020400011F8013BF8E770472DE9F84F054628687D
:102050000024A046DFF8E463DFF8E47301051FD530
:10206000E86E68B1202816D0402804D0602818BF38
:10207000802808D012E03A6842F480323A6003E0E7
:1020800000F0D7F9044654B9F168E86E21F0E00198
:102090000143F16004E000F0C7F9F3E70124A04632
:1020A0002868C10423D5286FC0B1B0F5807F19D04E
:1020B000B0F5007F06D0B0F5407F18BFB0F5806F57
:1020C00004D012E0396841F48031396074B9F168A4
:1020D000286F21F4E0610143F16008E000F0A9F904
:1020E0000446F3E700F0A0F9FAE70124A0462868C7
:1020F000810331D5F86C4FF00009C1000AD4F86CA7
:102100004FF0010940F08050F864F86C00F0805006
:1021100000900098DFF82C030168DFF828A341F451
:1021200080710160FEF7D6FC8346DAF80000C10535
:102130007AD4FEF7CFFCA0EB0B000328F5D3DAF836
:102140000000C10570D40324A046B9F1000F03D0EC
:10215000F86C20F08050F8642878C10705D5FA6F34
:10216000686B920840EA8202FA672978880705D5E9
:10217000F96FA86B21F00C010143F9672978480732
:1021800005D5F96FE86B21F030010143F967297833
:10219000080705D5F96F286C21F0C0010143F967E4
:1021A0002978C80605D5F96F686C21F440710143A0
:1021B000F9672978880605D5F96FA86C21F4406184
:1021C0000143F9672968880505D5F96FE86D21F4A1
:1021D00040210143F9672968480505D5F96F286E44
:1021E00021F440110143F9672968480205D5F96FC8
:1021F000686E21F440010143F967296888014FD5D1
:10220000A96E41B1B1F1807F03D0B1F1007F41D01F
:1022100044E000F004F9002C41D1F96FA86E21F0E0
:1022200040710143F9673BE0002C8DD1306810F418
:1022300040701EBF05F18401CA6890420BD030681F
:10224000316841F480313160326820F4407022F40A
:10225000803232603060C00713D5FEF73BFC824607
:10226000306881070DD4FEF735FCA0EB0A0041F27F
:1022700089318842F4D33068810758BF03247FF541
:1022800063AF316805F18402D06821F440710143E5
:1022900031605AE700F0CDF80446BCE70124A046BF
:1022A0002978480605D5F96FE86C21F440510143BF
:1022B000F9672978080605D5F96F286D21F44041A2
:1022C0000143F9672968C80505D5F96F686D21F4E0
:1022D00040310143F9672968C80205D5F168A86D46
:1022E000890840EA8101F1602968880415D5F96FF1
:1022F000686F21F040610143F967686FB0F1006FCA
:1023000002D100F08CF808E0B0F1806F05D1012116
:1023100000F090F8010018BF80462868010329D515
:10232000A86FB0F5804F03D1F06840F4804007E01B
:10233000F96F21F040610843F867F06820F48040AD
:10234000F060A86FB0F1806F06D1012100F072F843
:1023500001000FD080460DE0B0F1006F03D1386866
:1023600040F4801005E0B0F5804F03D1386840F4A8
:10237000803038602968480315D5F96FE86F21F07F
:1023800040610143F967E86FB0F1006F02D100F0DE
:1023900046F808E0B0F1806F05D1012100F04AF85D
:1023A000010018BF80462868410411D5FA6FD5F89E
:1023B000800022F040520243FA67D5F88010B1F154
:1023C000805F05D1022100F035F8010018BF80467A
:1023D0002868C10306D5F268D5F8840022F004020B
:1023E0000243F260286805F18401820205D5F36892
:1023F000486823F018030343F3602A68D0010BD523
:10240000F268886822F440120243F2608968B1F5EC
:10241000001F01D100F003F84046BDE8F28F386894
:1024200040F4801038607047002105F1200000F072
:1024300079B80021281D00F007B800009010024074
:102440000C100240007000402DE9F04100F0BEF891
:1024500004D030D303282AD025D32CE03168880754
:1024600029D5316821F080613160FEF733FB804669
:102470003068010108D5FEF72DFBA0EB080003280A
:10248000F6D33068010144D47968BA683B68491EC4
:102490009CB93469DFF84801044044EA0222F86834
:1024A00042EAC0621FE030684105DAD403E03068D8
:1024B00010F4C02FD5D1012531E0012C346909D1A8
:1024C00048480440386944EA02224008401E42EA73
:1024D000405208E044480440786944EA0222400837
:1024E000401E42EA406242EA0111194331613068FC
:1024F00040F080603060FEF7EDFA0446306801017C
:1025000009D4FEF7E7FA001B0328F7D3306801016E
:1025100001D4032503E03169B869014331612846DC
:10252000BDE8F0812DE9F04100F050F804D046D329
:10253000032840D03BD342E0316888073FD531685B
:1025400021F080513160FEF7C5FA80463068810085
:1025500008D5FEF7BFFAA0EB08000328F6D33068D1
:10256000810022D47CB97169BA681D48014041EAF2
:102570000221F8687A6841EAC0613868521E41EA6F
:10258000021101437161316841F080513160FEF701
:10259000A1FA04463068810013D4FEF79BFA001BB1
:1025A0000328F7D3306881000BD403250DE0306891
:1025B0004105C4D403E0306810F4C02FBFD1012519
:1025C00003E07169386901437161A8E7074638681B
:1025D00000250C46014E0128704700000010024003
:1025E0000C80FF070C809FFF0C80FFF9603000EB30
:1025F0008100006800F0F8407047603000EB810017
:10260000016821F000410A4302607047CB0D14308D
:1026100003F0040310B51818090D036801F01F0139
:1026200007248C40A34302FA01F11943016010BD55
:10263000F8B50025044600950CB90120F2BD04F15F
:102640005406706820B9204600F0B5FAB5603570C0
:1026500021688868800004D58A68DFF86C01024030
:102660008A6021688868C00017D48A68DFF85C0136
:10267000024042F080528A60DFF854110868DFF8A7
:102680005421B0FBF2F2521C5200009202E000987A
:10269000401E009000980028F9D120688168C90088
:1026A00008D47268012542F010027260B16841F0EE
:1026B0000101B16081687268D3067DD449077BD47B
:1026C000726822F4807242F0020272608068C00771
:1026D00010D4DFF804110868DFF8002111680843FE
:1026E000C00707D4DFF8F8100A68606822F47C128B
:1026F00002430A6004F13002607E5368E16894F896
:10270000207043EA4033A0680B43034343EA074386
:10271000012F03D1606A401E43EA4043A06A20B102
:1027200000F470700343E06A03432168DFF8B400EB
:10273000CF6807403B43CB60236899689868490796
:1027400026D4000724D4DF68D069DFF89C100F403E
:10275000217E0743107847EA813747EA4007DF6068
:10276000107A01280FD123681F69D16810696FF3AF
:102770008A070F435169074390690F43074347F0A6
:1027800001071F6104E020680169490849000161EF
:10279000206901282068016B05D1E2690909521EF0
:1027A00042EA011101E0090909010163706820F0A2
:1027B000020040F0010003E07068012540F01000C5
:1027C00070602846F2BD0000C0FFFF5FC0FFFF7FC2
:1027D000C0040020400D030008800242088102422C
:1027E0000883024207C0F0FFF9BFFFFFF8B50646B5
:1027F00000240F46009406F154052978012901D1DF
:102800000220F2BD0120287030688168490700F17C
:1028100063817A6830303968930903F00C03181823
:10282000D0F800C002F01F021F239340C1F384615F
:102830002CEA030301FA02F21A430260306882684C
:102840008168520731D409072FD4BA68B2F1004F1A
:1028500008D139680022FFF7D9FE3068416941F09C
:10286000004106E03968FFF7D1FE3068416921F088
:10287000004141613068C1683A69042A16D060306D
:102880003B6800EB820CDCF80020984803F0F8432A
:10289000024013437A69C908480000F006008240EC
:1028A000134343F00043CCF8003076E00021FFF7FB
:1028B0009DFE40032146306804D1FFF797FEC0F328
:1028C000846003E0FFF792FE00F01DF939684A03C7
:1028D0000EBFC1F3846191FAA1F1B1FA81F188428E
:1028E00004D1306800220021FFF787FE00F018F9BC
:1028F000400304D100F014F9C0F3846003E000F059
:102900000FF900F000F939684A030EBFC1F3846182
:1029100091FAA1F1B1FA81F1884204D13068002224
:102920000121FFF76AFE00F0F7F8400304D100F040
:10293000F3F8C0F3846003E000F0EEF800F0E3F891
:1029400039684A030EBFC1F3846191FAA1F1B1FA6B
:1029500081F1884204D1306800220221FFF74DFE48
:1029600000F0D6F8400304D100F0D2F8C0F3846040
:1029700003E000F0CDF800F0C6F839684A030EBF56
:10298000C1F3846191FAA1F1B1FA81F1884204D1D5
:10299000306800220321FFF730FE31688868C007E5
:1029A00061D4FA683B68D1F8B0C0DFF8A8E102F062
:1029B0001802C3F312002EFA02F22CEA00001340B0
:1029C0000343C1F8B030F868DFF88C11884230D189
:1029D000386841030EBFC0F3846290FAA0F1B1FAE7
:1029E00081F2521C012102F01F020A2A0DD200F0CE
:1029F0009BF8920603F01F03401C02F0F842994036
:102A000000F01F0000F074F80FE000F08DF8401C9B
:102A1000920603F01F0300F01F0002F0F8429940F5
:102A20000A3800F065F841F00071BA683068FFF7C5
:102A3000EDFD3A68DFF82401024252D0DFF8203180
:102A4000DFF82071DFF8080101681B683F6801F0BA
:102A5000E0713B43DB073FD4DFF80C71DFF80C314A
:102A6000BA421CD10A023CD436689E4239D100F0E9
:102A700045F841F400010160DFF8F4000168DFF877
:102A8000F4200C20B1FBF2F2521C42430092009859
:102A900000281EBF0098401E0090F8D121E0DFF80A
:102AA000D870BA4209D1CA011BD436689E4218D1E7
:102AB00000F024F841F080710CE0DFF8C070BA42F9
:102AC0000FD14A020DD436689E420AD100F016F8A2
:102AD00041F48001016004E06868012440F02000B6
:102AE0006860002028702046F2BD000000F0FF035F
:102AF000114300EB400041EA00517047026822F0A8
:102B0000E0721143704790FAA0F0B0FA80F070477D
:102B100030680321FFF76ABD30680221FFF766BD08
:102B200030680121FFF762BD420306D1C0F3846221
:102B3000C0F38463C0F3846007E090FAA0F0B0FAB9
:102B400080F2B0FA80F3B0FA80F0521C5B1C704740
:102B500008830242FFFF070000007F40000008805A
:102B60000880024208810242000052C700800242EF
:102B7000C0040020400D0300000084CB0100008051
:102B800082B09348816841F001018160816801F061
:102B90000101009100990268072142F08052026011
:102BA0000068002200F080500090009802B06FF0A2
:102BB0000100FEF707B818B5ABB000F0A6F800F0BA
:102BC0009FF820688349884227D14FF480424FF014
:102BD00040510692269100F090F808B100F005FBF4
:102BE0007D48016841F400510160026802F400521E
:102BF000009200990268042142F004020260006819
:102C0000032200F00400009000980191002103913C
:102C1000029201A9714800F007FB2CB010BD18B555
:102C2000ABB000F072F800F06BF820686C49884295
:102C300026D18022002106921A9100F05EF808B198
:102C400000F0D3FA644C2068122240F0200020608B
:102C5000216801F0200100910098072100F048F858
:102C600004210591029201A95E4800F0DDFAE068B6
:102C700040F48000E060E06800F48000009000987C
:102C80002CB010BD18B5ABB000F03FF800F038F82C
:102C900020685549884229D12022002106921891A6
:102CA00000F02BF808B100F0A0FA4B48016941F0A0
:102CB00001010161016901F00101009100990268BF
:102CC00042F040020260006800F04000009000986E
:102CD000FDF73FFF4FF4C07100F00AF8082102220F
:102CE0000591029201A9414800F09EFA2CB010BD56
:102CF0000191002103910491704706A8FFF7A4B940
:102D00009422002106A800F07BBB04461422002177
:102D100001A800F075BB18B5A5B0044694220021A7
:102D2000684600F06DFB2168314A914219D14FF499
:102D300000334FF48071009324916846FFF784F9C3
:102D400008B100F052FA2248816B41F400418163DE
:102D5000026842F480620260006800F480600090C3
:102D6000009826B010BD18B5ABB0FFF7CEFFFFF747
:102D7000C7FF20681F49884228D14FF40052002124
:102D800006922391FFF7B9FF08B100F02EFA124C1A
:102D90002068022240F001002060216801F001015A
:102DA000009100984FF4C051FFF7A2FF0A2105914E
:102DB000029201A9104800F037FA206940F400108F
:102DC0002061206900F40010009000982CB010BD24
:102DD00058100240008002424C100240000802429B
:102DE00000580040001402420080004000180242D7
:102DF0000028004000D400400000024281B0DFF80B
:102E000094130A6802430A60096808400090009819
:102E100001B070472DE9F84789B000F0FBFA00F0E7
:102E200075F900F0D7F9DB4C2068DB4FDFF86C83D5
:102E300040F0040020602168DFF8649301F0040191
:102E400005910598216841F020012160226802F077
:102E5000200205920598216841F002012160226854
:102E600002F0020205920598216841F040012160BC
:102E7000226802F0400205920598FDF76AFE21687B
:102E8000002241F0010121602068802100F0010052
:102E900005900598384600F092FA00224FF4007130
:102EA000404600F08CFA0022A021484600F087FA44
:102EB0004FF48040BB490090019100220292694684
:102EC000484600F0B1F9802100F018F9384600F0CA
:102ED000ABF94FF4007100F011F9404600F0A4F98D
:102EE000A02100F00BF9484600F09EF90C220021C9
:102EF00006A800F085FA182200F06DF9AA4FAB4839
:102F00003860002104207960F96039617861398383
:102F1000002200200121BA60F96187F82000B86220
:102F2000F86207F13005287068602A723846FFF7AA
:102F30007FFB08B100F059F90020069006A9384639
:102F400000F07AFA08B100F050F999490091062290
:102F50000192002102917F22039204210491002218
:102F6000059269463846FFF741FC08B100F03DF98B
:102F70009048A8639049E963002028646864A864C5
:102F80000C21E9642865A865E865286607F1CC0589
:102F9000286007F1680000F0B1FA08B100F025F9E7
:102FA000002107F1680000F049FD08B100F01DF9AB
:102FB000002107F1680000F04CFD08B100F015F9A0
:102FC00007F1680000F01CFD08B100F00EF91822AE
:102FD00000F001F97948E86707F5A676002131602D
:102FE0007F207060FF22B2600020F060316170616C
:102FF0004FF08041B161F06107F5A47A504600F0CE
:103000007BFD08B100F0F1F80021009103910491DB
:1030100005916946504600F015FE08B100F0E5F84C
:103020001822002101A800F0EBF9206940F400000B
:10303000206120694FF4004400F4000000900098E3
:103040000220FFF7DBFE0120FFF7D8FE00F04FF86B
:10305000484600F011FE00F04AF8404600F00CFE31
:10306000574870620821B1620220F062706300204C
:10307000B063F0633064706407F5B87000F089FEE7
:1030800008B100F0B2F84F48E8624F4929630020C8
:1030900068630221A9630120E8630021296469644F
:1030A000A964E96429656965A96548F23E50E86547
:1030B00007F1F804204600F0C1FE08B100F095F8D1
:1030C000204600F033FF08B100F08FF800F063FFF6
:1030D0003E4A00210FF2091000F089FFC7F864048E
:1030E00007F58D6000F0E0FF00F066FFFEE70321CA
:1030F000029100220194059201A9704700910021DC
:1031000001220291039101926946704700B597B080
:103110004822002105A800F073F900F05BF80020B8
:10312000FDF7E4FC08B100F060F800F0EDFF28487E
:103130000168012221F018010160812107916021BD
:103140000F920C920E91002201210D921191129179
:103150000222372134201092139105900722022178
:1031600014921591169105A8FDF744F808B172B6AE
:10317000FEE70F20032100900191002202920392AA
:10318000049205216846FDF7DEFA08B172B6FEE743
:1031900017B000BD4C10024000080242000002427D
:1031A00000040242000011103C0000200080024296
:1031B0000800900C008000402433030000280040E9
:1031C00000D400400058004081565040CC440008D4
:1031D0009010024014220021684600F011B900004E
:1031E00080B5012000F04CFFFBE772B6FEE730B57A
:1031F000016884684218416802EB5103C90703D58E
:103200004C4401E0491C08D19A4218BF12F9011B35
:1032100001D10C3030BD12F8015B002904F8015BCC
:10322000F0D4491EF7D5EFE72DE9F04F4FF0000C31
:10323000694A6A4BDFF8A8814FF00F0906460F462E
:1032400034E0684DAE4214BF0725062505FA0EF599
:10325000254348F821501C68C14301EA040E7C68EC
:10326000E50348BF40EA0E0EC3F800E05C6801EADF
:10327000040E7C68A50348BF40EA0E0EC3F804E0C4
:10328000146801EA040E7C68E50248BF40EA0E0EAD
:10329000C2F800E0546801EA040E79688C0248BF65
:1032A00040EA0E0EC2F804E00CF1010C396831FA64
:1032B0000CF000F08280012404FA0CF414EA0100FE
:1032C000F2D04FEA4C0103258D406FEA050E7D6870
:1032D000012D18BF022D03D0112D18BF122D13D1AF
:1032E000B568D7F80CA00EEA05050AFA01FA4AEA11
:1032F0000505B560756825EA04047D68C5F3001509
:1033000005FA0CF52C437460F468BD680EEA0404F9
:103310008D402C43F4607C68022C18BF122C14D111
:103320004FEADC0406EB8404D4F820A04FEA8C05B5
:1033300005F01C0509FA05FB2AEA0B0AD7F810B0BC
:103340000BFA05F545EA0A05256234680EEA04051C
:103350003C7904F0030404FA01F1294331607968EF
:10336000C900A1D54FEA9C0158F821504FEACC047E
:1033700004F0180E09FA0EF425EA04041A4DAE42C0
:1033800008BF002518D0194DAE4208BF012513D043
:10339000174DAE4208BF02250ED0164DAE4208BFF3
:1033A000032509D0144DAE4208BF042504D0134DA7
:1033B000AE427FF446AF052548E7BDE8F08F0AB17D
:1033C0008161704781627047426901EA020391435B
:1033D00041EA03418161704700F4024080F40240F9
:1033E00060F402400018024200000242000402425F
:1033F00000080242000C0242001002420014024285
:1034000010B5044610460A460146204600F084FEE8
:10341000204610BD042010B5FDF7C7FB00F08CFE60
:1034200007200024FDF734FB002814BF0124FFF718
:10343000A7FB204610BD0000F0B59AB000F154047F
:1034400023780022012B08BF02204AD001252570D5
:10345000169217920368244DAB4225D1244F3B6846
:10346000DFF888C0DCF800506D0732D45B0730D439
:103470000B68204D204EF3B1336890F8300023F4F0
:10348000604E4B6843EA0E0343EA40303060DCF89C
:1034900000003B681843C30720D437680868896870
:1034A0003D4005430D4312E0606840F0200060603D
:1034B0002270012015E0306820F460403060DCF8B4
:1034C000000039680843C00708D431680D403560F2
:1034D00004E06068012240F020006060002020705D
:1034E00010461AB0F0BD000000800242088002427F
:1034F00008810242E0F0FFFF0883024238B5040071
:1035000009D004F18005696809B900F01EF800F0DF
:1035100021F8012801D1012032BDA06A08B100F0D4
:103520002AF800F00AF821F02A01FFE7816000F094
:103530001BF8BDE8324000F0D1B92068416821F4A1
:1035400090414160206881687047002028702046C3
:10355000FFF798BB24216960206802685208520076
:103560000260204600F00AB82068016841F00101BD
:10357000016020467047204600F04DB9F8B504467A
:103580002268DFF83C0400251368A168DFF834E402
:10359000034020690B4361690343E0690B43DFF893
:1035A0002874034313605168E06821F440510143DB
:1035B000516094498A42A3691CBF206A03439668FC
:1035C000DFF80804064033439360D36A606A0FF261
:1035D00018461B0940EA0313DFF8F4037245D3626F
:1035E0004FF400433BD13F6807F00307032F44D853
:1035F000DFE807F00289789D4FF0010CE1694FF692
:10360000F077B1F5004F40F0C880BCF1000F0FD04B
:10361000BCF1010F00F0B980BCF1020F0CD0BCF17D
:10362000040F00F0B580BCF1080F00F0B480DDE0BD
:10363000FDF7BAF9002811D000F0E6F84A0802EBCD
:103640004002B2FBF1F080B2A0F11001B942EED21B
:103650000740C0F3420007432068C760C7E0DFF8B7
:1036600074C362452FD13F6817F00C0771D0042F47
:1036700049D0082F36D00C2F59D04FF0100C8A4269
:10368000BCD1BCF1000F0CD0BCF1010F63D0BCF178
:10369000020F0AD0BCF1040F60D0BCF1080F60D05B
:1036A000A4E0FDF781F90028D8D0616A36F811202E
:1036B000B0FBF2F6626802EB42018E4202D31303C2
:1036C000B34250D292E0DFF810C362450DD13F689B
:1036D00017F030073DD0102F15D0202F02D0302FFB
:1036E00025D0CAE74FF0020CC9E7DFF8F0C2624507
:1036F0000CD13F6817F0C0072BD0402F03D0802F8C
:10370000F0D0C02FECE74FF0040CB8E7DFF8D0C2E0
:1037100062450FD13F6817F440771AD0B7F5807F24
:10372000F1D0B7F5007FDDD0B7F5407FA5D14FF0E0
:10373000080CA4E78A42A0D13F6817F4406708D07C
:10374000B7F5806FDFD0B7F5006FCBD0B7F5406F1E
:10375000C6E7AC4693E7FDF731F9A4E7FDF7D0F8EB
:10376000A1E71846A1E75008002110EB0620DFF87A
:10377000747251EB1661002300F03CFDA0F5407619
:10378000BE4233D22168C86031E0FDF717F951E736
:10379000FDF7B6F84EE718464EE7BCF1000F0CD027
:1037A000BCF1010F1AD0BCF1020F09D0BCF1040F1B
:1037B00017D0BCF1080F17D018E0FDF7F5F8B0B13D
:1037C00000F022F800EB5100B0FBF1F080B2A0F164
:1037D0001001B9420AD22268D06008E0FDF7EEF885
:1037E000EDE7FDF78DF8EAE71846E9E7012504F172
:1037F000680001210023418001808360C360284666
:10380000F2BD000000800040626A616836F8123044
:10381000B0FBF3F0704790F82810CA0706D502688D
:103820005368C16A23F400330B43536090F82810A7
:103830008A0706D502685368016B23F480330B4373
:10384000536090F828104A0706D502685368416B08
:1038500023F480230B43536090F828100A0706D501
:1038600002685368816B23F400430B43536090F864
:103870002810CA0606D502689368C16B23F48053EA
:103880000B43936090F828108A0606D50268936867
:10389000016C23F400530B43936090F828104A0600
:1038A00010D502685368416C23F480130B435360B6
:1038B000436CB3F5801F05D15368816C23F4C003BA
:1038C0000B43536090F828100A0606D501684A6831
:1038D000C06C22F4002202434A607047F8B50446E7
:1038E00004F180050020E860FDF7F4F80646206842
:1038F0006FF07E4701680A0708D50097334600221B
:103900004FF40011204600F017F860B920680168F4
:103910004A070AD50097334600224FF4800120461B
:1039200000F00AF808B10320F2BD20206860A8600A
:103930000020E0662870F2BD2DE9F04105460E46F4
:1039400090461F46069C2868C1693140B1420CBFB1
:1039500001200020404522D114F1010FF3D0FDF7E2
:10396000B9F8C01B844200D33CB9286800F019F8AC
:10397000002101700320BDE8F081286801684A0732
:10398000E1D5C1690805DED52A684FF400611162EE
:103990002868002200F005F8C1600270EAE7002004
:1039A000E9E7016821F4D07101602868816849085D
:1039B0004900816005F180002021416081607047ED
:1039C000F369FFCF0038014088100240FFF4FF1177
:1039D0000024F4000044004000480040004C004037
:1039E0000050004000FD0F0001000200040006002E
:1039F00008000A000C0010002000400080000001B8
:103A000010B500F180010A78012A01D1022010BD11
:103A100001220A7024234B6002681368146864084A
:103A20006400146000224266006823F000532022E4
:103A300003604A6000230B70002010BD70B500F0D9
:103A40001FF801D1022070BD00F020F822F0604282
:103A500009E070B500F014F801D1022070BD00F04B
:103A600015F822F0606211438160204600F01CF8D6
:103A7000206820210022066069602A70002070BD45
:103A8000044604F180052878012870470120287039
:103A900024226A60206806680268520852000260A8
:103AA000206882687047000030B5416E11B901216D
:103AB000012214E0016800BF0FF22C040CA38A68F5
:103AC0008968520E02F00702490F655CA45C595CDC
:103AD0009A5CED00E40095FBF1F194FBF2F26830A2
:103AE0004180028030BD0000010101030701000098
:103AF000080402040801010170B504460120002CED
:103B00003CD004F12405697821B9002028702046B2
:103B1000FFF701F902216970DFF81C61CA207061AA
:103B200053217161204600F041F8010020D1B168B5
:103B3000DFF808010140B160B268606821690243A2
:103B4000A0690A430243B260E168A06841EA00410B
:103B50002046316000F04AF8010009D1B368226ABA
:103B6000E16923F06043134362690B431343B3607D
:103B7000FF210200716104BF0121697070BD38B579
:103B80002F4C206820F020002060FCF7A3FF0546A2
:103B90002068810608D4FCF79DFF401B40F2E93104
:103BA0008842F5D3032032BD002032BDF8B505466A
:103BB000234C20680026410616D4206840F080007F
:103BC0002060FCF787FF074609E0FCF783FFC01B76
:103BD00040F2E931884224BF032685F82560216838
:103BE000480601D4032EF0D13046F2BD70B504462C
:103BF000134D2868002620F080002860E9688806B8
:103C000008D42046FFF7BBFFA0B1032084F82500AD
:103C100003260FE0E86820F02000E8602046FFF768
:103C2000AEFF18B1032084F825000326E86840F0B1
:103C30002000E860304670BD10280040BFFF8FFBB9
:103C40000C28004010B50A6848680A4B02431A6005
:103C50008C68C868064A0443546013680869496957
:103C600023F0FF13034343EA01430020136010BD18
:103C7000203400401C2800402DE9F04102460B464C
:103C800018680F24032590FAA0F0B0FA80F679E0C6
:103C9000000A90FAA0F0D2F824C0B0FA80FE4FEAF1
:103CA0008E0EB0FA80F004FA0EFE80002CEA0E0CA4
:103CB000874047EA0C07576253E00121B1400840B2
:103CC0005FD05F6890FAA0F1012F18BF022F1CD1BE
:103CD0009F68D2F808C0B1FA81FE4FEA4E0E05FA8D
:103CE0000EFE2CEA0E0CB1FA81FE4FEA4E0807FADE
:103CF00008F747EA0C0797605768D3F80CC00CFB2D
:103D000000FC87434CEA070757601F69D2F80CC0D4
:103D1000B1FA81FE4FEA4E0E05FA0EFE2CEA0E0CA9
:103D2000B1FA81FE4FEA4E0807FA08F747EA0C0796
:103D3000D7605F68022F14D15F69B0F5807FA7D28A
:103D4000106AB1FA81FC4FEA8C0C04FA0CFC20EAF0
:103D50000C00B1FA81FC4FEA8C0E07FA0EF707430C
:103D6000176258681768B1FA81FC4FEA4C0CB1FA37
:103D700081F105FA0CFC490027EA0C07884038431A
:103D80001060761C186830FA06F196D10020BDE864
:103D9000F08178B5040085B008BF01204CD004F54F
:103DA0002A75687820B9002129702046FEF7DBFFCC
:103DB000032068702068002600F0A0FA0021282067
:103DC0000EE000FB01F201232244283253701170EF
:103DD000D1810023491CD670136156619361C9B229
:103DE00062689142EDD300210DE000FB01F2002357
:103DF000224402F5B4721170491C5370D3701361E0
:103E000053619361C9B26668B142EED383B0211D9C
:103E100068462022FEF70CF90EBC206800F074FA08
:103E2000002084F8240001216970E069012804BFA2
:103E3000204600F07AFA002006B070BD38B50400C4
:103E400001D1012032BD04F14405686820B9002188
:103E500029702046FEF7E3FE00F05BF860682168F9
:103E600020F0706008612068416921F400414161DF
:103E70002068416921F000414161206B216848615F
:103E80002068816821F400418160E06840B12169C7
:103E9000012921680CBF40F4004040F404408860D0
:103EA0002069022803D120684FF400614160206836
:103EB000416841F0007141F4004141606169A069CD
:103EC000E2690143206841EA0221C160226A616A15
:103ED000A06A23680A43E16A0243A0680A430243D6
:103EE0001A60A16AB1F5000F0AD1E06A002818BF74
:103EF000B0F5001F04D12068016841F480310160F1
:103F0000206800F00EF80020A8600121216469609B
:103F100032BD0220686020680168490849000160DC
:103F20007047016841F001010160704780B5016888
:103F30004FF400530A6842F480020A60CB6180218A
:103F400000F002F8002002BD00220B0601F0380349
:103F5000006848BF8022382B01F0F20301F0D40141
:103F600008BFB822F22B08BF42F0F202D429016840
:103F700008BF42F0F4020A430260704780B5DFF8E0
:103F80001C010168FDF746F9012803D0BDE8014096
:103F9000FDF793BB01BDEFF3058010B16FF0050095
:103FA0007047DFF8FC10086810B901220A607047FA
:103FB0004FF0FF307047000080B5EFF3058000B18F
:103FC0000FE0DFF8DC000168012909D10022DFF8E9
:103FD000D4100A7002230360FCF740FF002002BDEA
:103FE00002E06FF0050002BD4FF0FF3002BDF8B5F2
:103FF00084B000230393EFF30583002B3DD103002E
:104000003BD08025182600245AB3136803B11C4600
:1040100093691BB11E0004D0392E02D21379DF0739
:1040200001D500202AE0536903B19D089768D2F8B2
:104030000CC087B1BCF15C0F1FD31269002A18BFF6
:10404000002B1AD001920B46029700962A46214671
:10405000FCF7F4FD10E0BCF1000F04BF1269002A68
:104060000BD103AB01930B460096AAB22146FCF795
:104070000DFE012801D000200390039805B0F0BD8B
:1040800010B5EFF3058111B16FF0050403E00024D2
:1040900008B1FCF7C8FE204610BD000010E000E0AB
:1040A000043200201FED00E070B5050001D10120B1
:1040B00070BD0C21012000F070F9040010D0686878
:1040C0000026606029782170A86800B90CA0064A13
:1040D000106021460FF21500FFF789FFA06000B9BC
:1040E0000126304670BD00001800002010B50446BF
:1040F0006068FFF7C5FF207800F068F9F8E7000076
:10410000756E6B6E6F776E000248016841F48071C6
:1041100001607047007000404018491C1CBFB1F19D
:10412000010100F8012DF9D170470000264801680F
:1041300041F470010160704724490868020704D403
:1041400023480268C2F3032002E00868C0F30310AA
:10415000204A52F820008A6802F00C02042A04D097
:10416000082A04D00C2A04D022E01B4820E01B4877
:104170001EE0CB68CA68C2F30312521C03F00303AB
:10418000022B02D0032B02D005E0134803E0134BAF
:10419000B3FBF2F201E0B0FBF2F2C868CB68C0F307
:1041A00006204243C3F34160401C4000B2FBF0F0E4
:1041B0000B4A1060896800BF0AA3C1F30311595C60
:1041C000C84010607047000088ED00E00010024019
:1041D000941002402C4400080024F40000127A00DD
:1041E000C0040020000000000000000001020304E1
:1041F00006070809D3BBD9B1B2F5803F5BD2022ACA
:104200001ED98C46B1FBF2F102FB11C31B0443EA39
:104210001043B3FBF2FC02FB1C3380B240EA0343C1
:10422000B3FBF2F002FB103240EA0C40002370476F
:10423000022A05D98446B0FBF2F002FB10C2704797
:104240004AB105D100F0010249085FEA3000704729
:1042500000220023704700F0C7B80B0002000021C5
:1042600000207047F7D3002200237047904271EB83
:10427000030CF2D370B5B1FA81F4B3FA83F52C1BB9
:10428000A340C4F1200532FA05F63343A2405FF0A3
:104290000046E64002E05B085FEA3202841A71EBF6
:1042A000030524BF204629467641F4D302000B00C3
:1042B0003000002170BD70B5B1FA81F4B2FA82F518
:1042C000C4F120046419B4F12006DAD3B2405FF0DF
:1042D0000044F440002502E052085FEA3303C61AA6
:1042E00071EB020E24BF3046714664416D41F3D339
:1042F00002000B002000290070BD0000B0F8402033
:1043000044F27F0100F00CB80EB4012120F8401FE8
:104310000022028082800282002003B070470000E9
:104320000A40A0F8402000207047016800F538706E
:104330000122002382600370B1F8540040F00100B4
:10434000A1F85400B1F8540040F00200A1F8540064
:104350000020704770B5C51DED08AFF30080ED007B
:10436000072D98BF0825184E34682CB900F03EF888
:1043700000283060F7D10CE02068A842F6D361191C
:10438000451B14BF0D6000213160AFF30080204653
:1043900070BDAFF30080002070BD38B5050007D0B8
:1043A0004FF0FF30B0FBF5F0884201D2002032BD63
:1043B0004D432846FFF7CEFF04001CBF294600F0FE
:1043C0002BF8204632BD000008320020032807DA0F
:1043D000044A02EBC003998852F83000FEF7F4BF9C
:1043E000704700000000002070470000074908687F
:1043F00008B1002070470648C008C00008600549A1
:10440000C908C900091A0160704700BF0C320020BA
:1044100017360020103800200144884204D00022C2
:1044200000F8012B8842FAD170470000A0860100F5
:10443000400D0300801A060000350C0040420F00BA
:1044400080841E0000093D0000127A000024F40060
:1044500000366E010048E801006CDC02000000003C
:1044600000000000000000000000000030B4002543
:1044700012E050F8042BD30744BF4A44521E091FD0
:10448000042942F8045BFAD213468C0744BF158016
:104490009B1CC90748BF1D7050F8041B0029E8D1B8
:1044A00030BC704710B5074979441831064C7C443C
:1044B000163404E00A68081D114488470146A142E9
:1044C000F8D110BD500000006C000000B445000899
:1044D00000000000000000000000000000000000DC
:1044E00000020000180000000000000000000000B2
:1044F0004EF68851CEF20001086840F47000086062
:10450000BFF34F8FBFF36F8F4FF00070E1EE100AD3
:104510007047000059FFFFFF4C2D0000C40400202D
:1045200000000000CBECFFFF500200008C000000F8
:104530000000002000F00DF8002801D0FFF7B2FFC6
:10454000AFF300800020AFF30080FEF763FC00F0C3
:1045500002F80120704700F001B800000746384615
:1045600000F002F8FBE7000080B5AFF30080024ADC
:1045700011001820ABBEFBE72600020005480146EB
:1045800003B4684680F30988AFF30080FFF7B0FFFB
:10459000FFF7D0FFA5EDF5FE014880470148004731
:1045A0002D4100087D4500084865617274426561CF
:1045B0007400000064656661756C745461736B000F
:1045C000FEE7FEE7FEE7FEE7FEE7704700000000BB
:1045D00001020304FFF7FEBFFFF7FEBFFFF7FEBFB8
:1045E000FFF7FEBFFFF7FEBFFFF7FEBFFFF7FEBFFF
:1045F000FFF7FEBFFFF7FEBFFFF7FEBFFFF7FEBFEF
:10460000FFF7FEBFFFF7FEBFFFF7FEBFFFF7FEBFDE
:10461000FFF7FEBFFFF7FEBFFFF7FEBFFFF7FEBFCE
:10462000FFF7FEBFFFF7FEBFFFF7FEBFFFF7FEBFBE
:10463000FFF7FEBFFFF7FEBFFFF7FEBFFFF7FEBFAE
:10464000FFF7FEBFFFF7FEBFFFF7FEBFFFF7FEBF9E
:10465000FFF7FEBFFFF7FEBFFFF7FEBFFFF7FEBF8E
:10466000FFF7FEBFFFF7FEBFFFF7FEBFFFF7FEBF7E
:10467000FFF7FEBFFFF7FEBFFFF7FEBFFFF7FEBF6E
:10468000FFF7FEBFFFF7FEBFFFF7FEBFFFF7FEBF5E
:10469000FFF7FEBFFFF7FEBFFFF7FEBFFFF7FEBF4E
:1046A000FFF7FEBFFFF7FEBFFFF7FEBFFFF7FEBF3E
:1046B000FFF7FEBFFFF7FEBFFFF7FEBFFFF7FEBF2E
:1046C000FFF7FEBFFFF7FEBFFFF7FEBFFFF7FEBF1E
:1046D000FFF7FEBFFFF7FEBFFFF7FEBFFFF7FEBF0E
:1046E000FFF7FEBFFFF7FEBFFFF7FEBFFFF7FEBFFE
:1046F000FFF7FEBFFFF7FEBFFFF7FEBFFFF7FEBFEE
:10470000FFF7FEBFFFF7FEBFFFF7FEBFFFF7FEBFDD
:10471000FFF7FEBFFFF7FEBFFFF7FEBFFFF7FEBFCD
:10472000FFF7FEBFFFF7FEBFFFF7FEBFFFF7FEBFBD
:10473000FFF7FEBFFFF7FEBFFFF7FEBFFFF7FEBFAD
:10474000FFF7FEBFFFF7FEBFFFF7FEBFFFF7FEBF9D
:10475000FFF7FEBFFFF7FEBFFFF7FEBFFFF7FEBF8D
:10476000FFF7FEBFFFF7FEBFFFF7FEBFFFF7FEBF7D
:10477000FFF7FEBFFFF7FEBF05000002420002FD8B
:10478000000308024280FC000304024280E50000AE
:104790000881008100810081008100810081008109
:1047A0000085000001FD0007E8030000A84500089F
:0E47B000FCAA0001F9000008FC0002093D000F
:040000050800457D2D
:00000001FF
