:020000040800F2
:1000000058360020A1640008756400087764000871
:10001000796400087B6400087D640008D5640008EA
:100020000000000000000000000000006D25000836
:100030007F64000800000000292500089D53000887
:10004000D9640008DD640008E1640008E564000884
:10005000E9640008ED640008F1640008F564000834
:10006000F9640008FD6400080165000805650008E2
:10007000096500080D650008116500081565000890
:10008000196500081D650008216500082565000840
:10009000296500082D6500083165000835650008F0
:1000A000396500083D6500084165000845650008A0
:1000B00049650008816400084D6500085165000825
:1000C00055650008596500085D6500086165000810
:1000D00065650008696500086D65000871650008C0
:1000E00075650008796500087D6500088165000870
:1000F00085650008896500088D6500089165000820
:1001000095650008996500089D650008A1650008CF
:10011000A5650008A9650008AD650008B16500087F
:10012000B5650008B9650008BD650008C16500082F
:10013000C5650008C9650008CD650008D1650008DF
:10014000D5650008D9650008DD650008E16500088F
:10015000E5650008E9650008ED650008F16500083F
:10016000F5650008F9650008FD65000801660008EE
:100170000566000800000000096600080000000095
:100180000D6600081166000815660008196600086B
:100190001D6600082166000825660008296600081B
:1001A0002D660008316600083566000839660008CB
:1001B0003D66000800000000416600084566000832
:1001C00049660008000000004D66000851660008FE
:1001D00055660008596600085D66000861660008FB
:1001E00065660008696600086D66000871660008AB
:1001F0000000000000F5E0700268914203D28068C0
:100200000028F9D1704743681A449142F7D27047E9
:100210001749086880B94FF4805048604FF4803225
:100220004FF0FF30C86008610420124B8A604861BB
:10023000C3F8BC01104808600120704701F10803B1
:1002400013F0070F0EBF0023C3F1080303F00703E9
:100250001944D21A8161C26042F001034B60091D4A
:100260004FF0280C41F802C0014A1369C36170477E
:1002700030320020FC2B00206859883C2DE9F84FD3
:1002800084B00646AFF30080F52E1E4D80F0138239
:100290000B2E31BF10260B36F608F6002868F4083E
:1002A000E04010F0030F4AD0C04300F001000419F1
:1002B00005F1280000EBC408E700D8F80860706872
:1002C000C008C000B84218BF00F085FFD6F80890FB
:1002D000464508BF00F07FFF4E4508BF00F07BFF9A
:1002E0007068C008C000B84218BF00F074FFC8456D
:1002F0000AD12868012101FA04F420EA04042C60E0
:1003000010E000BFFC2B00202869814508D3D9F8F4
:100310000C10B14204D1C8F80890C9F80C8001E073
:1003200000F059FF47F00300311D7060301DCA59BD
:1003300042F00102C25106F1080800F024BFA9688A
:10034000B14280F0AA83002800F0A2804FF001089B
:1003500008FA04F1490000FA04F4484201430C4051
:1003600060420440641E200B00F01000C44061098C
:1003700001F00801CC40A20802F00402D440630856
:1003800003F002030818DC401018C4F340071818E3
:100390003818FC40241805F1280000EBC40AE700D7
:1003A000DAF80890D9F80400C008C000B84218BFB5
:1003B00000F011FFD9F808B0D14508BF00F00BFFDD
:1003C000D94508BF00F007FFD9F80400C008C000F5
:1003D000B84218BF00F0FFFEDA4506D1286808FAD7
:1003E00004F420EA04042C600DE029698B4508D34D
:1003F000DBF80C00484504D1CAF808B0CBF80CA0D3
:1004000001E000F0E8FEBF1B46F0030009F1040222
:10041000C9F8040047F00101915109EB060201926D
:10042000D751AC684FEAD40ABAF11F0F88BF00F069
:10043000D2FE34B3CDF800A005F128006E6900EBC0
:10044000CA0AD346102C38BF00F0C5FE29680098B0
:1004500021FA00F2D30704D408FA00F00843286018
:1004600007E0DAF80800296988422CBF834600F0CB
:10047000B2FECAF80860CBF80C60C6F808B0C6F83F
:100480000CA0AF6009F108080198686100F07BBE1C
:100490006868002800F0238341420840401E010B99
:1004A00001F01001C840420902F00802D040830860
:1004B00003F00403D840440804F002045118E0405B
:1004C0005918C0F34007611805F598787918F84075
:1004D000401858F820104868C008C0008A46A0EBB1
:1004E000060B08E001464868C008C000801B58455C
:1004F0003CBF83468A4608690028F3D14969002930
:10050000F1D128698245C0F0D380DAF80410C90817
:1005100006EB0B09C900494518BF00F05CFE0AEB69
:1005200006008245019080F0C380DAF80C40DAF8CA
:10053000187054450DD0DAF808002969884223D391
:10054000C268524504BFA16851451DD1C460A06076
:100550001CE00AF114010C6834B90AF110010C68AE
:10056000A4B101E011460C6804F1140210680028DF
:1005700002BF04F1100210680028F3D128698142FB
:1005800002D300220A6001E000F025FE002F38D0DF
:10059000DAF81C0008EB80010A6892450AD11CBBFE
:1005A0006A68012303FA00F022EA00006860002074
:1005B000086026E029698F4213D33869504514BF7B
:1005C0007C613C61ECB129698C4218D3A761DAF8EF
:1005D000100058B1884226BF2061846100F0FBFD05
:1005E00004E000F0F8FDEDE70C60ECE7DAF8140049
:1005F00038B12969884202D36061846101E000F06A
:10060000EAFDBBF1100F0ED249F003000AF104011C
:10061000CAF804000AF1040051F8092042F001026E
:1006200040F809203EE046F003010AF10402CAF84E
:1006300004104BF001009051019941F80BB0A868EB
:100640000090C4081F2C88BF00F0C5FD009828B397
:1006500005F1280000996F6900EBC408C146102914
:1006600038BF00F0B8FD286820FA04F1CA0705D4A5
:10067000012101FA04F404432C6007E0D8F80800D3
:10068000296988422CBF814600F0A5FDC8F8087092
:10069000C9F80C70C7F80890C7F80C80C5F808B006
:1006A000019868611AF1080800F0F78100F06BBD4D
:1006B00000F091FDF1E116F1400F28BF4FF0FF3639
:1006C00080F0EB810B36F6086B68F600002B00F02B
:1006D000E4810027300AC6F1000908BF002423D0B6
:1006E000B0F5803F28BF1F241ED2A0F58071090CF1
:1006F00001F008018840A0F58052120C02F00402BB
:100700009040A0F58044240CC1F10E0104F00204D5
:10071000891A091BA04001EBD031C81D26FA00F44C
:1007200004F0010404EB410405F5987858F824001E
:1007300040B31F2C0FBFB4464FEA540CCCF1190C38
:1007400006FA0CFCBE46494601E04FEA4C0C4268F2
:10075000D208D200921B8A4207D3426910304FEA76
:10076000DC7950F829003AB103E011000746F4D1D2
:1007700005E0824218BF96460028E6D170468946B9
:10078000A8BBB7BB012101FA04F464006042044332
:10079000234000F08281584203405B1E180B00F09A
:1007A0001000C340590901F00801CB409A0802F03B
:1007B0000402D3405C0804F002040818E340101857
:1007C000C3F3400C2018604423FA0CF31B1858F8AC
:1007D00023000CE008464168C908C900891B494547
:1007E0003CBF8946074601690029F3D140690028CA
:1007F000F1D1002F00F05181A868801B814580F065
:100800004C8129698F42FFF453AF7868C008C0005B
:1008100006EB0901884218BF00F0DDFC07EB060B70
:100820005F45BFF445AFFC68D7F818A0BC420CD0B8
:10083000B8682969884223D3C268BA4204BFA16854
:10084000B9421DD1C460A0601CE007F114010C681E
:1008500034B907F110010C68A4B101E011460C682D
:1008600004F114021068002802BF04F1100210689D
:100870000028F3D12869814202D300220A6001E0F6
:1008800000F0A9FCBAF1000F39D0F86908EB80013B
:100890000A6897420AD134BB6A68012303FA00F060
:1008A00022EA000068600020086028E029698A4583
:1008B00016D3DAF81000B84214BFCAF81440CAF8C8
:1008C0001040E4B129698C4217D3C4F818A03869E4
:1008D00058B1884226BF2061846100F07CFC04E0AE
:1008E00000F079FCEDE70C60ECE7786938B1296934
:1008F000884202D36061846101E000F06CFCB9F1D0
:10090000100F0CD2B14449F00300391D7860381D36
:1009100051F8092042F0010240F80920B9E046F000
:1009200003013A1D796049F0010090514FEAD90066
:100930004BF809901F2822D805F1280101EBC004CB
:10094000296821FA00F2D307A04605D4012202FA51
:1009500000F00843286006E0A068296988422CBF9F
:10096000804600F038FCC4F808B007F10800C8F869
:100970000CB040F8068007F10C018C5189E05FEA69
:10098000192008BF002123D0B0F5803F28BF1F21C8
:100990001ED2A0F58072120C02F008029040A0F561
:1009A0008051090C01F004018840A0F580431B0C24
:1009B000C2F10E0203F00203521AD21A984002EB5F
:1009C000D032D01D29FA00F101F0010101EB420102
:1009D00007F11403CBF81C1000229A5107F1100301
:1009E00008EB81009A516A6822FA01F3DC0711D4FE
:1009F000012303FA01F111436960C0F800B0CBF89C
:100A0000180007F1080107F10C0040F806B041F8A2
:100A100006B03EE002681F291DBF4908C1F1190157
:100A200009FA01F1494600E002465068C008C000DA
:100A3000484518D002F11003C80F03EB80034900AA
:100A400018680028F0D12869834220D3C3F800B089
:100A500007F10C01CBF8182041F806B007F10800A7
:100A600040F806B015E0296990688A4228BF88429C
:100A70000DD3C0F80CB007F10801C2F808B08851D6
:100A800007F10C0082510022CBF8182001E000F0A1
:100A9000A2FB17F1080840F07683A868B0421ED385
:100AA000811B6A6910290AD3141DA96041F0010055
:100AB0009319A051595046F0030656600BE00021EF
:100AC000A96040F00304111D5460141D0E5846F037
:100AD0000106265000236B6102F1080853E3E86821
:100AE0008642C0F04083DFF8AC96D9F8000008B920
:100AF000FFF78EFBD9F8081088192F30491E20EA1D
:100B000001018E4280F03D8305F5D877B86838B191
:100B10003A6889188A4280F034838842C0F0318371
:100B200000F05CFB00281CBFD0F8008010F1010F22
:100B300000F027833968AC6941443960D5F8B021A9
:100B4000D5F8B4118A4238BF0A467A6004BB2969D5
:100B500009B1884200D2286100213861C7F81480A9
:100B6000F9614FF0FF31D9F800206A62296205F17E
:100B7000280200219260D26002F1080353611361E0
:100B8000891C10321F29F5D9A8F1280201461DE061
:100B900005F5E0710A46814600E09268D2B110681E
:100BA000536803449945F8D1107B030712D41368A6
:100BB0009C420FD3D2F804C063449C420AD2C4447E
:100BC000C2F804C02146E86808EB00022846FFF797
:100BD00035FBC5E22869814538BFC5F8109009EB9F
:100BE000080000E08968002900F0C1810A6882429B
:100BF000F8D1087B020700F1BA810868C1F80090BB
:100C00004A6842444A6009F1080111F0070F08BF21
:100C1000CDF8049006D0C1F1080101F0070109EBFD
:100C20000102019200F1080111F0070F04D0C1F197
:100C3000080101F00701084480460198A8EB000173
:100C40008419A1EB060B274646F00306466047458C
:100C500028BF00F0C0FA98F80400C10758BF00F0A0
:100C6000BAFABBF1100F38BF00F0B5FAA869804599
:100C700008D1E9688B44C5F80CB0AF614BF00100B6
:100C8000786070E1686980450AD1A9686F618B441A
:100C9000C5F808B04BF00100786047F80BB062E18E
:100CA000D8F8040000F00301012940F0BC80C0081E
:100CB000C000C1081F29039040D8D8F8082000922E
:100CC000D8F80C600291B04508BF00F084FA009893
:100CD000804508BF00F07FFAD8F804000299C008E8
:100CE000C000B0EBC10F18BF00F075FA0299009A6E
:100CF00005F1280000EBC100824208D011462A69A4
:100D00009142C0F08B80CA68424540F087800099CC
:100D10008E4206D102982A68012383409A432A60B2
:100D20007EE0864205D029698E4277D3B06840457F
:100D300074D10098C6600099B16071E0D8F81800CD
:100D40000090D8F80C6046450DD0D8F80800296905
:100D5000884223D3C268424504BFB16841451DD1D2
:100D6000C660B0601CE008F114010E6836B908F1E5
:100D700010010E68A6B101E011460E6806F11402DA
:100D80001068002802BF06F1100210680028F3D195
:100D90002869814202D300220A6001E000F01BFAB8
:100DA000009800283CD0D8F81C0005F5987101EB9C
:100DB00080010A6890450AD12EBB6A68012303FAB4
:100DC00000F022EA000068600020086028E0009936
:100DD0002869814214D30869404514BF4E610E61F1
:100DE000F6B129698E4219D30098B061D8F8100085
:100DF00058B1884226BF3061866100F0ECF904E00A
:100E000000F0E9F9ECE70E60EBE7D8F8140038B130
:100E10002969884202D37061866101E000F0DBF944
:100E2000039988448B44D8F8041049084900C8F84D
:100E300004104BF0010078604FEADB0647F80BB076
:100E40001F2E22D805F1280000EBC604A146BBF1F5
:100E5000100F38BF00F0BFF9286820FA06F1CA0762
:100E600005D4012101FA06F606432E6006E0A068CB
:100E7000296988422CBF814600F0ADF9A760C9F806
:100E80000C70C7F80890FC606DE05FEA1B2008BF9B
:100E9000002123D0B0F5803F28BF1F211ED2A0F52E
:100EA0008072120C02F008029040A0F58051090CEB
:100EB00001F004018840A0F580431B0CC2F10E0232
:100EC00003F00203521AD21A984002EBD032D01D1E
:100ED0002BFA00F101F0010101EB4201F96100235D
:100EE00005F598727B6102EB81003B616A6822FA2A
:100EF00001F3DE0707D4012303FA01F1114369600E
:100F00000760B8611DE002681F291DBF4908C1F1D3
:100F100019010BFA01F1594600E002465068C00879
:100F2000C000584510D002F11003C80F03EB800336
:100F3000490018680028F0D12869834211D31F6046
:100F4000BA61FF60BC600EE0296990688A4228BFE0
:100F5000884206D3C7609760B860FA600020B86125
:100F600001E000F038F9019800F108080BE1214692
:100F70002846FFF73FF90168406808440090A0F157
:100F8000270111F0070000980EBF0021C1F10801F0
:100F900001F007010844A0F12F0B04F110018B456B
:100FA00038BFA3460BF11802002102920191A8F16B
:100FB000280249462846FFF741F90BF1080010F0D6
:100FC000070F18BF00F007F91B20CBF8040005F548
:100FD000E07292E809500BF1080181E80950002104
:100FE0000BF10800F961B861009A02980199C7F8FD
:100FF0001090C7F81480072300E0001D491C00F181
:10100000080797424360F8D30129D8BF00F0E3F8FE
:10101000A34500F0A580ABEB040B201D221D50F86A
:101020000B104908490042F80B104BF001006060BA
:101030004FEADB0944F80BB0B9F11F0F22D805F1D4
:10104000280000EBC907B846BBF1100F38BF00F00D
:10105000C2F8286820FA09F1CA0705D4012101FA6B
:1010600009F10843286006E0B868296988422CBF66
:10107000804600F0B0F8BC60C8F80C40C4F80880A6
:10108000E7606DE05FEA1B2008BF002123D0B0F5C8
:10109000803F28BF1F211ED2A0F58072120C02F0E3
:1010A00008029040A0F58051090C01F0040188402D
:1010B000A0F580431B0CC2F10E0203F00203521A8A
:1010C000D21A984002EBD032D01D2BFA00F101F079
:1010D000010101EB420105F59872002302EB81004A
:1010E000E161636123616A6822FA01F3DF0707D4D3
:1010F000012303FA01F1114369600460A0611DE05E
:1011000002681F291DBF4908C1F119010BFA01F13D
:10111000594600E002465068C008C000584510D04B
:1011200002F11003C80F03EB800349001868002880
:10113000F0D12869834211D31C60A261E460A460ED
:101140000EE0296990688A4228BF884206D3C460AD
:101150009460A060E2600020A06101E000F03BF834
:10116000E86886420DD2801BA969E8608A19AA61E5
:1011700040F00100506046F003064E6001F108089F
:1011800001E04FF00008AFF30080404605B0BDE835
:10119000F08F00003032002038B5002558B141EA08
:1011A0000002120C01FB00F512041EBFB5FBF0F0AB
:1011B00088424FF0FF352846FFF760F804001CBF57
:1011C00014F8040C10F0030F03D02946204600F059
:1011D0001BF8204632BD012000F036B807490868E8
:1011E00008B1002070470648C008C00008600549E3
:1011F000C908C900091A0160704700BF50320020B9
:101200005F36002058380020002200F027B830B5A3
:10121000016884684218416802EB5103C90703D58D
:101220004C4401E0491C08D19A4218BF12F9011B35
:1012300001D10C3030BD12F8015B002904F8015BCC
:10124000F0D4491EF7D5EFE780B500F011F8024A57
:1012500011001820ABBEFBE7260002004018491C15
:101260001CBFB1F1010100F8012DF9D17047000058
:1012700010B500F013F8020000230024E4431068C6
:10128000A04203D011000220ABBE13605068A04200
:1012900003D0111D0220ABBE536010BD0048704743
:1012A000BC0000202DE9F843050075D0DFF8B067D9
:1012B000B468F068DFF82C7804F00C0400F0030840
:1012C0002878C10649D524B10C2C08BFB8F1010F0C
:1012D00029D13068810702D5E86900285CD03168DF
:1012E0000807686A4EBF31687968090901F0F001A2
:1012F000814206D200F0B6FB002809D100F069FA5D
:1013000008E000F066FA2CB9686A00F0ABFB002830
:1013100040F0568200F097FB00F045FB00F0FCFB2C
:1013200001001AD04FE2E86900284FD0316841F03F
:101330000101316000F012FC8146306881070AD457
:1013400000F00CFCA0EB09000328F6D330688107FD
:10135000F3D4032037E200F03CFA2878C1070CD51B
:10136000082C04D00C2C08BFB8F1030F42D1306810
:10137000810302D5686800280ED02978880714D523
:10138000042C04D00C2C08BFB8F1020F6FD13068C8
:10139000410503D5E868002800F0128270682969C9
:1013A00020F0FE4040EA016070602878010740F1BB
:1013B000AE806869002800F09780A86900287868E6
:1013C0000CBF20F0100040F0100079E030684008B9
:1013D0004000306000F0C2FB814630688107BCD518
:1013E00000F0BCFBA0EB09000328F6D330688107AE
:1013F000F3D5AEE76868B0F5803F04D1306840F4BB
:101400008030306011E0B0F5A02F306806D140F494
:1014100080203060316841F4803105E020F4803074
:101420003060316821F480213160686878B100F063
:1014300095FB8146306881039FD400F08FFBA0EBC1
:1014400009006528F6D330688103F3D481E700F002
:1014500085FB8146306881038FD500F07FFBA0EBD0
:1014600009006528F6D330688103F3D571E7E86891
:1014700090B1316841F48071316000F06FFB044637
:10148000306841058AD400F069FB001B0328F7D3BC
:1014900030684105F4D45CE7306820F48070306037
:1014A00000F05CFB0446306841057FF57EAF00F03C
:1014B00055FB001B0328F6D330684105F3D548E7F8
:1014C0007860786840F00100786000F047FB0446DF
:1014D000786881071BD400F041FB001B0828F7D374
:1014E00078688107F4D434E7786840084000786071
:1014F00000F034FB04467868810708D500F02EFB25
:10150000001B0828F7D378688107F4D521E72878ED
:10151000410740F19380B06D0024C10009D4B06D43
:10152000012440F08050B065B06D00F08050009014
:101530000098DFF8B485D8F80000C10517D4D8F8B2
:10154000000040F48070C8F8000000F007FB8146FE
:10155000D8F80000C1050AD400F000FBA0EB090098
:101560000328F5D3D8F80000C105F1D4F1E6A86846
:10157000C1070DD54007396807D541F0040139602E
:10158000386840F0010038600AE041F0010106E0EF
:101590003868400840003860396821F0040139603B
:1015A000A86841F2893880B300F0D8FA81463868DB
:1015B000810708D400F0D2FA00F007F9F7D33868B1
:1015C0008107F4D4C5E6287A010638680ED540F0C4
:1015D00080003860396808052BD400F0BFFA00F0AD
:1015E000F4F8F7D338680105F4D4B2E620F08000AF
:1015F0003860396808051CD500F0B0FA00F0E5F84D
:10160000F7D338680105F4D5A3E600F0A7FA8146C0
:101610003868810708D500F0A1FA00F0D6F8F7D3B2
:1016200038688107F4D594E63868010648BF386801
:10163000DCD41CB1B06D20F08050B06528788106F4
:1016400027D5A86A0028B86811D040F00100B8601A
:1016500000F084FA0446B86881071AD400F07EFAD4
:10166000001B0328F7D3B8688107F4D471E640085B
:101670004000B86000F072FA0446B868810708D5E7
:1016800000F06CFA001B0328F7D3B8688107F4D583
:101690005FE6E86A002800F09580B16801F00C016F
:1016A0000C2962D00228306820F08070306040D170
:1016B00000F054FA04463068810108D500F04EFA73
:1016C000001B0328F7D330688101F4D541E6F068A8
:1016D0002A6BDFF818140840696B10432A6C491E06
:1016E00040EA0110A96B5208521E40EA0120696CC1
:1016F00040EA42504908491E40EA4160E96B40EA2D
:10170000C160F060306840F080703060F16841F096
:101710008071F16000F022FA04463068810151D4F2
:1017200000F01CFA001B0328F7D330688101F4D4C1
:101730000FE6316811F0205F03D1F0688008800067
:10174000F060F168DFF8A8030140F16000F006FAEC
:1017500004463068810135D500F000FA001B0328EB
:10176000F7D330688101F4D5F3E5012828D0F0687B
:101770002A6B00F00301914201BF00F0F0016A6B97
:10178000521EB1EB021F1BD1AA6B00F4FE41B1EB5C
:10179000022F02BF00F07841EA6BB1EBC26F0FD1AC
:1017A0002A6C00F4C0015208521EB1EB425F07D10F
:1017B000696C00F0C0604908491EB0EB416F01D070
:1017C000012000E00020BDE8F283A0EB09004045C5
:1017D0007047306840F0080030603168686A21F076
:1017E000F001014331607168286A21F47F4141EAC8
:1017F0000021716070472DE9F84304460026002C53
:1018000062D0DFF8F0723868884600F00F0040457B
:1018100002D200F0B7F857D12168DFF84452C80768
:1018200079D56068DFF8D092032843D12868820117
:101830004AD5EA68002002F00302012A0FD1286885
:10184000020705D4DFF8B4020268C2F3032002E005
:101850002868C0F30310DFF8A82252F82000EB68D4
:10186000EA68C2F30312521C03F00303022B04D0F4
:10187000032B07D1DFF88C0204E0DFF88C32B3FBD6
:10188000F2F201E0B0FBF2F2E868C0F30620424356
:10189000E868C0F34160401C4000B2FBF0F04845EE
:1018A00020D3AA6812F0F00F15D089071AD5A068C6
:1018B000C0B910E0022802D12868810303E00028A3
:1018C000286802D1810702D43DE041053BD500F0F4
:1018D0006FF8484506D3A868802620F0F00040F055
:1018E0008000A860A9686068890840EA8101A96051
:1018F00000F034F9814600F04FF80CD000F02EF9DA
:10190000A0EB090041F289318842F4D300F044F899
:10191000F1D0032034E02078810706D5AA68A068BA
:1019200022F0F0020243AA6005E0802E03D1A868ED
:1019300020F0F000A860386800F00F00804504D265
:1019400000F020F801D001201AE02078410705D5E9
:10195000AA68E06822F4E0620243AA6021780807DE
:1019600006D5A968206921F4605141EAC001A96047
:1019700000F069F800F017F8BDE8F24300F0CCB8C9
:10198000BDE8F2833968090948EA0111396038680D
:1019900000F00F0040457047A868616800F00C0037
:1019A000B0EB810F70474D4908604D4800687047A3
:1019B00010B52B4A9068D4680023002110F00C0069
:1019C00004F0030403D00C2812D1012C1AD113689F
:1019D0001C0704D4494B1C68C4F3032302E01368BA
:1019E000C3F30313464C54F8233048B9194628E092
:1019F000042808BF444924D0082822D1414920E0C6
:101A00000C281ED1D168D068C0F30310401C01F02F
:101A10000301022902D0032902D005E03A4900E07F
:101A20003849B1FBF0F101E0B3FBF0F1D068C0F34D
:101A300006204143D068C0F34160401C4000B1FB28
:101A4000F0F1084610BD80B5FFF7B2FF2F4A1368CA
:101A50002F49C3F30312FFE7895CC84002BD0000B1
:101A6000001002407CB505462A4E30680024C100B3
:101A700002D500F079F80EE0306840F08050306018
:101A8000316801F080510091009800F06DF83168E4
:101A900021F080513160002818BFB0F5007F04D1DB
:101AA000802D0CD9A12D09D304E0802D88BF0324FB
:101AB00005D801D1022402E0702D00D101240D4887
:101AC0000168090944EA01110160006800F00F0093
:101AD000A04201D0012076BD002076BDB8000020D4
:101AE0006C00002090100240007000400C809F01AC
:101AF000FFFFEEFE0020024001B4C4049410024037
:101B00001C63000800127A000024F4000810024050
:101B10007C5600085810024070B504460D4E3078CF
:101B20000025A0B14FF47A71B1FBF0F10A4A1068B8
:101B3000B0FBF1F000F0BBF848B9082C07D2002246
:101B400021464FF0FF3000F089F8B46000E0012535
:101B5000284670BD64000020B8000020014840689D
:101B6000704700BF64000020DFF8A400006800F4A4
:101B7000C060704770B5DFF898402668054600F0F1
:101B800039F806F4C066B0F5004F02D0E0680104F1
:101B900001D5012070BDAE421DD02068DFF8741061
:101BA000DFF8743020F4C060054325600A683220F5
:101BB0000A21B2FBF3F34343B3FBF1F0401C00E016
:101BC000401E61694A0501D50028F9D160694105C7
:101BD00001D5032070BD002070BDDFF84000016812
:101BE00041F40071016070470D48016841F4804183
:101BF000016070470B480068C10402D54FF4805063
:101C00007047000402D44FF4004070470020704732
:101C100000700040B8000020A08601000470004061
:101C200008700040107000404901020002D42A48A8
:101C300081547047294B02F00F021A4402F8041C29
:101C40007047274B19684FF6FF020002114000F45D
:101C5000E0600843234908431860704770B5204B83
:101C60001C68C4F302230124C3F10705042D2EBF11
:101C7000072504FA05F56D1EDE1C072E34BF002370
:101C80001B1F2940994004FA03F35B1E1A401143BD
:101C9000BDE87040C8E70000010007D4012200F051
:101CA0001F018A40104B400943F820207047401E16
:101CB00010B5B0F1807F01D3012010BD0B4C6060E6
:101CC00007214FF0FF30FFF7AFFF0021A160072091
:101CD0002060002010BD000000E400E018ED00E0EE
:101CE0000CED00E00000FA0500E100E010E000E08B
:101CF000F0B585B00B9D15B900F004FCFEE70C9C17
:101D000014B900F0FFFBFEE75C260096009F5C2FF5
:101D100002D000F0F7FBFEE7009E2563022584F861
:101D200059500A9D002604AF03960294019700952E
:101D300000F034F8204600F078F8049805B0F0BDC3
:101D40002DE9F8430646174684B088469946B80000
:101D500000F01AFC05001CD05C2000F015FC04000B
:101D600014D00020256384F8590003900D980C9935
:101D70000190029400914B463A464146304600F0AD
:101D80000DF8204600F051F8012004E0284600F04C
:101D90007AFC4FF0FF3005B0BDE8F0832DE9F04745
:101DA0000A9F81460C46386B15469A46A522A90023
:101DB00000F0B4FC396B01EB8502101FC0084FEA3C
:101DC000C00808F0070007F1340554B10021625C37
:101DD0006A54605C10B1491C1029F8D30020E873E4
:101DE00000E02870089E099C372E88BF3726FE62C7
:101DF000AE61E861381D00F0BBFC07F1180000F08F
:101E0000B7FC3F61C6F13806BE617F6200202862E0
:101E100087F85800396B53464A46404600F03AFD71
:101E2000386004B12760BDE8F0872DE9F04100F08B
:101E30006CF8DFF88855E86C1426DFF88485401CC0
:101E4000E864A86A28BBAC62E86C012829D10027A5
:101E500006FB07F07F1C404400F07DFC382FF7D3D1
:101E600005F1740000F077FC05F18807384600F0B2
:101E700072FC284600F06FFC05F1140000F06BFCCA
:101E800005F1380000F067FC05F17400E8622F638B
:101E900007E0A86D28B9E06AA96ACA6A904228BF1B
:101EA000AC62A86EE26A401C6064696D914238BF02
:101EB0006A655643A866211D08EB060000F05BFC2E
:101EC00000F0BAFCA86D30B100F0B5F903D2BDE85E
:101ED000F04100F09BBCBDE8F08110B504000FD0CC
:101EE000DFF8D814086F10B100F00CFBFEE700F02B
:101EF00079F80021204600F0AEFA00F079F818B920
:101F0000BDE8104000F082BC10BD044600F088BC63
:101F100010B5002110B900F0F5FAFEE74369DFF8CB
:101F2000882502F13804A34204D1806A904201D08E
:101F300000B90121084610BD38B5040002D100F0F7
:101F4000E1FAFEE700F035FA18D000F069FC20460F
:101F5000FFF7DEFF70B100F0FBF900F066F938BF63
:101F60006A6500F020FAE06AA96ACA6A904228BF4E
:101F700000F04CFCBDE8314000F05EBC31BD80B5E6
:101F800086B000210591049103AA04A905A800F0D8
:101F9000E1FC0598049900220092039A02900191B5
:101FA00000230FF214510FF20D30FFF7A1FE80B1A4
:101FB00000F0DAFC01280ED100F0A4FADFF8E80402
:101FC0004FF0FF31C166012282650021016500F0FA
:101FD00095FC07B000BD10F1010FFAD100F092FAA4
:101FE000FEE70000DFF8C004016F491C016770477D
:101FF00070B5DFF8C863306F0024002510B900F019
:1020000081FAFEE700F00CFC306F401E3067306F45
:10201000002831D1F06CD0B92EE0F068C46800F02F
:102020002CF800F095F9E06A716DDFF880248142A8
:1020300038BF706514235843211D104400F09BFBEA
:10204000E06AB16ACA6A904224BF012131663068F1
:102050000028E2D10CB100F062F9F46D3CB100F05F
:1020600015F808B101203066641EF8D1F565306EB0
:1020700010B1012500F0CAFBA4E104F1180000F042
:10208000A0BBFFE7DFF82004006D70472DE9F8439F
:10209000DFF82873386F0026002850D13C6D641C8F
:1020A0003C650ED1F86A006810B100F02BFAFEE72B
:1020B000F86A396BF9623863786E401C786600F014
:1020C0002EF9F86E4FF01408DFF8E093844227D31E
:1020D0001FE0F96AC868C568686884422DD3281D66
:1020E00000F06FFBA86A18B105F1180000F069FB59
:1020F000E86A796D814238BF786508FB00F0291DD8
:10210000484400F038FBE86AB96ACA6A904228BFBE
:102110000126F86A00680028DBD14FF0FF31F9662C
:10212000B86AC06A08FB00F059F80010386E02293E
:1021300028BF012630B1012604E0F866F0E7F86D0B
:10214000401CF8657FE110B5DFF87022106F10B108
:102150000121116610BD1066516DDFF8503300E0AB
:10216000491E14244C43185920B90029F8D100F015
:10217000C9F9FEE71819436800F108045B68A34237
:10218000436004BF5B6843604068C3689362516505
:1021900010BD10B50C4610B900F0B4F9FEE700F020
:1021A0001BF800F0F5FAFFE720460121BDE81040DA
:1021B00051E138B50D46144610B900F0A3F9FEE719
:1021C00000F00AF800F0D7FA0CB14FF0FF352146C5
:1021D0002846BDE834403EE1DFF8CC128A6A02F1BD
:1021E0001801704738B5C068C46814B900F08AF99E
:1021F000FEE7FFF742FFDFF8B052286F40B900F06A
:10220000A7F800F012F838BF6A6500F01FF902E085
:1022100004F11801284600F0AEFA00F00CF802D2E2
:102220000120286632BD002032BDE26A686DDFF809
:102230007C3290427047A86AC16AE06A8142704766
:10224000DFF864124A6E0260096D41607047F8B5AC
:1022500004000D4602D100F055F9FEE715B900F073
:1022600051F9FEE700F0DCFADFF83C02016D62682C
:102270002E688B1A16F1010F0ED0476ED4F800C0ED
:10228000674501D091420BD2B34207D2F31A2B60BB
:10229000416E2160006D6060002402E00020286033
:1022A000012400F0C9FA2046F2BD0120DFF8F81140
:1022B0000866704770B5424CDFF8EC5111E000F051
:1022C000AFFA286AC668301D00F07BFAE86C401E41
:1022D000E864686B401E686300F0AEFA304600F0B8
:1022E00009F8686B0028EAD121680229F9D300F0C7
:1022F0008DFAF6E710B5044694F8590040B9206B02
:1023000000F0C1F92046BDE8104000F0BCB910BD96
:102310000128F7D00228FAD000F0F4F8FEE72749A8
:10232000C86A006810B94FF0FF3203E0C86AC2689B
:10233000D0684268CA667047DFF86C11886D08B9CA
:1023400001207047086F08B90220704700207047CD
:10235000201D00F036BA38B5044600210CB300F059
:1023600028F802D000F0CEF8FEE7206D10B900F09A
:10237000C9F8FEE7E26AE36C401E20659A4210D07D
:1023800078B9FFF7E5FFE26CDFF82031C2F13800E1
:10239000E262A061696D914238BF6A6500F003F89E
:1023A0000121084632BD14204243211D981800F037
:1023B000E2B9DFF8F450A86A844270474430002044
:1023C000E420002000F038FA284670BD2DE9F041E5
:1023D00080460F4614461D4600F022FA324EB06A7F
:1023E00090F8580002280FD0B06A416D21EA080128
:1023F0004165B16A012081F858002DB101212846BC
:1024000000F029F800F002FA00F016FA00F008FADD
:1024100014B1B06A406D2060B06A90F8580002288C
:1024200018BF002405D1B06A0124416D21EA0707D5
:102430004765B16A002081F8580000F0FDF9204698
:10244000BDE8F08100003046BDE8F283142042432D
:10245000211D98187047F8B5134D0C462F6DA96AC9
:102460000646081D00F0ADF916F1010F05D124B1A3
:10247000A86A011D05F138001AE0A86AF619BE42E3
:102480004660A86A05D2011D286BBDE8F44000F043
:102490007FB9011DE86A00F07BF9E86E864238BF1B
:1024A000EE66F1BD0000000044300020E420002072
:1024B000BDE8F44000F05FB949444C45000000001D
:1024C0002F4A1168086806C881F30B88022181F33E
:1024D0001488203080F30988BFF36F8F1047EFF323
:1024E000148020F0010080F31488704725480068AC
:1024F000006880F3088862B661B6BFF34F8FBFF300
:102500006F8F02DFEFF311804FF0A00181F311888C
:10251000BFF34F8FBFF36F8F704780F31188BFF306
:102520004F8FBFF36F8F7047EFF30980EFF30B828C
:10253000734620E9FC0F124A116808604FF0A000B2
:1025400080F31188BFF34F8FBFF36F8FFFF7FBFD51
:102550004FF0000080F31188094A11680868B0E85C
:10256000FC0F82F30B8880F3098818471EF0040FD4
:102570000CBFEFF30880EFF3098000F07EB9000094
:102580006C30002008ED00E02DE9F0410446FFF733
:1025900029FD614FB8684FF00008002508BB07F11E
:1025A000200107F120034FF400500A4613F0070FF3
:1025B00005D0CA1DD208D200C2F5005008188018F4
:1025C0000838C008C0003A607D60B86045600560AA
:1025D000831A5360106050683861F8604FF0004013
:1025E000F861F869044245D1002C43D0083414F056
:1025F000070F04D004F1080004F00704041BCCB357
:10260000F868A04236D339463E6801E031460646B6
:102610007068A04202D230680028F7D1B8688642BC
:1026200028D00A68306802F1080808607268121B36
:10263000112A0CD3311911F0070002D0FFF762FF05
:10264000FEE7301D02517460084600F041F87168E1
:10265000F8683C69401AF860FA68F869A24288BFD5
:1026600022463A61014371603560786908F00705D8
:10267000401C7861FFF7BCFC15B1FFF743FFFEE794
:102680004046BDE8F081002800D1704738B5A0F180
:102690000804214D6168EA69114202D1FFF732FF57
:1026A000FEE7206810B1FFF72DFFFEE79143616060
:1026B000FFF798FCE96860684118E960204600F07F
:1026C00007F8A869401CA861BDE83140FFF790BC3D
:1026D000114930B50A4600E01A4613688342FBD31D
:1026E0005368D418844203D14068C318536010461D
:1026F00043681468C518A54208D189688C4204D083
:102700006168CB184360246800E00C468242046094
:1027100018BF106030BD0000C400002062F30F221B
:1027200062F31F4200B500BF13009646944610396D
:1027300028BFA0E80C50FAD85FEA417C28BF0CC043
:1027400048BF40F8042BC90728BF20F8022B48BF18
:1027500000F8012B00BD4FF0FF3200F1080182604C
:102760004160C16000F10802026100210160704710
:1027700000210161704710B542684A6093688B6020
:1027800094686160916008610168491C016010BD36
:1027900030B50A6812F1010F08BF036907D000F1D4
:1027A000080300E023465C682568AA42FAD25A680A
:1027B0004A6091608B60596008610168491C016042
:1027C00030BD8268436801699A60426883685A60D4
:1027D0004A68824204BF83684B6000220261086835
:1027E000401E08600868704780B500200090554979
:1027F0000A6812F1010F02D0FFF784FEFEE7FFF72F
:1028000081FE00980028FCD001BD00004FF08050F0
:102810004D490860BFF34F8FBFF36F8F70470000C3
:1028200080B5FFF76FFE47480168491C0160BFF3A0
:102830004F8FBFF36F8F01BD80B54249086810B953
:10284000FFF760FEFEE70A68521E0A60086818B9C2
:10285000BDE80240FFF761BE01BD10B5FFF752FEB3
:102860000446FFF713FC18B14FF08050364908605A
:102870002046BDE81040FFF750BE80B5806910F8D3
:10288000021C022903D1BDE80140FFF719BEFFF782
:1028900039FEFEE730B5A0F14404E2632B4AA2639F
:1028A0004FF00332226363624FF001324FF0113375
:1028B000A26223624FF010324FF00933E261A3614C
:1028C0004FF080754FF008324FF007332564626196
:1028D00023614FF012354FF006324FF00533656338
:1028E000E260A3604FF002354FF004326FF0430313
:1028F000E5626260236040F8481D30BD1CB5144895
:102900000168104C41F47F010160026842F07F428F
:10291000026000F0C3F900202060FFF7E7FDFFF739
:1029200012FC00200090216811F1010F02D0FFF786
:10293000E9FDFEE7FFF7E6FD00980028FCD0002047
:1029400016BD00006000002004ED00E0E92700084B
:1029500020ED00E0034B036003F15C000860802180
:1029600011607047A029002010B586B000F064F90E
:10297000DFF81443A068C0B100210591049103AAB7
:1029800004A905A800F09EF9059804990222009276
:10299000039A0290019100230FF2F0210FF26500DB
:1029A000FFF7A6F90028E06002D1FFF7ABFDFEE7D4
:1029B000012006B010BDF8B5044684B01E460020C4
:1029C00014B9FFF79FFDFEE7DFF8BC72BD68BDB12B
:1029D00000910192029406290CDAFFF7ADFC02285F
:1029E000B868694607BF0A9A00230023002200F056
:1029F000DEF905E0002332466946284600F05BFA1E
:102A000005B0F0BDF8B586B0DFF87C5229680868DB
:102A100010B90124002602E0C86800240668FFF708
:102A2000E1FA01A800F0B0F80746019800283BD170
:102A300054BBB7422DD3FFF7DBFA2868C168CC68D6
:102A4000201DFFF7BEFE94F82800410717D5A169A5
:102A500033463A468919204600F0D3F840B10020A9
:102A600000900023324600212046FFF7A4FF18B152
:102A7000216A2046884721E0FFF744FDFEE700F089
:102A8000FE0084F82800F3E7686801684C1EA44142
:102A9000E40FA8682246F11B00F076FBFFF7A8FAC6
:102AA00060B9FFF7B3FE09E0FFF7A2FA06E094F879
:102AB000280081073BD42046FFF7E5FDA8680022E7
:102AC00002A900F03EFA0028A0D00298002803D501
:102AD00005990498039A904702980028EED4049C24
:102AE000606910B1201DFFF76CFE01A800F04CF8E2
:102AF00002990929E2D8DFE801F02121211A07060D
:102B000021211A07DAE7D2E794F8282042F00102DF
:102B100084F828200399A16131B1034602460918BF
:102B2000204600F06EF8C9E7FFF7ECFCFEE794F8EA
:102B3000280000F0FE0084F82800BFE794F8281071
:102B40000246A06941F0010184F8281003990B4660
:102B50004118204600F055F80028AFD0216A2046E1
:102B6000884794F828004107A8D500200090039AD0
:102B7000A0690023002182182046FFF71CFF0028CF
:102B80009CD1FFF7BFFCFEE72DE9FC410446FFF7AF
:102B900078FA05463C4E306985420BD300203561FA
:102BA00020602846BDE8F68178603F613068391DB5
:102BB000FFF7EEFD31680868F0B1C868C768D0F863
:102BC0000080381DFFF7FDFD396A3846884797F8C1
:102BD00028004107EED5B86940448045E4D3002081
:102BE00000900023424600213846FFF7E4FE00280B
:102BF000E0D1FFF787FCFEE770687160306001206C
:102C0000CDE738B50024416000611F4D8A4206D3EC
:102C10008169D21A8A4206D2011D686807E09A4289
:102C200003D2994201D3012403E0011D2868FFF774
:102C3000AFFD204632BD00001CB5FFF7F1FD124C80
:102C4000A068E0B904F11400FFF785FD04F1280045
:102C5000FFF781FD04F1140004F128010022206037
:102C60006160009204F13C0304F18C0210210A20FF
:102C700000F068F8A06010B106A100F072FABDE89B
:102C80001340FFF7D9BD0000182F0020546D7220AB
:102C900053766300546D7251000000000748002114
:102CA00001608160064B19684FF47A72B1FBF2F251
:102CB0000721521E42600160704700BF10E000E033
:102CC000B8000020044B036003F15C0008604FF47F
:102CD00080711160704700BF4425002070B504006A
:102CE0000D4602D1FFF70EFCFEE7FFF799FD206CC1
:102CF000E16B2268002600FB01F3491E48431344A0
:102D0000A3601044A663E060626004F144004FF0E9
:102D1000FF31017041704DB9206978B104F11000A4
:102D2000FFF760FA50B1FFF771FD07E004F1100002
:102D3000FFF711FD04F12400FFF70DFDFFF77CFD07
:102D4000012070BD7CB51C4610B9FFF7DBFBFEE728
:102D500014B9FFF7D7FBFEE71AB119B9FFF7D2FB99
:102D6000FEE771B950230093009D502D0CD1069BB6
:102D7000009D012684F84660009400F008F8204683
:102D800076BDFFF7BFFBFEE7FFF7BCFBFEE70029C0
:102D900038B5049D1C460CBF2D602A60E863296489
:102DA00001212846FFF79AFF85F84C4031BD2DE9F7
:102DB000F64182B0064688461F46002416B9FFF742
:102DC000A1FBFEE7B8F1000F01D1306C70B9022F02
:102DD00002D1F06B01280CD1FFF7AEFA002837D1F1
:102DE0000398002834D0FFF78DFBFEE7FFF78AFB3E
:102DF000FEE7FFF787FBFEE70398002844D014B9ED
:102E000000F015F90124FFF717FDFFF7EBF8FFF7C6
:102E100007FD00F00FF904BF0022027000F015F961
:102E200004BF00224270FFF707FD00F00AF90028F6
:102E30003CD1FFF7F5FCB06BF16B884214BF002565
:102E40000125FFF7F9FC1DBB00F0EFF8FFF7D0F804
:102E5000FFF7E6FCB06BF16B884201D3022FCBD1B8
:102E60003A464146304600F0F5F8716A19B106F16C
:102E70002400FFF7B7F908B1FFF7C8FCFFF7DCFC47
:102E8000012004B0BDE8F081FFF7D6FC0020F8E790
:102E9000039906F11000FFF77CF900F0C6F8FFF780
:102EA000A7F80028D4D1FFF7B1FCD1E700F0BDF8B6
:102EB000FFF79EF8EAE72DE9F84304000E461546B1
:102EC0001F4602D1FFF71EFBFEE70EB9206C28BBA0
:102ED000022F02D1E06B012823D1FFF713FB8046BC
:102EE000A06BE16B884201D3022F23D194F9459066
:102EF000A06B3A463146204600F0ACF819F1010FBC
:102F000012D1606AA0B104F12400FFF76BF9002828
:102F100018BF002D0CD00120286009E0FFF7F2FA5D
:102F2000FEE7FFF7EFFAFEE709F1010084F845003C
:102F3000012400E000244046FFF7EFFA2046BDE8F8
:102F4000F283F7B506460F46002416B9FFF7DAFA02
:102F5000FEE70FB9306C38B9FFF7EEF958B90298AF
:102F600048B1FFF7CFFAFEE7FFF7CCFAFEE700F033
:102F70005CF8FFF73DF8FFF753FCB56BA5BB029873
:102F8000002844D014B900F052F80124FFF754FC93
:102F9000FFF728F8FFF744FC06F14400415711F110
:102FA000010F04BF0022027000F04FF804BF00229E
:102FB0004270FFF741FC02A96846FFF748F9002874
:102FC000304628D100F0C2F80028D0D0029906F18E
:102FD0002400FFF7DEF800F028F8FFF709F80028D2
:102FE000C9D1FFF713FCC6E73946304600F066F852
:102FF0006D1EB563306930B106F11000FFF7F2F8CD
:1030000008B1FFF703FCFFF717FC0120FEBDFFF737
:1030100013FC0020FEBD00F065F8FEF7E9FF304626
:1030200000F094F80028A6D0F3E730465AE068464E
:10303000FFF706B906F1440090F9001011F1010FF5
:10304000704703A96846FFF702B990F9011011F122
:10305000010F7047F8B506461546B46B326C002771
:1030600042B9306830BBB068FFF775F900210746F8
:10307000B1601FE065B9706800F0AAF87068316C43
:10308000B26808447060904214D33068706011E0F8
:10309000F06800F09DF8306CF16840420144F16046
:1030A0003268914202D2B1680844F060022D01D129
:1030B00004B1641E641CB4633846F2BD026C0B4656
:1030C000002A00D1704710B58468C1681144A1423C
:1030D000C16024BF0168C160C1681846BDE81040E6
:1030E00000F076B8F8B50546FFF79AFB05F1440401
:1030F00094F9016007E005F12400FFF773F808B1C7
:10310000FFF7D3F8761E70B2012802DB686A002848
:10311000F1D14FF0FF366670FFF78EFBFFF780FBB3
:1031200094F9007007E005F11000FFF75BF808B1B3
:10313000FFF7BBF87F1E78B2012802DB2869002860
:10314000F1D12670BDE8F140FFF776BB10B504461B
:10315000FFF766FBA06B441EA441FFF76DFBE00F79
:1031600010BD10B50023074C54F833201AB15B1C76
:10317000082BF9D310BD44F8331004EBC3014860A9
:1031800010BD000048310020F8B504460D46164633
:10319000FFF746FB04F1380797F90C0010F1010F17
:1031A00004BF0021397397F90D0010F1010F04BF1E
:1031B00000217973FFF740FB386828B93246294669
:1031C00004F12400FEF7F5FF2046BDE8F24089E750
:1031D0004AB1000011F8013B521E00F8013B1CBF30
:1031E00011F8013BF8E7704738B5040001D1012020
:1031F00032BD00F0C6F818B900F0BFF800F073FC5B
:10320000FFE7022068702068211D00F0A3F901206B
:103210002873A870E87028716871A871E871287225
:103220006872A872E8726870002032BD38B5040078
:1032300001D1012032BD00F0A4F818B900F09DF8CA
:1032400000F09CFCDDE770B500F080F809B9027869
:103250000FE0042908BF42780BD0082908BF827804
:1032600007D00C2908BFC27803D010290CBF0279FF
:103270004279012A01D0012070BD11B902220270E9
:1032800014E0042902D1022242700FE0082902D181
:10329000022282700AE00C2902D10222C27005E0EB
:1032A000102907BF022202710223437100F04AF87D
:1032B00000F036F818BF904208D088421FBFDFF8F0
:1032C000A450A842DFF8A060B04201D100F023F87A
:1032D0002068984218BFB0F1804F0BD000F018F86A
:1032E0001CBF174DA84205D000F00FF81CBF90423C
:1032F000884206D100F01AF818BFB1F5803F02D01D
:10330000206800F035F8002070BD124B98427047DD
:103310000A4B98427047456C45F400454564704738
:103320002068054B0C4A98420C49704781680C484C
:103330000140062970470000002C014000040040B5
:10334000000800402068012200F0E0BA044604F1C1
:103350003E007047000C0040003401400040014036
:10336000070001000044014000480140C160286896
:10337000016841F001010160704700212970204679
:10338000704704F13C056878704738B500F07EF866
:1033900001D1022032BD012084F83C0052B1042A40
:1033A00019D0082A29D00C2A38D0102A48D0142A3B
:1033B00057D067E0206800F023F92168886940F061
:1033C00008008861886920F0040088618A6928699A
:1033D00002438A6156E0206800F054F92068816950
:1033E00041F400618161816921F4806181618169B9
:1033F0002A6941EA0221816144E0206800F07CF9F9
:103400002168C86940F00800C861C86920F004005C
:10341000C861CA6928690243CA6133E0206800F0C4
:10342000A3F92068C16941F40061C161C16921F457
:103430008061C161C1692A6941EA0221C16121E05B
:10344000206800F0B8F92168486D40F00800486530
:10345000486D20F0040048654A6D286902434A65BA
:1034600010E0206800F0D1F92068416D41F400615E
:103470004165416D21F480614165416D2A6941EAF0
:1034800002214165002084F83C0032BD044694F8D6
:103490003C000D460128704738B500F04FF801D1C7
:1034A000022032BD01202070022262702A68DFF8FB
:1034B00010049368034093600868020018BF102846
:1034C0002DD0202818BF302829D0402823D05028BC
:1034D00016D0602818D0702803D0B0F5005F07D050
:1034E00021E000F026F82868816841F0770105E0C6
:1034F00000F01FF82868816841F48041816012E083
:1035000000F013F850210BE0CA684968286800F001
:10351000BBF9602104E000F008F8402100E001461A
:10352000286800F0C3F90FE00000CA6849682868FD
:1035300099E1CB684A6889682868DDE1054605F1AC
:103540003C04207801287047012060700021217020
:10355000002032BD2DE9F043DFF86873B842D0F89F
:1035600000C0DFF86433DFF86443DFF86453DFF84A
:103570006463DFF864E3DFF86483DFF8649318BF03
:10358000B0F1804F07D0484518BF404503D0704583
:1035900018BFB0420ED14A68B8422CF0700C42EA13
:1035A0000C0C18BFB0F1804F0CD048451CBF4045F3
:1035B000704507D0B04218BFA84203D0A04218BF40
:1035C000984204D1CA682CF4407C42EA0C0C4A6947
:1035D0002CF0800CB84242EA0C0202608A6818BFE4
:1035E000B042C2620A68826204D0A8421CBFA042F4
:1035F000984201D10969016301224261BDE8F0836B
:103600002DE9F041026ADFF8BC82DFF8C8E2520817
:1036100052000262066A4468856926F002060B6859
:10362000DFF8C02215408A681D43DFF89C3216433C
:103630004045DFF89872DFF898C218BF704504D093
:1036400060451CBFB84298420DD1CA6826F00806F2
:103650001643404526F0040618BF704505D0604566
:1036600018BFB84201D0984205D14B698A6924F449
:1036700040741C4314434460856149684163066299
:10368000BDE8F081F0B5026A22F010020262056A1C
:10369000436884690E68DFF8502214408A6844EA5F
:1036A000062425F0200545EA0215864E894AB042D7
:1036B00018BF904208D1CF6825F08005B04245EA96
:1036C000071525F040050AD090421CBF804A904261
:1036D00005D07E4EB0421CBF7B4A904206D14E6957
:1036E0008A6923F44063164343EA86034360846196
:1036F000496881630562F0BDF0B5026A794B22F436
:1037000080720262066A4468C5690A6826F4007617
:103710001D408B6815436F4A46EA0326694B984261
:1037200018BF904208D1CF6826F40066984246EA56
:10373000072626F480660AD090421CBF644A904255
:1037400005D0624B98421CBF5F4A904206D14B693C
:103750008A6924F44054134344EA03144460C56165
:103760004968C1630662F0BD70B5026A22F48052F6
:103770000262036A4468C5690E685B4A00F06CF82F
:1037800023F4005343EA02331CBF524A904207D04D
:103790004F4EB0421FBF4D4A90424B4EB04204D1F3
:1037A0004A6924F4804444EA82144460C56149684B
:1037B0000164036270BD70B5026A4C4B22F4803222
:1037C0000262046A4568466D0A6824F400341E40AB
:1037D00016438B683B4A904244EA03441CBF3D4B6E
:1037E000984207D03A4A90421FBF384B9842364A17
:1037F000904204D14A6925F4803545EA02254560A6
:10380000466549688165046270BD70B5026A22F43C
:1038100080120262036A4468456D0E68344A00F003
:103820001BF823F4001343EA02531CBF294A9042B9
:1038300007D0274EB0421FBF244A9042224EB042CA
:1038400004D14A6924F4802444EA82244460456512
:103850004968C165036270BD154045EA06258A685E
:10386000184EB042704710B5036A046A64086400D9
:103870000462846923F00A03194324F0F00444EA43
:1038800002148461016210BD10B5036A23F01003B5
:1038900003628369046A23F4704343EA023324F029
:1038A000A00444EA01148361046210BD8368114AD4
:1038B0001340194341F00701816070470000000088
:1038C0008800CEFF002C0140004801400044014028
:1038D0000040014000340140000C0040000800405E
:1038E000000400408CFFFEFFFF8CFFFE8FFFFEFFF9
:1038F000FF8FFFFE8FFFCFFF10B5846824F47F4455
:103900002143114341EA0321816010BD10B5036AD0
:1039100001F01F0101248C40A3430362036A02FAF1
:1039200001F11943016210BD80B58948816841F0F9
:1039300001018160816801F0010100910099026834
:10394000072142F0805202600068002200F080509F
:10395000009000986FF00100FEF780F9BDE801408B
:10396000FEF742B930B5ABB000F0B7F894220021B1
:1039700006A800F004F92068764988425AD14FF42D
:1039800080424FF040510692269106A800F002F9BD
:1039900008B100F026FE70480168704D41F40051F6
:1039A0000160026802F4005200920099026842F03D
:1039B00004020260036803F00403009300990268A4
:1039C0000F2142F0010202600068032200F00100B2
:1039D0000090009801910021039100F079F80B20EC
:1039E0000321019002910022039201A95C4800F09A
:1039F000FBFD5C482860052169604FF40070802160
:103A000068612961202000224FF40061E861AA600A
:103A1000EA60A9612A62284600F0D2FE08B100F0EF
:103A2000E0FD1021284600F0B0FF08B100F0D9FDFC
:103A30002565AC622BB030BD18B5A5B00446942204
:103A40000021684600F09BF82168484A914219D14C
:103A50004FF400334FF4807100932491684600F0D6
:103A600099F808B100F0BDFD3948816B41F400417F
:103A70008163026842F480620260006800F4806042
:103A80000090009826B010BD10B586B000F025F863
:103A900021683748814219D12F48C16841F400415B
:103AA000C160C16801F400410091009902684FF4BF
:103AB000A05142F0040202600068022200F00400FB
:103AC00000F03FF80621059100F002F806B010BDA5
:103AD000029201A9244800F087BD04461422002167
:103AE00001A800F04CB881B000682249884209D191
:103AF0001748026842F002020260006800F002000B
:103B00000090009801B0704710B586B0FFF7E5FF50
:103B100021681848814212D10F480168022241F001
:103B2000100101600068782100F0100000F009F831
:103B300002210591029201A90F4800F055FD06B03F
:103B400010BD0090009801910021039104917047ED
:103B500058100240008002424C100240E030002029
:103B60000000024208000240000802420028004013
:103B7000003C00400004004000100242704710B5B5
:103B8000044610460A4601462046FDF767FB2046DC
:103B900010BD00002DE9F84F054628680024A04616
:103BA000DFF8E463DFF8E47301051FD5E86E68B160
:103BB000202816D0402804D0602818BF802808D0BC
:103BC00012E03A6842F480323A6003E000F0D7F93C
:103BD000044654B9F168E86E21F0E0010143F16058
:103BE00004E000F0C7F9F3E70124A0462868C10407
:103BF00023D5286FC0B1B0F5807F19D0B0F5007F14
:103C000006D0B0F5407F18BFB0F5806F04D012E049
:103C1000396841F48031396074B9F168286F21F452
:103C2000E0610143F16008E000F0A9F90446F3E720
:103C300000F0A0F9FAE70124A0462868810331D5F5
:103C4000F86C4FF00009C1000AD4F86C4FF001097C
:103C500040F08050F864F86C00F0805000900098BC
:103C6000DFF82C030168DFF828A341F480710160BC
:103C7000FDF774FF8346DAF80000C1057AD4FDF73A
:103C80006DFFA0EB0B000328F5D3DAF80000C105A7
:103C900070D40324A046B9F1000F03D0F86C20F0D3
:103CA0008050F8642878C10705D5FA6F686B9208D0
:103CB00040EA8202FA672978880705D5F96FA86B70
:103CC00021F00C010143F9672978480705D5F96F00
:103CD000E86B21F030010143F9672978080705D521
:103CE000F96F286C21F0C0010143F9672978C806F3
:103CF00005D5F96F686C21F440710143F9672978A3
:103D0000880605D5F96FA86C21F440610143F96775
:103D10002968880505D5F96FE86D21F44021014334
:103D2000F9672968480505D5F96F286E21F4401117
:103D30000143F9672968480205D5F96F686E21F4D7
:103D400040010143F967296888014FD5A96E41B147
:103D5000B1F1807F03D0B1F1007F41D044E000F0A9
:103D600004F9002C41D1F96FA86E21F04071014394
:103D7000F9673BE0002C8DD1306810F440701EBF15
:103D800005F18401CA6890420BD03068316841F473
:103D900080313160326820F4407022F48032326029
:103DA0003060C00713D5FDF7D9FE82463068810721
:103DB0000DD4FDF7D3FEA0EB0A0041F28931884211
:103DC000F4D33068810758BF03247FF563AF3168AF
:103DD00005F18402D06821F44071014331605AE753
:103DE00000F0CDF80446BCE70124A0462978480637
:103DF00005D5F96FE86C21F440510143F967297842
:103E0000080605D5F96F286D21F440410143F96793
:103E10002968C80505D5F96F686D21F44031014363
:103E2000F9672968C80205D5F168A86D890840EAD4
:103E30008101F1602968880415D5F96F686F21F058
:103E400040610143F967686FB0F1006F02D100F083
:103E50008CF808E0B0F1806F05D1012100F090F8F6
:103E6000010018BF80462868010329D5A86FB0F566
:103E7000804F03D1F06840F4804007E0F96F21F0F3
:103E800040610843F867F06820F48040F060A86F54
:103E9000B0F1806F06D1012100F072F801000FD05F
:103EA00080460DE0B0F1006F03D1386840F4801017
:103EB00005E0B0F5804F03D1386840F480303860B9
:103EC0002968480315D5F96FE86F21F04061014377
:103ED000F967E86FB0F1006F02D100F046F808E032
:103EE000B0F1806F05D1012100F04AF8010018BF40
:103EF00080462868410411D5FA6FD5F8800022F079
:103F000040520243FA67D5F88010B1F1805F05D1C5
:103F1000022100F035F8010018BF80462868C1036F
:103F200006D5F268D5F8840022F004020243F2605C
:103F3000286805F18401820205D5F368486823F0FA
:103F400018030343F3602A68D0010BD5F268886830
:103F500022F440120243F2608968B1F5001F01D1DA
:103F600000F003F84046BDE8F28F386840F4801056
:103F700038607047002105F1200000F079B8002179
:103F8000281D00F007B80000901002400C100240FD
:103F9000007000402DE9F04100F0BEF804D030D3AD
:103FA00003282AD025D32CE03168880729D5316829
:103FB00021F080613160FDF7D1FD8046306801015C
:103FC00008D5FDF7CBFDA0EB08000328F6D3306839
:103FD000010144D47968BA683B68491E9CB93469C8
:103FE000DFF84801044044EA0222F86842EAC0626D
:103FF0001FE030684105DAD403E0306810F4C02FC8
:10400000D5D1012531E0012C346909D1484804405B
:10401000386944EA02224008401E42EA405208E061
:1040200044480440786944EA02224008401E42EABB
:10403000406242EA011119433161306840F080600A
:104040003060FDF78BFD04463068010109D4FDF7AF
:1040500085FD001B0328F7D33068010101D4032537
:1040600003E03169B869014331612846BDE8F08158
:104070002DE9F04100F050F804D046D3032840D099
:104080003BD342E0316888073FD5316821F0805149
:104090003160FDF763FD80463068810008D5FDF78B
:1040A0005DFDA0EB08000328F6D33068810022D420
:1040B0007CB97169BA681D48014041EA0221F8687B
:1040C0007A6841EAC0613868521E41EA0211014330
:1040D0007161316841F080513160FDF73FFD044668
:1040E0003068810013D4FDF739FD001B0328F7D396
:1040F000306881000BD403250DE030684105C4D43D
:1041000003E0306810F4C02FBFD1012503E07169CE
:10411000386901437161A8E70746386800250C46F5
:10412000014E012870470000001002400C80FF077C
:104130000C809FFF0C80FFF92DE9F0418EB000F05C
:1041400075FC00F0BDF900F002FA00F0FBF9DFF8B1
:104150003C040168DFF83844DFF8385441F01001BE
:1041600001600268DFF8306402F0100205920599E0
:10417000026842F004020260036803F0040305933E
:104180000599026842F001020260036803F001032E
:1041900005930599026842F002020260036803F089
:1041A000020305930599026842F04002026000682C
:1041B00000F0400005900598FDF70FFD00228021DA
:1041C000204600F0DCFA00224FF40071284600F08F
:1041D000D6FA0022A021304600F0D1FA0022202099
:1041E00000F057F9012200F04FF94FF48040DFF85A
:1041F000AC1300900191002202926946304600F013
:10420000F3F900224FF4C07000F043F90822049241
:104210006946DFF88C0300F0E7F9802100F048F9E7
:10422000204600F0E1F901214FF4007401910022D1
:1042300000940292039200F028F900224FF40060EB
:1042400000F027F90A2200F01FF9A02100F030F950
:10425000304600F0C9F90C22002106A8FFF78FFCB8
:10426000182200F070F94FF40021CE4DCE4869605D
:104270002860012129610820686105210120E96188
:104280000022687605F1300601214FF48058AA60BB
:10429000EA602A7685F82020AA62EA623170C6F8C0
:1042A00004803272284600F0F5FB08B100F099F95D
:1042B0000020069006A9284600F094FE08B100F000
:1042C00090F9BA49009106220192052102917F22BC
:1042D0000392042104910022059200F0E1F808B154
:1042E00000F07FF9B24900910C2200F0D8F808B133
:1042F00000F077F9AF490091122200F0D0F808B130
:1043000000F06FF9AC490091182200F0C8F808B12C
:1043100000F067F9A94900914FF4807200F0BFF8EE
:1043200008B100F05EF9182200F00DF905F1CC0794
:10433000A3483860002179607F22BA60FF20F860CE
:1043400039617961B9614FF08040F861396238466E
:1043500000F0AAFE08B100F044F900210091039199
:10436000049105916946384600F044FF08B100F019
:1043700038F99448B06300203064B06408204FF4EA
:1043800082717065F16307204FF44071706671644B
:1043900008200021F066F1643465B165F16531668D
:1043A000B16605F1680000F03FFF08B100F019F9AF
:1043B00000F0CDF8102200210AA8FFF7E0FB0C2244
:1043C00000F0C1F81C22002103A8FFF7D8FB7E48AB
:1043D000B8620021F9620020386342F6F82179635F
:1043E000B863386405F1F4042046FEF7FDFE08B119
:1043F00000F0F7F8CDF828800AA92046FFF74CF81E
:1044000008B100F0EEF82046FEF710FF08B100F00A
:10441000E8F80021009102916946204600F074FFFF
:1044200008B100F0DEF86021039141F27C52049261
:10443000002105910022079200F036F808B100F043
:10444000D0F8042200F030F808B100F0CAF80822D1
:1044500000F02AF808B100F0C4F80C2200F024F8AB
:1044600008B100F0BEF82046FFF74EFB00F0A3FFB6
:10447000564A00210FF2611000F0C9FF786701F081
:104480007BF800F0A9FFFEE704926946284600F099
:10449000ABB8022102920392009001917047019201
:1044A0006946284600F0D4BB03A92046FEF76DBF3D
:1044B0000091002101220291039101926946704707
:1044C00000B597B04822002105A8FFF758FB00F07F
:1044D00039F80020FDF74EFB08B100F082F801F03A
:1044E00069F83B4801684FF4807221F018010160BF
:1044F0008121079108924021022209911092119284
:1045000004223721062012921391059007220221DE
:1045100014921591169105A8FCF7C4FE08B172B665
:10452000FEE70F20032100900191002202920392E6
:10453000049205216846FDF75EF908B172B6FEE700
:1045400017B000BD142200216846FFF718BB80B5E4
:104550002048016841F004010160026802F0040291
:10456000009200990268052142F001020260006891
:10457000002200F00100009000981D20FDF76EFB66
:104580001D20BDE80240FDF787BB00004C10024033
:104590000008024200000242000402420000111022
:1045A00000180242D42D0020008002420200300494
:1045B000040060081000C0102000F014000052C772
:1045C00000280040003C004000040040BC6300089C
:1045D000901002404810024080B5012000F0B9FF61
:1045E000FBE772B6FEE700002DE9F04F4FF0000C3C
:1045F000694A6A4BDFF8A8814FF00F0906460F465B
:1046000034E0684DAE4214BF0725062505FA0EF5C5
:10461000254348F821501C68C14301EA040E7C6818
:10462000E50348BF40EA0E0EC3F800E05C6801EA0B
:10463000040E7C68A50348BF40EA0E0EC3F804E0F0
:10464000146801EA040E7C68E50248BF40EA0E0ED9
:10465000C2F800E0546801EA040E79688C0248BF91
:1046600040EA0E0EC2F804E00CF1010C396831FA90
:104670000CF000F08280012404FA0CF414EA01002A
:10468000F2D04FEA4C0103258D406FEA050E7D689C
:10469000012D18BF022D03D0112D18BF122D13D1DB
:1046A000B568D7F80CA00EEA05050AFA01FA4AEA3D
:1046B0000505B560756825EA04047D68C5F3001535
:1046C00005FA0CF52C437460F468BD680EEA040426
:1046D0008D402C43F4607C68022C18BF122C14D13E
:1046E0004FEADC0406EB8404D4F820A04FEA8C05E2
:1046F00005F01C0509FA05FB2AEA0B0AD7F810B0E9
:104700000BFA05F545EA0A05256234680EEA040548
:104710003C7904F0030404FA01F12943316079681B
:10472000C900A1D54FEA9C0158F821504FEACC04AA
:1047300004F0180E09FA0EF425EA04041A4DAE42EC
:1047400008BF002518D0194DAE4208BF012513D06F
:10475000174DAE4208BF02250ED0164DAE4208BF1F
:10476000032509D0144DAE4208BF042504D0134DD3
:10477000AE427FF446AF052548E7BDE8F08F0AB1A9
:104780008161704781627047426901EA0203914387
:1047900041EA03418161704700F4024080F4024025
:1047A00060F402400018024200000242000402428B
:1047B00000080242000C02420010024200140242B1
:1047C00038B5040001D1012032BD2168DFF8342260
:1047D00004F1240500F044F80221697020680268A1
:1047E000A068E1686FF31012024320690A4361690F
:1047F0000243A0690A43E1690243206A23680A432D
:1048000002431A60204600F0D0F8A068B0F5804F4F
:1048100004BF002161602079E96A00F014F838B122
:10482000052805D2204600F0DDF800F012F803E07C
:104830000020A863E86328640021296201206870D1
:104840002970002032BD0860686B296B4860606881
:104850007047A96B00200860286CE96B48607047BE
:10486000914209D2DFF8A00141181423B1FBF3F102
:10487000DFF898216A6208E0DFF8940141181422F9
:10488000B1FBF2F1DFF88C0168628900A962704720
:10489000F8B500F124014A6A042314680268156817
:1048A00091F8286006F01C0603FA06F73C4220D077
:1048B0005FEA457C1DD5146825040BD54A6A57600C
:1048C00003681C68E2030ED54969002953D0BDE88E
:1048D000F44008471468A50603D4146824F00404BF
:1048E000146000F049F8C968002944D0BDE8F440DC
:1048F0000847022303FA06F73C421FD0AF071DD535
:104900001468250408D51268D30312D40969002954
:1049100031D0BDE8F44008471468A50605D41468F2
:1049200024F00A04146001224A7000F025F80022E5
:104930000A708968F9B1BDE8F4400847082303FA12
:1049400006F6344217D02B0715D5146824F00E0450
:10495000146091F828304C6A012203F01C039A403D
:10496000626001220A624A7000220A70896911B1EC
:10497000BDE8F4400847F1BD91F828204C6A02F0E8
:104980001C02934063607047000008B90120704723
:104990000068CB06026805D5C9024CBF42F48012FC
:1049A00022F4801202600020704710B5C16C0268CA
:1049B000144B89089A4202F0FF0239BF164C04EBEF
:1049C0008101164B03EB81010165083A1421B2FB0A
:1049D000F1F10123124A01F01F0103FA01F14265CE
:1049E000816510BD01790F4A0F4B02EB8102C26550
:1049F000491E012201F003018A40036642667047A6
:104A00000000000008040240F8FFFDBF0000024063
:104A1000F8FBFDBF000402400008024020080240ED
:104A200080080240FC08024040090240042010B502
:104A3000FDF707F900F0CCFD07200024FDF76CF826
:104A4000002814BF0124FEF76FFF204610BD0000B0
:104A5000603000EB8100006800F0F8407047603083
:104A600000EB8100016821F000410A4302607047B9
:104A7000CB0D143003F0040310B51818090D0368AA
:104A800001F01F0107248C40A34302FA01F11943EE
:104A9000016010BDF8B50025044600950CB9012051
:104AA000F2BD04F15406706820B92046FEF75AFFA3
:104AB000B560357021688868800004D58A68DFF8A1
:104AC0006C0102408A6021688868C00017D48A6837
:104AD000DFF85C01024042F080528A60DFF8541136
:104AE0000868DFF85421B0FBF2F2521C5200009229
:104AF00002E00098401E009000980028F9D120683C
:104B00008168C90008D47268012542F01002726001
:104B1000B16841F00101B16081687268D3067DD44B
:104B200049077BD4726822F4807242F002027260FC
:104B30008068C00710D4DFF804110868DFF800218E
:104B400011680843C00707D4DFF8F8100A686068E6
:104B500022F47C1202430A6004F13002607E536842
:104B6000E16894F8207043EA4033A0680B430343A4
:104B700043EA0743012F03D1606A401E43EA4043E2
:104B8000A06A20B100F470700343E06A0343216817
:104B9000DFF8B400CF6807403B43CB6023689968D7
:104BA0009868490726D4000724D4DF68D069DFF865
:104BB0009C100F40217E0743107847EA813747EA6F
:104BC0004007DF60107A01280FD123681F69D16880
:104BD00010696FF38A070F435169074390690F43C8
:104BE000074347F001071F6104E020680169490895
:104BF00049000161206901282068016B05D1E26943
:104C00000909521E42EA011101E009090901016383
:104C1000706820F0020040F0010003E07068012598
:104C200040F0100070602846F2BD0000C0FFFF5F3A
:104C3000C0FFFF7FB8000020400D03000880024243
:104C4000088102420883024207C0F0FFF9BFFFFF5C
:104C5000F8B5064600240F46009406F1540529785D
:104C6000012901D10220F2BD01202870306881683D
:104C7000490700F163817A6830303968930903F09D
:104C80000C031818D0F800C002F01F021F23934035
:104C9000C1F384612CEA030301FA02F21A430260B1
:104CA000306882688168520731D409072FD4BA6806
:104CB000B2F1004F08D139680022FFF7D9FE306801
:104CC000416941F0004106E03968FFF7D1FE3068E4
:104CD000416921F0004141613068C1683A69042AA4
:104CE00016D060303B6800EB820CDCF8002098485E
:104CF00003F0F843024013437A69C908480000F002
:104D000006008240134343F00043CCF8003076E0C5
:104D10000021FFF79DFE40032146306804D1FFF7D4
:104D200097FEC0F3846003E0FFF792FE00F01DF9E8
:104D300039684A030EBFC1F3846191FAA1F1B1FA57
:104D400081F1884204D1306800220021FFF787FEFC
:104D500000F018F9400304D100F014F9C0F38460A6
:104D600003E000F00FF900F000F939684A030EBFC4
:104D7000C1F3846191FAA1F1B1FA81F1884204D1C1
:104D8000306800220121FFF76AFE00F0F7F84003C7
:104D900004D100F0F3F8C0F3846003E000F0EEF813
:104DA00000F0E3F839684A030EBFC1F3846191FA59
:104DB000A1F1B1FA81F1884204D1306800220221C8
:104DC000FFF74DFE00F0D6F8400304D100F0D2F812
:104DD000C0F3846003E000F0CDF800F0C6F8396855
:104DE0004A030EBFC1F3846191FAA1F1B1FA81F1D6
:104DF000884204D1306800220321FFF730FE316879
:104E00008868C00761D4FA683B68D1F8B0C0DFF8A1
:104E1000A8E102F01802C3F312002EFA02F22CEA03
:104E2000000013400343C1F8B030F868DFF88C117C
:104E3000884230D1386841030EBFC0F3846290FAD3
:104E4000A0F1B1FA81F2521C012102F01F020A2ADC
:104E50000DD200F09BF8920603F01F03401C02F0F5
:104E6000F842994000F01F0000F074F80FE000F0E5
:104E70008DF8401C920603F01F0300F01F0002F0A3
:104E8000F84299400A3800F065F841F00071BA68BC
:104E90003068FFF7EDFD3A68DFF82401024252D096
:104EA000DFF82031DFF82071DFF8080101681B68A6
:104EB0003F6801F0E0713B43DB073FD4DFF80C7142
:104EC000DFF80C31BA421CD10A023CD436689E424B
:104ED00039D100F045F841F400010160DFF8F40039
:104EE0000168DFF8F4200C20B1FBF2F2521C4243BF
:104EF0000092009800281EBF0098401E0090F8D134
:104F000021E0DFF8D870BA4209D1CA011BD4366853
:104F10009E4218D100F024F841F080710CE0DFF8D7
:104F2000C070BA420FD14A020DD436689E420AD1EF
:104F300000F016F841F48001016004E06868012483
:104F400040F020006860002028702046F2BD00007C
:104F500000F0FF03114300EB400041EA00517047AD
:104F6000026822F0E0721143704790FAA0F0B0FAA4
:104F700080F0704730680321FFF76ABD3068022176
:104F8000FFF766BD30680121FFF762BD420306D11D
:104F9000C0F38462C0F38463C0F3846007E090FAD6
:104FA000A0F0B0FA80F2B0FA80F3B0FA80F0521CB0
:104FB0005B1C704708830242FFFF070000007F4030
:104FC000000008800880024208810242000052C7A7
:104FD00000800242B8000020400D0300000084CB96
:104FE00001000080F0B59AB000F15404237800224B
:104FF000012B08BF02204AD0012525701692179276
:105000000368244DAB4225D1244F3B68DFF888C0AC
:10501000DCF800506D0732D45B0730D40B68204DAC
:10502000204EF3B1336890F8300023F4604E4B68A3
:1050300043EA0E0343EA40303060DCF800003B688E
:105040001843C30720D43768086889683D40054382
:105050000D4312E0606840F0200060602270012083
:1050600015E0306820F460403060DCF800003968FA
:105070000843C00708D431680D40356004E060681B
:10508000012240F0200060600020207010461AB01D
:10509000F0BD000000800242088002420881024206
:1050A000E0F0FFFF0883024270B504460120002CA7
:1050B0003CD004F12405697821B9002028702046ED
:1050C000FEF7BAFC02216970DFF81C61CA2070612A
:1050D00053217161204600F041F8010020D1B168F0
:1050E000DFF808010140B160B268606821690243DD
:1050F000A0690A430243B260E168A06841EA004146
:105100002046316000F04AF8010009D1B368226AF4
:10511000E16923F06043134362690B431343B360B7
:10512000FF210200716104BF0121697070BD38B5B3
:105130002F4C206820F020002060FCF70FFD054672
:105140002068810608D4FCF709FD401B40F2E931D4
:105150008842F5D3032032BD002032BDF8B50546A4
:10516000234C20680026410616D4206840F08000B9
:105170002060FCF7F3FC074609E0FCF7EFFCC01BDE
:1051800040F2E931884224BF032685F82560216872
:10519000480601D4032EF0D13046F2BD70B5044666
:1051A000134D2868002620F080002860E9688806F2
:1051B00008D42046FFF7BBFFA0B1032084F82500E8
:1051C00003260FE0E86820F02000E8602046FFF7A3
:1051D000AEFF18B1032084F825000326E86840F0EC
:1051E0002000E860304670BD10280040BFFF8FFBF4
:1051F0000C28004010B50A6848680A4B02431A6040
:105200008C68C868064A0443546013680869496991
:1052100023F0FF13034343EA01430020136010BD52
:10522000203400401C28004038B5040001D1012082
:1052300032BD606A30B96068B0F5827F05D0002168
:10524000E16102E00020206160610020A06204F1C1
:105250005C05687820B9002129702046FEF714FC0F
:105260000220687000F04AF8E168B1F5E06F04D9F7
:105270000020B1F5706F03D104E04FF4805001D0ED
:105280000021A1626168A268237C01F4827102F4AA
:1052900004421143227D03F002031943A36902F083
:1052A00001021143227F03F40073194394F8203064
:1052B00002F038021143A26A03F080031943236805
:1052C00002F4005211431960A16994F8242094F863
:1052D0003430090C01F0040102F010021143E268BD
:1052E00003F00803194302F4706211430843216874
:1052F0004860002068600121697032BD2068016843
:1053000021F0400101607047F0B500F13C042278C3
:10531000012A01D10220F0BD012222700223637014
:105320000668DFF860E0DFF868C076457768B56842
:1053300018BF664503D14B6827F470071F430A68FE
:1053400027F07007174377600268724518BFB2F103
:10535000804F0CD00D4882421CBF0E4B9A4206D0A3
:10536000094882421EBF62450B4B9A4204D18868AD
:1053700025F08005054395600121617000202070B3
:10538000F0BD0000002C0140000C00400004004073
:1053900000340140000800400040014080B5DFF8C3
:1053A000CC010168FCF7C8FF012803D0BDE801402B
:1053B000FDF753BA01BDEFF3058010B16FF00500A2
:1053C0007047DFF8AC11086810B901220A60704715
:1053D0004FF0FF307047000080B5EFF3058000B15B
:1053E0000FE0DFF88C010168012909D10022DFF804
:1053F00084110A7002230360FCF7C1FD002002BD86
:1054000002E06FF0050002BD4FF0FF3002BDF8B5BD
:1054100084B000230393EFF30583002B3DD10300F9
:105420003BD08025182600245AB3136803B11C46CC
:1054300093691BB11E0004D0392E02D21379DF0705
:1054400001D500202AE0536903B19D089768D2F87E
:105450000CC087B1BCF15C0F1FD31269002A18BFC2
:10546000002B1AD001920B46029700962A4621463D
:10547000FCF73EFC10E0BCF1000F04BF1269002AEB
:105480000BD103AB01930B460096AAB22146FCF761
:1054900057FC012801D000200390039805B0F0BD0F
:1054A00010B5EFF3058111B16FF0050406E0002897
:1054B0000EBF6FF003040024FCF73EFD204610BD34
:1054C0002DE9F84F06460F46EFF3058018B16FF04F
:1054D0000500BDE8F28F002E48BF6FF00300F8D43E
:1054E000B8071446A3464CBF4FF00009B146FCF77D
:1054F000C8FD002582466FF0020809E0FCF7C1FDF7
:10550000A0EB0A0083452CBFABEB000B4FF0000B68
:105510005B466A4649460020FCF758FF012810D137
:1055200000983540054305EA0600F90703D5B04267
:1055300003D12846CDE70028FBD1002CDED145461B
:10554000F7E7002C0CBF45466FF001050028DFD1BE
:10555000EFE710B5EFF3058111B16FF0050403E03B
:10556000002408B1FCF7B9FC204610BD10E000E0B3
:10557000483200201FED00E010B50B4C207800F001
:1055800085F800F0ABF8010004BF084800F0BBF854
:10559000010004BF064800F0D1F820B92078BDE82A
:1055A000104000F07BB810BD543200207000002085
:1055B0007C0000200248016841F48071016070475E
:1055C000007000402648016841F470010160704796
:1055D00024490868020704D423480268C2F3032060
:1055E00002E00868C0F30310204A52F820008A68DD
:1055F00002F00C02042A04D0082A04D00C2A04D099
:1056000022E01B4820E01B481EE0CB68CA68C2F3BA
:105610000312521C03F00303022B02D0032B02D00F
:1056200005E0134803E0134BB3FBF2F201E0B0FBDB
:10563000F2F2C868CB68C0F306204243C3F341606E
:10564000401C4000B2FBF0F00B4A1060896800BFBC
:105650000AA3C1F30311595CC840106070470000F1
:1056600088ED00E000100240941002401C63000826
:105670000024F40000127A00B800002000000000AE
:10568000000000000102030406070809032800DBEC
:10569000704710B500F00DF8012206E0032800DB8A
:1056A000704710B500F005F80022BDE81040FFF784
:1056B00066B8094B03EBC004A18853F8300070476B
:1056C000032807DA044A02EBC003998852F8300035
:1056D000FFF75AB8704700002400002000F063B8BC
:1056E000042803DB0B0018BF002A01D100207047FB
:1056F00000F084B800281CBF012100F0B3B8704747
:105700000078FFF7DDBF38B5044601250CB901204C
:1057100032BD01210120FBF73FFD02000AD02078B5
:10572000054910706068C0B2FFF7DAFF10B1FFF7EB
:10573000E1FF0546284632BD01570008002818BF82
:1057400000F0CCB80220704710B51C4C6422002138
:105750000020FFF7B5FE21686431216000F045F8B4
:105760002068C821C82200F019F808B900F03FF8F5
:1057700020684FF4FA714FF4FA7200F00FF808B98C
:1057800000F037F820684FF47A714FF47A7200F025
:1057900005F80028DAD100F02EF8D7E7B0FBF1F1D8
:1057A00002FB1100704780B5054A00210548FFF74C
:1057B0002EFE08B1002002BD012002BD4C320020A7
:1057C0003C0000204957000838B5044600250C204D
:1057D00068432218116800291FBF107A00285068FA
:1057E00088476D1C032DF2DB31BD2D48ECE72D48B9
:1057F000EAE72D48E8E72D48E6E70000F0B500BFEE
:105800002BA3401E1B68032810D8DFE800F0020518
:10581000080B234C012007E0224C022004E0224C1C
:10582000032001E0214C042060F30F03FF25002634
:105830000C27F0B27843205808B93546F61C761C80
:10584000F0B20328F5DBEDB2032D08DA6F4365F300
:105850001F43E019016000214260017200E0002353
:105860001846F0BD83B2042B02DC000C042801DBD7
:10587000012070470C2250435B1E032B0ED8DFE83B
:1058800003F00204060A064B02E0064A04E0064B57
:105890001844017202E0054A024411720020704768
:1058A00088310020AC310020D0310020F4310020BC
:1058B0000000000010B5040000D110BD00F053F846
:1058C000204600F08BF84FF0FF3200210020FFF758
:1058D000F7FD204600F068F8F5E7000070B50546D2
:1058E0003C2101200126FBF757FC040017D025605E
:1058F00000F02BF8010004BF204600F03DF8D5F879
:10590000001001B90CA1074A116020B921460648D0
:10591000FFF77DFD00E00020606000B1002630460A
:1059200070BD000000000020B55800084068002845
:1059300018BFFFF7B5BD7047756E6B6E6F776E0061
:10594000002818BFFFF7F2BF704710B50446236860
:1059500022460849187AFFF7C3FE0146401E8041DF
:10596000C00FA16010BD8068002818BFFFF7C2BE3D
:105970000120704741590008F8B505460026002768
:105980000C24296804FB07F2114401F10C0000F01B
:105990006BF805EB8701C86218B17F1C042FF0DBA0
:1059A00000E001263046F2BD70B504460025002611
:1059B00021683144087900F0D5F804EB8600D0ED79
:1059C000030AB4EE600AF1EE10FA1CBF80ED030A80
:1059D0000125761C042EEBDB284670BD70B504460D
:1059E00000250026F0B204EB8001C86A00F0B0F890
:1059F00020B9761CF0B20428F4DB00E0012528462B
:105A000070BD0000014600200A291CD8DFE801F023
:105A100006080A0C0E10121416181A003F48704798
:105A20003F4870473F4870473F4870473F4870477E
:105A30003F4870473F4870473F4870473F4870476E
:105A40003F4870473F487047010018BF042807D0FF
:105A5000082818BF0C2803D0102818BF142801D11B
:105A60000120704700207047F8B5054600262DB18B
:105A700068783E28BCBF29780C2901DB0020F2BDE4
:105A800010210120FBF788FB04000BD06878FFF79A
:105A9000DBFF38B168682060697821722878FFF7E9
:105AA000B1FF60606068002835D0AA682649B1FB64
:105AB000F2F7E76095ED010AB8EE400A10EE100A21
:105AC00000F092F80022214B00F0B2F800F0D4F977
:105AD000656800FB07F12868C762E2686068C26019
