:020000040800F2
:10000000803D0020099E0008E59C0008E79C000850
:10001000E99C0008EB9C0008ED9C0008559E000838
:10002000000000000000000000000000B98A000885
:10003000EF9C000800000000758A000825580008A1
:10004000599E00085D9E0008619E0008659E00089C
:10005000699E00086D9E0008719E0008759E00084C
:10006000799E00087D9E0008819E0008859E0008FC
:10007000899E00088D9E0008919E0008959E0008AC
:10008000999E00089D9E0008A19E0008A59E00085C
:10009000A99E0008AD9E0008B19E0008B59E00080C
:1000A000B99E0008BD9E0008C19E0008C59E0008BC
:1000B000C99E0008F19C0008CD9E0008D19E000852
:1000C000D59E0008D99E0008DD9E0008E19E00082C
:1000D000E59E0008E99E0008ED9E0008F79C0008D8
:1000E000F99C0008F19E0008F59E0008F99E0008A2
:1000F000FD9E0008019F0008059F0008099F000859
:100100000D9F0008119F0008159F0008199F000807
:100110001D9F0008219F0008259F0008299F0008B7
:100120002D9F0008319F0008359F0008399F000867
:100130003D9F0008419F0008459F0008019D000861
:10014000499F00084D9F0008519F0008559F0008D7
:10015000599F00085D9F0008619F0008659F000887
:10016000699F00086D9F0008719F0008759F000837
:10017000799F0008000000007D9F0008000000003B
:10018000819F0008859F0008899F00088D9F0008B7
:10019000919F0008959F0008999F00089D9F000867
:1001A000A19F0008A59F0008A99F0008AD9F000817
:1001B000B19F000800000000B59F0008B99F00082B
:1001C000BD9F000800000000C19F0008C59F0008F7
:1001D000C99F0008CD9F0008D19F0008D59F000847
:1001E000D99F0008DD9F0008E19F0008E59F0008F7
:1001F0000000000000F5E0700268914203D28068C0
:100200000028F9D1704743681A449142F7D27047E9
:100210001749086880B94FF4805048604FF4803225
:100220004FF0FF30C86008610420124B8A604861BB
:10023000C3F8BC01104808600120704701F10803B1
:1002400013F0070F0EBF0023C3F1080303F00703E9
:100250001944D21A8161C26042F001034B60091D4A
:100260004FF0280C41F802C0014A1369C36170477E
:1002700024390020183400206859883C2DE9F84FB3
:1002800084B00646AFF30080F52E1E4D80F0138239
:100290000B2E31BF10260B36F608F6002868F4083E
:1002A000E04010F0030F4AD0C04300F001000419F1
:1002B00005F1280000EBC408E700D8F80860706872
:1002C000C008C000B84218BF00F085FFD6F80890FB
:1002D000464508BF00F07FFF4E4508BF00F07BFF9A
:1002E0007068C008C000B84218BF00F074FFC8456D
:1002F0000AD12868012101FA04F420EA04042C60E0
:1003000010E000BF183400202869814508D3D9F8CF
:100310000C10B14204D1C8F80890C9F80C8001E073
:1003200000F059FF47F00300311D7060301DCA59BD
:1003300042F00102C25106F1080800F024BFA9688A
:10034000B14280F0AA83002800F0A2804FF001089B
:1003500008FA04F1490000FA04F4484201430C4051
:1003600060420440641E200B00F01000C44061098C
:1003700001F00801CC40A20802F00402D440630856
:1003800003F002030818DC401018C4F340071818E3
:100390003818FC40241805F1280000EBC40AE700D7
:1003A000DAF80890D9F80400C008C000B84218BFB5
:1003B00000F011FFD9F808B0D14508BF00F00BFFDD
:1003C000D94508BF00F007FFD9F80400C008C000F5
:1003D000B84218BF00F0FFFEDA4506D1286808FAD7
:1003E00004F420EA04042C600DE029698B4508D34D
:1003F000DBF80C00484504D1CAF808B0CBF80CA0D3
:1004000001E000F0E8FEBF1B46F0030009F1040222
:10041000C9F8040047F00101915109EB060201926D
:10042000D751AC684FEAD40ABAF11F0F88BF00F069
:10043000D2FE34B3CDF800A005F128006E6900EBC0
:10044000CA0AD346102C38BF00F0C5FE29680098B0
:1004500021FA00F2D30704D408FA00F00843286018
:1004600007E0DAF80800296988422CBF834600F0CB
:10047000B2FECAF80860CBF80C60C6F808B0C6F83F
:100480000CA0AF6009F108080198686100F07BBE1C
:100490006868002800F0238341420840401E010B99
:1004A00001F01001C840420902F00802D040830860
:1004B00003F00403D840440804F002045118E0405B
:1004C0005918C0F34007611805F598787918F84075
:1004D000401858F820104868C008C0008A46A0EBB1
:1004E000060B08E001464868C008C000801B58455C
:1004F0003CBF83468A4608690028F3D14969002930
:10050000F1D128698245C0F0D380DAF80410C90817
:1005100006EB0B09C900494518BF00F05CFE0AEB69
:1005200006008245019080F0C380DAF80C40DAF8CA
:10053000187054450DD0DAF808002969884223D391
:10054000C268524504BFA16851451DD1C460A06076
:100550001CE00AF114010C6834B90AF110010C68AE
:10056000A4B101E011460C6804F1140210680028DF
:1005700002BF04F1100210680028F3D128698142FB
:1005800002D300220A6001E000F025FE002F38D0DF
:10059000DAF81C0008EB80010A6892450AD11CBBFE
:1005A0006A68012303FA00F022EA00006860002074
:1005B000086026E029698F4213D33869504514BF7B
:1005C0007C613C61ECB129698C4218D3A761DAF8EF
:1005D000100058B1884226BF2061846100F0FBFD05
:1005E00004E000F0F8FDEDE70C60ECE7DAF8140049
:1005F00038B12969884202D36061846101E000F06A
:10060000EAFDBBF1100F0ED249F003000AF104011C
:10061000CAF804000AF1040051F8092042F001026E
:1006200040F809203EE046F003010AF10402CAF84E
:1006300004104BF001009051019941F80BB0A868EB
:100640000090C4081F2C88BF00F0C5FD009828B397
:1006500005F1280000996F6900EBC408C146102914
:1006600038BF00F0B8FD286820FA04F1CA0705D4A5
:10067000012101FA04F404432C6007E0D8F80800D3
:10068000296988422CBF814600F0A5FDC8F8087092
:10069000C9F80C70C7F80890C7F80C80C5F808B006
:1006A000019868611AF1080800F0F78100F06BBD4D
:1006B00000F091FDF1E116F1400F28BF4FF0FF3639
:1006C00080F0EB810B36F6086B68F600002B00F02B
:1006D000E4810027300AC6F1000908BF002423D0B6
:1006E000B0F5803F28BF1F241ED2A0F58071090CF1
:1006F00001F008018840A0F58052120C02F00402BB
:100700009040A0F58044240CC1F10E0104F00204D5
:10071000891A091BA04001EBD031C81D26FA00F44C
:1007200004F0010404EB410405F5987858F824001E
:1007300040B31F2C0FBFB4464FEA540CCCF1190C38
:1007400006FA0CFCBE46494601E04FEA4C0C4268F2
:10075000D208D200921B8A4207D3426910304FEA76
:10076000DC7950F829003AB103E011000746F4D1D2
:1007700005E0824218BF96460028E6D170468946B9
:10078000A8BBB7BB012101FA04F464006042044332
:10079000234000F08281584203405B1E180B00F09A
:1007A0001000C340590901F00801CB409A0802F03B
:1007B0000402D3405C0804F002040818E340101857
:1007C000C3F3400C2018604423FA0CF31B1858F8AC
:1007D00023000CE008464168C908C900891B494547
:1007E0003CBF8946074601690029F3D140690028CA
:1007F000F1D1002F00F05181A868801B814580F065
:100800004C8129698F42FFF453AF7868C008C0005B
:1008100006EB0901884218BF00F0DDFC07EB060B70
:100820005F45BFF445AFFC68D7F818A0BC420CD0B8
:10083000B8682969884223D3C268BA4204BFA16854
:10084000B9421DD1C460A0601CE007F114010C681E
:1008500034B907F110010C68A4B101E011460C682D
:1008600004F114021068002802BF04F1100210689D
:100870000028F3D12869814202D300220A6001E0F6
:1008800000F0A9FCBAF1000F39D0F86908EB80013B
:100890000A6897420AD134BB6A68012303FA00F060
:1008A00022EA000068600020086028E029698A4583
:1008B00016D3DAF81000B84214BFCAF81440CAF8C8
:1008C0001040E4B129698C4217D3C4F818A03869E4
:1008D00058B1884226BF2061846100F07CFC04E0AE
:1008E00000F079FCEDE70C60ECE7786938B1296934
:1008F000884202D36061846101E000F06CFCB9F1D0
:10090000100F0CD2B14449F00300391D7860381D36
:1009100051F8092042F0010240F80920B9E046F000
:1009200003013A1D796049F0010090514FEAD90066
:100930004BF809901F2822D805F1280101EBC004CB
:10094000296821FA00F2D307A04605D4012202FA51
:1009500000F00843286006E0A068296988422CBF9F
:10096000804600F038FCC4F808B007F10800C8F869
:100970000CB040F8068007F10C018C5189E05FEA69
:10098000192008BF002123D0B0F5803F28BF1F21C8
:100990001ED2A0F58072120C02F008029040A0F561
:1009A0008051090C01F004018840A0F580431B0C24
:1009B000C2F10E0203F00203521AD21A984002EB5F
:1009C000D032D01D29FA00F101F0010101EB420102
:1009D00007F11403CBF81C1000229A5107F1100301
:1009E00008EB81009A516A6822FA01F3DC0711D4FE
:1009F000012303FA01F111436960C0F800B0CBF89C
:100A0000180007F1080107F10C0040F806B041F8A2
:100A100006B03EE002681F291DBF4908C1F1190157
:100A200009FA01F1494600E002465068C008C000DA
:100A3000484518D002F11003C80F03EB80034900AA
:100A400018680028F0D12869834220D3C3F800B089
:100A500007F10C01CBF8182041F806B007F10800A7
:100A600040F806B015E0296990688A4228BF88429C
:100A70000DD3C0F80CB007F10801C2F808B08851D6
:100A800007F10C0082510022CBF8182001E000F0A1
:100A9000A2FB17F1080840F07683A868B0421ED385
:100AA000811B6A6910290AD3141DA96041F0010055
:100AB0009319A051595046F0030656600BE00021EF
:100AC000A96040F00304111D5460141D0E5846F037
:100AD0000106265000236B6102F1080853E3E86821
:100AE0008642C0F04083DFF8AC96D9F8000008B920
:100AF000FFF78EFBD9F8081088192F30491E20EA1D
:100B000001018E4280F03D8305F5D877B86838B191
:100B10003A6889188A4280F034838842C0F0318371
:100B200000F05CFB00281CBFD0F8008010F1010F22
:100B300000F027833968AC6941443960D5F8B021A9
:100B4000D5F8B4118A4238BF0A467A6004BB2969D5
:100B500009B1884200D2286100213861C7F81480A9
:100B6000F9614FF0FF31D9F800206A62296205F17E
:100B7000280200219260D26002F1080353611361E0
:100B8000891C10321F29F5D9A8F1280201461DE061
:100B900005F5E0710A46814600E09268D2B110681E
:100BA000536803449945F8D1107B030712D41368A6
:100BB0009C420FD3D2F804C063449C420AD2C4447E
:100BC000C2F804C02146E86808EB00022846FFF797
:100BD00035FBC5E22869814538BFC5F8109009EB9F
:100BE000080000E08968002900F0C1810A6882429B
:100BF000F8D1087B020700F1BA810868C1F80090BB
:100C00004A6842444A6009F1080111F0070F08BF21
:100C1000CDF8049006D0C1F1080101F0070109EBFD
:100C20000102019200F1080111F0070F04D0C1F197
:100C3000080101F00701084480460198A8EB000173
:100C40008419A1EB060B274646F00306466047458C
:100C500028BF00F0C0FA98F80400C10758BF00F0A0
:100C6000BAFABBF1100F38BF00F0B5FAA869804599
:100C700008D1E9688B44C5F80CB0AF614BF00100B6
:100C8000786070E1686980450AD1A9686F618B441A
:100C9000C5F808B04BF00100786047F80BB062E18E
:100CA000D8F8040000F00301012940F0BC80C0081E
:100CB000C000C1081F29039040D8D8F8082000922E
:100CC000D8F80C600291B04508BF00F084FA009893
:100CD000804508BF00F07FFAD8F804000299C008E8
:100CE000C000B0EBC10F18BF00F075FA0299009A6E
:100CF00005F1280000EBC100824208D011462A69A4
:100D00009142C0F08B80CA68424540F087800099CC
:100D10008E4206D102982A68012383409A432A60B2
:100D20007EE0864205D029698E4277D3B06840457F
:100D300074D10098C6600099B16071E0D8F81800CD
:100D40000090D8F80C6046450DD0D8F80800296905
:100D5000884223D3C268424504BFB16841451DD1D2
:100D6000C660B0601CE008F114010E6836B908F1E5
:100D700010010E68A6B101E011460E6806F11402DA
:100D80001068002802BF06F1100210680028F3D195
:100D90002869814202D300220A6001E000F01BFAB8
:100DA000009800283CD0D8F81C0005F5987101EB9C
:100DB00080010A6890450AD12EBB6A68012303FAB4
:100DC00000F022EA000068600020086028E0009936
:100DD0002869814214D30869404514BF4E610E61F1
:100DE000F6B129698E4219D30098B061D8F8100085
:100DF00058B1884226BF3061866100F0ECF904E00A
:100E000000F0E9F9ECE70E60EBE7D8F8140038B130
:100E10002969884202D37061866101E000F0DBF944
:100E2000039988448B44D8F8041049084900C8F84D
:100E300004104BF0010078604FEADB0647F80BB076
:100E40001F2E22D805F1280000EBC604A146BBF1F5
:100E5000100F38BF00F0BFF9286820FA06F1CA0762
:100E600005D4012101FA06F606432E6006E0A068CB
:100E7000296988422CBF814600F0ADF9A760C9F806
:100E80000C70C7F80890FC606DE05FEA1B2008BF9B
:100E9000002123D0B0F5803F28BF1F211ED2A0F52E
:100EA0008072120C02F008029040A0F58051090CEB
:100EB00001F004018840A0F580431B0CC2F10E0232
:100EC00003F00203521AD21A984002EBD032D01D1E
:100ED0002BFA00F101F0010101EB4201F96100235D
:100EE00005F598727B6102EB81003B616A6822FA2A
:100EF00001F3DE0707D4012303FA01F1114369600E
:100F00000760B8611DE002681F291DBF4908C1F1D3
:100F100019010BFA01F1594600E002465068C00879
:100F2000C000584510D002F11003C80F03EB800336
:100F3000490018680028F0D12869834211D31F6046
:100F4000BA61FF60BC600EE0296990688A4228BFE0
:100F5000884206D3C7609760B860FA600020B86125
:100F600001E000F038F9019800F108080BE1214692
:100F70002846FFF73FF90168406808440090A0F157
:100F8000270111F0070000980EBF0021C1F10801F0
:100F900001F007010844A0F12F0B04F110018B456B
:100FA00038BFA3460BF11802002102920191A8F16B
:100FB000280249462846FFF741F90BF1080010F0D6
:100FC000070F18BF00F007F91B20CBF8040005F548
:100FD000E07292E809500BF1080181E80950002104
:100FE0000BF10800F961B861009A02980199C7F8FD
:100FF0001090C7F81480072300E0001D491C00F181
:10100000080797424360F8D30129D8BF00F0E3F8FE
:10101000A34500F0A580ABEB040B201D221D50F86A
:101020000B104908490042F80B104BF001006060BA
:101030004FEADB0944F80BB0B9F11F0F22D805F1D4
:10104000280000EBC907B846BBF1100F38BF00F00D
:10105000C2F8286820FA09F1CA0705D4012101FA6B
:1010600009F10843286006E0B868296988422CBF66
:10107000804600F0B0F8BC60C8F80C40C4F80880A6
:10108000E7606DE05FEA1B2008BF002123D0B0F5C8
:10109000803F28BF1F211ED2A0F58072120C02F0E3
:1010A00008029040A0F58051090C01F0040188402D
:1010B000A0F580431B0CC2F10E0203F00203521A8A
:1010C000D21A984002EBD032D01D2BFA00F101F079
:1010D000010101EB420105F59872002302EB81004A
:1010E000E161636123616A6822FA01F3DF0707D4D3
:1010F000012303FA01F1114369600460A0611DE05E
:1011000002681F291DBF4908C1F119010BFA01F13D
:10111000594600E002465068C008C000584510D04B
:1011200002F11003C80F03EB800349001868002880
:10113000F0D12869834211D31C60A261E460A460ED
:101140000EE0296990688A4228BF884206D3C460AD
:101150009460A060E2600020A06101E000F03BF834
:10116000E86886420DD2801BA969E8608A19AA61E5
:1011700040F00100506046F003064E6001F108089F
:1011800001E04FF00008AFF30080404605B0BDE835
:10119000F08F00002439002038B5002558B141EA0D
:1011A0000002120C01FB00F512041EBFB5FBF0F0AB
:1011B00088424FF0FF352846FFF760F804001CBF57
:1011C00014F8040C10F0030F03D02946204600F059
:1011D0001BF8204632BD012000F01EB80749086800
:1011E00008B1002070470648C008C00008600549E3
:1011F000C908C900091A0160704700BF783900208A
:10120000873D0020803F0020002200F00FB80268D8
:10121000531C03601170704780B500F011F8024A4A
:1012200011001820ABBEFBE7260002004018491C45
:101230001CBFB1F1010100F8012DF9D170472E005A
:1012400010B500F013F8020000230024E4431068F6
:10125000A04203D011000220ABBE13605068A04230
:1012600003D0111D0220ABBE536010BD0048704773
:10127000100200202DE9F14FB0B0924604910DF11B
:1012800042013A9A2B9199464A7000200AE01AF8D6
:10129000011B0498309A90470028049000F06B8658
:1012A0000D98401C0D909AF8000050B12528EED101
:1012B000002100220791089209910A920B910C9249
:1012C00004E00D9800F059BE41F001011AF8010F39
:1012D0002028F9D023280CD02B2804D02D2805D085
:1012E000302809D00BE041F00201EFE741F00401A2
:1012F000ECE741F00801E9E741F01001E6E72A28B0
:101300000FD1D9F8002052F8040BC9F800200028AA
:101310000F9003D540420F9041F004010AF1010AF9
:1013200014E00F92DFF8583C0AE00F98984205DA73
:1013300000EB800402EB4402303A0F920AF1010AFA
:101340009AF80020A2F130000A28EED39AF80000A3
:101350002E2803D04FF0FF320E9229E01AF8010F29
:101360002A2809D1D9F8000050F8042BC9F8000048
:101370000E920AF1010A1BE02D280CBF0AF1010AA6
:10138000002000220E92DFF8F84B0BE040B90E9AD5
:10139000A24205DA02EB820503EB4503303B0E93D4
:1013A0000AF1010A9AF80030A3F130020A2AEDD3BB
:1013B000ADF840100FF6CC309AF8001000F0F2FEB5
:1013C00008B11AF8010B8DF842009DF84200682818
:1013D00005D19AF8000068280CD1622106E06C283B
:1013E00004BF9AF800006C2804D171218DF84210D6
:1013F0000AF1010A12A806901AF801BBBBF12501F7
:101400002CD01C3900F0D781091F022940F2D3816A
:10141000133900F0E284093900F0CD81891E00F013
:101420007785491E00F02485491E022940F2C381B8
:10143000091F00F01D85491F00F03281491E00F090
:10144000CC84491E00F0D880C91E0DD0891E00F042
:10145000C484C91E00F0C18400F065BD25238DF849
:101460004830012100F06ABDD9F8000050F8044B63
:10147000C9F80000002C059440F0AB802B99487807
:10148000002800F0A1804FF0FF340FF6003000F08C
:1014900095FE201A40F06F8500F051BD01236A4689
:1014A00002A9304600F042FE002840F064856D1E1F
:1014B000F4D13096079D12AF75B1309E17F8012B0D
:1014C00002A9304600F022FE002801D46D1EF5D19D
:1014D0000028309640F04F850A9D3020002D8DF871
:1014E00000000CDD309E01236A4602A9304600F060
:1014F0001DFE002840F03F856D1EF4D13096059FFB
:10150000089D75B1309E17F8012B02A9304600F0F6
:10151000FDFD002801D46D1EF5D10028309640F065
:101520002A850B9D3020002D8DF800000CDD309EAB
:1015300001236A4602A9304600F0F8FD002840F079
:101540001A856D1EF4D1309605980899099D4718A3
:1015500075B1309E17F8012B02A9304600F0D6FD78
:10156000002801D46D1EF5D10028309640F0038587
:101570000C9D3020002D8DF800000CDD309E0123E5
:101580006A4602A9304600F0D1FD002840F0F384FD
:101590006D1EF4D130969DF8400041077FF583AE73
:1015A0002020002C8DF800007FF77DAE309D0123B8
:1015B0006A4602A9284600F0B9FD002840F0DB8405
:1015C000641EF4D130956EE60FF6C030059000F041
:1015D000B6BC0E9D002D04D5204600F00FFE04463B
:1015E00007E02A46204600F025FE002814BF041B11
:1015F0002C46089400F0A3BCD9F8001051F8040B55
:10160000C9F8001020F00004002121F0FF3512ABD2
:10161000CDE902450593DDE9022306993C2413B97F
:101620000AB90E98A8B102F00F053035641EEEB26B
:101630003A2E08DA120942EA03721B090D5508BF57
:10164000002A02D105E02735F4E705980D19A842D4
:10165000E9D308190590C4F13C020E980892824221
:101660000ADABDF84010821A4FF6EF7001400A9274
:10167000ADF8401000F063BC002840F160849DF894
:10168000400000F01400102840F059840F9B079987
:101690000A985B1A1B1A9A1A002A40F350849AE39C
:1016A0002B99487820B14FF0FF340FF6B020EEE6CA
:1016B0009DF84200622860D0682817D06A283FD081
:1016C0006C2806D0712847D074282CD07A281DD0D9
:1016D00062E0D9F8001051F8040BC9F80010002896
:1016E00066D14FF0FF340FF68C20D0E6D9F8001009
:1016F00051F8040BC9F8001020B94FF0FF340FF671
:101700007420C4E60D99018000F019BCD9F80010CE
:1017100051F8040BC9F80010002849D14FF0FF34EC
:101720000FF65020B3E6D9F8001051F8040BC9F8B1
:10173000001000283CD14FF0FF340FF63820A6E609
:10174000D9F8001051F8040BC9F8001080B94FF017
:10175000FF340FF620209AE6D9F8001051F8040B58
:10176000C9F8001020B94FF0FF340FF608208EE6BC
:101770000D9AD317C0E90023E1E3D9F8001051F81E
:10178000040BC9F8001020B94FF0FF340FF6E41035
:101790007DE60D990170D2E3D9F8001051F8040BE1
:1017A000C9F8001020B94FF0FF340FF6C8106EE6EC
:1017B0000D990160C3E3D9F80020D21D22F0070281
:1017C000C9F80020D2E900010832C9F80020CDE9AB
:1017D0000201C80F02D007982D210AE0BDF8400091
:1017E000810702D507982B2103E0C00705D507988C
:1017F000202112AA1154401C079012A80799DDE974
:10180000024543184BF020006128059321AE0BD010
:101810000E98002802D506200E9005E001BF4BF07F
:101820002000672801210E91DDE9020148004015E2
:10183000401C0A460DD109030BD0ABF16107032010
:101840001A2F089002D20FF648110DE00FF644113E
:101850000AE070B912030CD1ABF1610703201A2F13
:1018600008901CD30FF634110322184600F00EFD29
:1018700065E3DDE902016A4600F014FDCDE90201ED
:101880004BF02000612811D1059830210170821C95
:10189000BBF1610F05920CBF7821582102E00FF6D1
:1018A000F801E1E741700798801C0790DDE902012B
:1018B00020F0000231F0004308BF002A02D10025C9
:1018C000002445E14BF02008B8F1610F40F095800D
:1018D0000E98002847BF21210191401C0190019FD3
:1018E0007F1C2046294600220023DDE9024500F046
:1018F00011FD00998DF8842038BF85F00045091F3F
:10190000002F00910DF1850034DD06462046294662
:101910000022002300F018FD2BD21C2200F02EFD27
:1019200004460D4600F0C8FDFF1F002F804609DD6C
:1019300000F0DEFD02460B462046294600F0A8FED8
:1019400004460D46F01D0721B8F1000F0CDD491EBD
:101950005EBF08F00F0200F8012D4FEA2818F3D5FA
:1019600002E0002200F8012D491EFAD5C61D002F05
:10197000CCDC30460DF18501401A019905468842BC
:10198000C8BF0D46002D0DF185062FD4854206DA1D
:101990000DF18500415D0829A8BF0F2000DA002065
:1019A000294621AA0A4400E06D1E12F80139491E99
:1019B0008342F9D00F2804D10DF18500425C521CFE
:1019C0004254002904D50098001D21AE6D1C0090E2
:1019D000681E0BD431180A783032D3B23A2BA4BF28
:1019E0005A443A3A401E01F80129F4D50E980028CD
:1019F00040F1AD80691E0E91A9E00099DFF8FC2648
:101A000047F29750414391FBF2F2009225F00045D6
:101A1000C2F10702002A04DD2046294600F04AFBF5
:101A20000BE052420020DFF8D81600F043FB0246DC
:101A30000B462046294600F09DFE0446B8F1660F8D
:101A40000E9806BF009F0A3706273F18142FC8BFFD
:101A5000142730208DF884000D460DF1850000E03C
:101A60003046002F35DD06462046294600F0A6FF09
:101A700001460A4606F1080304200A26B2FBF6F6E0
:101A800006EB860EA2EB4E02303203F8012C0A223E
:101A9000B6FBF2F202EB820EA6EB4E063036401E8B
:101AA00003F8026DE9D1083F002F03F10806D7DDE6
:101AB000084600F095FF02460B462046294600F0F6
:101AC000E7FD0022DFF83C3600F098FF04460D46A3
:101AD000CAE70DF18501401A0DF1850604E0009971
:101AE000491E401E0091761C31783029F7D0B8F19C
:101AF000660F02D10099491C04E0B8F1650F0CBFD4
:101B0000012100210E9D4D19A842B8BF451E002D90
:101B10001DD4854204DA705D3428C8BF392000DC4A
:101B200030202946721E531800E06D1E13F801493B
:101B3000491E8442F9D0392802D1705C401C70548F
:101B4000002904D50098401C16466D1C0090009C8E
:101B500001F02AF8406A0778DDF8388028B20028BA
:101B600002DC01250FF238664BF02000662808BF22
:101B7000641C16D0672846D120B210F1040F48DB50
:101B8000404546DA9DF84000641C010703D428B2A2
:101B90004045D8BF804620B2B8EB000848BF4FF0A0
:101BA00000080FFA84FBBBF1000F00F3B580089822
:101BB000411C0891302205990A54B8F1000F03DC4A
:101BC0009DF84000010704D50898411C089105992B
:101BD0000F5418EB0B0FB8BFC8F1000424B26042D9
:101BE0000B90A0442AB29045B8BF4546059B089883
:101BF0002DB209952A463146184400F047FBA8EB60
:101C000005000C90D2E0BBF1610F17D14FF0700BC3
:101C100019E028B2404504DA9DF840100A0758BF81
:101C20008046B8F1010848BF4FF00008BBF1670FCC
:101C300014BF4FF0450B4FF0650B04E0BBF1410FB3
:101C400008BF4FF0500B0898411C0891B8F1000FE5
:101C5000059916F8012B0A5403DC9DF84000010792
:101C60001AD50898411C0891B8F1000F05990F5436
:101C700012DD6D1E28B280450598089BB8BF454609
:101C80002AB23146184400F001FB08992DB26918B8
:101C90000891A8EB05000B9005980899084421B21B
:101CA000002980F800B003D42B224270821C04E08B
:101CB0002D2242700C46821C644200212CAB20462F
:101CC0000AE004460A2094FBF0F000EB8005A4EB48
:101CD000450403F8014B491C00B20028F1DC01293E
:101CE00006DC4BF02000652804BF302002F8010B11
:101CF00000292CAB08D1302002F8010B06E0491E68
:101D0000585C303002F8010B0029F8DC059908987E
:101D10000844121A099249E028B221B288421CDA1A
:101D20000598089B2AB23146184400F0AFFA08998A
:101D30002DB269180891ABEB0500B8F1000F0B90BC
:101D400003DC9DF84000020704D505984754099923
:101D5000491C0991CDF8308028E00598089B22B2F3
:101D60003146184400F092FA08982D1B5844B8F1F7
:101D7000000F089003DC9DF840100A0703D5411CB2
:101D8000089105990F5428B280450598089BB8BF63
:101D900045462AB206EB0B01184400F077FA089882
:101DA0002DB228180890A8EB05000B909DF8400074
:101DB00000F01400102840F0C280079A08990B9890
:101DC0008A18099982180C988A1882180F988242EA
:101DD00080F2B580821A0A92B1E09DF84200622832
:101DE00008D068280ED06A2814D06C281FD071281B
:101DF00010D01CE0D9F8001051F8040BC9F80010FD
:101E0000C0B21AE0D9F8001051F8040BC9F800105C
:101E100080B212E0D9F80020D21D22F00702C9F8E2
:101E20000020D2E900010832C9F8002006E0D9F804
:101E3000001051F8040BC9F800100021CDE902018F
:101E40009DF8400001075AD5DDE90223002B08BFA9
:101E5000002A54D04BF02000782850D1079812A9BE
:101E600030220A54401C431C079301F800B046E09E
:101E70009DF84200622808D068280ED06A2814D045
:101E80006C281FD0712810D01CE0D9F8001051F830
:101E9000040BC9F8001040B21AE0D9F8001051F84C
:101EA000040BC9F8001000B212E0D9F80020D21DCE
:101EB00022F00702C9F80020D2E900010832C9F86F
:101EC000002006E0D9F8001051F8040BC9F8001002
:101ED000C117CDE90201002902D507982D210AE09A
:101EE000BDF84000810702D507982B2103E0C00709
:101EF00005D50798202112AA1154401C079012A85A
:101F000007990144059102A8594600F04DF816E0E2
:101F100001200790D9F8000050F8041BC9F8000010
:101F20008DF848100BE025210122BBF1000F8DF840
:101F30004810079203D08DF849B0022107910F9AFB
:101F400007980A990C9C121A0898521A0B99121A9F
:101F50000998521A121A9DF84000141B41073FF5C8
:101F6000A9AA2020002C8DF800007FF7A3AA309E9C
:101F70002546FFF793BA4FF0FF3031B0BDE8F08F40
:101F8000CBCCCC0C686A6C747A4C00007072696EB1
:101F900074665F733A206261642025732061726702
:101FA000756D656E740000002DE9FC4304466F29D1
:101FB000256908BF082605D041F02000782814BF05
:101FC0000A2610263C27D4E90023642918BF692972
:101FD0009046994605D1002B03D5D8F1000869EB4E
:101FE0004909B9F1000F08BFB8F1000F0CD1206BFF
:101FF00050B9082E3AD194F83800010736D5302070
:102000003B2785F83B0031E08DF8001040464946FB
:102010003246F31700F0CCFD3032D0B27F1E3A28A2
:1020200001970EDAEA55404649463246F31700F06A
:10203000BFFD80465FEA010908BFB8F1000F05D176
:1020400008E09DF800001218513AEBE7E068E91942
:102050008842DBD3082E09D194F83800010705D552
:10206000E85D302802D07F1E3020E855C7F13C02E1
:10207000A261E919E160206B824208DA821A2262C9
:102080004FF6EF70218F01402187BDE8F3830028D0
:102090000ED594F8380000F01400102808D1636BB6
:1020A0006169206A5B1A1B1A9A1A002AC8BF226249
:1020B000BDE8F3832DE9D04306460F4614464FF0A2
:1020C0000008DFF8449012E0E00707D542464B468F
:1020D0003046394600F092FC06460F4640464946D7
:1020E00042464B4600F08AFC641080468946002C2C
:1020F000EAD130463946BDE8D0830000A086010011
:102100000000F03F84D797410000244010B50346FB
:102110000C461146A0689847A06020B1E06A401CB8
:10212000E062002010BD4FF0FF3010BDF8B505464D
:102130000E4617461C4600205CB117F8011BB0681C
:10214000A847B06030B1F06A401CF0620020641E05
:10215000F3D1F2BD4FF0FF30F2BD00007072696E36
:1021600074665F733A20256E20646973616C6C6FCE
:10217000776564007072696E74663A2062616420EB
:10218000256E20617267756D656E74000000000039
:102190006E616E004E414E00696E6600494E46000B
:1021A00030000000C9B202788A421AB11CBF10F890
:1021B000012FF9E718BF00207047000080B500B973
:1021C00006A005490B681BB122220021984701E0B7
:1021D000FFF701F8222002BD74390020636F6E738F
:1021E000747261696E742068616E646C65723A2005
:1021F000626164206D6573736167650000F10103BE
:10220000810704D010F8011B820781B1FAD102685E
:10221000A2F10131914311F0803104BF50F8042F35
:10222000F6E709BAB1FA81F100EBD100401CC01AFF
:1022300070470000C9B2830706D0521E22D310F89F
:10224000013B9942F7D11FE0083A13D302F104028F
:1022500041EA012141EA014150F8043B121F21BF2C
:102260004B40A3F1013C2CEA030C1CF0803FF3D05F
:10227000C9B2001F083210F8013B521E28BF91EA74
:10228000030FF8D818BF0120401E70474AB1000064
:1022900011F8013B521E00F8013B1CBF11F8013B35
:1022A000F8E7704710B5144600F002F8226010BD40
:1022B000C1F30A5343B14A0012F5001F28D2A3F21A
:1022C000FE32A1EB0251704750EA410C20D001F0E0
:1022D000004C31EA0C01B1FA81F204BFB0FA80F38C
:1022E000D2180B3AB2F120032CBF00FA03F191404F
:1022F00041EA0C013EBFC2F1200C20FA0CF3194355
:102300009040524240F2FD33D21A01EB0351704724
:102310000022704741EA030C50EA4C0C52EA0C0CC4
:102320004FF4001C09D307D01CEB410F9CBF1CEBE2
:10233000430F8B4208BF824270471CEB430FFBD810
:10234000994208BF9042704741EA030C50EA4C0C96
:1023500052EA0C0C4FF4001C09D307D01CEB410FC0
:102360009CBF1CEB430F994208BF904270471CEB87
:10237000410FFBD88B4208BF82427047124254D4AF
:1023800040F2FF7C1CEA11530FD0634531D09B18FB
:1023900063453CBF01EB0251704701F0004141EA47
:1023A0000C510020AFF30080704750EA410320D069
:1023B00001F0004C91EA0C011CD0B1FA81F30B3B07
:1023C0009A420DD9D21A994051EA0C01C3F1200C5E
:1023D00020FA0CFC61449840531C40F2FF7CD7E784
:1023E000914041EA0C01C2F1200C20FA0CF3194390
:1023F00090407047B0FA80F31533202BE0D3202AA9
:10240000EED3203A203B9A4209D9D21A00FA03F1BE
:1024100041EA0C010020531C40F2FF7CB8E700FAAF
:1024200002F141EA0C0100207047524240F2FF7C69
:102430001CEA11530DD06345DBD0B2EB030C3CBF5B
:10244000A1EB025170470CF1010221EA035141F462
:10245000801150EA410CCCD001F0004C352A27DC29
:1024600030B481EA0C01B2F1200309DAC2F1200391
:10247000044601FA03F5D0402843D1409C400CE0CB
:10248000C3F12002450020FA03F418BF44F0010410
:1024900021FA03F091400C43002174F1004550F102
:1024A000000051EB0C01244230BC7FF47BAF70473D
:1024B0006146002076E70000C1F30A5340F21E4255
:1024C000D31A0CDDCA0283F3070342EA505242F0EA
:1024D0000042DA4002EBE17282EAE17070476FEA93
:1024E000E17203F2E13008B182F000407047000071
:1024F00010F0004160B148BF4042B0FA80F2904015
:10250000D21CC2F5846241EA025202EBD02140059E
:102510007047000070B491EA030F4FF0004540F19E
:10252000BF806B40841A71EB030604D26E40001B1F
:10253000B141121973414FF4001C1CEB410F34BF21
:102540007CEB430683E00C0DA4EB1356362E00F310
:102550007C80012E45EAC32341DC43EA525312BF7B
:10256000D20292025B08240545EAC12141EA50519A
:10257000D2EBC020994125D407D1B0FA80F610FAE9
:1025800006F162D00020203608E0B1FA81F6B140B1
:10259000C6F1200220FA02F21143B0404FEAF4746F
:1025A000B4EB465434F001064FEA74040AD8D6F569
:1025B0000016760D04F00044F04061FA06F2504037
:1025C000F1404840C00A40EA415021F0004128BF94
:1025D0005FEA500550F1000044EBD12135E0DB0A01
:1025E00045EAC121C90AB6F120050EDD42EA0242E0
:1025F000120CC5F1200603FA06F6EB4042EA060586
:102600006D42984161F100010DE062FA06F5F24079
:10261000554063FA06FC82EA0C02F3405A406D42D0
:10262000904161EB030111F4801F05D1641E620526
:1026300002D06D004041494121F48011430875F1F9
:10264000004350F1000041EB045170BC70471CEB9B
:10265000410F15D223F0004352EA43060BD04FEA54
:102660004C0CBCEB410F04D80C0D661E342EB7DDAC
:10267000EBE7801A994150EA410608BF0021E4E7E0
:1026800008BF1CEB430F28BF6FF00001DDE700001F
:1026900070B491EA030F4FF000457FF543AF6B40F4
:1026A000841A71EB030603D2001BB1411219734166
:1026B0004FF4001C1CEB410F34BF7CEB430442E0A1
:1026C0000C0DA4EB1356352E4FDC45EAC323DB0A71
:1026D00045EAC121C912B6F120050DDD63FA05F600
:1026E000EB4086EA0305124218BF45F00105C01809
:1026F00051F100010CD213E062FA06F5F2405540A8
:10270000F3415A40B340F3405A408018594107D32F
:1027100049085FEA30005FEA350528BF45F001054A
:1027200001F58011420875F1004250F1000041EBC3
:1027300004514E0016F5001F70BC38BF70470020D2
:10274000090D090570471CEB410F10D252EA4306F0
:102750000BD0BCEB410F05D80C0DAB43661E342EDD
:10276000B6DD02E0AB438018594170BC704770BCC5
:1027700070470000F0B540F2FF7581EA030C0CF0E1
:10278000004C15EA11541DBF15EA1357AC42AF4275
:10279000E5E0BC41C1F31301C3F31303801A99416F
:1027A00043F4801304D2641E001849418018594133
:1027B000C90241EA5051B1FBF3F603FB1611A2FB2B
:1027C0000675D7EBC020A94102D2761E8018594168
:1027D000C90241EA5051B1FBF3FE03FB1E11A2FBFB
:1027E0000E75D7EBC020A94103D2AEF1010E8018BF
:1027F0005941890241EA9051760546EA8E2EB1FB95
:10280000F3F603FB1611A2FB0675D7EB8020A94156
:1028100002D2761E80185941C90241EA50514EEA4F
:10282000060EB1FBF3F603FB1611A2FB0675D7EB00
:10283000C020A94102D2761E80185941C90241EA3E
:102840005051B1FBF3F703FB1711A2FB0735D3EB94
:10285000C020A94167F100070CBF004247F0010703
:1028600066F3D5274FEA1E31B80814F5806412DDEF
:10287000BD0775F1004250EB0E5051EB045111F5BC
:10288000801F5CBF41EA0C01F0BD4CF07F6141F05C
:10289000E0410020F0BDBD076D0840EA0E5041F454
:1028A0008011D4F10104B4F120060ADAC4F1200643
:1028B0000200E04001FA06F3E1401843B24015433C
:1028C0000EE0342C13DCC6F1200445EA40056D0807
:1028D00020FA06F2154321FA06F0A1400D4300212B
:1028E00075F1004250F1000051EB0C01F0BD0020E9
:1028F0005FEA0C01F0BDCFB992185B41B3FA83F7E0
:1029000004BFB2FA82F6BF190B3FB7F120062FBF02
:1029100002FA06F3BB40C7F1200622FA06F638BFDA
:102920003343BA401CB1E419641E33E77F4231F0EF
:102930000041B1FA81F404BFB0FA80F6A4190B3C4F
:10294000B4F120062FBF00FA06F1A140C4F1200621
:1029500020FA06F638BF3143A0403C1B1AE7AC42D0
:102960001ABF05EA1357AF4212E050EA41061CBFF6
:1029700052EA4306BFE750EA4107304661461CBFB2
:1029800041EA0551F0BD52EA430C08BFC143F0BD16
:1029900000204FF4001616EB410F98BF16EB430FC3
:1029A00008BF16EB410F24BFC14305E016EB430FF0
:1029B0000CBF61464CEA0551F0BD0000400D40F2ED
:1029C0001E4C40EAC120BCEB115C40F0004003D437
:1029D0008CF30701C84070476FEAE1707047000050
:1029E00050B1B0FA80F18840C91CC1F58461090575
:1029F00001EBD021400570470146704730B540F2E9
:102A0000FF7C1CEA11541DBF1CEA13556445654543
:102A10003FE0641981EA030C6FF35F530CF0004C44
:102A200043F48013C90241F0004141EA505EC502FF
:102A30001100A5FB020200284FF00000EEFB012070
:102A40004FF00001E3FB052118BF42F001024018DE
:102A500000214941E3FB0E01A4F580640D0302D27D
:102A600092184041494154F1010470DD450872F16A
:102A7000004250F1000051EB0451A1F5801102D445
:102A800041EA0C0130BD40F2FF7E4CEA0E510020BD
:102A900030BD0CEA1355644518BF654581EA030C47
:102AA0000CF0004C41D050EA410E1CBF52EA430EDC
:102AB00002E06146002030BD24422C441BD15FEA75
:102AC000050EF6D0090302BF01460020AEF1140E38
:102AD000B1FA81F5AEEB050401FA05FE0C35C5F13E
:102AE000200100FA05F5C8404EEA000E6FF35F536F
:102AF00043F480139CE733F00043B3FA83F504BF3B
:102B0000B2FA82FE75440B3D641BB5F1200E2FBF57
:102B100002FA0EF3AB40C5F1200E22FA0EFE38BFCA
:102B200043EA0E03AA40641C7CE750EA410E14BF3E
:102B300052EA430E6FF000014FF4001515EB430FFE
:102B40008EBF194615EB410F9DE7B4D830BDD4F1C7
:102B50000104B4F120050FDAC4F12005520828BFA2
:102B600042F0010210FA05FE01FA05F57244E2BFD7
:102B7000E0402843E1400FE0352C9ADCC5F1200409
:102B800052EA400220FA05F218BF42F0010231FA7F
:102B900005F0A1400A43002172F1004250F100000B
:102BA00051EB0C0130BD000000487047D8010020F7
:102BB000D3BBD9B1B2F5803F5BD2022A1ED98C4675
:102BC000B1FBF2F102FB11C31B0443EA1043B3FB58
:102BD000F2FC02FB1C3380B240EA0343B3FBF2F089
:102BE00002FB103240EA0C4000237047022A05D94C
:102BF0008446B0FBF2F002FB10C270474AB105D127
:102C000000F0010249085FEA30007047002200230B
:102C1000704700F051B80B000200002100207047FF
:102C2000F7D3002200237047904271EB030CF2D3DC
:102C300070B5B1FA81F4B3FA83F52C1BA340C4F14B
:102C4000200532FA05F63343A2405FF00046E64025
:102C500002E05B085FEA3202841A71EB030524BFCD
:102C6000204629467641F4D302000B0030000021B3
:102C700070BD70B5B1FA81F4B2FA82F5C4F12004E6
:102C80006419B4F12006DAD3B2405FF00044F44096
:102C9000002502E052085FEA3303C61A71EB020E08
:102CA00024BF3046714664416D41F3D302000B00EE
:102CB0002000290070BD00007047000038B50400F6
:102CC00009D004F18005696809B900F01EF800F028
:102CD00021F8012801D1012032BDA06A08B100F01D
:102CE0002AF800F00AF821F02A01FFE7816000F0DD
:102CF0001BF8BDE8324000F043BB2068416821F476
:102D0000904141602068816870470020287020460B
:102D100000F018BF24216960206802685208520040
:102D20000260204600F07AB92068016841F0010194
:102D3000016020467047204600F0BFBA38B500F168
:102D400080039C68202C0DD109B1140001D1012011
:102D500032BD1C78012C05D000F006F8BDE83840E3
:102D600000F080BB022032BD01251D700023C36628
:102D70000368DFF83045A34207D05B681C0204D526
:102D800003681D6845F080651D607047816821F00B
:102D9000400181607047206881684A0670472DE9CC
:102DA000F0410446236840F60F0204F15C05DE6939
:102DB000D3F800C09F6832400CF0200006F02001DC
:102DC0000DD1002913D010B9F80040F1888069694D
:102DD000002900F020812046BDE8F0410847DFF8D7
:102DE0008427174204BFDFF880E71CEA0E0F76D075
:102DF0005FEAC67E48BF5FEACC5807D54FF0010EA8
:102E0000C3F820E02B6B43F001032B63B3070AD513
:102E1000FB0708D5D4F800800223C8F820302B6BBC
:102E200043F004032B6373070AD5FB0708D5D4F8D6
:102E300000800423C8F820302B6B43F002032B637F
:102E400033070AD5002808BF174206D02368082296
:102E50001A622A6B42F008022A63320548BF5FEA11
:102E60004C1307D526684FF4006232622A6B42F099
:102E700020022A632A6B002A30D031B108B9F80049
:102E800003D5696909B120468847286B21688A689B
:102E9000510602D410F0280F1BD0204600F047FB4B
:102EA000FFF779FF10D5FFF771FF286A60B10FF2C5
:102EB000BD610164286A00F073FF00280ED0286A03
:102EC000016CBDE8F04108472046BDE8F04101F043
:102ED0008BB8204601F088F8002028639BE0286921
:102EE000012859D1F00648BF5FEACC6154D51020C3
:102EF00018622168886841062AD5296A08684068EE
:102F000080B20028EAD02A889042E7DA6880086810
:102F100001688A0618D42068016821F48071016074
:102F2000206881684908490081602068FFF72EFF0A
:102F30002020E862002129612068026822F0100246
:102F40000260286A00F0F9FE29886888091A1DE0E5
:102F50002A8869886888511A00281CBF88B200280E
:102F600059D02068026822F4907202602268DFF86B
:102F700038039668064096602022EA6200202861A5
:102F800068612068036823F010030360204689B25B
:102F9000BDE8F04101F029B8F00209D5790207D562
:102FA0004FF4801018622046BDE8F04101F01EB8D1
:102FB00030060AD55FEA0C6101D4380205D5A9694B
:102FC00049B32046BDE8F0410847700648BF5FEAB4
:102FD0004C610CD51A68202022F040021A60A862C9
:102FE0000022AA612046BDE8F04101F071B830022C
:102FF00048BF5FEA4C0104D52046BDE8F04101F02E
:103000007DB8F00148BFBCF1000F04D52046BDE8F3
:10301000F04101F074B8BDE8F0810000F8B5044655
:103020002268DFF8E80700251368A168DFF8E0E709
:10303000034020690B4361690343E0690B43DFF8F8
:10304000D477034313605168E06821F44051014391
:10305000516094498A42A3691CBF206A0343966861
:10306000DFF8B407064033439360D36A606A0FF217
:10307000D0761B0940EA0313DFF8A0077245D3623C
:103080004FF400433BD13F6807F00307032F44D8B8
:10309000DFE807F00289789D4FF0010CE1694FF6F7
:1030A000F077B1F5004F40F0C880BCF1000F0FD0B1
:1030B000BCF1010F00F0B980BCF1020F0CD0BCF1E3
:1030C000040F00F0B580BCF1080F00F0B480DDE023
:1030D00001F0F0FB002811D000F0E8F84A0802EBFC
:1030E0004002B2FBF1F080B2A0F11001B942EED281
:1030F0000740C0F3420007432068C760C7E0DFF81D
:1031000020C762452FD13F6817F00C0771D0042FFC
:1031100049D0082F36D00C2F59D04FF0100C8A42CE
:10312000BCD1BCF1000F0CD0BCF1010F63D0BCF1DD
:10313000020F0AD0BCF1040F60D0BCF1080F60D0C0
:10314000A4E001F0B7FB0028D8D0616A36F811205E
:10315000B0FBF2F6626802EB42018E4202D3130327
:10316000B34250D292E0DFF8BCC662450DD13F6851
:1031700017F030073DD0102F15D0202F02D0302F60
:1031800025D0CAE74FF0020CC9E7DFF89CC66245BC
:103190000CD13F6817F0C0072BD0402F03D0802FF1
:1031A000F0D0C02FECE74FF0040CB8E7DFF87CC696
:1031B00062450FD13F6817F440771AD0B7F5807F8A
:1031C000F1D0B7F5007FDDD0B7F5407FA5D14FF046
:1031D000080CA4E78A42A0D13F6817F4406708D0E2
:1031E000B7F5806FDFD0B7F5006FCBD0B7F5406F84
:1031F000C6E7AC4693E701F067FBA4E701F006FBE6
:10320000A1E71846A1E75008002110EB0620DFF8DF
:10321000207651EB16610023FFF7CAFCA0F540763B
:10322000BE4233D22168C86031E001F04DFB51E766
:1032300001F0ECFA4EE718464EE7BCF1000F0CD057
:10324000BCF1010F1AD0BCF1020F09D0BCF1040F80
:1032500017D0BCF1080F17D018E001F02BFBB0B16C
:1032600000F024F800EB5100B0FBF1F080B2A0F1C7
:103270001001B9420AD22268D06008E001F024FBB4
:10328000EDE701F0C3FAEAE71846E9E7012504F1A2
:10329000680001210023418001808360C3602846CB
:1032A000F2BD000000800040FEFFFFEF626A61682F
:1032B00036F81230B0FBF3F0704790F82810CA07C8
:1032C00006D502685368C16A23F400330B43536088
:1032D00090F828108A0706D502685368016B23F41A
:1032E00080330B43536090F828104A0706D50268D4
:1032F0005368416B23F480230B43536090F82810EC
:103300000A0706D502685368816B23F400430B4318
:10331000536090F82810CA0606D502689368C16BFE
:1033200023F480530B43936090F828108A0606D547
:1033300002689368016C23F400530B43936090F888
:1033400028104A0610D502685368416C23F4801394
:103350000B435360436CB3F5801F05D15368816CF8
:1033600023F4C0030B43536090F828100A0606D5D7
:1033700001684A68C06C22F4002202434A60704728
:10338000F8B5044604F180050020E86001F006FB72
:10339000064620686FF07E4701680A0708D5009747
:1033A000334600224FF40011204600F017F860B9B0
:1033B000206801684A070AD50097334600224FF477
:1033C0008001204600F00AF808B10320F2BD202059
:1033D0006860A8600020E0662870F2BD2DE9F04129
:1033E00005460E4690461F46069C2868C169314036
:1033F000B1420CBF01200020404522D114F1010F41
:10340000F3D001F0CBFAC01B844200D33CB928684A
:1034100000F019F8002101700320BDE8F081286850
:1034200001684A07E1D5C1690805DED52A684FF46D
:10343000006111622868002200F005F8C160027086
:10344000EAE70020E9E7016821F4D071016028680B
:10345000816849084900816005F1800020214160B0
:103460008160704730B5816500F15C031A805A8035
:10347000002159618168FF24B1F5805F04D10169A1
:1034800091B940F2FF140FE019B9016961B17F21D0
:1034900007E0B1F1805F06D1016909B97F2403E03B
:1034A0003F21998001E000249C8000F180040021EC
:1034B000E1602225A56001688D6845F001058D60F9
:1034C0009968B1F1005F1CD199898A4219D3826849
:1034D000B2F5805F04BF0169002907BF0FF2E51252
:1034E0005A610FF2451159610022227001680B6880
:1034F00043F480730B600068816841F08051816003
:1035000013E08168B1F5805F04BF0169002907BF3E
:103510000FF291025A610FF2650159610022227087
:103520000068016841F490710160002030BD0168BD
:103530000A6822F490720A600268DFF8F812936851
:103540000B409360C26E012A04D101680A6822F020
:1035500010020A602021C0F888100022C2660267AB
:10356000704700000100001020010004806A002262
:1035700000F156010A810A8000F036BD10B500F056
:1035800025F80AD14A6AA188836D0A401A70816DB4
:103590004A1C00F021F821B924E0886940F00800B5
:1035A000886110BD10B500F011F80AD14A6AA188EF
:1035B000836D0A401A80816D8A1C00F00DF821B9D4
:1035C00010E0886940F00800886110BD00F15C04DB
:1035D0000168E26A222A7047826561884A1E628019
:1035E0006188704701680A6822F490720A60016875
:1035F0008A68520852008A602021E16200226261DA
:103600002169012905D100F009F8218800F0EDFCBD
:1036100001E000F042FD0020206110BD01680A6851
:1036200022F010020A6070472DE9F84300F0CFF84D
:103630003FD1A88980B9688800283CD0A9898842F0
:1036400039DA00F0B5F87C4800F0ABF833E02046FA
:1036500000F023FD00202861B806ECD500F084F8C6
:103660000870A06D421C00F076F819D0F90748BF29
:103670005FEAC85201D500F07DF8B80703D5F1071D
:1036800001D500F086F8780703D5F10701D500F0E1
:1036900078F8286B20B1204600F0A6FC00202863B3
:1036A00068880028D8D100F09FF8D0D100F086F8C3
:1036B000D0E700F002F8BDE8F183816941F008012C
:1036C000816170472DE9F84300F081F83FD1A88966
:1036D00080B9688800283CD0A989884239DA00F08E
:1036E00067F8564800F05DF833E0204600F0D5FC5E
:1036F00000202861B806ECD500F036F80880A06DEF
:10370000821C00F028F819D0F90748BF5FEAC852B8
:1037100001D500F02FF8B80703D5F10701D500F067
:1037200038F8780703D5F10701D500F02AF8286B9F
:1037300020B1204600F058FC00202863688800284B
:10374000D8D100F051F8D0D100F038F8D0E7FFF729
:10375000B4FFBDE8F183A2656888411E69802068D6
:10376000C76917F0070F70472168486AA16D09EA19
:103770000000704701210162286B40F001002863BE
:103780007047226804201062286B40F00200286312
:103790007047226802201062286B40F00400286302
:1037A000704768612068016841F02001016070473E
:1037B0002068816821F0805181607047206801682D
:1037C00021F0100101602988204600F00EBC04465B
:1037D000206804F15C05B5F80490C769D0F8008052
:1037E0008668E96A222970472068124A016821F434
:1037F0008071016020688168114081602020E8624A
:10380000002169612869012870470000F369FFCF32
:103810000038014088100240FFF4FF110024F4003A
:103820000044004000480040004C00400050004070
:1038300000FD0F00FEFFFFEF7D350008A5350008F5
:10384000010002000400060008000A000C0010003D
:10385000200040008000000180B5DFF8540381683B
:1038600041F001018160816801F0010100F032F94D
:10387000072142F0805202600068002200F0805070
:10388000009000986FF0010001F0A8F8BDE8014039
:1038900001F037B930B5ABB00446142200216846B8
:1038A00001F04EF900F0B5F82068DFF808138842FF
:1038B0006ED14FF480424FF040510692269106A8F7
:1038C00001F048F908B101F0BEFEDFF8EC02016832
:1038D000DFF8E85241F400510160026802F400523E
:1038E00005920599026842F004020260036803F041
:1038F000040305930599026842F00102026003681F
:1039000003F001030593059902680C2142F00202BD
:1039100002600068032200F0020005900598009103
:103920000021029101926946DFF8940201F08EFEB7
:103930000C2000F02FF8DFF88C0201F087FE012048
:1039400000F028F8DFF8800201F080FEDFF87C024A
:103950002860052169604FF4007080216861296149
:10396000202000224FF40061E861AA60EA60A961AA
:103970002A62284600F03AF908B101F064FE1021ED
:10398000284600F0C5FA08B101F05DFE2565AC627D
:103990002BB030BD032100900191002202926946B4
:1039A000704718B5ABB000F0C7F800F032F82068E7
:1039B000874988422BD14FF000724FF080710692F8
:1039C000209106A801F0C6F808B101F03CFE7A4843
:1039D000016941F400710161016901F4007100F0B5
:1039E00079F8032100F01AF8092100F0DAF8002232
:1039F0000521272000F0F2FF272001F00DF800221A
:103A00000521282000F0EAFF282001F005F82CB05D
:103A100010BD9422002106A801F092B842F00802DD
:103A200002600068022200F00800009000980191F6
:103A3000002103910491704718B5A5B00446942263
:103A40000021684601F07CF82168624A914219D150
:103A50004FF400334FF4807100932491684601F0D5
:103A600079F808B101F0EFFD5148816B41F4004154
:103A70008163026842F480620260006800F4806042
:103A80000090009826B010BD10B586B000F054F834
:103A90002168514881421BD14748C16841F4004127
:103AA000C160C16801F4004100F014F84FF4A05166
:103AB00042F0040202600068022200F00400FFF7F6
:103AC000B4FF06210591029201A93D4801F0BEFD17
:103AD00006B010BD009100990268704781B000687F
:103AE0003E49884209D13248026842F0020202602F
:103AF000006800F002000090009801B0704710B517
:103B000086B000F019F821683448814212D12A4861
:103B10000168022241F0100101600068782100F084
:103B20001000FFF782FF02210591029201A92C48A3
:103B300001F08CFD06B010BD04461422002101A83E
:103B400000F0FEBF18B5ABB0FFF7F6FFFFF761FF5F
:103B500020682449884222D104220021069215912E
:103B600006A800F0F7FF08B101F06DFD1248C1682A
:103B700041F48021C160C16801F48021FFF7AAFFF0
:103B80004FF44071FFF74AFF072100F00AF80022C6
:103B900005213F2000F022FF3F2000F03DFF2CB028
:103BA00010BD0591029201A90F4801F04FBD000020
:103BB00058100240008002424C100240B8370020EA
:103BC00000080242000002420004024208000240D3
:103BD00000A4004000280040003C004000040040D9
:103BE0000010024200480040000C024238B50400B8
:103BF00001D1012032BD2168DFF8C42304F124057E
:103C000000F044F80221697020680268A068E16849
:103C10006FF31012024320690A4361690243A069ED
:103C20000A43E1690243206A23680A4302431A6097
:103C3000204600F099F9A068B0F5804F04BF00213C
:103C400061602079E96A00F014F838B1052805D2DE
:103C5000204600F0A6F900F012F803E00020A86367
:103C6000E86328640021296201206870297000201F
:103C700032BD0860686B296B486060687047A96B4B
:103C800000200860286CE96B48607047914209D2B7
:103C9000DFF8300341181423B1FBF3F1DFF82823D8
:103CA0006A6208E0DFF8240341181422B1FBF2F144
:103CB000DFF81C0368628900A9627047F8B5044602
:103CC00004F1240630780025012801D10220F2BD3C
:103CD000012030707778012F2BD10220707035626F
:103CE000206807687F087F000760204600F020F901
:103CF000F068216820B10A6842F00E020A6008E00C
:103D0000086820F0040008602068016841F00A019A
:103D10000160F06A0168CA0301D500F077F8B06B62
:103D200008B100F073F82068016841F001010160FA
:103D300001E0357002252846F2BD00F124014A78E1
:103D4000022A05D00420086200220A700120704770
:103D50000268136823F00E031360CA6A136823F421
:103D6000807313600068026852085200026091F884
:103D700028204B6A012002F01C0290405860486BDA
:103D80000A6B5060886B30B1026822F48072026066
:103D90000A6CC86B426001224A70002008707047AC
:103DA00000F1240238B551780024022903D0042000
:103DB0001062012428E001680B6823F00E030B60F9
:103DC00001680D686D086D000D60D16A0B6823F401
:103DD00080730B6092F82830556A012103F01C03B0
:103DE00099406960516B136B5960916B31B10B68ED
:103DF00023F480730B60136CD16B4B600123537001
:103E0000D169147001B18847204632BD016841F480
:103E1000807101607047F8B500F124014A6A0423FB
:103E200014680268156891F8286006F01C0603FA09
:103E300006F73C4220D05FEA457C1DD51468250476
:103E40000BD54A6A576003681C68E2030ED54969BE
:103E5000002953D0BDE8F44008471468A50603D4F0
:103E6000146824F00404146000F049F8C9680029BB
:103E700044D0BDE8F4400847022303FA06F73C4269
:103E80001FD0AF071DD51468250408D51268D303C9
:103E900012D40969002931D0BDE8F44008471468FC
:103EA000A50605D4146824F00A04146001224A709F
:103EB00000F025F800220A708968F9B1BDE8F440E5
:103EC0000847082303FA06F6344217D02B0715D506
:103ED000146824F00E04146091F828304C6A012212
:103EE00003F01C039A40626001220A624A700022B9
:103EF0000A70896911B1BDE8F4400847F1BD91F835
:103F000028204C6A02F01C02934063607047000056
:103F100008B9012070470068CB06026805D5C902C0
:103F20004CBF42F4801222F48012026000207047DD
:103F300070B5846D456D6C60C46D14B1446E056ED2
:103F40006C6090F84C50866C012405F01C05AC4068
:103F50007460046863608068102802D1A260E16028
:103F600070BDA160E26070BD10B5C16C0268144BF9
:103F700089089A4202F0FF0239BF164C04EB810116
:103F8000154B03EB81010165083A1421B2FBF1F1F5
:103F90000123124A01F01F0103FA01F14265816514
:103FA00010BD01790E4A0F4B02EB8102C265491E1A
:103FB000012201F003018A40036642667047000057
:103FC00008040240F8FFFDBF00000240F8FBFDBFFF
:103FD000000402400008024020080240800802401D
:103FE000FC080240400902407047704770470000DB
:103FF0004FF0FF320021002001F0A6BC30B585B0A3
:10400000040025D0A178052922DC208800B30329EB
:104010000CBF2B4800206060D0B12A4D303169714F
:10402000AD6005F108022146274801F034FCA27872
:1040300038B100BF27A1684601F072FD00F00BF80F
:1040400007E000BF27A1684601F06AFD00F003F811
:10405000012005B030BDA8686A46002101F082BD8C
:104060002DE9F8430546894602270024DFF85080F1
:10407000164E706850B97560A6F800904A4606F171
:104080000801404600270224FEF758FE641CE4B2F3
:10409000002CEED03846BDE8F28310B50B4C6068BA
:1040A00058B104F1080101F06CFD228804F1080107
:1040B0000348BDE81040FEF741BE10BD00000000FF
:1040C00010330020AC010020F13F0008F038002040
:1040D00070470000435245415445442055415254D5
:1040E000202564004641494C2043524541544544F3
:1040F000205541525420256400000000704770474D
:104100002DE9F843050075D0DFF8D467B468F0688E
:10411000DFF8507804F00C0400F003082878C1069A
:1041200049D524B10C2C08BFB8F1010F29D1306852
:10413000810702D5E86900285CD031680807686A01
:104140004EBF31687968090901F0F001814206D259
:1041500000F0C8FB002809D100F069FA08E000F07F
:1041600066FA2CB9686A00F0BDFB002840F0568260
:1041700000F097FB00F045FB01F020FD01001AD094
:104180004FE2E86900284FD0316841F00101316009
:1041900000F004FC8146306881070AD400F0FEFB81
:1041A000A0EB09000328F6D330688107F3D403207D
:1041B00037E200F03CFA2878C1070CD5082C04D06F
:1041C0000C2C08BFB8F1030F42D13068810302D52F
:1041D000686800280ED02978880714D5042C04D0EC
:1041E0000C2C08BFB8F1020F6FD13068410503D520
:1041F000E868002800F012827068296920F0FE400B
:1042000040EA016070602878010740F1AE8068697B
:10421000002800F09780A869002878680CBF20F07B
:10422000100040F0100079E0306840084000306035
:1042300000F0B4FB814630688107BCD500F0AEFBCE
:10424000A0EB09000328F6D330688107F3D5AEE769
:104250006868B0F5803F04D1306840F48030306049
:1042600011E0B0F5A02F306806D140F48020306016
:10427000316841F4803105E020F4803030603168ED
:1042800021F480213160686878B100F087FB8146B5
:10429000306881039FD400F081FBA0EB0900652802
:1042A000F6D330688103F3D481E700F077FB8146D1
:1042B000306881038FD500F071FBA0EB0900652801
:1042C000F6D330688103F3D571E7E86890B13168BF
:1042D00041F48071316000F061FB044630684105B3
:1042E0008AD400F05BFB001B0328F7D3306841053C
:1042F000F4D45CE7306820F48070306000F04EFB4E
:104300000446306841057FF57EAF00F047FB001B97
:104310000328F6D330684105F3D548E7786078681C
:1043200040F00100786000F039FB044678688107AE
:104330001BD400F033FB001B0828F7D378688107F3
:10434000F4D434E7786840084000786000F026FB39
:1043500004467868810708D500F020FB001B082878
:10436000F7D378688107F4D521E72878410740F131
:104370009380B06D0024C10009D4B06D012440F0D9
:104380008050B065B06D00F0805000900098DFF86C
:10439000D885D8F80000C10517D4D8F8000040F43B
:1043A0008070C8F8000000F0F9FA8146D8F80000E3
:1043B000C1050AD400F0F2FAA0EB09000328F5D3F6
:1043C000D8F80000C105F1D4F1E6A868C1070DD501
:1043D0004007396807D541F004013960386840F07A
:1043E000010038600AE041F0010106E03868400849
:1043F00040003860396821F004013960A86841F252
:10440000893880B300F0CAFA81463868810708D439
:1044100000F0C4FA00F007F9F7D338688107F4D444
:10442000C5E6287A010638680ED540F0800038606D
:10443000396808052BD400F0B1FA00F0F4F8F7D38E
:1044400038680105F4D4B2E620F08000386039689D
:1044500008051CD500F0A2FA00F0E5F8F7D338689B
:104460000105F4D5A3E600F099FA81463868810782
:1044700008D500F093FA00F0D6F8F7D33868810732
:10448000F4D594E63868010648BF3868DCD41CB11E
:10449000B06D20F08050B0652878810627D5A86AD5
:1044A0000028B86811D040F00100B86000F076FA3A
:1044B0000446B86881071AD400F070FA001B03287C
:1044C000F7D3B8688107F4D471E640084000B860BB
:1044D00000F064FA0446B868810708D500F05EFA77
:1044E000001B0328F7D3B8688107F4D55FE6E86AB4
:1044F000002800F09580B16801F00C010C2962D011
:104500000228306820F08070306040D100F046FA18
:1045100004463068810108D500F040FA001B0328EA
:10452000F7D330688101F4D541E6F0682A6BDFF8F3
:104530003C140840696B10432A6C491E40EA011084
:10454000A96B5208521E40EA0120696C40EA4250B1
:104550004908491E40EA4160E96B40EAC160F060E9
:10456000306840F080703060F16841F08071F16037
:1045700000F014FA04463068810151D400F00EFABC
:10458000001B0328F7D330688101F4D40FE63168AB
:1045900011F0205F03D1F06880088000F060F168BE
:1045A000DFF8CC030140F16000F0F8F90446306810
:1045B000810135D500F0F2F9001B0328F7D33068EC
:1045C0008101F4D5F3E5012828D0F0682A6B00F0CA
:1045D0000301914201BF00F0F0016A6B521EB1EB82
:1045E000021F1BD1AA6B00F4FE41B1EB022F02BFE8
:1045F00000F07841EA6BB1EBC26F0FD12A6C00F486
:10460000C0015208521EB1EB425F07D1696C00F045
:10461000C0604908491EB0EB416F01D0012000E0A5
:104620000020BDE8F283A0EB0900404570473068E8
:1046300040F0080030603168686A21F0F001014301
:1046400031607168286A21F47F4141EA002171607C
:1046500070472DE9F84304460026002C62D0DFF8AD
:1046600014733868884600F00F00404502D200F00D
:10467000B7F857D12168DFF86852C80779D5606864
:10468000DFF8F492032843D1286882014AD5EA680A
:10469000002002F00302012A0FD12868020705D486
:1046A000DFF8D8020268C2F3032002E02868C0F3F2
:1046B0000310DFF8CC2252F82000EB68EA68C2F35E
:1046C0000312521C03F00303022B04D0032B07D167
:1046D000DFF8B00204E0DFF8B032B3FBF2F201E041
:1046E000B0FBF2F2E868C0F306204243E868C0F38A
:1046F0004160401C4000B2FBF0F0484520D3AA685E
:1047000012F0F00F15D089071AD5A068C0B910E0D3
:10471000022802D12868810303E00028286802D11A
:10472000810702D43DE041053BD500F06FF84845D4
:1047300006D3A868802620F0F00040F08000A86032
:10474000A9686068890840EA8101A96000F026F93B
:10475000814600F04FF80CD000F020F9A0EB0900E2
:1047600041F289318842F4D300F044F8F1D00320BB
:1047700034E02078810706D5AA68A06822F0F0020C
:104780000243AA6005E0802E03D1A86820F0F00063
:10479000A860386800F00F00804504D200F020F8CF
:1047A00001D001201AE02078410705D5AA68E06809
:1047B00022F4E0620243AA602178080706D5A968BE
:1047C000206921F4605141EAC001A96000F069F854
:1047D00000F017F8BDE8F24301F0F0B9BDE8F2834C
:1047E0003968090948EA01113960386800F00F009A
:1047F00040457047A868616800F00C00B0EB810F7D
:1048000070475649086056480068704710B5344AEA
:104810009068D4680023002110F00C0004F0030419
:1048200003D00C2812D1012C1AD113681C0704D410
:10483000524B1C68C4F3032302E01368C3F3031351
:104840004F4C54F8233048B9194628E0042808BFD3
:104850004D4924D0082822D14A4920E00C281ED1F5
:10486000D168D068C0F30310401C01F00301022995
:1048700002D0032902D005E0434900E04149B1FBE1
:10488000F0F101E0B3FBF0F1D068C0F30620414342
:10489000D068C0F34160401C4000B1FBF0F1084615
:1048A00010BD80B5FFF7B2FF384A13683849C3F32B
:1048B000031206E080B5FFF7F4FF00F00DF8C3F334
:1048C0000222895CC84002BD80B5FFF7EAFF00F014
:1048D00003F8C3F3C222F4E72C4A13682D4970474A
:1048E000001002407CB505462B4E30680024C10004
:1048F00002D500F0CDF80EE0306840F08050306016
:10490000316801F080510091009800F0C1F83168E1
:1049100021F080513160002818BFB0F5007F04D12C
:10492000802D0CD9A12D09D304E0802D88BF03244C
:1049300005D801D1022402E0702D00D101240D48D8
:104940000168090944EA01110160006800F00F00E4
:10495000A04201D0012076BD002076BDA801002034
:104960002401002090100240007000400C809F0144
:10497000FFFFEEFE0020024001B4C4049410024088
:104980006C9C000800127A000024F4000810024019
:1049900058860008449E00085810024001484068AC
:1049A000704700BF1C0100204901020002D43148B9
:1049B00081547047304B02F00F021A4402F8041C75
:1049C00070472E4B19684FF6FF020002114000F4A9
:1049D000E06008432A4908431860704770B5274BC8
:1049E0001C68C4F302230124C3F10705042D2EBF64
:1049F000072504FA05F56D1EDE1C072E34BF0023C3
:104A00001B1F2940994004FA03F35B1E1A4011430F
:104A1000BDE87040C8E70000010007D4012200F0A3
:104A20001F018A40174B400943F8202070470100BE
:104A30000BD4012200F01F018A40134B400943F8B8
:104A40002020BFF34F8FBFF36F8F7047401E10B50C
:104A5000B0F1807F01D3012010BD0C4C60600721B4
:104A60004FF0FF30FFF7A0FF0021A160072020607A
:104A7000002010BD00E400E018ED00E00CED00E0C7
:104A80000000FA0500E100E080E100E010E000E055
:104A9000DFF89800006800F4C060704770B5DFF878
:104AA0008C402668054600F032F806F4C066B0F582
:104AB000004F02D0E068010401D5012070BDAE4274
:104AC0001DD02068DFF86810DFF8683020F4C0607F
:104AD000054325600A6832200A21B2FBF3F3434301
:104AE000B3FBF1F0401C00E0401E61694A0501D5AE
:104AF0000028F9D16069410501D5032070BD00206F
:104B000070BD0D48016841F48041016070470B4859
:104B10000068C10402D54FF480507047000402D4ED
:104B20004FF40040704700207047000000700040C4
:104B3000A8010020A086010008700040107000400D
:104B400010B5044610460A4601462046FCF76EFBA7
:104B5000204610BD2DE9F84F054628680024A046E0
:104B6000DFF8E463DFF8E47301051FD5E86E68B190
:104B7000202816D0402804D0602818BF802808D0EC
:104B800012E03A6842F480323A6003E000F0D7F96C
:104B9000044654B9F168E86E21F0E0010143F16088
:104BA00004E000F0C7F9F3E70124A0462868C10437
:104BB00023D5286FC0B1B0F5807F19D0B0F5007F44
:104BC00006D0B0F5407F18BFB0F5806F04D012E07A
:104BD000396841F48031396074B9F168286F21F483
:104BE000E0610143F16008E000F0A9F90446F3E751
:104BF00000F0A0F9FAE70124A0462868810331D526
:104C0000F86C4FF00009C1000AD4F86C4FF00109AC
:104C100040F08050F864F86C00F0805000900098EC
:104C2000DFF82C030168DFF828A341F480710160EC
:104C3000FFF7B4FE8346DAF80000C1057AD4FFF727
:104C4000ADFEA0EB0B000328F5D3DAF80000C10598
:104C500070D40324A046B9F1000F03D0F86C20F003
:104C60008050F8642878C10705D5FA6F686B920800
:104C700040EA8202FA672978880705D5F96FA86BA0
:104C800021F00C010143F9672978480705D5F96F30
:104C9000E86B21F030010143F9672978080705D551
:104CA000F96F286C21F0C0010143F9672978C80623
:104CB00005D5F96F686C21F440710143F9672978D3
:104CC000880605D5F96FA86C21F440610143F967A6
:104CD0002968880505D5F96FE86D21F44021014365
:104CE000F9672968480505D5F96F286E21F4401148
:104CF0000143F9672968480205D5F96F686E21F408
:104D000040010143F967296888014FD5A96E41B177
:104D1000B1F1807F03D0B1F1007F41D044E000F0D9
:104D200004F9002C41D1F96FA86E21F040710143C4
:104D3000F9673BE0002C8DD1306810F440701EBF45
:104D400005F18401CA6890420BD03068316841F4A3
:104D500080313160326820F4407022F48032326059
:104D60003060C00713D5FFF719FE8246306881070F
:104D70000DD4FFF713FEA0EB0A0041F289318842FF
:104D8000F4D33068810758BF03247FF563AF3168DF
:104D900005F18402D06821F44071014331605AE783
:104DA00000F0CDF80446BCE70124A0462978480667
:104DB00005D5F96FE86C21F440510143F967297872
:104DC000080605D5F96F286D21F440410143F967C4
:104DD0002968C80505D5F96F686D21F44031014394
:104DE000F9672968C80205D5F168A86D890840EA05
:104DF0008101F1602968880415D5F96F686F21F089
:104E000040610143F967686FB0F1006F02D100F0B3
:104E10008CF808E0B0F1806F05D1012100F090F826
:104E2000010018BF80462868010329D5A86FB0F596
:104E3000804F03D1F06840F4804007E0F96F21F023
:104E400040610843F867F06820F48040F060A86F84
:104E5000B0F1806F06D1012100F072F801000FD08F
:104E600080460DE0B0F1006F03D1386840F4801047
:104E700005E0B0F5804F03D1386840F480303860E9
:104E80002968480315D5F96FE86F21F040610143A7
:104E9000F967E86FB0F1006F02D100F046F808E062
:104EA000B0F1806F05D1012100F04AF8010018BF70
:104EB00080462868410411D5FA6FD5F8800022F0A9
:104EC00040520243FA67D5F88010B1F1805F05D1F6
:104ED000022100F035F8010018BF80462868C103A0
:104EE00006D5F268D5F8840022F004020243F2608D
:104EF000286805F18401820205D5F368486823F02B
:104F000018030343F3602A68D0010BD5F268886860
:104F100022F440120243F2608968B1F5001F01D10A
:104F200000F003F84046BDE8F28F386840F4801086
:104F300038607047002105F1200000F079B80021A9
:104F4000281D00F007B80000901002400C1002402D
:104F5000007000402DE9F04100F0BEF804D030D3DD
:104F600003282AD025D32CE03168880729D5316859
:104F700021F080613160FFF711FD8046306801014A
:104F800008D5FFF70BFDA0EB08000328F6D3306827
:104F9000010144D47968BA683B68491E9CB93469F8
:104FA000DFF84801044044EA0222F86842EAC0629D
:104FB0001FE030684105DAD403E0306810F4C02FF8
:104FC000D5D1012531E0012C346909D1484804408C
:104FD000386944EA02224008401E42EA405208E092
:104FE00044480440786944EA02224008401E42EAEC
:104FF000406242EA011119433161306840F080603B
:105000003060FFF7CBFC04463068010109D4FFF79C
:10501000C5FC001B0328F7D33068010101D4032528
:1050200003E03169B869014331612846BDE8F08188
:105030002DE9F04100F050F804D046D3032840D0C9
:105040003BD342E0316888073FD5316821F0805179
:105050003160FFF7A3FC80463068810008D5FFF778
:105060009DFCA0EB08000328F6D33068810022D411
:105070007CB97169BA681D48014041EA0221F868AB
:105080007A6841EAC0613868521E41EA0211014360
:105090007161316841F080513160FFF77FFC044657
:1050A0003068810013D4FFF779FC001B0328F7D385
:1050B000306881000BD403250DE030684105C4D46D
:1050C00003E0306810F4C02FBFD1012503E07169FF
:1050D000386901437161A8E70746386800250C4626
:1050E000014E012870470000001002400C80FF07AD
:1050F0000C809FFF0C80FFF92DE9F0478EB000F087
:105100007FFD00F00EFA00F053FA00F04CFADFF8E1
:10511000DC040168DFF8D864DFF8D84441F01001FE
:1051200001600268DFF8D0744FF4007502F01002DD
:1051300005920599026842F004020260036803F0D8
:10514000040305930599026842F0010202600368B6
:1051500003F0010305930599026842F00202026020
:10516000036803F00203059305990268802142F069
:10517000080202600068002200F00800059005980F
:10518000304600F02EFB00224FF40071204600F064
:1051900028FB0022A021384600F023FB002220201B
:1051A00000F0A7F9012200F0AAF94FF48040DFF8DF
:1051B0004C1400900191002202926946384600F09A
:1051C00045FA802100F0A5F9304600F03FFA00953D
:1051D0000121019100220292039200F091F9002234
:1051E0004FF4006000F085F90A2200F088F9A02150
:1051F00000F08FF9384600F029FA0C22002106A8A9
:10520000FFF79EFC182200F0CFF94FF40021DFF8E1
:10521000F043DFF8F0036160206001212161082084
:10522000606105210120E1610022607604F130080F
:1052300001214FF4805AA260E260227684F8202097
:10524000A262E26288F80010C8F804A088F808207A
:10525000204600F010FD08B100F0F5F9002006909E
:1052600006A9204601F022F908B100F0ECF9DFF8B8
:105270009813009106220192052102917F22039248
:1052800004210491002205926946204600F03CFE6C
:1052900008B100F0D8F9DFF8741300910C2200F087
:1052A00033F908B100F0CFF9D9490091122200F08A
:1052B0002BF908B100F0C7F9D6490091182200F087
:1052C00023F908B100F0BFF9D34900914FF480727F
:1052D00000F01AF908B100F0B6F9182200F064F9EC
:1052E00004F5E076CD483060FF20F0604FF080405C
:1052F00000217F22F0617160B26031617161B16142
:105300003162304601F034F908B100F09CF9002117
:1053100000910391049105916946304601F0CEF960
:1053200008B100F090F94FF4827104F17807B96583
:10533000BB484FF440717865396600200021F8655C
:105340007866B966FD66082038677967B967F967D6
:1053500004F1F8050720286069600822AA6004F1BA
:10536000CC0001F0C5F908B100F06DF900F020F9AA
:10537000102200210AA8FFF7E3FB0C2200F014F929
:105380001C22002103A8FFF7DBFBA648B062002126
:10539000F1620020306342F6F821B063306404F516
:1053A000F4797163484601F013FA08B100F04BF943
:1053B000CDF828A00AA9484601F062FB08B100F028
:1053C00042F9484601F026FA08B100F03CF9002104
:1053D000009102916946484601F09AFD08B100F03B
:1053E00032F96021039141F27C520492002105912F
:1053F0000022079200F079F808B100F024F90422A5
:1054000000F073F808B100F01EF9082200F06DF802
:1054100008B100F018F90C2200F067F808B100F0AC
:1054200012F94846FEF76BFB7F48C8F838000021A8
:10543000C8F83C10C8F84010C8F844103980B9705A
:10544000022078603721B9602820F8600E21396188
:10545000052078611021B9610B200022F861042138
:1054600039627A62BA62FA6204F1680001F09AFD68
:1054700008B100F0E8F86D48A8634FF4E131E96342
:10548000002028646864A8640C21E96428656865C4
:10549000A865E865286604F598742046FDF70EFCBB
:1054A00008B100F0D0F80021204602F045F808B11C
:1054B00000F0C9F80021204602F049F808B100F0D8
:1054C000C2F8204602F01AF808B100F0BCF800F06B
:1054D000B6F9574A00210FF2651000F0DCF9706749
:1054E00002F088F800F0BCF9FEE703A9484601F095
:1054F00040BA0221029203920090019170470492F7
:105500006946204600F0A2B801926946204600F0A4
:10551000FBBC009100210122029103910192694696
:10552000704700B597B04822002105A8FFF708FB97
:1055300000F039F80020FFF7B1FA08B100F083F865
:1055400002F08CF83B4801684FF4807221F018019A
:105550000160812107910892402102220991109255
:1055600011920422372106201292139105900722EE
:10557000022114921591169105A8FEF7C1FD08B1FC
:1055800072B6FEE70F2003210090019100220292E3
:105590000392049205216846FFF75BF808B172B6E2
:1055A000FEE717B000BD142200216846FFF7C8BA15
:1055B00080B52148016841F004010160026802F0F1
:1055C0000402009200990268052142F00102026083
:1055D0000068002200F00100009000981D20FFF7F5
:1055E000FDF91D20BDE80240FFF716BA4C1002403D
:1055F00000080242000002420004024200001110B2
:10560000E031002000800242000180218000501D16
:105610001000C0100080F03E000052C7002800407B
:10562000003C00400004004000A40040004800404E
:105630003C9D0008901002404810024080B50120B7
:1056400000F0CBF9FBE772B6FEE700002DE9F04F62
:105650004FF0000C694A6A4BDFF8A8814FF00F0940
:1056600006460F4634E0684DAE4214BF07250625B6
:1056700005FA0EF5254348F821501C68C14301EA9C
:10568000040E7C68E50348BF40EA0E0EC3F800E054
:105690005C6801EA040E7C68A50348BF40EA0E0E70
:1056A000C3F804E0146801EA040E7C68E50248BF10
:1056B00040EA0E0EC2F800E0546801EA040E796870
:1056C0008C0248BF40EA0E0EC2F804E00CF1010C57
:1056D000396831FA0CF000F08280012404FA0CF4ED
:1056E00014EA0100F2D04FEA4C0103258D406FEA25
:1056F000050E7D68012D18BF022D03D0112D18BF96
:10570000122D13D1B568D7F80CA00EEA05050AFAD8
:1057100001FA4AEA0505B560756825EA04047D6862
:10572000C5F3001505FA0CF52C437460F468BD68E8
:105730000EEA04048D402C43F4607C68022C18BFF0
:10574000122C14D14FEADC0406EB8404D4F820A018
:105750004FEA8C0505F01C0509FA05FB2AEA0B0A3D
:10576000D7F810B00BFA05F545EA0A05256234684A
:105770000EEA04053C7904F0030404FA01F129431C
:1057800031607968C900A1D54FEA9C0158F82150D1
:105790004FEACC0404F0180E09FA0EF425EA0404CA
:1057A0001A4DAE4208BF002518D0194DAE4208BFB1
:1057B000012513D0174DAE4208BF02250ED0164D5D
:1057C000AE4208BF032509D0144DAE4208BF0425E0
:1057D00004D0134DAE427FF446AF052548E7BDE83F
:1057E000F08F0AB18161704781627047426901EAB6
:1057F0000203914341EA03418161704700F4024092
:1058000080F4024060F402400018024200000242AC
:105810000004024200080242000C02420010024250
:105820000014024280B5DFF8DC01016802F042FAA0
:10583000012803D0BDE8014002F039BB01BDEFF300
:10584000058010B16FF005007047DFF8BC110868E3
:1058500010B901220A6070474FF0FF307047000016
:1058600080B5EFF3058000B10FE0DFF89C0101681F
:10587000012909D10022DFF894110A700223036084
:1058800002F03BF8002002BD02E06FF0050002BD0F
:105890004FF0FF3002BDF8B584B000230393EFF35F
:1058A0000583002B3DD103003BD080251826002422
:1058B0005AB3136803B11C4693691BB11E0004D090
:1058C000392E02D21379DF0701D500202AE053696F
:1058D00003B19D089768D2F80CC087B1BCF15C0F8A
:1058E0001FD31269002A18BF002B1AD001920B4651
:1058F000029700962A46214601F0B8FE10E0BCF15E
:10590000000F04BF1269002A0BD103AB01930B46B1
:105910000096AAB2214601F0D1FE012801D0002054
:105920000390039805B0F0BD10B5EFF3058111B1F8
:105930006FF0050406E000280EBF6FF0030400249A
:1059400001F0B8FF204610BD2DE9F84F06460F467E
:10595000EFF3058018B16FF00500BDE8F28F002E5F
:1059600048BF6FF00300F8D4B8071446A3464CBFF5
:105970004FF00009B14602F042F8002582466FF070
:10598000020809E002F03BF8A0EB0A0083452CBFB7
:10599000ABEB000B4FF0000B5B466A46494600201C
:1059A00002F0D2F9012810D100983540054305EAEC
:1059B0000600F90703D5B04203D12846CDE70028F9
:1059C000FBD1002CDED14546F7E7002C0CBF454645
:1059D0006FF001050028DFD1EFE710B5EFF3058187
:1059E00011B16FF0050403E0002408B101F033FFAA
:1059F000204610BD4FF08051DFF820010160704754
:105A00000000000010E000E06C3900201FED00E015
:105A1000F8B514460025EFF305823ABB002818BFFD
:105A2000002923D0E4B1A368E26893B1502A1DD3C2
:105A30002269DAB1666901FB00F7BE4216D3009510
:105A400002F0E6FA050011D0002C14BF21680021F5
:105A50000AE0002A04BF2269002A07D162692AB934
:105A6000002202F0FAFAEDE702F031FD2846F2BD1D
:105A70007CB500F04CF87AB1002818BF00290FD08F
:105A800074B900946A4602F098FB012815D1009879
:105A9000A0B1FFF7AFFF11E0002818BF002902D125
:105AA0006FF003050AE00023224602F002FB012802
:105AB00004D014B16FF0010500E03546284676BDEC
:105AC0007CB500F024F87AB1002818BF00290FD067
:105AD00074B900936A4602F03FFC012814D1009883
